:10108F0000A8C0003F065B4F666D7D077F6F0008AD
:10109F0040014148BF86DBCFE6EDFD87FFEF763895
:0610AF00A55A020000003A
:1010D5008B108A118912E4FFAE051DEE60107810A1
:0F10E500E475F001120373120134620780EA22EE
:100EE4008F09780A7C007D007BFF7A1079AF7E0041
:100EF4007F0612010E121150EF702385090DAF40C9
:100F040005408F0E7B007A00790A7D051210D58F7B
:0F0F14000F7B007A00790A7D067C00121067229D
:100A3B008F09120003780A7C007D007E007F0A126A
:100A4B00010E851214851315D3E51594E7E514945F
:100A5B000340067514037515E7AE14AF157C007DC6
:100A6B006412019CAB07AE14AF157C007D0A12011A
:100A7B009C7C007D0A12019C8D1C8B1B75190A75C1
:100A8B001A0AAE14AF157C007D0A12019C8D1D7BDA
:100A9B000AAD097F0A1210B5E50924FE6011146036
:100AAB0012146013146014240470147F1880127FC6
:100ABB0081800E7F0F800A7FF080067FFF8002E42B
:050ACB00FF12118C2256
:10099F00E4F5087F05120E5ABF0105750801807B2B
:1009AF007F02120E5ABF0105750802806E7F041276
:1009BF000E5ABF010575080380617F01120E5ABFE1
:1009CF00010575080480547F03120E5AEF6401600D
:1009DF0008E4FF120E5ABF0105750805803D7F051B
:1009EF00120E5AEF640260307F02120E5AEF640249
:1009FF0060267F04120E5AEF6402601C7F01120EF4
:100A0F005AEF640260127F03120E5AEF64026008FD
:100A1F00E4FF120E5ABF0213E4F50885083FE4F510
:0C0A2F003EAF08120A3BAF08120EE42292
:10110F00E53F6011053EE53EC394014008E4F53E1E
:06111F00AF3F120EE422B6
:100FA0001210F47D07E4FF121164E4FF12118C7F2C
:100FB00098120FDA7F807E257D007C00120CF77B73
:100FC000FF7A09799F7F07120C7A7BFF7A11790FDC
:0A0FD0007F02120C7AE4FF020A3BD4
:0B002E00120FA0121192120F6280FB53
:09115B008B88898C88898F8889B2
:10083B0052007A868600868600868600868600862B
:09084B00860086860041006F0959
:03002B0002118639
:0611860053BCEFD20F3252
:0203890015431A
:10038B00200F03020532C20F90006EE0B40900404B
:10039B00030205149003A6F82828730203ED020349
:1003AB00C10203D30203FF0203C10203D3020416EB
:1003BB000203C10203D3AFBDEFFEADBE7C00E42D43
:1003CB00FFEC3E900070803CAFBDEFFEADBE7C00FD
:1003DB00E42DFFEC3E900072F0A3EFF0751E0102CE
:1003EB00051AAFBDEFFEADBE7C00E42DFFEC3E90D9
:1003FB0000748010AFBDEFFEADBE7C00E42DFFECB2
:10040B003E900076F0A3EFF002051AAFBDEFFEAD04
:10041B00BE7C00E42DFFEC3E900078F0A3EFF09053
:10042B000078E0FEA3E07807CEC313CE13D8F9A86B
:10043B0043F6C394065013A843E675F003A4247A3D
:10044B00F582E43400F583E014F090006FE014F0D3
:10045B00600302051A7409F0A843E4F6A843E6FF0B
:10046B00C39406400302051AEF75F003A4247AF532
:10047B0082E43400F583E0C39480502AE6FF75F0E4
:10048B0003A4247BF582E43400F583E0D39480400D
:10049B0040EF75F003A4247CF582E43400F58374FB
:1004AB0001F0F51F802BA843E6FF75F003A4247B16
:1004BB00F582E43400F583E0C394805014EF75F0BB
:1004CB0003A4247CF582E43400F5837402F0751FD9
:1004DB0001A843E6FF75F003A4247AF582E4340007
:1004EB00F583E0FEEF75F003A4247BF582E4340082
:1004FB00F583EEF0E675F003A4247AF582E434007C
:10050B00F5837486F00602046790006E74FFF0901A
:10051B00006EE0D39407400374FFF090006EE0048C
:07052B00F090115B93F5BC99
:030532000543225C
:02113400154361
:09113600A843A61FE4F51FE6FF23
:03113F0005432243
:02114200154353
:09114400A843A61EE4F51EE6FF17
:03114D0005432235
:100FDA008F9D75BC88439720D2AD90004574FFF071
:100FEA00A37403F0A37489F0A374FFF0A37411F03F
:100FFA00A37434F0A374FFF0A37411F0A37442F045
:01100A0022C3
:070003007B017A00797022F5
:100E5A00C3EF64809480403BD3EF64809485503321
:100E6A00EFFD3395E0FC90007C75F003ED1203670B
:100E7A00EC75F003A42583F583E0FE90007C75F001
:100E8A0003ED120367EC75F003A42583F583E4F000
:050E9A00AF06227F03FA
:010E9F002230
:10075200E4F5809000ACE0FFB40800505F900766BB
:10076200F828287302077E02078402078A0207908C
:100772000207960207A00207AA0207B4C2A3C2A2F6
:100782008016C2A3C2A2801AC2A3C2A2801EC2A3A2
:10079200C2A28022C2A3D2A2C2A1C2A08020C2A3AE
:1007A200D2A2C2A1D2A08016C2A3D2A2D2A1C2A0BA
:1007B200800CC2A3D2A2D2A1D2A08002D2A3C3EF44
:1007C2006480948850299000ACE0FF3395E0FE7479
:1007D200A32FF58274003EF583E0FF3395E0FE74AB
:1007E200932FF58274103EF583E493F580801E907A
:1007F20000ACE0FFB408133395E0FE74A32FF5823A
:1008020074003EF583E0F5808003E4F5809000A259
:10081200E0FF9000ACE004FEF0D3EF6480F8EE64F9
:1008220080984014E0D36480948850047408F022C5
:090832009000A1E09000ACF0225E
:1010F400E4F5937594FF5395F043960F90002A748A
:0B110400FFF0A37407F0A37452F02268
:091164009000A1EFF0A3EDF022D0
:1010B5009000A3EFF0A3EDF0A3EBF0A3E519F0A3E7
:1010C500E51AF0A3E51BF0A3E51CF0A3E51DF0224E
:06118C009000ABEFF02221
:100854004100000A4100290A41006D0A04280000F1
:100864000000012E004600670000FFFF8FFFC10D4E
:10087400C105C108C101C10E60240005FF000AFFC3
:10088400000AFF000AFF000AFF000AFF000AFF0037
:100894000AFF000AFF000AFF000AFF000AFF000A1D
:1008A4006036002AFF000AFF000AFF001FFF000A4B
:1008B400FF001FFF000AFF001FFF000AFF000AFFDE
:1008C400000AFF001FFF001FFF001FFF001FFF00A3
:0A08D4000AFF000AFF000AFF000AF5
:01000A0022D3
:03001F007F00223D
:100E1300438E805389F07BE07A2879017800901023
:100E23008F12034B120EA0EFF404F58A7BE07A28AD
:100E33007901780090108F12034B120EA0C3E49F28
:100E4300FFE49EFE74019DFDE49CFC7808120337C9
:070E53008F8CD28CD2A92282
:03000B00020DC122
:040DC100C0E0C0D0FE
:100DC500D5220A75224C300D02052ED20DA20372D2
:100DD5000450361524E5247030852624D207300AC0
:100DE50017E52760071527438F01801D538FFEC226
:100DF500B5D53015C20A80110525E525D3940640E1
:090E050008C203E52D6002D206CB
:050E0E00D0D0D0E0325D
:100D6E00300E47C20E90108F12034B7810120337BD
:100D7E008E418F42900003E0FEA3E0FFE4FCFD7B7A
:100D8E0019FAF9F8120207C006C007AE41AF42AB1E
:100D9E0007AA06E4F9F8D007D006120EA0780312BF
:100DAE000337900065EEF0A3EFF0900065E0FEA330
:020DBE00E0FF54
:010DC0002210
:09116D00900067E0FEA3E0FF2200
:09117600900067EEF0A3EFF022F7
:10000E0090006BEEF0A3EFF0900069ECF0A3EDF032
:01001E0022BF
:03002600C2B4223F
:03003B000208F7C1
:1008F700C0E0C083C082C0D075D000C004C005C0AE
:0309070006C00720
:10090A0030DF04C2DF807D30DA04C2DA807630D983
:10091A003DC2D9AFFBEFFEADEB7C00E42DFFEC3E10
:10092A0020000E900001F0A3EFF075DB11D20080D9
:10093A0053FE900001E0FCA3E0FDC3EF9DFFEE9C97
:10094A00A3F0A3EFF075DB00C200D20E803630D8D8
:10095A0033C2D8900067E07002A3E06022B2B4907C
:10096A000069E0FEA3E0F5EAEEF5FAA3E0FEA3E0F3
:10097A00FF90006AE02FF0900069E03EF08005C227
:04098A00B453DAFE8A
:10098E00D007D006D005D004D0D0D082D083D0E00E
:01099E003226
:06119200120E13D2AF2281
:100BEF003004047F0180027F00200A047E0180020E
:100BFF007E00EE5F6074E52FC39523506830023698
:100C0F00752701E52F131313541FAB31AA32A933E4
:100C1F00F58275830012014DFFE52F540704FEEF97
:100C2F00A806088002C333D8FC30D705753003807F
:100C3F002F753001802AAB31AA32A93375F002E546
:100C4F002FA4F58285F08312014DF527E52F75F05E
:100C5F0002A429F9EA35F0FA90000112014DF5309E
:0A0C6F00052FD20A22C204438F10A1
:010C79002258
:10066500900000E014F0701F740AF0D20590002984
:10067500E014F07012740AF0D20890006DE014F0E6
:100685007005740AF0D20190002AA3E0FAA3E0F9FC
:1006950012038390002DA3E0FAA3E0F912038390DF
:1006A5000039A3E0FAA3E0F9120383900045A3E023
:1006B500FAA3E0F9120383900054A3E0FAA3E0F94A
:1006C50012038390005DA3E0FAA3E0F9120383907F
:1006D500004BA3E0FAA3E0F9120383EF600C90004E
:1006E5001DA3E0FAA3E0F912038390004EA3E0FAFC
:1006F500A3E0F9120383EF600E900020A3E0FAA3B4
:10070500E0F9120383D20BE52CD394004016D52CC7
:100715003030090C900023A3E0FAA3E0F91203831B
:10072500D20C801D900051A3E0FAA3E0F9120383D7
:10073500EF600E900023A3E0FAA3E0F9120383D241
:0D0745000C900005A3E0FAA3E0F902038385
:100AD00090003FA3E0FAA3E0F9120383900042A341
:100AE000E0FAA3E0F9120383900033A3E0FAA3E055
:100AF000F9120383900008A3E0FAA3E0F91203833C
:100B0000900030A3E0FAA3E0F9120383EF600C90A9
:100B10000011A3E0FAA3E0F9120383900036A3E0EA
:100B2000FAA3E0F9120383EF600C900017A3E0FA38
:100B3000A3E0F9120383900048A3E0FAA3E0F912BE
:100B40000383EF600C90001AA3E0FAA3E0F912030C
:100B50008330060EC206900026A3E0FAA3E0F91245
:030B6000038322EA
:100F230090000BA3E0FAA3E0F912038390003CA323
:100F3300E0FAA3E0F9120383EF600C900014A3E03E
:100F4300FAA3E0F9120383900057A3E0FAA3E0F9B0
:0F0F530012038390005AA3E0FAA3E0F90203838C
:10103C00AF2BAE2AAD29AC2890006012035B900058
:10104C0064E52EF0E4F52BF52AF529F528F52E901C
:0B105C00000EA3E0FAA3E0F9020383FA
:100F6200300705C207120BEF300D05C20D120665E0
:100F7200300505C205120AD0300805C208120F2337
:100F8200300105C20112103CE52B2401F52BE4359A
:0E0F92002AF52AE43529F529E43528F5282228
:100C7A008B088A09890AEFB40C005070900C8DF821
:100C8A00282873020CB1020CB6020CBB020CC0027B
:100C9A000CC5020CCA020CCF020CD4020CD9020CED
:100CAA00DE020CE3020CE890000580359000088013
:100CBA003090000B802B90000E802690001180212E
:100CCA00900017801C900014801790001A801290D0
:100CDA00001D800D90002080089000238003900062
:0D0CEA0026E508F0A3E509F0A3E50AF022D5
:07117F007B017A0079602278
:1008DE0055008C0000000000000000000000000029
:0808EE00000001000000000001
:030023000205359E
:10053500C0E0C0F0C083C082C0D075D000C000C08C
:1005450001C002C003C004C005C006C00730993B06
:10055500C299900091E0FEA3E0FFC3900090E09F58
:1005650090008FE09E501F90008CE0FBA3E0FAA363
:10057500E0F9A3E475F0011201F185F082F583122B
:10058500014DF5998005900093E4F020980302064B
:100595004AC298300B09C20B900099E4F0A3F09081
:1005A5000097E0FEA3E0FFA3E0FCA3E0FDC39FEC02
:1005B5009E5077900094E0FBA3E0FAA3E0F98D82CA
:1005C5008C83E59912017A90009FE0FEA3E0FFC3BA
:1005D500ED9FEC9E5046900097E0FCA3E0FDEF9D5B
:1005E500EE9C503890009CE0FBA3E0FAA3E0F99064
:1005F5000099E0FEA3E0FFF5828E8312014DFD9088
:100605000094E0FBA3E0FAA3E0F98F828E83120148
:100615004D6D600890009974FFF0A3F090009AE08A
:1006250004F07006900099E004F0900097E0FEA3B6
:10063500E0FFC390009AE09F900099E09E400690ED
:10064500009B7401F0D007D006D005D004D003D0AC
:1006550002D001D000D0D0D082D083D0F0D0E0320B
:02112500154370
:0A11270090009BE0A843F6FFE4F0FF
:0311310005432251
:100CF7008F0B8E0A8D098C08759850438E40538E42
:100D0700FE53890FE47B04FAF9F890108F12034B16
:100D1700120292AB0BAA0AA909A808120292EFF4D1
:100D270004F58BE47B04FAF9F890108F12034B1249
:100D37000292AB0BAA0AA909A808120292C3E49F60
:100D4700FFE49EFE74019DFDE49CFC7808120324D9
:100D57008F8DC2ABD28ED2AC90004E74FFF0A374CD
:070D670011F0A37425F02236
:10100B00900094EBF0A3EAF0A3E9F0A3ECF0A3EDCE
:10101B00F090009FE53CF0A3E53DF090009CE53996
:10102B00F0A3E53AF0A3E53BF0D20BE490009BF084
:01103B002292
:10106700900093E0701F90008CEBF0A3EAF0A3E9E7
:10107700F0E4A3F0A3F0A3ECF0A3EDF0A37401F068
:08108700D2997F02227F0322AF
:0B115000900093E07002FF227F01225C
:03000000020B638D
:0C0B6300787FE4F6D8FD758143020BAAF0
:10003E00E709F608DFFA8046E709F208DFFA803EA4
:10004E0088828C83E709F0A3DFFA8032E309F60891
:10005E00DFFA8078E309F208DFFA807088828C83F9
:10006E00E309F0A3DFFA806489828A83E0A3F608AD
:10007E00DFFA805889828A83E0A3F208DFFA804C87
:10008E0080D280FA80C680D4806980F2803380105E
:10009E0080A680EA809A80A880DA80E280CA8033C7
:1000AE0089828A83ECFAE493A3C8C582C8CCC5833F
:1000BE00CCF0A3C8C582C8CCC583CCDFE9DEE7800F
:1000CE000D89828A83E493A3F608DFF9ECFAA9F08E
:1000DE00EDFB2289828A83ECFAE0A3C8C582C8CCE4
:1000EE00C583CCF0A3C8C582C8CCC583CCDFEADEFD
:1000FE00E880DB89828A83E493A3F208DFF980CC5F
:10010E0088F0EF60010E4E60C388F0ED2402B40457
:10011E000050B9F582EB2402B4040050AF232345FE
:06012E00822390008E7395
:10013400BB010689828A83E0225002E722BBFE02C9
:09014400E32289828A83E49322FC
:10014D00BB010CE58229F582E5833AF583E0225067
:10015D0006E92582F8E622BBFE06E92582F8E222B1
:0D016D00E58229F582E5833AF583E49322CB
:10017A00F8BB010DE58229F582E5833AF583E8F0BB
:10018A00225006E92582C8F622BBFE05E92582C867
:02019A00F2224F
:10019C00BC000BBE0029EF8DF084FFADF022E4CC47
:1001AC00F875F008EF2FFFEE33FEEC33FCEE9DEC10
:1001BC00984005FCEE9DFE0FD5F0E9E4CEFD22ED56
:1001CC00F8F5F0EE8420D21CFEADF075F008EF2FA0
:1001DC00FFED33FD4007985006D5F0F222C398FD91
:0501EC000FD5F0EA222E
:1001F100A3F8E0C5F025F0F0E582158270021583C1
:06020100E0C838F0E8221D
:10020700E88FF0A4CC8BF0A42CFCE98EF0A42CFC96
:100217008AF0EDA42CFCEA8EF0A4CDA8F08BF0A414
:100227002DCC3825F0FDE98FF0A42CCD35F0FCEB73
:100237008EF0A4FEA9F0EB8FF0A4CFC5F02ECD3938
:0F024700FEE43CFCEAA42DCE35F0FDE43CFC22A5
:1002560075F008758200EF2FFFEE33FECD33CDCC5F
:1002660033CCC58233C5829BED9AEC99E5829840E2
:100276000CF582EE9BFEED9AFDEC99FC0FD5F0D6BF
:10028600E4CEFBE4CDFAE4CCF9A88222B800C1B9E9
:100296000059BA002DEC8BF084CFCECDFCE5F0CB27
:1002A600F97818EF2FFFEE33FEED33FDEC33FCEB60
:1002B60033FB10D703994004EB99FB0FD8E5E4F91B
:1002C600FA227818EF2FFFEE33FEED33FDEC33FC08
:1002D600C933C910D7059BE99A4007EC9BFCE99AFC
:1002E600F90FD8E0E4C9FAE4CCFB2275F010EF2F41
:1002F600FFEE33FEED33FDCC33CCC833C810D70741
:100306009BEC9AE899400AED9BFDEC9AFCE899F87B
:0E0316000FD5F0DAE4CDFBE4CCFAE4C8F9220E
:100EA000C2D5E830E70FB2D5E4C39BFBE49AFAE47D
:100EB00099F9E498F8EC30E717B2D5120ED6120281
:100EC00092E4C39BFBE49AFAE499F9E498F880036E
:100ED00012029230D50DE4C39FFFE49EFEE49DFD17
:040EE000E49CFC2270
:10032400E8600FECC313FCED13FDEE13FEEF13FFB7
:03033400D8F122DB
:10033700E86010ECA2E713FCED13FDEE13FEEF13DC
:04034700FFD8F022C9
:10034B00E493FC740193FD740293FE740393FF22F8
:0C035B00ECF0A3EDF0A3EEF0A3EFF02215
:0C036700A42582F582E5F03583F58322A1
:10037300FAE6FB0808E6F925F0F618E6CA3AF6228B
:060383008A838982E47305
:100B6F0002002EE493A3F8E493A34003F68001F26E
:100B7F0008DFF48029E493A3F85407240CC8C33387
:100B8F00C4540F4420C8834004F456800146F6DF56
:100B9F00E4800B010204081020408090083BE47EA3
:100BAF00019360BCA3FF543F30E509541FFEE4934B
:100BBF00A360010ECF54C025E060A840B8E493A312
:100BCF00FAE493A3F8E493A3C8C582C8CAC583CA3D
:100BDF00F0A3C8C582C8CAC583CADFE9DEE780BEF5
:0108F6000001
:00000001FF
