:040000000200B83210
:03000B000209DB0C
:0100130032BA
:01001B0032B2
:03002300020A636B
:01002B0032A2
:01003300329A
:03003B00020BFCB9
:03004300020B238A
:100048000000E2FBEAF2802C0000E0FBEAF08024EA
:10005800E6B50202EBF62200E2B50202EBF222005C
:10006800E0B50202EBF02230F6E0A88220F5D3EAF0
:10007800C6F582228B822230F6E6A88220F5D98046
:01008800CFA8
:0301110002008960
:0500890012043480FEAA
:10011400E582900078F090005BE0FFBF2800501764
:1001240090005BEF04F0EF2433FFE43400FE900012
:1001340078E08F828E83F022AFF0AE83E582900068
:1001440079F0EEA3F0EFA3F0900079E0FDA3E0FED8
:10015400A3E0FF8D828E838FF0122C64FC60230D4C
:10016400BD00010E900079EDF0EEA3F0EFA3F08C4A
:1001740082C007C006C005120114D005D006D007FE
:1001840080D1900079EDF0EEA3F0EFA3F022AF83DD
:10019400E58290007CF0EFA3F090007E7410F07480
:1001A40027A3F0900080E4F090007EE0FEA3E0FF3F
:1001B4004E70012290007CE0FCA3E0FD9003D3EE9E
:1001C400F0EFA3F08C828D83C007C006122852ACD6
:1001D40082D006D007900081ECF0EC700C90008087
:1001E400E07006BE0114BF0011900081E02430F5D8
:1001F400821201149000807401F090007EE0FEA34E
:10020400E0FF90007CE0FCA3E0FD9003F7EEF0EF4C
:10021400A3F08C828D83C007C006122BB9E58285BA
:1002240083F0D006D00790007CF0E5F0A3F09003B3
:10023400D3740AF0E4A3F08E828F83122852AE8224
:10024400AF8390007EEEF0EFA3F00201ACE5829064
:100254000082F0E0FFC4540F902C8493F582C00711
:10026400120114D007740F5F902C8493F58202015D
:100274001475820D12011475820A12011490005B28
:10028400E0900352F090003375F00012147990005E
:100294005BE4F022902C9575F08012013C90005E96
:1002A400E0B401009200E433FE7F008E828F83125B
:1002B4000192902C9975F08012013C90005FE0B49B
:1002C40001009200E433FE7F008E828F831201923C
:1002D400902C9E75F08012013C90005CE0FE7F0043
:1002E4008E828F83120192902CA575F08012013CAE
:1002F40090005DE0FE7F008E828F83120192902C2D
:10030400AA75F08012013C900060E0FE7F008E82AE
:100314008F83120192120275902CB175F080120134
:100324003C121568120192902CB575F08012013CB4
:1003340090002BE0FEA3E0FF8E828F831201929047
:100344002CB975F08012013C90002DE0FEA3E0FF73
:100354008E828F83120192902CBD75F08012013C25
:1003640090006AE0FEA3E0FF8E828F831201921256
:100374000275902CC175F08012013C7F00EF24249B
:10038400F582E43400F583E0F582C007120251D00F
:10039400070FBF040040E6902CC675F08012013CA4
:1003A400900028E0FF7E008F828E83120192902CB1
:1003B400CA75F08012013C900063E0FE7F008E82DB
:1003C4008F83120192902CD075F08012013C12257B
:1003D400DF7E008E83120192120275902CD475F088
:1003E4008012013C7F00EF75F002A42464F582744E
:1003F4000035F0F583E0FDA3E0FE9003F774E8F028
:100404007403A3F08D828E83C007122BB91201925C
:1004140075822F120114D0070FBF030040C8902C1F
:10042400D875F08012013C12157F120192020275F8
:10043400120DF5121826121874120EA8AC82AD8390
:10044400AEF0FF9003C2742CF07401A3F09003C4C7
:10045400ECF0EDA3F0EEA3F0EFA3F09004B01225BE
:10046400F6120EA8AC82AD83AEF0FF90006CE0F8FB
:10047400A3E0F9A3E0FAA3E0FBECC398ED99EE9AAC
:10048400EF9B30E70302069190006C740A2CF0E4B1
:100494003DA3F0E43EA3F0E43FA3F0C007C006C0D0
:1004A40005C004121041E58290005EF012104BE585
:1004B4008290005FF0758207120EE6E58290005C80
:1004C400F0120F44E582D004D005D006D007900086
:1004D4005DF090005EE0900380F09003817401F081
:1004E400900382ECF0EDA3F0EEA3F0EFA3F0900004
:1004F4000175F000C007C006C005C0041219D9ABCD
:1005040082D004D005D006D00790005FE09003802D
:10051400F09003817401F0900382ECF0EDA3F0EE0F
:10052400A3F0EFA3F090000C75F000C007C006C064
:1005340005C004C0031219D9AA8290005CE0F582B8
:10054400C002121C60A982D002D003D004D005D00E
:1005540006D00790005DE0F8900380E9F0900381F5
:10056400E8F0900382ECF0EDA3F0EEA3F0EFA3F03B
:1005740090001775F000C007C006C005C004C00392
:10058400C0021219D9A982D002D003D004D005D058
:1005940006D007EB6019C002900064E0F8A3E0FA0B
:1005A40008B800010A900064E8F0EAA3F0D002EA77
:1005B4006019C002900066E0F8A3E0FA08B80001F0
:1005C4000A900066E8F0EAA3F0D002E96019C002DC
:1005D400900068E0F8A3E0FA08B800010A90006807
:1005E400E8F0EAA3F0D002EB30E108900062E063A7
:1005F400E001F0EA30E25AC007C006C005C004C0FA
:10060400011225DFE582D001D004D005D006D00741
:100614006019C007C006C005C004C0011225E6D099
:1006240001D004D005D006D0078026900060E09069
:1006340003CAF08C828D838EF0EFC007C006C0051C
:10064400C004C001122647D001D004D005D006D082
:1006540007E930E025900060E0900061F0900060D0
:100664007401F0C007C006C005C004C0011225E62D
:10067400D001D004D005D006D007E930E20F9000B5
:1006840061E06009900060E4F0900061F0C007C090
:1006940006C005C0041215B0AA82AB83D004D005ED
:1006A400D006D00790006AE0F8A3E0F9E8B50206A6
:1006B400E9B503028057C007C006C005C00412157F
:1006C400B0E5828583F0D004D005D006D007900031
:1006D4006AF0E5F0A3F0900022E4F090002DE0FA37
:1006E400A3E0FB0ABA00010B90002DEAF0EBA3F0A3
:1006F40090008375F000C007C006C005C004121442
:1007040029E582D004D005D006D00770E390038B8E
:10071400ECF0EDA3F0EEA3F0EFA3F090002275F05F
:1007240000C007C006C005C004121C71D004D00567
:10073400D006D00790008375F000C007C006C0053E
:10074400C004121429E582D004D005D006D0077065
:100754000302081C900083E0900392F0900393EC52
:10076400F0EDA3F0EEA3F0EFA3F090002275F000FB
:10077400C007C006C005C004121D50AB82D004D00F
:1007840005D006D007EB60AC900063E4F0BB0A32FE
:10079400900060E09003CAF08C828D838EF0EFC0ED
:1007A40007C006C005C004122647E582D004D00560
:1007B400D006D00760030207389000637401F0028A
:1007C4000738BB01028003BB0716C007C006C0057B
:1007D400C0041225E6D004D005D006D0070207389D
:1007E400BB080280030207389003C2745AF0E4A3E2
:1007F400F09003C4ECF0EDA3F0EEA3F0EFA3F090BF
:10080400044CC007C006C005C0041225F6D004D0AD
:1008140005D006D0070207388C828D838EF0EFC096
:1008240007C006C005C0041226BA12187BD004D033
:1008340005D006D007900074E0F8A3E0F9A3E0FA2D
:10084400A3E0FBECC398ED99EE9AEF9B30E703022B
:10085400099D90007474322CF0E43DA3F0E43EA3AF
:10086400F0E43FA3F0C007C006C005C0041211990C
:10087400D004D005D006D007900062E0702CFB8B2A
:100884000290033F74312AF08B82C007C006C00572
:10089400C004C0031211AED003D004D005D006D0DA
:1008A400070BBB080040D802093890033F7455F089
:1008B400758200C007C006C005C0041211AED00482
:1008C400D005D006D007900028E0900341F0E4A3BF
:1008D400F09003437403F0758201C007C006C0059D
:1008E400C0041211DDD004D005D006D00790033F18
:1008F4007441F0758204C007C006C005C00412111B
:10090400AED004D005D006D00790005CE0FA7B009E
:10091400900341EAF0EBA3F09003437403F0758273
:1009240005C007C006C005C0041211DDD004D005FF
:10093400D006D007900060E060027480FB90005EF7
:10094400E060027401420390005FE06002740242BE
:100954000390005DE0602590005CE0F582C007C074
:1009640006C005C004C003121C60E582D003D00495
:10097400D005D006D00760047A0480027A00EA42E7
:10098400038B82C007C006C005C00412127712127E
:1009940083D004D005D006D007900070E0F8A3E01F
:1009A400F9A3E0FAA3E0FBECC398ED99EE9AEF9B70
:1009B40030E70302046590007074F42CF074013D78
:1009C400A3F0E43EA3F0E43FA3F01202980204650E
:102C8400303132333435363738394142434445469E
:102C9400004B313D00204B323D0020414443373D41
:102CA40000206F6B3D00206C6F636B3D0052583DFC
:102CB4000020463D0020453D00204F3D00726177D5
:102CC4003D0020433D002072656A3D00204D3D00DB
:082CD40065763D0020443D003F
:1009D400758CD4758ACD22C0E0C0F0C082C083C0BB
:1009E40007C006C005C004C0D0E4F5D0F580E50A10
:1009F400700CE5096008E50914F50875090053A0B1
:100A0400F0E50A42A0E50875F009A4241BFE740170
:100A140035F0FFE50A2EF582E43FF583E0F580E545
:100A24000A04FF8F0ABF0903750A00900084E0FCE2
:100A3400A3E0FDA3E0FEA3E0FF90008474012CF08A
:100A4400E43DA3F0E43EA3F0E43FA3F0D0D0D0040F
:100A5400D005D006D007D083D082D0F0D0E032C009
:100A640022C0E0C0F0C082C083C007C006C005C079
:100A740004C003C002C001C000C0D075D0001098EB
:100A8400028046900333E599F0900088E004543FD7
:100A9400FF900089E0FEEFB5061590008EE0FDA3FF
:100AA400E0FE90008E74012DF0E43EA3F0801A90D5
:100AB4000088E02492FEE43400FD900333E0FC8ED1
:100AC400828D83F0900088EFF010990280329003B9
:100AD40024E070269003A37434F07403A3F0E4A319
:100AE400F090012EF5F0122283E582600D90008CC7
:100AF400E4F0900334E0F599800690008C7401F0E2
:100B0400D0D0D000D001D002D003D004D005D0067C
:100B1400D007D083D082D0F0D0E0D02202008EC0A3
:100B240022C0E0C0F0C082C083C007C006C005C0B8
:100B340004C003C002C001C000C0D075D000E59A53
:100B440030E05C539AFE900335E59BF0900325E07A
:100B5400FEA3E0FF90032574012EF0E43FA3F09080
:100B6400008AE004543FFF90008BE0FEEFB50615C9
:100B7400900090E0FDA3E0FE90009074012DF0E45D
:100B84003EA3F0801A90008AE024D2FEE43400FDF3
:100B9400900335E0FC8E828D83F090008AEFF0E5BF
:100BA4009A30E135539AFD900324E070269003A314
:100BB4007436F07403A3F0E4A3F0900229F5F01264
:100BC4002283E582600D90008DE4F0900336E0F519
:100BD4009B800690008D7401F0D0D0D000D001D05D
:100BE40002D003D004D005D006D007D083D082D061
:100BF400F0D0E0D02202008EC0E0C0F0C082C083FA
:100C0400C007C006C005C004C003C002C001C0D0F4
:100C140075D000E5D820E103020D32900337E5EBEF
:100C2400F0AFFB7E00E07D004206ED420790032B0F
:100C3400E0FCA3E0FD900338EEC39CF0EF9DA3F02D
:100C440090032BEEF0EFA3F053D8FD900338E0FEB1
:100C5400A3E0FFC3EE94F8EF942A401F74B09E748F
:100C6400369F401790032DE4F0A3F0A3F0A3F09077
:100C74000331F090033204F0020D32900332E0703D
:100C840003020D32C3EE94BCEF9402401174789EBB
:100C940074059F4009900331E02401F08056C3EEAF
:100CA4009440EF9406404474C49E74099F403C9061
:100CB4000331E0FF8FF005F07B017C007D007E00B6
:100CC400800CEB2BFBEC33FCED33FDEE33FED5F067
:100CD400F190032DE04BF0A3E04CF0A3E04DF0A322
:100CE400E04EF0900331EF04F08009900332E4F019
:100CF400900331F0900331E0FFBF203290032DE0E8
:100D0400FCA3E0FDA3E0FEA3E0FF8C038D028E01B3
:100D1400BB5016BAAF1374FF69FEEFB5060B900310
:100D240029E9F090032A7401F0900332E4F0E5D845
:100D340030E70353D87FD0D0D001D002D003D00401
:100D4400D005D006D007D083D082D0F0D0E0325383
:100D5400B1BF53B2BFD2B674CF55A24410F5A27539
:100D6400D80075D90075DB1190032BE4F0A3F09043
:100D7400032DF0A3F0A3F0A3F090032AF090033224
:100D8400F0900331F0F5E9F5F943D8402253BAFE67
:100D940053A23F5391FC5392FC43900375985075B2
:100DA4009A5075D6FE75D7E0438E1590008BE4F00B
:100DB40090008AF0900089F0900088F090008D04F3
:100DC400F090008CF0900090E4F0A3F090008EF08E
:100DD400A3F0900325F0A3F0D2AC43AF0122438EDD
:100DE400805389F01209D4C28DD2A943B802D28C9F
:100DF40022C2AF75A80075AF0075B800900084E4F6
:100E0400F0A3F0A3F0A3F0F5937594FFF580F591AA
:100E1400F5927590FFF59575960875A0F0F5B17586
:100E2400B21043B00C53B3E743B41853C0E753C9EB
:100E3400CF53CACF43C830D2B2D2B3D292D2A4D203
:100E4400A5D2A6C295D2CCC296D2C0D2CDC2A37F1F
:100E540000EF2413F582E43401F583E4F00FBF08B6
:100E64000040EE90012DE4F0F50AF509F508FFEFD6
:100E7400241BF582E43401F583E4F0EF2424F582A5
:100E8400E43401F583E4F00FBF090040E275BCA02F
:100E9400900112E4F01213C8120D91120D53120DA9
:100EA400E2D2AF22A2AF9201C2AF900084E0FCA3D1
:100EB400E0FDA3E0FEA3E0FFA20192AF8C828D834C
:100EC4008EF0EF22E58290033AF0E0FF8F061F9048
:100ED400033AEFF0EE600500000080F090033AEF73
:100EE400F022E58290033BF0E053E007F090033BEF
:100EF400E0FF8FF005F07401800225E0D5F0FBFEE1
:100F0400429174FF6E529274A04FF5BC7582141214
:100F14000EC843BC087E887F13E5BC20E4151EBEC2
:100F2400FF011FEE4F70F275BCA0900112E4F07542
:100F340082002253BCEF9001127401F085BD82221D
:100F4400900112E0F58222E58290033CF0902CDCC3
:100F5400E493FF90033CE0FEC39F40049000002212
:100F6400902CE2E493C39E40049001F4228E077E09
:100F740000EE902CDC93FDC39F50030210348E04CA
:100F8400EC04902CDC93FBC3EF9B50030210340C55
:100F9400C2D575F002EC30E704B2D5F404A430D520
:100FA4000AF42401C5F0F43400C5F024E3F5827496
:100FB4002C35F0F583E493FAA3E493FBEE75F00289
:100FC400A424E3F582742C35F0F583E493F8A3E4C8
:100FD40093F9EAC398FAEB99FBEC902CDC93FCEDC3
:100FE400C39CF50B8D0C750D008F047D00E50CC3BF
:100FF4009CFCE50D9DFD9003F1EAF0EBA3F08C82DF
:101004008D83C001C000122B2DAC82AD839003D31D
:10101400E50BF0E4A3F08C828D83122852AC82ADF0
:1010240083D000D001EC28F8ED39F9888289832235
:101034000EBE06005003020F759000FA22A2B2B34E
:101044009202E433F58222A2B3B39203E433F5822D
:1010540022E58290033DF0E0F582021C60A292B387
:101064009204E433F58222A2A4B39205E433F58218
:1010740022E58290033EF0E0FFBF3000400FEF24F2
:10108400C6400AEF24D0902CF193F5822290033EBF
:10109400E0FFBF2D005003021195EF248650030298
:1010A4001195EF24D3FF240A83F582EF245183F5AD
:1010B40083E4738D959595959595959595959595C9
:1010C400959595959595955155595D616595699554
:1010D40095956D959571759579817D85959595898C
:1010E400959595959591955155595D616595699538
:1010F40095956D959571759579817D85959595896C
:1011040011111111111111111111111111111111CB
:1011140011111111111111111111111111111111BB
:1011240011111111111111111111111111111111AB
:10113400111111111111111111111111111111119B
:101144001111111111111111111111111175827750
:101154002275827C227582392275825E227582799B
:101164002275827122758276227582382275825C9C
:101174002275827322758250227582782275826D5F
:101184002275823E2275826E227582402275820803
:1011940022758200227F00EF2413F582E43401F5E6
:1011A40083E4F00FBF080040EE22E582900340F094
:1011B400E0FFBF08005021EF2413FFE43401FE9048
:1011C400033FE0F582C007C006121075AD82D00659
:1011D400D0078F828E83EDF022E582900344F0E005
:1011E400FF900343E0FE7D00C3ED9E400122EE2FFD
:1011F40014C39DFCBC08005046EC2413FCE43401E9
:10120400FB900341E0F9A3E0FA9003F7740AF0E4D9
:10121400A3F089828A83C007C006C005C004C00346
:10122400122BB9A982743029F582121075AA82D0C2
:1012340003D004D005D006D0078C828B83EAF090CB
:101244000341E0FBA3E0FC9003D3740AF0E4A3F0B1
:101254008B828C83C007C006C005122852AB82ACB7
:1012640083D005D006D007900341EBF0ECA3F00D3A
:101274000211ECE582900345F0E090012DF022E5A7
:101284000960012274016508FF75F009A4FDAEF040
:101294007C00ED241BFAEE3401FBEC2AFAE43BFB60
:1012A400EC2413F582E43401F583E08A828B83F025
:1012B4000CBC080040DCED241BFDEE3401FE740878
:1012C4002DFDE43EFE90012DE08D828E83F0EF042F
:1012D400F50922AF83E582900346F0EFA3F0900373
:1012E40046E0FEA3E0FF900346E0F5F0A3E045F0FE
:1012F40070030213C8900327E0FCA3E0FDEEB504DD
:1013040008EFB50504308E0122900346E0FCA3E00B
:10131400FDE4FEFFEC2CFCED33FDEE33FEEF33FF7A
:101324009003E3ECF0EDA3F0EEA3F0EFA3F090C094
:101334000075F0A8E4122A1EAC82AD83AEF0FF90D3
:101344000348ECF0EDA3F0EEA3F0EFA3F0C3EC94AC
:1013540001ED9400EE9400EF9400500D9003487456
:1013640001F0E4A3F0A3F0A3F0900348E0FDA3E0B0
:10137400FEA3E0FFC374FF9D74FF9EE49F500D9095
:10138400034874FFF0A3F0E4A3F0A3F0900348E053
:10139400FEA3E0FFC3E49EFEE49FFFC28EC2AB53F4
:1013A4008FFD438E4053890F8F8D8E8BC28F438F59
:1013B40002D28E900346E0FEA3E0FF900327EEF0F6
:1013C400EFA3F022C28EC2AB538FFDC2B4900327A9
:1013D400E4F0A3F022AFF0AE83E58290034CF0EE8C
:1013E400A3F0EFA3F0900088E0FF900089E0FEEF07
:1013F400B506047582002290034CE0FDA3E0FEA331
:10140400E0FF900089E02492F582E43400F583E063
:101414008D828E838FF0122B12900089E004543F4A
:10142400F075820122AFF0AE83E58290034FF0EEB7
:10143400A3F0EFA3F090008AE0FF90008BE0FEEFB2
:10144400B506047582002290034FE0FDA3E0FEA3DD
:10145400E0FF90008BE024D2F582E43400F583E0D1
:101464008D828E838FF0122B1290008BE004543FF8
:10147400F075820122AFF0AE83E582900353F0EE63
:10148400A3F0EFA3F0900353E0FDA3E0FEA3E0FF7D
:10149400900352E0900356F0900357E4F08D828E4F
:1014A400838FF00214AAAFF0AE83E582900358F064
:1014B400EEA3F0EFA3F09003247401F0900358E03E
:1014C400FDA3E0FEA3E0FF900356E0FC900357E089
:1014D400FB90039BEDF0EEA3F0EFA3F090039EECE2
:1014E400F090039FEBF090012E75F00012205EAF98
:1014F40082900324E4F090008CE06002D299900082
:101504008DE06003439A028F8222AFF0AE83E582BE
:1015140090035CF0EEA3F0EFA3F09003247401F0C9
:1015240090035CE0FDA3E0FEA3E0FF90035BE0FC1E
:1015340090039BEDF0EEA3F0EFA3F090039EECF08C
:1015440090039FE4F0900229F5F012205E900324AA
:10155400E4F090008CE06002D29990008DE060038A
:10156400439A0222A2AF9206C2AF900325E0FEA3E3
:10157400E0FFA20692AF8E828F8322900227E0FEC4
:10158400A3E0FF900322E0FCA3E0FDEC2EFEED3F80
:101594008E82F58322A2AF9207C2AF90008EE0FE46
:1015A400A3E0FFA20792AF8E828F8322A2AF92089C
:1015B400C2AF900090E0FEA3E0FFA20892AF8E823B
:1015C4008F8322AFF0AE83E58290035FF0EEA3F049
:1015D400EFA3F090032AE07003F58222A2AF9209F0
:1015E400C2AF90035FE0FDA3E0FEA3E0FF900329F8
:1015F400E08D828E838FF0122B1290032AE4F0A2E6
:071604000992AF758201227B
:102CDC00C4AB8E8071584300006400C800FA002C0D
:0F2CEC00019001F4013F065B4F666D7D077F6F1E
:10160B00E582900362F0E0B4010092C322E5829080
:10161B000363F0E0B4010092C422758205020EC888
:10162B0075820012161812162575820112160B12EE
:10163B0016257582011216181216257582001216C0
:10164B000B121625758200121618021625758200CC
:10165B0012161812162575820012160B1216257506
:10166B00820112161812162575820112160B02161C
:10167B0025E582900364F07F00900364E0FE7480A4
:10168B005EF582C007C00612160B12162575820175
:10169B00121618121625758200121618121625D05E
:1016AB0006D007EE2E900364F00FBF080040CA75FA
:1016BB00820112160B1216257582011216181216BC
:1016CB0025758200121618021625E582900365F027
:1016DB0012162B75827812167C75820012167C906E
:1016EB000365E0F58212167C021658E582900367BB
:1016FB00F0E024B0F5821216D5900366E0FF740F6C
:10170B005FF582C0071216D5D007EFC4540FFF4305
:10171B0007108F820216D5E582900375F090037641
:10172B00E4F0900375E0FFBF0C34900373E0FE60B0
:10173B0003BE7F047DFF8023900374E0FCE0700404
:10174B007B018015BC07047C80800CEE30E3047EAB
:10175B00AA80027E558E048C038B058D8222BF0CD2
:10176B0000500F900373E0FEBE20004005BE6000EA
:10177B004004758200227D00EE24E0FEED34FFA2D2
:10178B00E713CE13CEA2E713CE13CE8EF005F07E69
:10179B00007D808007C3ED13FDEE13FED5F0F6EF51
:1017AB0075F020A424FBFC742C35F0FF900374E03F
:1017BB00FBF97A0029F9EA33FAE929F9EA33FAE96C
:1017CB002CF582EA3FF583E493FCA3E493FFEE52FE
:1017DB0004ED5207EC4F6006900376740FF0900304
:1017EB0075E075F020A424FBFC742C35F0FFEB2B7B
:1017FB00FB0BEB2B2CF582E43FF583E493FCA3E48A
:10180B0093FFEC5206EF5205EE4D6008900376E025
:10181B0043E0F0F0900376E0F58222758201121618
:10182B000B758201121618120EA8AC82AD83AEF0A6
:10183B00FF90036F74C82CF0E43DA3F0E43EA3F0DB
:10184B00E43FA3F090036DE4F090036EF090036916
:10185B0014F090036CE4F0758200021868E5829036
:10186B000377F0E0900368F022900368740CF02289
:10187B0090036EE07072120EA8AC82AD83AEF0FFD7
:10188B0090036FE0F8A3E0F9A3E0FAA3E0FBECC34D
:10189B0098ED99EE9AEF9B30E7012290036DE07083
:1018AB002775820112160B7F00758200C007121676
:1018BB0018121625758201121618121625D0070F4D
:1018CB00BF090040E412165890036DE0FF04F0EFDF
:1018DB00902E7B93F5821216D590036DE0FFBF1807
:1018EB000690036E7401F02290036CE0702290035B
:1018FB0069E0FF900368E0FEEFB5060122900369F3
:10190B00EEF090036BE4F090036AF090036C04F03C
:10191B0090036BE0700F90036AE0FF900366E4F0B6
:10192B008F821216F612162B75827812167C758220
:10193B004012167C7F00900369E0FE90036BE0FD84
:10194B0004F090036AE0FC900373EDF0900374ECE9
:10195B00F08E82C00712172212167CD0070FBF1011
:10196B000040D312165890036BE0FFBF801C90030E
:10197B006BE4F090036AE02401F0E0FFBF080B90EA
:0B198B00036CE4F07582AF0216D52259
:102CFB001008381C6C36C66303C00180999981811A
:102D0B0001802184C183018003C00660FC3F000069
:102D1B001008381C6C36C66303C00180A5A59999B1
:102D2B00018081814182218483C10660FC3F0000C8
:102D3B001008381C6C36C66303C00180B99DA5A56D
:102D4B00018081814182418283C10660FC3F00008A
:102D5B001008381C6C36C66303C00180A5A5999971
:102D6B00018049922189499203C00660FC3F000013
:102D7B001008381C6C36C66303C001800180F99FB4
:102D8B0001808181C183018003C00660FC3F00008C
:102D9B001008381C6C36C66303C001809999818179
:102DAB00218441828181218403C00660FC3F400263
:102DBB001008381C6C36C66303C001818999818168
:102DCB00018041822184018003C40666FC3F180CFC
:102DDB008001C003E007B00D801980318061FFFFD7
:102DEB00FFFF806180318019B00DE007C0038001C7
:102DFB008001C003E007B00D800180018001FFFF5F
:102E0B00FFFF86618C319819B00DE007C00380017C
:102E1B00800180038007FF0FFF1FFF3FFF7FFFFF36
:102E2B00FFFFFF7FFF3FFF1FFF0F80078003800126
:102E3B008001C001E001F0FFF8FFFCFFFEFFFFFF88
:102E4B00FFFFFEFFFCFFF8FFF0FFE001C001800178
:102E5B00018003C006600C301818300C6006C003EC
:102E6B00C0036006300C18180C30066003C00180DC
:102E7B00AED580A83FD300408D142002A1C8DA1232
:082E8B00817FD9F1DB40A4A610
:10199600AF82AE83ADF0FC90037CEFF0EEA3F0EDEA
:1019A600A3F0ECA3F0900378E0FCA3E0FDA3E0FE37
:1019B600A3E0FF90037CE0F8A3E0F9A3E0FAA3E03C
:1019C600FBE8C39CE99DEA9EEB9F33B3920AE4339E
:1019D600F58222AFF0AE83E582900386F0EEA3F0A7
:1019E600EFA3F0900389E4F0900381E0703D90034B
:1019F60086E0FDA3E0FEA3E0FF74032DFDE43EFEBA
:101A0600900382E0F9A3E0FAA3E0FBA3E0FC8D8259
:101A16008E838FF0E9122B12A3EA122B12A3EB127C
:101A26002B12A3EC122B1275820022900386E0FD86
:101A3600A3E0FEA3E0FF74012DFAE43EFB8F048AC7
:101A4600828B838CF0122C64F9900380E0F8B50148
:101A56000280388A828B838CF0E8122B1274032D55
:101A6600FDE43EFE900382E0F9A3E0FAA3E0FBA3C7
:101A7600E0FC8D828E838FF0E9122B12A3EA122BE3
:101A860012A3EB122B12A3EC122B12900386E0FD8D
:101A9600A3E0FEA3E0FF74012DFAE43EFB8F048A67
:101AA600828B838CF0122C64FC8D018E028F03894D
:101AB600828A838BF0122C64F8ECB50003021BAB10
:101AC600C001C002C003900382E0F523A3E0F52421
:101AD600A3E0F525A3E0F52674032DF8E43EFB8F7D
:101AE6000288828B838AF0122C64F8A3122C64F984
:101AF600A3122C64FAA3122C64FB900378741E289C
:101B0600F0E439A3F0E43AA3F0E43BA3F0852382A2
:101B16008524838525F0E526C007C006C005C004D8
:101B2600C003C002C001121996E582D001D002D0CE
:101B360003D004D005D006D007D003D002D0016070
:101B46006489828A838BF0EC122B12604074072D15
:101B5600FAE43EFB8F048A828B838CF0E523122BFA
:101B660012A3E524122B12A3E525122B12A3E526B8
:101B7600122B1274022DFAE43EFB8F048A828B83A9
:101B86008CF0E4122B1290038904F0801874022D55
:101B9600FDE43EFE8D828E838FF0122C64700690DB
:101BA60003897402F0900386E0FDA3E0FEA3E0FF44
:101BB6008D028E038F048A828B838CF0122C6470C4
:101BC60003021C5974022DFAE43EFB8F048A828BB1
:101BD600838CF0122C64707BC002C003C004900397
:101BE60082E0F8A3E0F9A3E0FBA3E0FC74072DFD77
:101BF600E43EFE8D828E838FF0122C64FDA3122CA0
:101C060064FEA3122C64FFA3122C64FA900378746A
:101C1600B02DF074043EA3F0E43FA3F0E43AA3F041
:101C2600888289838BF0ECC004C003C00212199627
:101C3600E582D002D003D004D004D003D0026013D2
:101C46008A828B838CF07401122B12900389E043F5
:101C5600E004F0900389E0F58222E58290038AF0A1
:101C6600E024E3B3920BE433F58222AFF0AE83E5D2
:101C76008290038FF0EEA3F0EFA3F090038FE0FDC8
:101C8600A3E0FEA3E0FF8D028E038F048A828B837E
:101C96008CF0122C64700122C002C003C0049003B1
:101CA6008BE0F527A3E0F528A3E0F529A3E0F52AC4
:101CB600740D2DFCE43EFA8F038C828A838BF0121E
:101CC6002C64F9A3122C64FAA3122C64FBA3122C25
:101CD60064FC900378746429F0E43AA3F0E43BA32F
:101CE600F0E43CA3F08527828528838529F0E52A40
:101CF600C007C006C005C004C003C002121996E59D
:101D060082D002D003D004D005D006D007D004D0AC
:101D160003D00260348A828B838CF0E4122B127417
:101D26000B2DFDE43EFE8D828E838FF0122C64FB1C
:101D3600A3122C64FC0BBB00010C8D828E838FF0EA
:101D4600EB122B12A3EC022B1222AFF0AE83E5822C
:101D5600900397F0EEA3F0EFA3F090039AE4F090CF
:101D66000397E0FDA3E0FEA3E0FF900393E0F52BCD
:101D7600A3E0F52CA3E0F52DA3E0F52E90038BE56B
:101D86002BF0E52CA3F0E52DA3F0E52EA3F08D8234
:101D96008E838FF0121C71900397E0FDA3E0FEA3E3
:101DA600E0FF740D2DF8E43EFB8F0488828B838C54
:101DB600F0E52B122B12A3E52C122B12A3E52D1204
:101DC6002B12A3E52E122B1274072DFAE43EFB8F7D
:101DD600048A828B838CF0122C64F8A3122C64F98B
:101DE60008B80001098A828B838CF0E8122B12A3B3
:101DF600E9122B128D028E038F0474022DFDE43E30
:101E0600FE7900C002C003C004E92DF52BE43EF5BF
:101E16002C8F2D8902EA042DFAE43EFB8F048A8278
:101E26008B838CF0122C64852B82852C83852DF078
:101E3600122B1209B90300D004D003D00240C47497
:101E4600052AFDE43BFE8C07900392E0F98D828E15
:101E5600838FF0122B128A2F8B308C31852F82853F
:101E660030838531F0122C64F824FC500302204A9A
:101E7600E82828901E7D73021E89021EA2021F03F7
:101E8600021F92B9A5028003022057852F82853052
:101E9600838531F07401122B12022057B95A11852D
:101EA6002F828530838531F07402122B120220575F
:101EB600740B2AF52BE43BF52C8C2D852B82852C77
:101EC60083852DF0122C64FDA3122C64FF0DBD003A
:101ED600010F852B82852C83852DF0ED122B12A305
:101EE600EF122B12B9A504780180027800852F82A3
:101EF6008530838531F0E8122B12022057B9010094
:101F06004029E924F3402474012AF8E43BFE8C07B7
:101F160088828E838FF0E9122B12852F828530837B
:101F26008531F07403122B12022057900397E0F5C7
:101F36002BA3E0F52CA3E0F52D740B252BF532E44D
:101F4600352CF533852D348532828533838534F0FF
:101F5600122C64FDA3122C64FF0DBD00010F853207
:101F6600828533838534F0ED122B12A3EF122B12E8
:101F7600AD2BAE2CAF2DB9A5047801800278008D6B
:101F8600828E838FF0E8122B1202205774012AFDED
:101F9600E43BFE8C078D828E838FF0122C64FF74D7
:101FA600FF6FFEE9B5065B90039AEFF074092AF518
:101FB60032E43BF5338C348532828533838534F0C5
:101FC600122C64FEA3122C64FD0EBE00010D853298
:101FD600828533838534F0EE122B12A3ED122B1279
:101FE60074062AF8E43BFD8C0688828D838EF0EF1A
:101FF600122B12852F828530838531F0E4122B1245
:10200600804F740B2AFAE43BFB8A828B838CF01296
:102016002C64FEA3122C64FF0EBE00010F8A828B75
:10202600838CF0EE122B12A3EF122B12B9A5047FAC
:102036000180027F00852F828530838531F0EF1283
:102046002B12800D852F828530838531F0E4122B8B
:102056001290039AE0F58222AFF0AE83E5829003F8
:10206600A0F0EEA3F0EFA3F09003A0E0F53DA3E00F
:10207600F53EA3E0F53F74A4253DFAE4353EFBACFE
:102086003F8A828B838CF0122C64F540045403F84B
:1020960090039EE0F53C6006E53C24D7504D900346
:1020A600A0E0F53DA3E0F53EA3E0F53F74F9253D3C
:1020B600F53DE4353EF53E853D82853E83853FF020
:1020C600122C64F540A3122C64F5410540E4B5409A
:1020D600020541853D82853E83853FF0E540122B12
:1020E60012A3E541122B127582002290039FE07025
:1020F6000302218474A5253DF9E4353EFEAF3F89F0
:10210600828E838FF0E540122B1274D0253DF54563
:10211600E4353EF546853F4790039BE0F542A3E054
:10212600F543A3E0F5447900C3E9953C502FE92532
:1021360045F548E43546F54985474AE92542FDE433
:102146003543FEAF448D828E838FF0122C64854812
:1021560082854983854AF0122B120980CB9003A011
:10216600E0FDA3E0FEA3E0FF74F82DFDE43EFE8D46
:10217600828E838FF0E53C122B127582012274A5A4
:10218600253DFDE4353EFEAF3F8D828E838FF012F6
:102196002C64FDE8B5053B74F9253DF548E4353E6C
:1021A600F549853F4A854882854983854AF0122C40
:1021B60064F9A3122C64FF09B900010F85488285D2
:1021C6004983854AF0E9122B12A3EF122B1275826E
:1021D6000022AD3DAE3EAF3F8A458B468C4790030D
:1021E6009BE0F548A3E0F549A3E0F54A7900C3E989
:1021F600953C5047C0008545828546838547F01249
:102206002C6475F028A42DF8E43EFB8F04E928F52C
:1022160042E43BF5438C44E92548FAE43549FBACF6
:102226004A8A828B838CF0122C6485428285438392
:102236008544F0122B1209D00080B39003A0E0FD74
:10224600A3E0FEA3E0FF74A02DFAE43EFB8F047426
:10225600A42DFDE43EFE8D828E838FF0122C642A1F
:10226600FAE43BFB8A828B838CF0E53C122B128DC1
:10227600828E838FF0E8122B1275820122AFF0AEA8
:1022860083E5829003A6F0EEA3F0EFA3F09003A6F9
:10229600E0FDA3E0FEA3E0FF74CE2DFAE43EFB8F43
:1022A600048A828B838CF0122C64FA74CF2DF5434A
:1022B600E43EF5448F458543828544838545F01287
:1022C6002C64F8EAB50002800302248A74F82DF81B
:1022D600E43EFA8F0488828A838CF0122C64F53CE3
:1022E600700302238A8543828544838545F0E53C55
:1022F600122B128D3D8E3E8F3F854340854441858E
:102306004542753C008540828541838542F0122C0A
:1023160064F8C3E53C98504E74A6253DF543E43574
:102326003EF544853F45E53C2543F543E43544F514
:102336004474D0253DF546E4353EF547853F48E5EE
:102346003C2546F546E43547F5478546828547836D
:102356008548F0122C648543828544838545F012B6
:102366002B12053C809F74F8253DF546E4353EF575
:1023760047853F488546828547838548F0E4122B8A
:102386001202246E74A52DF8E43EFA8F0488828A20
:10239600838CF0122C64F54674A42DFAE43EFB8F70
:1023A600048A828B838CF0122C64B5460302246A5D
:1023B60074A02DF8E43EFA8F04E54628F8E43AFACC
:1023C60088828A838CF0122C6485438285448385B7
:1023D60045F0122B12AA43AB44AC4579008A828B96
:1023E600838CF0122C64F8C3E998505AC002C003DB
:1023F600C00474A62DF8E43EFB8F04E928F546E4F4
:102406003BF5478C4874A52DFAE43EFB8F048A827F
:102416008B838CF0122C6475F028A42DFAE43EFB15
:102426008F04E92AFAE43BFB8A828B838CF0122C18
:10243600648546828547838548F0122B1209D004AD
:10244600D003D002809774A52DFDE43EFE8D828ECA
:10245600838FF0122C640454038D828E838FF012C6
:102466002B128004758200229003A6E0FDA3E0FEF5
:10247600A3E0FF74CE2DFDE43EFE8D828E838FF0A9
:10248600E4122B129003A3E0F546A3E0F547A3E080
:10249600F5489003A6E0FAA3E0FBA3E0FC74A62AA5
:1024A600F8E43BF98C0774CE2AFAE43BFB8A828B6C
:1024B600838CF0122C64FE048A828B838CF0122BA0
:1024C60012EE28F8E439F9888289838FF0122C6499
:1024D6008546828547838548F0122B127582012234
:1024E600E5829003ACF0E0FC7D007E007F00900367
:1024F600F3ECF0EDA3F0EEA3F0EFA3F0903A98F52D
:10250600F0122B4D85823585833685F037F5389068
:1025160003A9E0F539A3E0F53AA3E0F53B85398256
:10252600853A83853BF0122C64F8A3122C64FFE4F1
:10253600FEFDE82535F8EF3536FFEE3537FEED358D
:1025460038FD9003DA7488F0E4A3F0A3F0A3F088D2
:10255600828F838EF0EDC007C006C005C00012282A
:10256600DFA982AA83D000D005D006D0078539829C
:10257600853A83853BF0E9122B12A3EA122B1290BF
:1025860003E37488F0E4A3F0A3F0A3F088828F83BA
:102596008EF0ED022A1EAF82AE83ADF0FC9003BE34
:1025A600EFF0EEA3F0EDA3F0ECA3F09003BAE0FC9D
:1025B600A3E0FDA3E0FEA3E0FF9003BEE0F8A3E0E6
:1025C600F9A3E0FAA3E0FBE8C39CE99DEA9EEB9F32
:1025D60033B3920CE433F582229003ADE0F5822208
:1025E6009003ADE4F09003AEF09003AFF00213C891
:1025F600AF83E5829003C8F0EFA3F09003C8E0FE36
:10260600A3E0FF8E828F831212D79003AF7401F07E
:102616009003C2E0FEA3E0FF9003C4E0FAA3E0FB50
:10262600A3E0FCA3E0FD8E008F017E007F009003F7
:10263600B6E82AF0E93BA3F0EE3CA3F0EF3DA3F0A9
:1026460022AF82AE83ADF0FC9003CBEFF0EEA3F0A9
:10265600EDA3F0ECA3F09003CAE0600475820022BB
:102666001225E69003AD7401F09003B0E4F0A3F0F8
:102676009003CBE0FCA3E0FDA3E0FEA3E0FF900304
:10268600B274F42CF074013DA3F0E43EA3F0E43FF1
:10269600A3F09003C2742CF07401A3F09003C4EC71
:1026A600F0EDA3F0EEA3F0EFA3F09004B01225F640
:1026B60075820122AF82AE83ADF0FC9003CFEFF0BE
:1026C600EEA3F0EDA3F0ECA3F09003AFE060409032
:1026D60003CFE0FCA3E0FDA3E0FEA3E0FF9003B67A
:1026E600E0F8A3E0F9A3E0FAA3E0FB9003BAE8F070
:1026F600E9A3F0EAA3F0EBA3F08C828D838EF0EFD2
:1027060012259CE58260081213C89003AFE4F0908E
:1027160003ADE060389003CFE0FCA3E0FDA3E0FE4C
:10272600A3E0FF9003B2E0F8A3E0F9A3E0FAA3E088
:10273600FB9003BAE8F0E9A3F0EAA3F0EBA3F08C70
:10274600828D838EF0EF12259CE582700122900324
:10275600AEE075F004A42493FE742E35F0FF8E824D
:102766008F83A3A3E493FF9003A974B0F07403A32B
:10277600F0E4A3F08F821224E6AE82AF839003AE1C
:10278600E075F004A42493F513742E35F0F5147453
:10279600032513FAE43514FB8A828B83E4936004E1
:1027A6007B0080027B0F8B0E9003B2E0F50FA3E057
:1027B600F510A3E0F511A3E0F5128E028F03E4FEF7
:1027C600FFEA250FFAEB3510FBEE3511FEEF351259
:1027D600FFA80E79007C007D009003B6EAC398F04E
:1027E600EB99A3F0EE9CA3F0EF9DA3F09003B2EA61
:1027F600F0EBA3F0EEA3F0EFA3F08513828514832C
:10280600E493FEA3E493FF8E828F831212D7900384
:10281600AEE0FF75F004A42493F582742E35F0F52E
:1028260083E493FDA3E4934DB40100B3920D9003AA
:10283600AFE433F09003AEEF04F0E0FF902F8FE4A7
:0C28460093FEEFB506059003AEE4F0220F
:102E93000B0201004B0201006E0206006E020101EB
:102EA300BA02010010030400000002001003010035
:102EB300A4030100A4030400A403020017040200F6
:102EC3001704040000000400BA0202004B020200CF
:102ED300BA0202004B02020017040800A403020016
:102EE300A4030200A40302004B020100BA0209007A
:102EF3001003040010030100BA02010110030200D1
:102F0300BA0204004B020200D20102006E02020068
:102F13004B0202006E02010010030101BA0202001B
:102F2300BA02040000000400BA0202004B020200CD
:102F3300BA0202004B02020017040800A4030200B5
:102F4300A4030200A40302004B02010010030101C9
:102F5300BA02040000000200100301007003010024
:102F6300A4030400A403020010030100BA02020137
:102F7300A4030300000002004B0202000B02030043
:0D2F83004B0203000B020200D20108003FC8
:10285200AF83E5829003D5F0EFA3F09003D7E4F0C5
:10286200A3F09003D3E0FEA3E0FF7D109003D5E038
:10287200FBA3E0FC9003D9235401F0EB2BFBEC33D8
:10288200FC9003D5EBF0ECA3F09003D7E0FBA3E0C0
:10289200FCEB2BFBEC33FC9003D7EBF0ECA3F090BA
:1028A20003D9E060089003D7E043E001F09003D73A
:1028B200E0FBA3E0FCC3EB9EEC9F40139003D7EB3D
:1028C200C39EF0EC9FA3F09003D5E043E001F0DD5E
:1028D2009B9003D5E0FEA3E08E82F58322AF82AE09
:1028E20083ADF0FC9003DEEFF0EEA3F0EDA3F0EC8D
:1028F200A3F09003E2E4F09003DEE0FCA3E0FDA38A
:10290200E0FEA3E0FF7B009003DAE0F53CA3E0F5F4
:102912003DA3E0F53EA3E0F53F2354017074C003EC
:10292200E53C253CF8E53D33F9E53E33FAE53F3336
:10293200FB9003DAE8F0E9A3F0EAA3F0EBA3F0904E
:1029420003DAE0F53CA3E0F53DA3E0F53EA3E0F5B4
:102952003FC3EC953CED953DEE953EEF953FD003A0
:102962005027E53FC313F53FE53E13F53EE53D1322
:10297200F53DE53C13F53C9003DAF0E53DA3F0E5C7
:102982003EA3F0E53FA3F080090B9003E2EBF002D7
:1029920029099003E2E0FF9003DEE0FBA3E0FCA341
:1029A200E0FDA3E0FE9003DAE0F53CA3E0F53DA3F1
:1029B200E0F53EA3E0F53FC3EB953CEC953DED958C
:1029C2003EEE953F40179003DEEBC3953CF0EC954D
:1029D2003DA3F0ED953EA3F0EE953FA3F09003DA10
:1029E200E0FBA3E0FCA3E0FDA3E0C313FEED13FDB7
:1029F200EC13FCEB139003DAF0ECA3F0EDA3F0EE92
:102A0200A3F08F061FEE708F9003DEE0FCA3E0FDC3
:102A1200A3E0FEA3E08C828D838EF022AF82AE8390
:102A2200ADF0FC9003E7EFF0EEA3F0EDA3F0ECA322
:102A3200F09003EBE4F0A3F0A3F0A3F09003E3E043
:102A4200FCA3E0FDA3E0FEA3E0FF7B20C003900314
:102A5200E7E0F8A3E0F9A3E0FAA3E0FB9003EF2399
:102A62005401F0E828F8E933F9EA33FAEB33FB9042
:102A720003E7E8F0E9A3F0EAA3F0EBA3F09003EB9D
:102A8200E0F8A3E0F9A3E0FAA3E0FBE828F8E933D1
:102A9200F9EA33FAEB33FB9003EBE8F0E9A3F0EA4F
:102AA200A3F0EBA3F0D0039003EFE060089003EBF8
:102AB200E043E001F09003EBE0F53CA3E0F53DA339
:102AC200E0F53EA3E0F53FC3E53C9CE53D9DE53ED8
:102AD2009EE53F9F401F9003EBE53CC39CF0E53D24
:102AE2009DA3F0E53E9EA3F0E53F9FA3F09003E790
:102AF200E043E001F01BEB6003022A4E9003E7E0A3
:102B0200FCA3E0FDA3E0FEA3E08C828D838EF02285
:0600E700E478FFF6D8FDED
:1000C5007900E94400601B7A00902F9078FC75A0B8
:1000D50003E493F2A308B8000205A0D9F4DAF27597
:0200E500A0FF7A
:10008E00C000A88118C0D0B6001B18B64800401595
:10009E00B66F005010C0E0E65407B406005004E6F8
:0A00AE0054F8F6D0E0D0D0D00032B4
:102B120020F71130F6138883A88220F509F6A883DE
:102B22007583002280FEF280F5F022AA83AB828BAD
:102B3200F09003F1E0A4F8A9F08AF0E0A429F98B5F
:102B4200F0A3E0A429F58388822222A882A983AA7D
:102B5200F0FB88F09003F3E0A4FCADF089F0E0A470
:102B62002DFDE435F0FE88F0A3E0A42DFDE5F03E56
:102B7200FEE433FF89F0E0A42EFEE5F03FFF88F08B
:102B8200A3E0A42EFEE5F03FFF8AF09003F3E0A459
:102B92002EFEE5F03FFF8BF0E0A42FFF8AF0A3E0CA
:102BA200A42FFF89F0A3E0A42FFF88F0A3E0A42FB5
:102BB2008EF08D838C8222AF83E5829003F9F0EF51
:102BC200A3F09003FBE4F09003F9E0FEA3E0FF7DA5
:102BD200009003F7E0FBA3E0FC2354017036EB2BDB
:102BE200FBEC33FC9003F7EBF0ECA3F09003F7E07F
:102BF200FBA3E0FCC3EE9BEF9C5011ECC313CB1381
:102C0200CBFC9003F7EBF0ECA3F080080D9003FBF4
:102C1200EDF080BD9003FBE0FF9003F9E0FDA3E03F
:102C2200FE9003F7E0FBA3E0FCC3ED9BEE9C400BA0
:102C32009003F9EDC39BF0EE9CA3F09003F7E0FD47
:102C4200A3E0C313CD13CDFE9003F7EDF0EEA3F096
:102C52008F061FEE70C39003F9E0FEA3E08E82F5AB
:022C62008322CB
:1000ED007800E84400600A790175A000E4F309D8AE
:1000FD00FC78FBE84403600C7904900001E4F0A364
:04010D00D8FCD9FA47
:0D00B80075814A122C80E5826003020089E8
:102C640020F71430F6148883A88220F507E6A88399
:102C740075830022E280F7E49322E0227582002229
:00000001FF
