:0400000002008E323A
:03000B000200FFF1
:0100130032BA
:01001B0032B2
:0300230002015F78
:01002B0032A2
:01003300329A
:03003B0002025767
:030043000201D8DF
:100048000000E2FBEAF2802C0000E0FBEAF08024EA
:10005800E6B50202EBF62200E2B50202EBF222005C
:10006800E0B50202EBF02230F6E0A88220F5D3EAF0
:10007800C6F582228B822230F6E6A88220F5D98046
:01008800CFA8
:0300E7000200898B
:050089001200EA80FEF8
:1000EA0012044012381F1239F21208A580F8758CD2
:1000FA00D4758ACD22C022C0E0C0F0C082C083C0BD
:10010A0007C006C005C004C003C002C001C000C0C9
:10011A00D075D0001200F8900001E0FCA3E0FDA326
:10012A00E0FEA3E0FF90000174012CF0E43DA3F08F
:10013A00E43EA3F0E43FA3F0D0D0D000D001D00237
:10014A00D003D004D005D006D007D083D082D0F017
:10015A00D0E0D02232C0E0C082C083C007C006C04F
:10016A0005C004C0D075D00010980280459000A741
:10017A00E599F0900005E004543FFF900006E0FE88
:10018A00EFB5061590000BE0FDA3E0FE90000B749E
:10019A00012DF0E43EA3F08019900005E0240FFE43
:1001AA00E43400FD9000A7E08E828D83F090000574
:1001BA00EFF010990280069000097401F0D0D0D0B7
:1001CA0004D005D006D007D083D082D0E032C0E078
:1001DA00C082C083C007C006C005C004C0D075D0A5
:1001EA0000E59A30E048539AFE9000A8E59BF0900B
:1001FA000007E004543FFF900008E0FEEFB5061543
:10020A0090000DE0FDA3E0FE90000D74012DF0E4D6
:10021A003EA3F08019900007E0244FFEE43400FD6D
:10022A009000A8E08E828D83F0900007EFF0E59AA7
:10023A0030E109539AFD90000A7401F0D0D0D0043D
:10024A00D005D006D007D083D082D0E032C0E0C03B
:10025A00F0C082C083C007C006C005C004C003C086
:10026A0002C001C0D075D000E5D820E10302038D99
:10027A009000A9E5EBF0AFFB7E00E07D004206EDC1
:10028A00420790009FE0FCA3E0FD9000AAEEC39C09
:10029A00F0EF9DA3F090009FEEF0EFA3F053D8FD8E
:1002AA009000AAE0FEA3E0FFC3EE94F8EF942A4080
:1002BA001F74B09E74369F40179000A1E4F0A3F01B
:1002CA00A3F0A3F09000A5F09000A604F002038D1D
:1002DA009000A6E0700302038DC3EE94BCEF940273
:1002EA00401174789E74059F40099000A5E024018E
:1002FA00F08056C3EE9440EF9406404474C49E7452
:10030A00099F403C9000A5E0FF8FF005F07B017C3F
:10031A00007D007E00800CEB2BFBEC33FCED33FD03
:10032A00EE33FED5F0F19000A1E04BF0A3E04CF0E3
:10033A00A3E04DF0A3E04EF09000A5EF04F0800991
:10034A009000A6E4F09000A5F09000A5E0FFBF2081
:10035A00329000A1E0FCA3E0FDA3E0FEA3E0FF8C45
:10036A00038D028E01BB5016BAAF1374FF69FEEFFC
:10037A00B5060B90009DE9F090009E7401F0900084
:10038A00A6E4F0E5D830E70353D87FD0D0D001D027
:10039A0002D003D004D005D006D007D083D082D0B3
:1003AA00F0D0E03253B1BF53B2BFD2B674CF55A228
:1003BA004410F5A275D80075D90075DB1190009F1D
:1003CA00E4F0A3F09000A1F0A3F0A3F0A3F0900052
:1003DA009EF09000A6F09000A5F0F5E9F5F943A883
:1003EA004043D84022759850759A5075D6FF75D7F4
:1003FA00E8438E15900008E4F0900007F09000069C
:10040A00F0900005F090000A04F0900009F09000C6
:10041A000DE4F0A3F090000BF0A3F0D2AC43AF01CF
:10042A0022438E80E58954F04401F5891200F8C20E
:10043A008DD2A9D28C22C2AF900001E4F0A3F0A31E
:10044A00F0A3F0F5937594FFF580F591F592759008
:10045A00FFF59575960875A0F0F5B175B21043B021
:10046A000C53B3F943B40653C0F953C9DF53CADF77
:10047A0043C820D2B2D2B3D292D2A4D2A5D2A6C2B3
:10048A0095D296C297D2C0D2CDC2A37F00EF249054
:10049A00F582E43400F583E4F00FBF080040EE90E3
:1004AA00009AE4F0900099F0900098F075BCA09042
:1004BA00008FF01209EB1203EF1203AE12042BD2D3
:1004CA00AF22C2AF900001E0FCA3E0FDA3E0FEA3CF
:1004DA00E0FFD2AF8C828D838EF0EF22E58290000E
:1004EA00ACF0E0FF8F061F9000ACEFF0EE60050065
:1004FA00000080F09000ACEFF022E5829000ADF0B1
:10050A00E053E007F09000ADE0FF8FF005F07401D2
:10051A00800225E0D5F0FBFE429174FF6E52927480
:10052A00A04FF5BC7582141204E643BC087E887F8E
:10053A0013E5BC20E4151EBEFF011FEE4F70F275D5
:10054A00BCA090008FE4F07582002253BCEF9000AB
:10055A008F7401F085BD822290008FE0F58222E53A
:10056A00829000AEF090442CE493FF9000AEE0FE3F
:10057A00C39F400490000022904432E493C39E40FB
:10058A00049001F4228E077E00EE90442C93FDC362
:10059A009F50030206528E04EC0490442C93FBC332
:1005AA00EF9B50030206520CC2D575F002EC30E7FD
:1005BA0004B2D5F404A430D50AF42401C5F0F43405
:1005CA0000C5F02433F582744435F0F583E493FAD8
:1005DA00A3E493FBEE75F002A42433F58274443548
:1005EA00F0F583E493F8A3E493F9EAC398FAEB9954
:1005FA00FBEC90442C93FCEDC39CF5088D09750A1D
:10060A00008F047D00E509C39CFCE50A9DFD90026C
:10061A00FFEAF0EBA3F08C828D83C001C000124286
:10062A0063AC82AD839002E2E508F0E4A3F08C8229
:10063A008D8312400BAC82AD83D000D001EC28F838
:10064A00ED39F988828983220EBE0600500302051D
:10065A00939000FA22A2B2B39200E433F58222A266
:10066A00B3B39201E433F58222E5829000AFF0E061
:10067A00FFBF0C00E433F58222A292B39202E43364
:10068A00F58222A2A4B39203E433F58222E5829092
:10069A0000B0F0E0FFBF3000400FEF24C6400AEF81
:1006AA0024D090444193F582229000B0E0FFBF2D00
:1006BA000050030207B7EF248650030207B7EF245E
:1006CA00D3FF240A83F582EF245183F583E473AFC1
:1006DA00B7B7B7B7B7B7B7B7B7B7B7B7B7B7B7B7A0
:1006EA00B7B7B773777B7F8387B78BB7B7B78FB740
:1006FA00B79397B79BA39FA7B7B7B7ABB7B7B7B728
:10070A00B7B3B773777B7F8387B78BB7B7B78FB723
:10071A00B79397B79BA39FA7B7B7B7AB07070707C7
:10072A00070707070707070707070707070707074F
:10073A00070707070707070707070707070707073F
:10074A00070707070707070707070707070707072F
:10075A00070707070707070707070707070707071F
:10076A000707070707070707077582772275827C3D
:10077A00227582392275825E22758279227582718A
:10078A0022758276227582382275825C227582737E
:10079A0022758250227582782275826D2275823E78
:1007AA002275826E22758240227582082275820025
:1007BA00227F00EF2490F582E43400F583E4F00F01
:1007CA00BF080040EE22E5829000B2F0E0FFBF08C9
:1007DA00005021EF2490FFE43400FE9000B1E0F5D0
:1007EA0082C007C006120697AD82D006D0078F8254
:1007FA008E83EDF022E5829000B6F0E0FF9000B51E
:10080A00E0FE7D00C3ED9E400122EE2F14C39DFC45
:10081A00BC08005046EC2490FCE43400FB9000B382
:10082A00E0F9A3E0FA900305740AF0E4A3F08982E0
:10083A008A83C007C006C005C004C0031242EFA9DC
:10084A0082743029F582120697AA82D003D004D086
:10085A0005D006D0078C828B83EAF09000B3E0FBC8
:10086A00A3E0FC9002E2740AF0E4A3F08B828C838A
:10087A00C007C006C00512400BAB82AC83D005D0BE
:10088A0006D0079000B3EBF0ECA3F00D02080EE5DA
:10089A00829000B7F0E090009AF0227580009000F4
:1008AA0099E0FFBF071075A0F890009AE0F58090D4
:1008BA000099E4F08025900098E0FE74F04EF5A0CF
:1008CA00EE2490F582E43400F583E0F580EE04909E
:1008DA0000985407F0900099EF04F07E5E7F018E35
:1008EA00048F051EBEFF011FEC4D60030080F0223D
:1008FA00AF83E5829000B8F0EFA3F09000B8E0FE75
:10090A00A3E0FF9000B8E0F5F0A3E045F070030221
:10091A0009EB90009BE0FCA3E0FDEEB50408EFB5FF
:10092A000504308E01229000B8E0FCA3E0FDE4FE4D
:10093A00FFEC2CFCED33FDEE33FEEF33FF9002F1BA
:10094A00ECF0EDA3F0EEA3F0EFA3F090C00075F089
:10095A00A8E4124154AC82AD83AEF0FF9000BAEC29
:10096A00F0EDA3F0EEA3F0EFA3F0C3EC9401ED9445
:10097A0000EE9400EF9400500D9000BA7401F0E478
:10098A00A3F0A3F0A3F09000BAE0FDA3E0FEA3E079
:10099A00FFC374FF9D74FF9EE49F500D9000BA74CC
:1009AA00FFF0A3F0E4A3F0A3F09000BAE0FEA3E006
:1009BA00FFC3E49EFEE49FFFC28EC2AB538FFD438A
:1009CA008E4053890F8F8D8E8BC28F438F02D28EAA
:1009DA009000B8E0FEA3E0FF90009BEEF0EFA3F0DA
:1009EA0022C28EC2AB538FFDC2B490009BE4F0A327
:1009FA00F022AFF0AE83E5829000BEF0EEA3F0EFF6
:100A0A00A3F0900005E0FF900006E0FEEFB50604B3
:100A1A00758200229000BEE0FDA3E0FEA3E0FF90F5
:100A2A000006E0240FF582E43400F583E08D828E1F
:100A3A00838FF0124248900006E004543FF075821A
:100A4A000122AFF0AE83E5829000C1F0EEA3F0EF91
:100A5A00A3F0900007E0FF900008E0FEEFB506045F
:100A6A00758200229000C1E0FDA3E0FEA3E0FF90A2
:100A7A000008E0244FF582E43400F583E08D828E8D
:100A8A00838FF0124248900008E004543FF07582C8
:100A9A000122AFF0AE83E5829000C5F0EEA3F0EF3D
:100AAA00A3F09000C5E0FDA3E0FEA3E0FF9000C420
:100ABA00E0FC8C031CEB6035900009E4F08D828E1B
:100ACA00838FF012440CF599A3AD82AE839000C5D2
:100ADA00EDF0EEA3F0EFA3F07A607BEA900009E074
:100AEA0070D01ABAFF011BEA4B60C780EF9000C5AD
:100AFA00EDF0EEA3F0EFA3F022AFF0AE83E5829023
:100B0A0000C9F0EEA3F0EFA3F09000C9E0FDA3E066
:100B1A00FEA3E0FF9000C8E0FC8C031CEB6035905C
:100B2A00000AE4F08D828E838FF012440CF59BA3A9
:100B3A00AD82AE839000C9EDF0EEA3F0EFA3F07A98
:100B4A00607BEA90000AE070D01ABAFF011BEA4BF8
:100B5A0060C780EF9000C9EDF0EEA3F0EFA3F0229A
:100B6A0090000BE0FEA3E08E82F5832290000DE058
:100B7A00FEA3E08E82F58322AFF0AE83E582900079
:100B8A00CCF0EEA3F0EFA3F090009EE07003F582A4
:100B9A0022C2AF9000CCE0FDA3E0FEA3E0FF9000EC
:100BAA009DE08D828E838FF012424890009EE4F081
:060BBA00D2AF758201229A
:10442C00C4AB8E8071584300006400C800FA002CA5
:0F443C00019001F4013F065B4F666D7D077F6FB6
:100BC000AFF0AE83E582900125F0EEA3F0EFA3F045
:100BD00090012874FFF0A3F0900125E0FDA3E0FE52
:100BE000A3E0FF900124E0FC8C031CEB60618D828C
:100BF0008E838FF012440CFBA3AD82AE839001254F
:100C0000EDF0EEA3F0EFA3F08B027B00900128E063
:100C10006BF0A3E06AF07B08900128E0F9A3E0FA0A
:100C200030E716C004E929F8EA33FC6300216304C5
:100C30001088288C29D0048008E929F528EA33F5A2
:100C400029900128E528F0E529A3F0DBCB809990D5
:100C50000125EDF0EEA3F0EFA3F0900128E0FEA354
:100C6000E08E82F5832290011BE4F090011CF0904D
:100C7000011FF0900122F0A3F0900120F0A3F022D8
:100C8000AFF0AE83E58290012CF0EEA3F0EFA3F07D
:100C900090012CE0FDA3E0FEA3E0FF90012AE0FB21
:100CA000A3E0FC8B028D828E838FF0EA1242480D06
:100CB000BD00010E8C038D828E838FF0EB024248C3
:100CC000AFF0AE83E582900131F0EEA3F0EFA3F038
:100CD000900131E0FDA3E0FEA3E0FF90012FE0FBD7
:100CE000A3E0FC90012AEBF0ECA3F08D828E838FC1
:100CF000F0020C80AFF0AE83E582900138F0EEA3F5
:100D0000F0EFA3F0900138E0F528A3E0F529A3E087
:100D1000F52A900134E0F9A3E0FAA3E0FBA3E0FC9C
:100D20008900852882852983852AF0E81242487443
:100D3000012528F8E43529FEAF2A8A0588828E83AA
:100D40008FF0ED12424874022528FDE43529FEAFEC
:100D50002A8B008D828E838FF0E81242487403251F
:100D600028FDE43529FEAF2A8C018D828E838FF019
:100D7000E9024248AFF0AE83E58290013FF0EEA376
:100D8000F0EFA3F090013FE0FDA3E0FEA3E0FF90B1
:100D9000013BE0F9A3E0FAA3E0FBA3E0FC900134FF
:100DA000E9F0EAA3F0EBA3F0ECA3F08D828E838F41
:100DB000F0020CF4AFF0AE83E582900142F0EEA3B6
:100DC000F0EFA3F0900142E0FDA3E0FEA3E0FF8D71
:100DD000828E838FF012440CFC7B000DBD00010E4F
:100DE0008D828E838FF012440CFFE44204EF4203A5
:100DF0008C828B8322AFF0AE83E582900145F0EECA
:100E0000A3F0EFA3F0900145E0FDA3E0FEA3E0FF17
:100E10008D828E838FF0020DB4AFF0AE83E58290A9
:100E20000148F0EEA3F0EFA3F0900148E0FDA3E04D
:100E3000FEA3E0FF8D828E838FF012440CF528E430
:100E4000F529F52AF52B74012DF8E43EFB8F048873
:100E5000828B838CF012440CF87C007B008B028C1C
:100E6000038804E44228EC4229EB422AEA422B742C
:100E7000022DF9E43EFB8F0489828B838CF01244AF
:100E80000CF97C008C0289037900E5284201E529F0
:100E9000420474032DFDE43EFE8D828E838FF0129A
:100EA000440CF87D007E008807E44201ED4204EE28
:100EB0004203EF420289828C838BF0EA22E5829022
:100EC000014FF090014EE0FF24DF5001229000F32B
:100ED00074AAF09000F4F4F09000F57402F0900120
:100EE0004FE09000F6F090011FE02401F0E0900048
:100EF000F7F09000F8EFF090014BE0FCA3E0FDA3C9
:100F0000E0FE7B00C3EB9F5033C0078B0274062AC0
:100F1000F93395E0FAE924F3F50BEA3400F50CEB2C
:100F20002CF8E43DFA8E0788828A838FF012440CF5
:100F3000850B82850C83F00BD00780C874042F903A
:100F40000124F09000F575F000C007120BC0AD82CF
:100F5000AE83D00774062F24F3F582E43400F583C2
:100F60008D04ECF074072F24F3F582E43400F5834C
:100F70008E05EDF074082F9000C4F09000F375F02A
:100F800000020A9CE582900152F0E0900153F0903B
:100F90000150E0900154F0900151E0FF900155F0B4
:100FA000EF60047F7F80027F7E90014B7453F0746A
:100FB00001A3F0E4A3F090014E7403F08F82020EBF
:100FC000BD9000CFE0900158F09000D0E090015922
:100FD000F09000D1E090015AF09000D2E090015BD7
:100FE000F09001247404F090015875F000120BC0C9
:100FF000E5828583F0900156F0E5F0A3F07F009044
:1010000000D2E0FEC3EF9E5046EF24D3F582E434D5
:1010100000F583E0FD7E00900156E06EF0A3E06DE8
:10102000F07E08900156E0FCA3E0FD30E70EEC2CCA
:10103000FAED33FB6302216303108006EC2CFAED1A
:1010400033FB900156EAF0EBA3F0DED70F80B090AF
:101050000156E0FEA3E0FF90011DE0FCA3E0FDEEE1
:10106000B50408EFB5050474018001E4F58222900F
:10107000015C75F0001209FCE58270030211C89052
:10108000011BE0FF24F750030211C0EF240A83F58F
:1010900082EF240D83F583E473ABBBD9E9FA0B47E8
:1010A000789010101010101111111190015CE0FFD8
:1010B000BFAABC90011B7401F080B490015CE0FFFA
:1010C000BF55047E02800BBFAA047F0180027F000F
:1010D0008F0690011BEEF0809690015CE09000CFAF
:1010E000F090011B7403F0808690015CE09000D0CA
:1010F000F090011B7404F002106F90015CE090000E
:10110000D1F090011B7405F002106F90015CE0FFBC
:101110009000D2F090011CE4F090015CE0FF24DF2D
:101120005014900122E02401F0A3E03400F090017B
:101130001BE4F002106FEF60047F0680027F0790CF
:10114000011BEFF002106F90011CE0FF04F0EF2490
:10115000D3FFE43400FE90015CE08F828E83F09038
:1011600000D2E0FF90011CE0C39F500302106F907B
:10117000011B7407F002106F90015CE0FE7F00908D
:10118000011DEEF0EFA3F090011B7408F002106F48
:1011900090015CE0FF7E0090011DE04EF0A3E04F67
:1011A000F090011BE4F0120FC1E58260047582012A
:1011B00022900120E02401F0A3E03400F002106F3F
:1011C00090011BE4F002106F75820022900120E074
:1011D000FEA3E08E82F58322900122E0FEA3E08E42
:1011E00082F583227582030204E6D2A6D2A51211EB
:1011F000E4C2A61211E4C2A522C2A6D2A51211E42D
:10120000D2A60211E4E582900165F07F00900165AD
:10121000E0FE548024FF92A6C007C0061211E4D25B
:10122000A51211E4D006D007C2A5EE2E900165F0FC
:101230000FBF080040D7D2A6D2A51211E430A604F1
:101240007F0080027F01C2A58F8222E58290016625
:10125000F0900167E4F0D2A67F00900167E025E0FE
:10126000F0D2A5C0071211E4D00730A6089001679C
:10127000E043E001F0C2A5C0071211E4D0070FBFA0
:10128000080040D6900166E0B4010092A6D2A512F3
:1012900011E4C2A5D2A6900167E0F58222E5829012
:1012A0000169F01211EA7582A6121205AF8290014F
:1012B00069E0F582C007121205AE82D007EE520730
:1012C000900168E0F582C007121205AE82D007EEE9
:1012D0005207C0071211F9D0078F8222E5829001D0
:1012E0006AF01211EA7582A612120590016AE0F501
:1012F000821212051211EA7582A712120575820078
:1013000012124BAF82C0071211F9D0078F8222D27E
:10131000A5D2A6900163E4F0900164F075820012FA
:1013200012DCAF82BFE50280047582002290016862
:101330007408F075823112129DE5827003F58222E5
:101340009001687408F075822C12129D90016874E7
:1013500008F075822D12129D900161E4F0A3F090C7
:10136000015FF0A3F090015DF0A3F090016304F041
:1013700075820122AF83E58290016BF0EFA3F090BC
:10138000016BE0FEA3E0FF8E048F05ED30E709C39B
:10139000E49EFCE49FFD80048E048F058C828D8387
:1013A00022AFF0AE83E58290016DF0EEA3F0EFA3E3
:1013B000F0900163E0703390016DE0FDA3E0FEA3C7
:1013C000E0FF74082DFAE43EFB8F048A828B838C45
:1013D000F0E412424874062DFDE43EFE8D828E83B9
:1013E0008FF0E4124248A30242481211EA7582A625
:1013F0001212057582321212051211EA7582A712B5
:1014000012057F00EF2470FDE43401FEBF0503D315
:101410008001C3B39204E433F582C007C006C0055F
:1014200012124BAC82D005D006D0078D828E83EC91
:10143000F00FBF060040CD1211F990016DE0FDA341
:10144000E0FEA3E0FF8D128E138F14900170E0F583
:101450000D750E00900171E0F97800E50D420085F0
:1014600012828513838514F0E8124248A3E91242E0
:101470004874022DF50FE43EF5108F11900172E0D3
:10148000F50D750E00900173E0F97800E50D42004E
:10149000850F828510838511F0E8124248A3E91276
:1014A000424874042DF8E43EF98F04900174E0F58D
:1014B0000D750E00900175E0FA7B00E50D42038882
:1014C0008289838CF0EB124248A3EA1242489001D1
:1014D00064E0701A74062DFAE43EFB8F048A828B56
:1014E000838CF0E4124248A312424802166174064B
:1014F0002DFDE43EFE8512828513838514F012448F
:101500000CFBA312440CFC90015DE0F9A3E0FAEBA4
:10151000C399FBEC9AFC8B828C83C007C006C00584
:10152000121374AB82AC83D005D006D0078D828EA7
:10153000838FF0EB124248A3EC124248850F82855C
:1015400010838511F012440CF50FA312440CF51012
:1015500090015FE0F512A3E0F513E50FC39512F8D3
:10156000E5109513FA88828A83C007C006C005C0BB
:1015700004C003121374A982AA83D003D004D00537
:10158000D006D007C3EB99EC9A5031E50FC3951202
:10159000FBE5109513FC8B828C83C007C006C00549
:1015A000121374AB82AC83D005D006D0078D828E27
:1015B000838FF0EB124248A3EC12424890016DE099
:1015C000FDA3E0FEA3E0FF74042DFBE43EFA8F04CC
:1015D0008B828A838CF012440CFBA312440CFC9087
:1015E0000161E0F512A3E0F513EBC39512F8EC9559
:1015F00013FA88828A83C007C006C005C004C003EE
:1016000012137485820F858310D003D004D005D0C7
:1016100006D00774062DFDE43EFE8D828E838FF08A
:1016200012440CF8A312440CFAC3E8950FEA951083
:10163000502FEBC39512FBEC9513FC8B828C83C06F
:1016400007C006C005121374AB82AC83D005D00668
:10165000D0078D828E838FF0EB124248A3EC1242AA
:101660004890016DE0FDA3E0FEA3E0FF8D028E0334
:101670008F048A828B838CF012440CFAA312440CE0
:10168000FB90015DEAF0EBA3F074022DFAE43EFB5F
:101690008F048A828B838CF012440CFAA312440CC0
:1016A000FB90015FEAF0EBA3F074042DFAE43EFB3B
:1016B0008F048A828B838CF012440CFAA312440CA0
:1016C000FB900161EAF0EBA3F074082DFDE43EFE0F
:1016D0008D828E838FF07401124248900164F02253
:1016E000E582900176F0E024FF9296D29575820211
:1016F0001204E6C29522E582900177F07F00900106
:1017000077E0FE74015EF582C007C0061216E0D0D5
:1017100006D007EEC313900177F00FBF080040DE3C
:1017200022900178E4F0D2967F003096148FF00575
:10173000F07401800225E0D5F0FBFE900178E04EC8
:10174000F0D295758202C0071204E6C29575820236
:101750001204E6D0070FBF080040CF900178E0F5F3
:101760008222E582900179F053913F53923FC297D4
:10177000C295D297900179E0F5821216F6121721E0
:10178000AF82C297D29643918053927F8F8222E597
:101790008290017AF0E0FFC4540F75F00AA4FE7441
:1017A0000F5F2EF58222AFF0AE83E582900181F0CB
:1017B000EEA3F0EFA3F0758281121762AF827582FB
:1017C00083C007121762AE82758285C00612176247
:1017D000AD82D006D0078F0453047FEC24A6400FBF
:1017E000EE24A6400A8D0453043FEC24DC5004751B
:1017F00082002290017EE0FAA3E0FBA3E0FC530705
:101800007F8F82C006C005C004C003C00212178FBC
:10181000AF82D002D003D004D005D0068A828B8359
:101820008CF0EF12424890017BE0FBA3E0FCA3E0C8
:10183000FF8E82C007C005C004C00312178FAE829E
:10184000D003D004D005D0078B828C838FF0EE12AA
:101850004248900181E0FCA3E0FEA3E0FF53053F76
:101860008D82C007C006C00412178FAD82D004D08D
:1018700006D0078C828E838FF0ED1242487582016C
:10188000227582040204E6D2C0D2CD121881C2C0F1
:10189000121881C2CD22C2C0D2CD121881D2C0028C
:1018A0001881E582900184F07F00900184E0FE546D
:1018B0008024FF92C0D2CDC007C006121881D00686
:1018C000D007C2CDEE2E900184F00FBF080040DAA1
:1018D000D2C0D2CD12188130C0047F0080027F01B7
:1018E000C2CD8F8222E582900185F0900186E4F0DE
:1018F000D2C07F00900186E025E0F0D2CDC0071273
:101900001881D00730C008900186E043E001F0C2A2
:10191000CD0FBF080040DD900185E0B4010092C00A
:10192000D2CD121881C2CDD2C0900186E0F58222BC
:10193000E582900187F01218877582A01218A2E53F
:101940008270071218967582FF22900187E0F58257
:101950001218A21218877582A11218A2758200129D
:1019600018E5AF82C007121896D0078F8222E58251
:10197000900189F01218877582A01218A2E5827072
:1019800003021896900189E0F5821218A29001884E
:10199000E0F5821218A21218967E007F00C007C0E0
:1019A000061218877582A01218A2E582D006D00709
:1019B0006003021896C007C006121896D006D0071A
:1019C0000EBE00010F8E048F05C3EC94C8ED940089
:1019D00040CB22AFF0AE83E58290018AF0EEA3F017
:1019E000EFA3F090018D745AF090018AE0FDA3E01E
:1019F000FEA3E0FF7C0090018DE023FBEC2DF8E4DA
:101A00003EF98F02888289838AF012440C90018DFE
:101A10006BF00CBC0A0040DE90018DE0F58222AF35
:101A200083E58290018EF0EFA3F0900190E4F090B6
:101A30000191F0A3F090018EE0FEA3E0FF8E828F73
:101A400083E4F090018EE0FEA3E0FF8E048F057B1F
:101A5000007A00C004C005EA2493F8E43401F98B4D
:101A600005ED75F00CA4FD8A04EC2DF582C007C0CD
:101A700006C004C003C002C001C000121930AD820C
:101A8000D000D001D002D003D004D006D007888285
:101A90008983EDF00ABA0C00D005D00440B590015E
:101AA00093E0FABAC7028003021BB7900194E0FAF0
:101AB000BA01028008BA02028003021BB790019D9E
:101AC000E0FA90019375F000C007C006C005C0049D
:101AD000C003C0021219D3A982D002D003D004D00F
:101AE00005D006D007EAB501028003021BB79001BA
:101AF0009EE0FA90019DE0F96301FFEAB5010280E2
:101B000003021BB7C004C005900195E0F97A00906C
:101B10000196E0FDE449F515ED4AF516D005D0042F
:101B2000900190E0601F900191E0F9A3E0FAE515C3
:101B3000C399F9E5169AFAC3E49974808AF063F0C0
:101B40008095F050729001907401F0900191E5152C
:101B5000F0E516A3F0900194E0FABA012EC006C099
:101B60000774012CF9E43DFA90019AE0F515751619
:101B70000090019BE0FF7E00E515420689828A8382
:101B8000EEF0EFA3F0D007D006802CC004C005749F
:101B9000012EF9E43FFA900197E0F51575160090D3
:101BA0000198E0FD7C00E515420489828A83ECF00F
:101BB000EDA3F0D005D0040BBB08005003021A516E
:101BC00090018EE0FEA3E0FF8E048F05900190E06F
:101BD0008C828D83F074032EFEE43FFF900191E030
:101BE000FCA3E0FD8E828F83ECF0EDA3F022AF83A7
:101BF000E58290019FF0EFA3F090019FE0FEA3E04B
:101C0000FF74032EFCE43FFD8C828D83E0FAA3E099
:101C1000FB0ABA00010B8C828D83EAF0EBA3F08EF5
:101C2000828F837401F08C828D83E0FB53030790D5
:101C300001A174C7F09001A27402F08C828D83E040
:101C40009001A3F08C828D83E0A3E09001A4F00EBC
:101C5000BE00010F8E828F83E09001A5F08E828FEF
:101C600083E0A3E09001A6F09001AAE4F09001A91E
:101C7000F09001A8F09001A7F09001A1F5F0C00349
:101C80001219D3AF82D0039001ABEFF06307FF903E
:101C900001ACEFF07F008B06EE75F00CA4FE8F0513
:101CA000ED2EFEEF24A1F582E43401F583E09001EE
:101CB00088F08E82C007C00312196ED003D0070FC0
:101CC000BF0C0040D122E5829001ADF0E0B40100EC
:101CD00092C222E5829001AEF0E0B4010092C122EE
:101CE0007582030204E6758201121CC67582011218
:101CF0001CD3121CE0758200121CC6121CE07582F7
:101D000000021CD3758200121CC6758201121CD3FE
:101D1000121CE0758201121CC6021CE0E5829001D3
:101D2000AFF07F009001AFE0FE74805EF582C007E7
:101D3000C006121CC6758201121CD3121CE07582EB
:101D400000121CD3D006D007EE2E9001AFF00FBFCB
:101D5000080040D0758201121CC6758201121CD386
:101D6000121CE0758200021CD3E5829001B0F012D3
:101D70001CE6758278121D1C758200121D1C9001D4
:101D8000B0E0F582121D1C021D04E5829001B2F044
:101D9000E024B0F582121D699001B1E0FF740F5F7D
:101DA000F582C007121D69D007EFC4540FFF430727
:101DB000108F82021D69E5829001B5F0E0FFBF0C33
:101DC00000500F9001B3E0FEBE20004005BE600051
:101DD0004004758200227D00EE24E0FEED34FFA277
:101DE000E713CE13CEA2E713CE13CE9001B4E003D7
:101DF00003543FFDEF75F020A4244BFC744435F0F0
:101E0000FFED2D2CF582E43FF5838EF005F07E008A
:101E10007F808007C3EF13FFEE13FED5F0F6E49347
:101E2000FCA3E493FDEC5206ED5207EE4FB4010023
:101E3000B39205E433F58222758201121CC67582C5
:101E400001121CD37EA87F618E048F051EBEFF0188
:101E50001FEC4D60030080F07582AE121D69758223
:101E600020121D69758202121D697582C8121D69D2
:101E70007582A1121D697582A6121D697582A8124C
:101E80001D6975823F121D697582D3121D697582A5
:101E900000121D697582D5121D69758280121D6937
:101EA0007582D9121D697582F1121D697582DA1267
:101EB0001D69758212121D697582DB121D6975829A
:101EC00040121D6975828D121D69758214121D697B
:101ED0007582AF121D69758200021EDCE5829001D9
:101EE000B6F0E0FF7E009001B1E4F08E82C007C042
:101EF00006121D8A121CE6758278121D1C7582401E
:101F0000121D1CD006D0077D009001B7E4F08D04AF
:101F1000FB8E02EAC40354F8FA8B01E92AFA900115
:101F2000B3ECF09001B4EAF08F82C007C006C005A0
:101F3000C004C003121DB6E582D003D004D005D082
:101F400006D00760148BF005F07401800225E0D5FF
:101F5000F0FBFA9001B7E04AF00BBB080040B290EA
:101F600001B7E0F582C007C006C005121D1CD005F0
:101F7000D006D0070DBD8000408FC007C006121DDF
:0F1F800004D006D0070EBE08005003021EE62252
:10444B001008381C6C36C66303C0018099998181B2
:10445B0001802184C183018003C00660FC3F000002
:10446B001008381C6C36C66303C00180A5A599994A
:10447B00018081814182218483C10660FC3F000061
:10448B001008381C6C36C66303C00180B99DA5A506
:10449B00018081814182418283C10660FC3F000023
:1044AB001008381C6C36C66303C00180A5A599990A
:1044BB00018049922189499203C00660FC3F0000AC
:1044CB001008381C6C36C66303C001800180F99F4D
:1044DB0001808181C183018003C00660FC3F000025
:1044EB001008381C6C36C66303C001809999818112
:1044FB00218441828181218403C00660FC3F4002FC
:10450B001008381C6C36C66303C001818999818100
:10451B00018041822184018003C40666FC3F180C94
:10452B008001C003E007B00D801980318061FFFF6F
:10453B00FFFF806180318019B00DE007C00380015F
:10454B008001C003E007B00D800180018001FFFFF7
:10455B00FFFF86618C319819B00DE007C003800115
:10456B00800180038007FF0FFF1FFF3FFF7FFFFFCF
:10457B00FFFFFF7FFF3FFF1FFF0F800780038001BF
:10458B008001C001E001F0FFF8FFFCFFFEFFFFFF21
:10459B00FFFFFEFFFCFFF8FFF0FFE001C001800111
:1045AB00018003C006600C301818300C6006C00385
:1045BB00C0036006300C18180C30066003C0018075
:101F8F00AF82AE83ADF0FC900255EFF0EEA3F0ED13
:101F9F00A3F0ECA3F0900251E0FCA3E0FDA3E0FE60
:101FAF00A3E0FF900255E0F8A3E0F9A3E0FAA3E065
:101FBF00FBE8C39CE99DEA9EEB9F33B39206E433A3
:101FCF00F58222E58290025AF0E0FE7F00900259DE
:101FDF00E07D002EFEED3FFF8E048F05C374649CE1
:101FEF00E49D50047D6480028E058D8222E58290EF
:101FFF00025CF0E0FF90025BE0FEC39F5006EFC370
:10200F009EFF80027F008F8222AF83E58290025F66
:10201F00F0EFA3F090025FE0FEA3E0FF8E828F83CC
:10202F001208FA1204CCAC82AD83AEF0FF90025DC1
:10203F00E0F8A3E0F97A007B0090021DE82CF0E9AC
:10204F003DA3F0EA3EA3F0EB3FA3F022E58290021E
:10205F0063F0E0900264F0900261E0FEA3E0FF9075
:10206F00012FEEF0EFA3F090026575F000120CC097
:10207F0090014B7464F07402A3F0E4A3F090014E4E
:10208F007403F0758211020EBDE582900267F0E0D5
:10209F00900268F090014B7468F07402A3F0E4A30F
:1020AF00F090014E04F0758231020EBD758202125E
:1020BF0020989001D2E4F09001D3F022E5829002B3
:1020CF0069F090026A745AF090026BF4F090026912
:1020DF00E0FF90026CF06307FF90026DEFF090004D
:1020EF00C87404F090026A75F000020B03E5829049
:1020FF000277F09001CBE0700C9001CAE07006906F
:10210F0001D2E06001229001D5E0FEA3E0FF0EBEF8
:10211F0000010F9001D5EEF0EFA3F0EE4F70099094
:10212F0001D57401F0E4A3F09001D5E0FEA3E0FF28
:10213F0090012AEEF0EFA3F090027875F000120CE8
:10214F0080900277E0FF90027AF090026EE0FDA39C
:10215F00E0FE90012FEDF0EEA3F090027B75F00002
:10216F00C007120CC0900270E0FBA3E0FCA3E0FDDF
:10217F00A3E0FE90013BEBF0ECA3F0EDA3F0EEA398
:10218F00F090027D75F000120D74900274E0FDA3C3
:10219F00E0FE90012AEDF0EEA3F090028175F000C1
:1021AF00120C8090014B7478F07402A3F0E4A3F04A
:1021BF0090014E740BF0758220120EBD9001D274F7
:1021CF0001F09001D5E0FDA3E0FE9001D7EDF0EE18
:1021DF00A3F0900276E09001D3F01204CCAB82AC66
:1021EF0083ADF0FED007BF020A7880793E7A007F78
:1021FF000080087840791F7A007F0090024DE82B0D
:10220F00F0E93CA3F0EA3DA3F0EF3EA3F022AF8349
:10221F00E582900288F0EFA3F090028AE4F090023A
:10222F0088E0FEA3E0FF74012EFCE43FFD8C828D5D
:10223F0083E0FB900283E0FAB50302802A8C828D43
:10224F0083EAF074032EFEE43FFF900284E0FAA3CA
:10225F00E0FBA3E0FCA3E0FD8E828F83EAF0EBA30B
:10226F00F0ECA3F0EDA3F0900288E0FEA3E0FF8E68
:10227F00828F83A3E0FD8E038F048B828C83E0FA21
:10228F00EDB5020302233FC003C004900284E0F5C2
:10229F0017A3E0F518A3E0F519A3E0F51A8E828FC6
:1022AF0083A3A3A3E0F8A3E0F9A3E0FAA3E0FC90D3
:1022BF000251741E28F0E439A3F0E43AA3F0E43C91
:1022CF00A3F08517828518838519F0E51AC007C01A
:1022DF0006C005C004C003121F8FE582D003D004CF
:1022EF00D005D006D007D004D00360448B828C83F6
:1022FF00EDF0ED602774072EF582E43FF583E517C7
:10230F00F0E518A3F0E519A3F0E51AA3F08E828F7C
:10231F0083A3A3E4F090028A04F0801474022EFECB
:10232F00E43FFF8E828F83E0700690028A7402F082
:10233F00900288E0FEA3E0FF8E048F058C828D83D0
:10234F00E0607174022EFCE43FFD8C828D83E0709F
:10235F0063C004C005900284E0F8A3E0F9A3E0FA9B
:10236F00A3E0FB74072EF582E43FF583E0FCA3E0C6
:10237F00FDA3E0FEA3E0FF90025174B02CF07404B3
:10238F003DA3F0E43EA3F0E43FA3F0888289838A63
:10239F00F0EBC005C004121F8FE582D004D005D02A
:1023AF0005D004600F8C828D837401F090028AE057
:1023BF0043E004F090028AE0F58222E58290028BDE
:1023CF00F09001CBE0FF90028BE0FEEFB50601220B
:1023DF009001CBEEF09001D2E4F0EE60027401FFB9
:1023EF008F8212209890028BE0602412242E90028C
:1023FF005D7404F07401A3F09008FC122018900192
:10240F00C9E0FFBF4B0050169001C9744BF02290EA
:10241F00025D7464F0E4A3F09003B60220182290DA
:10242F000207E4F0900206F01209EB90021DE4F0AF
:10243F00A3F0A3F0A3F022AF82AE83ADF0FC900225
:10244F008CEFF0EEA3F0EDA3F0ECA3F012242E909E
:10245F0002077401F090028CE0FCA3E0FDA3E0FE04
:10246F00A3E0FF90022574B02CF074043DA3F0E4B8
:10247F003EA3F0E43FA3F09002057406F090022112
:10248F0074B02CF074363DA3F0E43EA3F0E43FA308
:10249F00F022AF82AE83ADF0FC900290EFF0EEA38E
:1024AF00F0EDA3F0ECA3F0900207E06048900290EB
:1024BF00E0FCA3E0FDA3E0FEA3E0FF900225E0F81F
:1024CF00A3E0F9A3E0FAA3E0FB900251E8F0E9A33F
:1024DF00F0EAA3F0EBA3F08C828D838EF0EFC007B0
:1024EF00C006C005C004121F8FE582D004D005D0EE
:1024FF0006D007700122900206E0FBBB20004003CC
:10250F0002242EEB75F004A424CBF582744535F02C
:10251F00F583E493FAA3E493FB8A828B83C007C00D
:10252F0006C005C0041208FAD004D005D006D007A3
:10253F00900206E0F51B75F004A424CBF974453521
:10254F00F0FA89828A83A3A3E493F9A3E493F8E4CE
:10255F00FAFBE92CFCE83DFDEA3EFEEB3FFFEC24E5
:10256F00DDF8ED34FFF9EE34FFFAEF34FFFB9002A4
:10257F001DE8F0E9A3F0EAA3F0EBA3F0900225EC3D
:10258F00F0EDA3F0EEA3F0EFA3F0900206E51B042D
:10259F00F022E582900294F01204CCAC82AD83AEAF
:1025AF00F0FF900294E0FB900261F0E4A3F07582DB
:1025BF0005C007C006C005C004C00312205BD003CE
:1025CF00D004D005D006D007EB24F3500122EB2422
:1025DF000A83F582EB241183F583E4737E050832B9
:1025EF005C86B0DAE6FA3C466127262626262626A2
:1025FF002626262727270220BB90026E74F4F0743C
:10260F0001A3F0900270E4F0A3F0A3F0A3F0900206
:10261F007474A0F0E4A3F09002767407F075820151
:10262F000220FC90026E740CF074FEA3F090027006
:10263F00E4F0A3F0A3F0A3F090027474A0F0E4A36D
:10264F00F09002767408F07582010220FC90026E01
:10265F0074F4F07401A3F0900270E4F0A3F0A3F00F
:10266F00A3F090027474A0F0E4A3F09002767409C2
:10267F00F07582030220FC90026E740CF074FEA3BE
:10268F00F0900270E4F0A3F0A3F0A3F09002747442
:10269F00A0F0E4A3F0900276740AF0758203022092
:1026AF00FC90026EE4F0A3F090027074A0F0748CB2
:1026BF00A3F0E4A3F0A3F090027474F4F07401A3F8
:1026CF00F0900276F07582020220FC9001CA74012C
:1026DF00F01220BB02242E9001CAE4F090025D7428
:1026EF005AF0E4A3F090044C0220189001C8E0FBCC
:1026FF009002597405F08B82C007C006C005C00454
:10270F00121FD2AB82D004D005D006D0079001C8DB
:10271F00EBF09002057401F090022174C42CF07458
:10272F00093DA3F0E43EA3F0E43FA3F0228C828D99
:10273F00838EF0EF0224469002057401F09002217F
:10274F0074C42CF074093DA3F0E43EA3F0E43FA35E
:10275F00F0229001CCE4F0900205F0900221740871
:10276F002CF074073DA3F0E43EA3F0E43FA3F02266
:10277F0090029575F000120A4CE5827001229002CA
:10278F0095E0FFBF01004012EF24F3400D900202CD
:10279F00E070078F821225A180D6900202E0FF24FD
:1027AF00FC406AEF2F9027B8738006801480278033
:1027BF0035900295E0FFBFA5B79002027401F0803B
:1027CF00AF900295E0FFBF5A047F0280027F009016
:1027DF000202EFF0809A900295E0900203F09002CF
:1027EF00027403F0808A900203E0FF74FF6FFE9083
:1027FF000295E0B5060FBF0100400AEF24F3400534
:10280F008F821225A1900202E4F002277F9002022C
:10281F00E4F002277FE582900296F0E0900297F0B5
:10282F0090012A7478F0E4A3F0900298F5F0120C5E
:10283F008090012A742CF07401A3F090029A75F025
:10284F0000120C8090014B7497F07402A3F0E4A374
:10285F00F090014E7405F0758222020EBDE5829054
:10286F00029CF0E0FFBF010475820722BF020475CE
:10287F00820822BF030475820922BF040475820AED
:10288F002275820022AF82AE83ADF0FC90029DEFE5
:10289F00F0EEA3F0EDA3F0ECA3F090029DE0FCA30B
:1028AF00E0FDA3E0FEA3E0FF747C2CFC74013DFD72
:1028BF00E43EFEE43FFF9002A175F000C007C006A2
:1028CF00C005C004120B82E582D004D005D006D01B
:1028DF00077001229002A1E0FB24FB50027B0090C5
:1028EF0002A2EBF09002A1E0FBBB05028003EB70AC
:1028FF0020758200C007C006C005C004122824122C
:10290F0020BBD004D005D006D0079002A2E4F080FF
:10291F00629001CAE0705C9001CBE070569001D2DA
:10292F00E06013C007C006C005C0041220BBD0046E
:10293F00D005D006D0079002A2E0FBF582C007C0F9
:10294F0006C005C004C003122824D0038B821228AE
:10295F006CAB82D004D005D006D0079001D3EBF03A
:10296F00900205EBF0900221ECF0EDA3F0EEA3F056
:10297F00EFA3F09002A2E09001D4F09002A1E0FB4F
:10298F00900208E0FAEBB502030228C5900261EB52
:10299F00F0E4A3F0758209C007C006C005C0041299
:1029AF00205BD004D005D006D0079002A1E09002A2
:1029BF0008F00228C59000CFE0FFBF0202801890F8
:1029CF0000D0E0FF9000D1E0900150F090015174E1
:1029DF0001F08F82020F849000D0E0FFBF010280D0
:1029EF001BBF02028016BF21028023BF3103022AC0
:1029FF0095BF7E0122BF7F0122022AF79000D1E00E
:102A0F00900150F0900151E4F08F82020F849000FA
:102A1F00D2E0FEBE095D9000D375F000120DB4AD8B
:102A2F0082AE839001D7E0FBA3E0FCEDB5032DEE62
:102A3F00B504299001D2E4F09001D3F09000D5E0D5
:102A4F0070067DE27E0480047D8A7E0290025D74B2
:102A5F005AF0E4A3F08D828E831220189000D0E0FC
:102A6F00FE9000D1E0900150F0900151E4F08E8281
:102A7F00020F849000D1E0900150F0900151740248
:102A8F00F08F82020F849000D2E0FE24FE4046EECB
:102A9F0060079000D3E0FE80027E01BE0207900126
:102AAF00D2E4F08019EEB40100B39207E433FE9044
:102ABF0001CBF0EE600812242E9001D2E4F09000CA
:102ACF00D0E0FE9000D1E0900150F0900151E4F081
:102ADF008E82020F849000D1E0900150F09001514E
:102AEF007402F08F82020F849000D1E0900150F0B9
:102AFF009001517403F08F82020F84900200E4F072
:102B0F0090020DF0A3F0A3F0A3F0900209F0A3F050
:102B1F00A3F0A3F09001CAF09001C9E0FFBF5000ED
:102B2F0050069001C97450F09001C8E0FF90025B0D
:102B3F00740AF08F82121FFCAF829001C8EFF0125F
:102B4F00242E9001B8E0900261F0E4A3F0758201A9
:102B5F0012205B90025D7440F07401A3F090083472
:102B6F001220187582801220CB90026E740CF074B4
:102B7F00FEA3F0900270E4F0A3F0A3F0A3F0900294
:102B8F007474B4F0E4A3F09002767408F0758201C7
:102B9F000220FCAF82AE83ADF0FC9002A3EFF0EE0B
:102BAF00A3F0EDA3F0ECA3F0758204120504AF823D
:102BBF00C007120562E582D0077001229002A7E0DC
:102BCF00700D9001B8EFF09002A77401F080219082
:102BDF0001B8E075F003A4FEADF07C00EF2EFEEC23
:102BEF003DC313CE13CEC313CE13CE9001B8EEF068
:102BFF009001B8E0FFBF14005003022C9790020D14
:102C0F00E4F0A3F0A3F0A3F0900209E0F5F0A3E045
:102C1F0042F0A3E042F0A3E045F0701C9002A3E065
:102C2F00FBA3E0FCA3E0FDA3E0FE900209EBF0ECB8
:102C3F00A3F0EDA3F0EEA3F0900200E0700122905C
:102C4F0002A3E0F51CA3E0F51DA3E0F51EA3E0F53C
:102C5F001F900209E0F8A3E0F9A3E0FAA3E0FE90C9
:102C6F00025174C828F0E439A3F0E43AA3F0E43E2B
:102C7F00A3F0851C82851D83851EF0E51F121F8F13
:102C8F00E582700122022B0AEF24F05003022D255A
:102C9F00900209E4F0A3F0A3F0A3F090020DE0F589
:102CAF00F0A3E042F0A3E042F0A3E045F0701C90E7
:102CBF0002A3E0FCA3E0FDA3E0FEA3E0FF90020D62
:102CCF00ECF0EDA3F0EEA3F0EFA3F0900200E070B4
:102CDF005A9002A3E0FCA3E0FDA3E0FEA3E0FF9067
:102CEF00020DE0F8A3E0F9A3E0FAA3E0FB90025194
:102CFF0074D028F0740739A3F0E43AA3F0E43BA3AF
:102D0F00F08C828D838EF0EF121F8FE582601C9006
:102D1F0002007401F02290020DE4F0A3F0A3F0A3DF
:102D2F00F0900209F0A3F0A3F0A3F022AF82AE83DC
:102D3F00ADF0FC9002A8EFF0EEA3F0EDA3F0ECA342
:102D4F00F0758207120504AF82C00712065FAE82CC
:102D5F009002A8E0FAA3E0FBA3E0FCA3E0FD900241
:102D6F0083EEF0900284EAF0EBA3F0ECA3F0EDA376
:102D7F00F09001DEC005C004C003C00212221DAED8
:102D8F0082D002D003D004D005C006C005C004C055
:102D9F0003C002120669E582D002D003D004D00529
:102DAF00900283F0900284EAF0EBA3F0ECA3F0ED35
:102DBF00A3F09001E9C005C004C003C00212221D98
:102DCF00A982D002D003D004D005D006D0078F82BD
:102DDF00C006C005C004C003C002C001120673E5DF
:102DEF0082D001D002D003D004D005900283F0909E
:102DFF000284EAF0EBA3F0ECA3F0EDA3F09001F462
:102E0F00C00112221DAF82D001D006C007C006C07C
:102E1F0001120683AD82D001D006D007EE30E12635
:102E2F009001CCE00454039001CCF0900261740146
:102E3F00F0E4A3F0758206C007C005C00112205B45
:102E4F00D001D005D007E930E24A900207E0600DCB
:102E5F00C007C00512242ED005D007801E9002A8EF
:102E6F00E0FAA3E0FBA3E0FCA3E08A828B838CF063
:102E7F00C007C005122446D005D007900261741414
:102E8F00F0E4A3F0758206C007C00512205BD005E1
:102E9F00D007803CE930E1389001CAE0B4010092DC
:102EAF0008E433FE9001CAF0EE600EC007C00512B1
:102EBF0020BB12242ED005D0079002617402F0E4DB
:102ECF00A3F0758206C007C00512205BD005D0079E
:102EDF00EF30E02B9001CBE09001FFF09001CBE0C1
:102EEF00701D758201C007C0051223CA900261745C
:102EFF0003F0E4A3F075820612205BD005D007EF34
:102F0F0030E2249001FFE0601E758200C00512239D
:102F1F00CA9001FFE4F0900261741EF0E4A3F07513
:102F2F00820612205BD0059001C7EDF0ED6078901E
:102F3F000201E070729001DAE0FEA3E0FF0EBE0026
:102F4F00010F9001DAEEF0EFA3F09001C8E0FF90CF
:102F5F0002597423F08F82C005121FD2AF829001E5
:102F6F00C8EFF09001C9E0FF90025B7414F08F82FC
:102F7F00121FFCAF829001C9EFF09001DAE0FEA3BF
:102F8F00E0FF900261EEF0EFA3F075820312205B79
:102F9F0090025D7464F0E4A3F090047E1220189008
:102FAF0001D9121BEED005900201EDF022AF82AED7
:102FBF0083ADF0FC9002ACEFF0EEA3F0EDA3F0ECDC
:102FCF00A3F09001BD75F0001213A112068DE582DA
:102FDF00701A9001C5E060109001C3E0FEA3E0FFFE
:102FEF00C3745A9EE49F4004C2098002D209A20909
:102FFF00E433FF9001C6F0EF7001229002ACE0FCC9
:10300F00A3E0FDA3E0FEA3E0FF900219E0F8A3E028
:10301F00F9A3E0FAA3E0FB90025174D028F07407F3
:10302F0039A3F0E43AA3F0E43BA3F08C828D838EB6
:10303F00F0EFC007C006C005C004121F8FE582D095
:10304F0004D005D006D007603A900219ECF0EDA33A
:10305F00F0EEA3F0EFA3F09001C9E0FFBF4B0050DB
:10306F00069001C9744BF09001C3E0FEA3E0FF90FE
:10307F000261EEF0EFA3F075820212205B75820100
:10308F000223CA22AF82AE83ADF0FC9002B0EFF004
:10309F00EEA3F0EDA3F0ECA3F0758203120504AFDD
:1030AF0082C007120562E582D0077001228F82125B
:1030BF000569AE82AF839001B9EEF0EFA3F09001F6
:1030CF00BBE0FCA3E0FD74142CFCE43DFDC3EE9CBF
:1030DF00EF64808DF063F08095F0500302322390FF
:1030EF000211E0F5F0A3E042F0A3E042F0A3E045C7
:1030FF00F0701C9002B0E0FCA3E0FDA3E0FEA3E0A3
:10310F00FF900211ECF0EDA3F0EEA3F0EFA3F0901F
:10311F0002B0E0FCA3E0FDA3E0FEA3E0FF900211EC
:10312F00E0F8A3E0F9A3E0FAA3E0FB90025174D01A
:10313F0028F0740739A3F0E43AA3F0E43BA3F08C32
:10314F00828D838EF0EFC007C006C005C004121F2A
:10315F008FE582D004D005D006D0077001229002EF
:10316F0015E0F8A3E0F9A3E0FAA3E0FB9002517495
:10317F001028F0742739A3F0E43AA3F0E43BA3F04E
:10318F008C828D838EF0EFC007C006C005C004127D
:10319F001F8FE582D004D005D006D0077001229092
:1031AF000215ECF0EDA3F0EEA3F0EFA3F09001C841
:1031BF00E0FB90025B740AF08B82C007C006C0056B
:1031CF00C004121FFCAB829001C8EBF09001B9E074
:1031DF00FAA3E0FB900261EAF0EBA3F07582041210
:1031EF00205B90025D7450F0E4A3F09006D612209D
:1031FF0018D004D005D006D0079002057405F090C2
:10320F00022174B82CF0740B3DA3F0E43EA3F0E45C
:10321F003FA3F022900211E4F0A3F0A3F0A3F02259
:10322F00AF83E5829002B4F0EFA3F09002B4E0FC1C
:10323F00A3E0FDE03395E0FEFF900301ECF0EDA37A
:10324F00F0EEA3F0EFA3F09003E8E4F5F012428361
:10325F00AC82AD83AEF0FF9002E9E4F004A3F0E49A
:10326F00A3F0A3F08C828D838EF0EF124098AC8286
:10327F00AD83AEF0FF9002B6ECF0EDA3F0EEA3F04D
:10328F00EFA3F0C374FF9C747F9DE49E74808FF056
:10329F0063F08095F0500F9002B674FFF0747FA327
:1032AF00F0E4A3F0A3F09002B6E0A3E0FDA3E0FEEC
:1032BF00A3E0FFC3ED9480EE94FFEF6480947F5002
:1032CF000F9002B6E4F07480A3F074FFA3F0A3F0A4
:1032DF009002B6E0FEA3E08E82F58322AF82AE832A
:1032EF00ADF0FC9002BAEFF0EEA3F0EDA3F0ECA37B
:1032FF00F09002D2E4F09001CAE060069002D2741E
:10330F0001F09001CBE060089002D2E043E002F0C0
:10331F009001CDE06007120562E58270089002D23D
:10332F00E043E010F09001D4E060089002D2E04357
:10333F00E020F09002BAE0FCA3E0FDA3E0FEA3E0E2
:10334F00FF900134ECF0EDA3F0EEA3F0EFA3F090BB
:10335F0002BE75F000120CF49001B8E09002C2F0BA
:10336F009001B9E0FEA3E0FF90012FEEF0EFA3F084
:10337F009002C375F000120CC09001BDE0FEA3E0F7
:10338F00FF8E828F8312322FE5828583F090012F7B
:10339F00F0E5F0A3F09002C575F000120CC090019B
:1033AF00BFE0FEA3E0FF8E828F8312322FE582856E
:1033BF0083F090012FF0E5F0A3F09002C775F000B5
:1033CF00120CC09001C1E0FEA3E0FF8E828F83122A
:1033DF00322FE5828583F090012FF0E5F0A3F09076
:1033EF0002C975F000120CC09001C6E09002CBF03C
:1033FF009001C7E09002CCF09001C8E09002CDF0B0
:10340F009001C9E09002CEF09002D2E09002CFF08E
:10341F009001DAE0FEA3E0FF90012AEEF0EFA3F0B7
:10342F009002D075F000120C8090014B74BEF074B6
:10343F0002A3F0E4A3F090014E7414F07582100211
:10344F000EBDAF82AE83ADF0FC9002D3EFF0EEA3D2
:10345F00F0EDA3F0ECA3F09001CBE0600475820BCC
:10346F0022900221E0FCA3E0FDA3E0FEA3E0FF9089
:10347F000221E0F5F0A3E042F0A3E042F0A3E04523
:10348F00F060319002D3E0F8A3E0F9A3E0FAA3E0F3
:10349F00FB900251ECF0EDA3F0EEA3F0EFA3F08858
:1034AF008289838AF0EB121F8FE5827007900205E5
:1034BF00E0F582229001CAE0600475820422900137
:1034CF00C6E06004758203229001D2E0600790018C
:1034DF00D3E0F582229001C9E0FFBF3700400475A9
:1034EF008202229001C8E024B9500475820122752E
:1034FF00820022AF82AE83ADF0FC9002D7EFF0EEE8
:10350F00A3F0EDA3F0ECA3F09002D7E0FCA3E0FD55
:10351F00A3E0FEA3E08C828D838EF0123451AF8234
:10352F00C0071207BBD0079001CBE060439000B1FA
:10353F007453F0758200C0071207D0D0079000B106
:10354F007454F0758201C0071207D0D0079000B1F4
:10355F00744FF0758202C0071207D0D0079000B1E8
:10356F007450F0758203C0071207D0D00702376678
:10357F009001CCE0FE70599000B1744CF075820050
:10358F00C0071207D0D0079001B8E09000B3F0E465
:10359F00A3F09000B57403F0758201C0071207FF06
:1035AF00D0079000B17446F0758204C0071207D09F
:1035BF00D0079001C9E09000B3F0E4A3F09000B5FC
:1035CF007403F0758205C0071207FFD00702376634
:1035DF00BE010280030236669000B17443F075821B
:1035EF0000C0071207D0D0079001B9E0FCA3E0FD9F
:1035FF0030E7067A007B00801890030A740AF0E423
:10360F00A3F08C828D83C00712439AAA82AB83D01A
:10361F00079000B3EAF0EBA3F09000B57403F075D8
:10362F008201C0071207FFD0079000B17448F075F0
:10363F008204C0071207D0D0079001C8E09000B3F2
:10364F00F0E4A3F09000B57403F0758205C0071283
:10365F0007FFD007023766BE02759001CEE06051BA
:10366F009001CFE09000B3F0E4A3F09000B57402A6
:10367F00F0758200C0071207FFD0079001D0E090CD
:10368F0000B3F0E4A3F09000B57402F0758202C0AD
:10369F00071207FFD0079001D1E09000B3F0E4A329
:1036AF00F09000B57402F0758204C0071207FFD0C6
:1036BF00079001CAE060047E5380027E419000B102
:1036CF00EEF0758207C0071207D0D0070237669059
:1036DF0000B17445F0758200C0071207D01211CCEB
:1036EF00AD82AE8390030574E8F07403A3F08D826E
:1036FF008E831242EFAD82AE83D0079000B3EDF010
:10370F00EEA3F09000B57403F0758201C0071207A5
:10371F00FFD0079000B17455F0758204C0071207EF
:10372F00D0120B6AAD82AE8390030574E8F0740378
:10373F00A3F08D828E831242EFAD82AE83D00790BD
:10374F0000B3EDF0EEA3F09000B57403F0758205B1
:10375F00C0071207FFD0079001CBE0601C9002D783
:10376F00E0A3E0FCA3E0A3E0EC30E0047EFF8002E6
:10377F007E009002DBEEF0803E9001C9E0FEBE3786
:10378F0000401C9002D7E0A3E0FCA3E0A3E0EC30E4
:10379F00E0047EAA80027E559002DBEEF080189046
:1037AF0001C8E0FEBE4B0040089002DB747EF08043
:1037BF00069002DB7418F09002DBE0F582C007126E
:1037CF000899D007900204E0FEEFB50601228F8220
:1037DF00C007121EDCD007900204EFF0229001C93F
:1037EF00E0FF90025B7403F08F82121FFCAF829098
:1037FF0001C9EFF09001C8E0FF24CD5007EF1490FE
:10380F0001C8F022BF320050060F9001C8EFF0221E
:10381F009002DC747FF09002DDE4F01204CCAC82F5
:10382F00AD83AEF0FFC007C006C005C004120C6622
:10383F009001D9121A1FD004D005D006D0079001DD
:10384F00D9E070119001D9E4F09001DCF0A3F09071
:10385F0001DAF0A3F0758204C007C006C005C004EA
:10386F00120504AB829001B8EBF0758203120504C8
:10387F00120569AA82AB839001B9EAF0EBA3F0902D
:10388F0001BBEAF0EBA3F09001C87432F09001C9CC
:10389F00E4F09001D5F0A3F09001D4F09001D2F0B4
:1038AF009001CCF09001CBF09001CAF012130FAB46
:1038BF00829001CDEBF09001C5E4F09001CEF09035
:1038CF0001F5F09001F4F09001EAF09001E9F09029
:1038DF0001DFF09001DEF090020004F0120683E5A4
:1038EF0082900201F0900202E4F090020414F09032
:1038FF000221E4F0A3F0A3F0A3F0900207F09002EE
:10390F000814F090021DE4F0A3F0A3F0A3F09002CE
:10391F0019F0A3F0A3F0A3F0900215F0A3F0A3F019
:10392F00A3F0900211F0A3F0A3F0A3F090020DF01A
:10393F00A3F0A3F0A3F0900209F0A3F0A3F0A3F07B
:10394F00121E3890014B74DCF07402A3F0E4A3F064
:10395F0090014E7402F0758201120EBDD004D00595
:10396F00D006D007900239ECF0EDA3F0EEA3F0EF04
:10397F00A3F0900231ECF0EDA3F0EEA3F0EFA3F083
:10398F0090022DECF0EDA3F0EEA3F0EFA3F0900278
:10399F0029ECF0EDA3F0EEA3F0EFA3F0900249ECC9
:1039AF00F0EDA3F0EEA3F0EFA3F0900245ECF0EDF5
:1039BF00A3F0EEA3F0EFA3F0900241ECF0EDA3F033
:1039CF00EEA3F0EFA3F090023DECF0EDA3F0EEA329
:1039DF00F0EFA3F0900235ECF0EDA3F0EEA3F0EFD3
:1039EF00A3F0221204CCAC82AD83AEF0FFC007C0AF
:1039FF0006C005C00412106FE582D004D005D006B2
:103A0F00D0076015C007C006C005C0041229C4D076
:103A1F0004D005D006D00780D4C007C006C005C0AB
:103A2F000412277FD004D005D006D0078C828D8357
:103A3F008EF0EFC007C006C005C004122894D00452
:103A4F00D005D006D00790021DE0F8A3E0F9A3E05F
:103A5F00FAA3E0FB90021DE0F5F0A3E042F0A3E033
:103A6F0042F0A3E045F0604A900251E8F0E9A3F07C
:103A7F00EAA3F0EBA3F08C828D838EF0EFC007C02A
:103A8F0006C005C004121F8FE582D004D005D006F2
:103A9F00D007601EC007C006C005C0041209EBD0D6
:103AAF0004D005D006D00790021DE4F0A3F0A3F0D8
:103ABF00A3F08C828D838EF0EFC007C006C005C0C7
:103ACF00041224A1D004D005D006D00790022DE017
:103ADF00F8A3E0F9A3E0FAA3E0FB900251E8F0E9C4
:103AEF00A3F0EAA3F0EBA3F08C828D838EF0EFC0EE
:103AFF0007C006C005C004C003C002C001C0001249
:103B0F001F8FE582D000D001D002D003D004D005A2
:103B1F00D006D007602D90022D740A28F0E439A347
:103B2F00F0E43AA3F0E43BA3F08C828D838EF0EFA8
:103B3F00C007C006C005C004122D3BD004D005D06D
:103B4F0006D007900229E0F8A3E0F9A3E0FAA3E07A
:103B5F00FB900251E8F0E9A3F0EAA3F0EBA3F08C9D
:103B6F00828D838EF0EFC007C006C005C004C0036E
:103B7F00C002C001C000121F8FE582D000D001D05B
:103B8F0002D003D004D005D006D007602D900229B3
:103B9F00743228F0E439A3F0E43AA3F0E43BA3F045
:103BAF008C828D838EF0EFC007C006C005C0041253
:103BBF002BA2D004D005D006D007900231E0F8A395
:103BCF00E0F9A3E0FAA3E0FB900251E8F0E9A3F0DB
:103BDF00EAA3F0EBA3F08C828D838EF0EFC007C0C9
:103BEF0006C005C004C003C002C001C000121F8F71
:103BFF00E582D000D001D002D003D004D005D0068A
:103C0F00D007602D900231742828F0E439A3F0E436
:103C1F003AA3F0E43BA3F08C828D838EF0EFC007C4
:103C2F00C006C005C004122FBCD004D005D006D0EA
:103C3F0007900235E0F8A3E0F9A3E0FAA3E0FB90C8
:103C4F000251E8F0E9A3F0EAA3F0EBA3F08C828D28
:103C5F00838EF0EFC007C006C005C004C003C002CA
:103C6F00C001C000121F8FE582D000D001D002D05A
:103C7F0003D004D005D006D007602E90023574F41F
:103C8F0028F0740139A3F0E43AA3F0E43BA3F08CDD
:103C9F00828D838EF0EFC007C006C005C0041230BE
:103CAF0093D004D005D006D007900245E0F8A3E0EA
:103CBF00F9A3E0FAA3E0FB900251E8F0E9A3F0EAE0
:103CCF00A3F0EBA3F08C828D838EF0EFC007C006BC
:103CDF00C005C004C003C002C001C000121F8FE5A1
:103CEF0082D000D001D002D003D004D005D006D0AE
:103CFF0007604D90024574E828F0740339A3F0E48F
:103D0F003AA3F0E43BA3F090017B74D0F07401A3CD
:103D1F00F0E4A3F090017E74D1F07401A3F0E4A35A
:103D2F00F09001CFF5F0C007C006C005C004121710
:103D3F00A6AB82D004D005D006D0079001CEEBF011
:103D4F00900249E0F8A3E0F9A3E0FAA3E0FB9002A8
:103D5F0051E8F0E9A3F0EAA3F0EBA3F08C828D8396
:103D6F008EF0EFC007C006C005C004C003C002C07C
:103D7F0001C000121F8FE582D000D001D002D00306
:103D8F00D004D005D006D007602790024974E828E8
:103D9F00F0740339A3F0E43AA3F0E43BA3F0C007B7
:103DAF00C006C005C0041237ECD004D005D006D031
:103DBF0007900239E0F8A3E0F9A3E0FAA3E0FB9043
:103DCF000251E8F0E9A3F0EAA3F0EBA3F08C828DA7
:103DDF00838EF0EFC007C006C005C004C003C00249
:103DEF00C001C000121F8FE582D000D001D002D0D9
:103DFF0003D004D005D006D007602D90023974642B
:103E0F0028F0E439A3F0E43AA3F0E43BA3F08C826A
:103E1F008D838EF0EFC007C006C005C004123502B7
:103E2F00D004D005D006D00790023DE0F8A3E0F90A
:103E3F00A3E0FAA3E0FB900251E8F0E9A3F0EAA3B4
:103E4F00F0EBA3F08C828D838EF0EFC007C006C01D
:103E5F0005C004C003C002C001C000121F8FE5825D
:103E6F00D000D001D002D003D004D005D006D007A7
:103E7F00602D90023D74C828F0E439A3F0E43AA312
:103E8F00F0E43BA3F08C828D838EF0EFC007C00669
:103E9F00C005C0041232EBD004D005D006D0079075
:103EAF000241E0F8A3E0F9A3E0FAA3E0FB9002518E
:103EBF00E8F0E9A3F0EAA3F0EBA3F08C828D838EF8
:103ECF00F0EFC007C006C005C004C003C002C001A8
:103EDF00C000121F8FE582D000D001D002D003D0D6
:103EEF0004D005D006D007605490024174F428F036
:103EFF00740139A3F0E43AA3F0E43BA3F09001344A
:103F0F00ECF0EDA3F0EEA3F0EFA3F09002DE75F06E
:103F1F0000C007C006C005C004120CF490014B741A
:103F2F00DEF07402A3F0E4A3F090014E7404F07578
:103F3F008202120EBDD004D005D006D0079001D258
:103F4F00E0605E90024DE0F8A3E0F9A3E0FAA3E091
:103F5F00FB900251E8F0E9A3F0EAA3F0EBA3F08C99
:103F6F00828D838EF0EFC007C006C005C004121FFC
:103F7F008FE582D004D005D006D00760249001D2FF
:103F8F00E4F09002617414F0E4A3F0758208C007A6
:103F9F00C006C005C00412205BD004D005D006D0E7
:103FAF0007900221E0F8A3E0F9A3E0FAA3E0FB9069
:103FBF000221E0F5F0A3E042F0A3E042F0A3E045D8
:103FCF00F06038900251E8F0E9A3F0EAA3F0EBA318
:103FDF00F08C828D838EF0EF121F8FE582601C9024
:103FEF000221E4F0A3F0A3F0A3F09001D4E0600B62
:0C3FFF009001D4E4F07582000228242216
:1045CB009302FA009302FA004B02FA000B02F40179
:1045DB000B02FA004B02FA009302F4011003F401F0
:1045EB009302FA009302FA004B02FA000B02F40159
:1045FB000B02FA004B02FA009302F401EE01F401F4
:10460B000B02FA004B02FA009302FA001003FA00B5
:10461B007003F4011003FA009302FA004B02F40149
:10462B000B02FA004B02FA009302FA001003FA0095
:10463B009302F4014B02FA000B02FA00EE01EE02B8
:10400B00AF83E5829002E4F0EFA3F09002E6E4F0D8
:10401B00A3F09002E2E0FEA3E0FF7D109002E4E04B
:10402B00FBA3E0FC9002E8235401F0EB2BFBEC33F9
:10403B00FC9002E4EBF0ECA3F09002E6E0FBA3E0D3
:10404B00FCEB2BFBEC33FC9002E6EBF0ECA3F090DB
:10405B0002E8E060089002E6E043E001F09002E63F
:10406B00E0FBA3E0FCC3EB9EEC9F40139002E6EB5E
:10407B00C39EF0EC9FA3F09002E4E043E001F0DD7F
:10408B009B9002E4E0FEA3E08E82F58322AF82AE2A
:10409B0083ADF0FC9002EDEFF0EEA3F0EDA3F0ECAE
:1040AB00A3F09002EDE0FCA3E0FDA3E0FEA3E0FF94
:1040BB0030E70FC3E49CF8E49DF9E49EFAE49FFB20
:1040CB0080088C008D018E028F039002E9E0FCA327
:1040DB00E0FDA3E0FEA3E0FF33E433F5236013C35D
:1040EB00E49CF524E49DF525E49EF526E49FF52755
:1040FB0080088C248D258E268F279002F1E524F0E5
:10410B00E525A3F0E526A3F0E527A3F088828983B4
:10411B008AF0EB124154AC82AD83AEF0FF9002ED0E
:10412B00E0A3E0A3E0A3E033E43365236013C3E42F
:10413B009CF8E49DF9E49EFAE49F888289838AF0D7
:10414B00228C828D838EF0EF22AF82AE83ADF0FC9A
:10415B009002F5EFF0EEA3F0EDA3F0ECA3F09002DC
:10416B00F9E4F0A3F0A3F0A3F09002F1E0FCA3E0DC
:10417B00FDA3E0FEA3E0FF7B20C0039002F5E0F877
:10418B00A3E0F9A3E0FAA3E0FB9002FD235401F0B6
:10419B00E828F8E933F9EA33FAEB33FB9002F5E858
:1041AB00F0E9A3F0EAA3F0EBA3F09002F9E0F8A397
:1041BB00E0F9A3E0FAA3E0FBE828F8E933F9EA33E6
:1041CB00FAEB33FB9002F9E8F0E9A3F0EAA3F0EB8A
:1041DB00A3F0D0039002FDE060089002F9E043E009
:1041EB0001F09002F9E0F528A3E0F529A3E0F52A08
:1041FB00A3E0F52BC3E5289CE5299DE52A9EE52B3D
:10420B009F401F9002F9E528C39CF0E5299DA3F080
:10421B00E52A9EA3F0E52B9FA3F09002F5E043E087
:10422B0001F01BEB60030241849002F5E0FCA3E07C
:0D423B00FDA3E0FEA3E08C828D838EF022B7
:0600BD00E478FFF6D8FD17
:10009B007900E94400601B7A0090464B780E75A0FE
:1000AB0003E493F2A308B8000205A0D9F4DAF275C1
:0200BB00A0FFA4
:1042480020F71130F6138883A88220F509F6A88391
:104258007583002280FEF280F5F022AA83AB828B60
:10426800F09002FFE0A4F8A9F08AF0E0A429F98B05
:10427800F0A3E0A429F58388822222A882A983AA30
:10428800F0FB88F0900301E0A4FCADF089F0E0A415
:104298002DFDE435F0FE88F0A3E0A42DFDE5F03E09
:1042A800FEE433FF89F0E0A42EFEE5F03FFF88F03E
:1042B800A3E0A42EFEE5F03FFF8AF0900301E0A4FE
:1042C8002EFEE5F03FFF8BF0E0A42FFF8AF0A3E07D
:1042D800A42FFF89F0A3E0A42FFF88F0A3E0A42F68
:1042E8008EF08D838C8222AF83E582900307F0EFF6
:1042F800A3F0900309E4F0900307E0FEA3E0FF7D3C
:1043080000900305E0FBA3E0FC2354017036EB2B7F
:10431800FBEC33FC900305EBF0ECA3F0900305E015
:10432800FBA3E0FCC3EE9BEF9C5011ECC313CB1333
:10433800CBFC900305EBF0ECA3F080080D9003098B
:10434800EDF080BD900309E0FF900307E0FDA3E0D6
:10435800FE900305E0FBA3E0FCC3ED9BEE9C400B45
:10436800900307EDC39BF0EE9CA3F0900305E0FDDE
:10437800A3E0C313CD13CDFE900305EDF0EEA3F03B
:104388008F061FEE70C3900307E0FEA3E08E82F550
:104398008322AF83E58290030CF0EFA3F090030C27
:1043A800E0FEA3E0FF30E709C3E49EFCE49FFD8044
:1043B800048E048F0590030AE0FEA3E0FF33E43384
:1043C800FB6009C3E49EF9E49FFA80048E018F0222
:1043D8009002E2E9F0EAA3F08C828D83C0031240D8
:1043E8000BAE82AF83D00390030CE0A3E033E43339
:1043F8006B600CC3E49EFCE49FFD8C828D83228E4F
:04440800828F8322FA
:1000C3007800E84400600A790175A000E4F309D8D8
:1000D300FC780DE84403600C7904900001E4F0A37C
:0400E300D8FCD9FA72
:0D008E0075812B124428E582600302008971
:10440C0020F71430F6148883A88220F507E6A883D9
:10441C0075830022E280F7E49322E0227582002269
:00000001FF
