:040000000200B83210
:03000B000209DB0C
:0100130032BA
:01001B0032B2
:03002300020A636B
:01002B0032A2
:01003300329A
:03003B00020BFCB9
:03004300020B238A
:100048000000E2FBEAF2802C0000E0FBEAF08024EA
:10005800E6B50202EBF62200E2B50202EBF222005C
:10006800E0B50202EBF02230F6E0A88220F5D3EAF0
:10007800C6F582228B822230F6E6A88220F5D98046
:01008800CFA8
:0301110002008960
:0500890012043480FEAA
:10011400E582900078F090005BE0FFBF2800501764
:1001240090005BEF04F0EF2433FFE43400FE900012
:1001340078E08F828E83F022AFF0AE83E582900068
:1001440079F0EEA3F0EFA3F0900079E0FDA3E0FED8
:10015400A3E0FF8D828E838FF0122C2CFC60230D84
:10016400BD00010E900079EDF0EEA3F0EFA3F08C4A
:1001740082C007C006C005120114D005D006D007FE
:1001840080D1900079EDF0EEA3F0EFA3F022AF83DD
:10019400E58290007CF0EFA3F090007E7410F07480
:1001A40027A3F0900080E4F090007EE0FEA3E0FF3F
:1001B4004E70012290007CE0FCA3E0FD9003CDEEA4
:1001C400F0EFA3F08C828D83C007C00612281AAC0E
:1001D40082D006D007900081ECF0EC700C90008087
:1001E400E07006BE0114BF0011900081E02430F5D8
:1001F400821201149000807401F090007EE0FEA34E
:10020400E0FF90007CE0FCA3E0FD9003F1EEF0EF52
:10021400A3F08C828D83C007C006122B81E58285F2
:1002240083F0D006D00790007CF0E5F0A3F09003B3
:10023400CD740AF0E4A3F08E828F8312281AAE8262
:10024400AF8390007EEEF0EFA3F00201ACE5829064
:100254000082F0E0FFC4540F902C4C93F582C00749
:10026400120114D007740F5F902C4C93F582020195
:100274001475820D12011475820A12011490005B28
:10028400E0900352F090003375F00012147990005E
:100294005BE4F022902C5D75F08012013C90005ECE
:1002A400E0B401009200E433FE7F008E828F83125B
:1002B4000192902C6175F08012013C90005FE0B4D3
:1002C40001009200E433FE7F008E828F831201923C
:1002D400902C6675F08012013C90005CE0FE7F007B
:1002E4008E828F83120192902C6D75F08012013CE6
:1002F40090005DE0FE7F008E828F83120192902C2D
:100304007275F08012013C900060E0FE7F008E82E6
:100314008F83120192120275902C7975F08012016C
:100324003C121568120192902C7D75F08012013CEC
:1003340090002BE0FEA3E0FF8E828F831201929047
:100344002C8175F08012013C90002DE0FEA3E0FFAB
:100354008E828F83120192902C8575F08012013C5D
:1003640090006AE0FEA3E0FF8E828F831201921256
:100374000275902C8975F08012013C7F00EF2424D3
:10038400F582E43400F583E0F582C007120251D00F
:10039400070FBF040040E6902C8E75F08012013CDC
:1003A400900028E0FF7E008F828E83120192902CB1
:1003B4009275F08012013C900063E0FE7F008E8213
:1003C4008F83120192902C9875F08012013C1225B3
:1003D400A77E008E83120192120275902C9C75F0F8
:1003E4008012013C7F00EF75F002A42464F582744E
:1003F4000035F0F583E0FDA3E0FE9003F174E8F02E
:100404007403A3F08D828E83C007122B8112019294
:1004140075822F120114D0070FBF030040C8902C1F
:10042400A075F08012013C12157F12019202027530
:10043400120DF51217FF1218BA120EA8AC82AD8372
:10044400AEF0FF9003BC742CF07401A3F09003BED3
:10045400ECF0EDA3F0EEA3F0EFA3F09004B01225BE
:10046400BE120EA8AC82AD83AEF0FF90006CE0F833
:10047400A3E0F9A3E0FAA3E0FBECC398ED99EE9AAC
:10048400EF9B30E70302069190006C740A2CF0E4B1
:100494003DA3F0E43EA3F0E43FA3F0C007C006C0D0
:1004A40005C004121041E58290005EF012104BE585
:1004B4008290005FF0758207120EE6E58290005C80
:1004C400F0120F44E582D004D005D006D007900086
:1004D4005DF090005EE090037AF090037B7401F08D
:1004E40090037CECF0EDA3F0EEA3F0EFA3F090000A
:1004F4000175F000C007C006C005C0041219A1AB05
:1005040082D004D005D006D00790005FE090037A33
:10051400F090037B7401F090037CECF0EDA3F0EE1B
:10052400A3F0EFA3F090000C75F000C007C006C064
:1005340005C004C0031219A1AA8290005CE0F582F0
:10054400C002121C28A982D002D003D004D005D046
:1005540006D00790005DE0F890037AE9F090037B01
:10056400E8F090037CECF0EDA3F0EEA3F0EFA3F041
:1005740090001775F000C007C006C005C004C00392
:10058400C0021219A1A982D002D003D004D005D090
:1005940006D007EB6019C002900064E0F8A3E0FA0B
:1005A40008B800010A900064E8F0EAA3F0D002EA77
:1005B4006019C002900066E0F8A3E0FA08B80001F0
:1005C4000A900066E8F0EAA3F0D002E96019C002DC
:1005D400900068E0F8A3E0FA08B800010A90006807
:1005E400E8F0EAA3F0D002EB30E108900062E063A7
:1005F400E001F0EA30E25AC007C006C005C004C0FA
:10060400011225A7E582D001D004D005D006D00779
:100614006019C007C006C005C004C0011225AED0D1
:1006240001D004D005D006D0078026900060E09069
:1006340003C4F08C828D838EF0EFC007C006C00522
:10064400C004C00112260FD001D004D005D006D0BA
:1006540007E930E025900060E0900061F0900060D0
:100664007401F0C007C006C005C004C0011225AE65
:10067400D001D004D005D006D007E930E20F9000B5
:1006840061E06009900060E4F0900061F0C007C090
:1006940006C005C0041215B0AA82AB83D004D005ED
:1006A400D006D00790006AE0F8A3E0F9E8B50206A6
:1006B400E9B503028057C007C006C005C00412157F
:1006C400B0E5828583F0D004D005D006D007900031
:1006D4006AF0E5F0A3F0900022E4F090002DE0FA37
:1006E400A3E0FB0ABA00010B90002DEAF0EBA3F0A3
:1006F40090008375F000C007C006C005C004121442
:1007040029E582D004D005D006D00770E390038594
:10071400ECF0EDA3F0EEA3F0EFA3F090002275F05F
:1007240000C007C006C005C004121C39D004D0059F
:10073400D006D00790008375F000C007C006C0053E
:10074400C004121429E582D004D005D006D0077065
:100754000302081C900083E090038CF090038DEC5E
:10076400F0EDA3F0EEA3F0EFA3F090002275F000FB
:10077400C007C006C005C004121D18AB82D004D047
:1007840005D006D007EB60AC900063E4F0BB0A32FE
:10079400900060E09003C4F08C828D838EF0EFC0F3
:1007A40007C006C005C00412260FE582D004D00598
:1007B400D006D00760030207389000637401F0028A
:1007C4000738BB01028003BB0716C007C006C0057B
:1007D400C0041225AED004D005D006D007020738D5
:1007E400BB080280030207389003BC745AF0E4A3E8
:1007F400F09003BEECF0EDA3F0EEA3F0EFA3F090C5
:10080400044CC007C006C005C0041225BED004D0E5
:1008140005D006D0070207388C828D838EF0EFC096
:1008240007C006C005C0041226821218C1D004D025
:1008340005D006D007900074E0F8A3E0F9A3E0FA2D
:10084400A3E0FBECC398ED99EE9AEF9B30E703022B
:10085400099D90007474322CF0E43DA3F0E43EA3AF
:10086400F0E43FA3F0C007C006C005C0041211990C
:10087400D004D005D006D007900062E0702CFB8B2A
:100884000290033F74312AF08B82C007C006C00572
:10089400C004C0031211AED003D004D005D006D0DA
:1008A400070BBB080040D802093890033F7455F089
:1008B400758200C007C006C005C0041211AED00482
:1008C400D005D006D007900028E0900341F0E4A3BF
:1008D400F09003437403F0758201C007C006C0059D
:1008E400C0041211DDD004D005D006D00790033F18
:1008F4007441F0758204C007C006C005C00412111B
:10090400AED004D005D006D00790005CE0FA7B009E
:10091400900341EAF0EBA3F09003437403F0758273
:1009240005C007C006C005C0041211DDD004D005FF
:10093400D006D007900060E060027480FB90005EF7
:10094400E060027401420390005FE06002740242BE
:100954000390005DE0602590005CE0F582C007C074
:1009640006C005C004C003121C28E582D003D004CD
:10097400D005D006D00760047A0480027A00EA42E7
:10098400038B82C007C006C005C00412127712127E
:1009940083D004D005D006D007900070E0F8A3E01F
:1009A400F9A3E0FAA3E0FBECC398ED99EE9AEF9B70
:1009B40030E70302046590007074F42CF074013D78
:1009C400A3F0E43EA3F0E43FA3F01202980204650E
:102C4C0030313233343536373839414243444546D6
:102C5C00004B313D00204B323D0020414443373D79
:102C6C0000206F6B3D00206C6F636B3D0052583D34
:102C7C000020463D0020453D00204F3D007261770D
:102C8C003D0020433D002072656A3D00204D3D0013
:082C9C0065763D0020443D0077
:1009D400758CD4758ACD22C0E0C0F0C082C083C0BB
:1009E40007C006C005C004C0D0E4F5D0F580E50A10
:1009F400700CE5096008E50914F50875090053A0B1
:100A0400F0E50A42A0E50875F009A4241BFE740170
:100A140035F0FFE50A2EF582E43FF583E0F580E545
:100A24000A04FF8F0ABF0903750A00900084E0FCE2
:100A3400A3E0FDA3E0FEA3E0FF90008474012CF08A
:100A4400E43DA3F0E43EA3F0E43FA3F0D0D0D0040F
:100A5400D005D006D007D083D082D0F0D0E032C009
:100A640022C0E0C0F0C082C083C007C006C005C079
:100A740004C003C002C001C000C0D075D0001098EB
:100A8400028046900333E599F0900088E004543FD7
:100A9400FF900089E0FEEFB5061590008EE0FDA3FF
:100AA400E0FE90008E74012DF0E43EA3F0801A90D5
:100AB4000088E02492FEE43400FD900333E0FC8ED1
:100AC400828D83F0900088EFF010990280329003B9
:100AD40024E0702690039D7434F07403A3F0E4A31F
:100AE400F090012EF5F012224BE582600D90008CFF
:100AF400E4F0900334E0F599800690008C7401F0E2
:100B0400D0D0D000D001D002D003D004D005D0067C
:100B1400D007D083D082D0F0D0E0D02202008EC0A3
:100B240022C0E0C0F0C082C083C007C006C005C0B8
:100B340004C003C002C001C000C0D075D000E59A53
:100B440030E05C539AFE900335E59BF0900325E07A
:100B5400FEA3E0FF90032574012EF0E43FA3F09080
:100B6400008AE004543FFF90008BE0FEEFB50615C9
:100B7400900090E0FDA3E0FE90009074012DF0E45D
:100B84003EA3F0801A90008AE024D2FEE43400FDF3
:100B9400900335E0FC8E828D83F090008AEFF0E5BF
:100BA4009A30E135539AFD900324E0702690039D1A
:100BB4007436F07403A3F0E4A3F0900229F5F01264
:100BC400224BE582600D90008DE4F0900336E0F551
:100BD4009B800690008D7401F0D0D0D000D001D05D
:100BE40002D003D004D005D006D007D083D082D061
:100BF400F0D0E0D02202008EC0E0C0F0C082C083FA
:100C0400C007C006C005C004C003C002C001C0D0F4
:100C140075D000E5D820E103020D32900337E5EBEF
:100C2400F0AFFB7E00E07D004206ED420790032B0F
:100C3400E0FCA3E0FD900338EEC39CF0EF9DA3F02D
:100C440090032BEEF0EFA3F053D8FD900338E0FEB1
:100C5400A3E0FFC3EE94F8EF942A401F74B09E748F
:100C6400369F401790032DE4F0A3F0A3F0A3F09077
:100C74000331F090033204F0020D32900332E0703D
:100C840003020D32C3EE94BCEF9402401174789EBB
:100C940074059F4009900331E02401F08056C3EEAF
:100CA4009440EF9406404474C49E74099F403C9061
:100CB4000331E0FF8FF005F07B017C007D007E00B6
:100CC400800CEB2BFBEC33FCED33FDEE33FED5F067
:100CD400F190032DE04BF0A3E04CF0A3E04DF0A322
:100CE400E04EF0900331EF04F08009900332E4F019
:100CF400900331F0900331E0FFBF203290032DE0E8
:100D0400FCA3E0FDA3E0FEA3E0FF8C038D028E01B3
:100D1400BB5016BAAF1374FF69FEEFB5060B900310
:100D240029E9F090032A7401F0900332E4F0E5D845
:100D340030E70353D87FD0D0D001D002D003D00401
:100D4400D005D006D007D083D082D0F0D0E0325383
:100D5400B1BF53B2BFD2B674CF55A24410F5A27539
:100D6400D80075D90075DB1190032BE4F0A3F09043
:100D7400032DF0A3F0A3F0A3F090032AF090033224
:100D8400F0900331F0F5E9F5F943D8402253BAFE67
:100D940053A23F5391FC5392FC43900375985075B2
:100DA4009A5075D6FE75D7E0438E1590008BE4F00B
:100DB40090008AF0900089F0900088F090008D04F3
:100DC400F090008CF0900090E4F0A3F090008EF08E
:100DD400A3F0900325F0A3F0D2AC43AF0122438EDD
:100DE400805389F01209D4C28DD2A943B802D28C9F
:100DF40022C2AF75A80075AF0075B800900084E4F6
:100E0400F0A3F0A3F0A3F0F5937594FFF580F591AA
:100E1400F5927590FFF59575960875A0F0F5B17586
:100E2400B21043B00C53B3E743B41853C0E753C9EB
:100E3400CF53CACF43C830D2B2D2B3D292D2A4D203
:100E4400A5D2A6C295D2CCC296D2C0D2CDC2A37F1F
:100E540000EF2413F582E43401F583E4F00FBF08B6
:100E64000040EE90012DE4F0F50AF509F508FFEFD6
:100E7400241BF582E43401F583E4F0EF2424F582A5
:100E8400E43401F583E4F00FBF090040E275BCA02F
:100E9400900112E4F01213C8120D91120D53120DA9
:100EA400E2D2AF22A2AF9201C2AF900084E0FCA3D1
:100EB400E0FDA3E0FEA3E0FFA20192AF8C828D834C
:100EC4008EF0EF22E58290033AF0E0FF8F061F9048
:100ED400033AEFF0EE600500000080F090033AEF73
:100EE400F022E58290033BF0E053E007F090033BEF
:100EF400E0FF8FF005F07401800225E0D5F0FBFEE1
:100F0400429174FF6E529274A04FF5BC7582141214
:100F14000EC843BC087E887F13E5BC20E4151EBEC2
:100F2400FF011FEE4F70F275BCA0900112E4F07542
:100F340082002253BCEF9001127401F085BD82221D
:100F4400900112E0F58222E58290033CF0902CA4FB
:100F5400E493FF90033CE0FEC39F40049000002212
:100F6400902CAAE493C39E40049001F4228E077E41
:100F740000EE902CA493FDC39F50030210348E0402
:100F8400EC04902CA493FBC3EF9B50030210340C8D
:100F9400C2D575F002EC30E704B2D5F404A430D520
:100FA4000AF42401C5F0F43400C5F024ABF58274CE
:100FB4002C35F0F583E493FAA3E493FBEE75F00289
:100FC400A424ABF582742C35F0F583E493F8A3E400
:100FD40093F9EAC398FAEB99FBEC902CA493FCEDFB
:100FE400C39CF50B8D0C750D008F047D00E50CC3BF
:100FF4009CFCE50D9DFD9003EBEAF0EBA3F08C82E5
:101004008D83C001C000122AF5AC82AD839003CD5C
:10101400E50BF0E4A3F08C828D8312281AAC82AD28
:1010240083D000D001EC28F8ED39F9888289832235
:101034000EBE06005003020F759000FA22A2B2B34E
:101044009202E433F58222A2B3B39203E433F5822D
:1010540022E58290033DF0E0F582021C28A292B3BF
:101064009204E433F58222A2A4B39205E433F58218
:1010740022E58290033EF0E0FFBF3000400FEF24F2
:10108400C6400AEF24D0902CB993F5822290033EF7
:10109400E0FFBF2D005003021195EF248650030298
:1010A4001195EF24D3FF240A83F582EF245183F5AD
:1010B40083E4738D959595959595959595959595C9
:1010C400959595959595955155595D616595699554
:1010D40095956D959571759579817D85959595898C
:1010E400959595959591955155595D616595699538
:1010F40095956D959571759579817D85959595896C
:1011040011111111111111111111111111111111CB
:1011140011111111111111111111111111111111BB
:1011240011111111111111111111111111111111AB
:10113400111111111111111111111111111111119B
:101144001111111111111111111111111175827750
:101154002275827C227582392275825E227582799B
:101164002275827122758276227582382275825C9C
:101174002275827322758250227582782275826D5F
:101184002275823E2275826E227582402275820803
:1011940022758200227F00EF2413F582E43401F5E6
:1011A40083E4F00FBF080040EE22E582900340F094
:1011B400E0FFBF08005021EF2413FFE43401FE9048
:1011C400033FE0F582C007C006121075AD82D00659
:1011D400D0078F828E83EDF022E582900344F0E005
:1011E400FF900343E0FE7D00C3ED9E400122EE2FFD
:1011F40014C39DFCBC08005046EC2413FCE43401E9
:10120400FB900341E0F9A3E0FA9003F1740AF0E4DF
:10121400A3F089828A83C007C006C005C004C00346
:10122400122B81A982743029F582121075AA82D0FA
:1012340003D004D005D006D0078C828B83EAF090CB
:101244000341E0FBA3E0FC9003CD740AF0E4A3F0B7
:101254008B828C83C007C006C00512281AAB82ACEF
:1012640083D005D006D007900341EBF0ECA3F00D3A
:101274000211ECE582900345F0E090012DF022E5A7
:101284000960012274016508FF75F009A4FDAEF040
:101294007C00ED241BFAEE3401FBEC2AFAE43BFB60
:1012A400EC2413F582E43401F583E08A828B83F025
:1012B4000CBC080040DCED241BFDEE3401FE740878
:1012C4002DFDE43EFE90012DE08D828E83F0EF042F
:1012D400F50922AF83E582900346F0EFA3F0900373
:1012E40046E0FEA3E0FF900346E0F5F0A3E045F0FE
:1012F40070030213C8900327E0FCA3E0FDEEB504DD
:1013040008EFB50504308E0122900346E0FCA3E00B
:10131400FDE4FEFFEC2CFCED33FDEE33FEEF33FF7A
:101324009003DDECF0EDA3F0EEA3F0EFA3F090C09A
:101334000075F0A8E41229E6AC82AD83AEF0FF900C
:101344000348ECF0EDA3F0EEA3F0EFA3F0C3EC94AC
:1013540001ED9400EE9400EF9400500D9003487456
:1013640001F0E4A3F0A3F0A3F0900348E0FDA3E0B0
:10137400FEA3E0FFC374FF9D74FF9EE49F500D9095
:10138400034874FFF0A3F0E4A3F0A3F0900348E053
:10139400FEA3E0FFC3E49EFEE49FFFC28EC2AB53F4
:1013A4008FFD438E4053890F8F8D8E8BC28F438F59
:1013B40002D28E900346E0FEA3E0FF900327EEF0F6
:1013C400EFA3F022C28EC2AB538FFDC2B4900327A9
:1013D400E4F0A3F022AFF0AE83E58290034CF0EE8C
:1013E400A3F0EFA3F0900088E0FF900089E0FEEF07
:1013F400B506047582002290034CE0FDA3E0FEA331
:10140400E0FF900089E02492F582E43400F583E063
:101414008D828E838FF0122ADA900089E004543F83
:10142400F075820122AFF0AE83E58290034FF0EEB7
:10143400A3F0EFA3F090008AE0FF90008BE0FEEFB2
:10144400B506047582002290034FE0FDA3E0FEA3DD
:10145400E0FF90008BE024D2F582E43400F583E0D1
:101464008D828E838FF0122ADA90008BE004543F31
:10147400F075820122AFF0AE83E582900353F0EE63
:10148400A3F0EFA3F0900353E0FDA3E0FEA3E0FF7D
:10149400900352E0900356F0900357E4F08D828E4F
:1014A400838FF00214AAAFF0AE83E582900358F064
:1014B400EEA3F0EFA3F09003247401F0900358E03E
:1014C400FDA3E0FEA3E0FF900356E0FC900357E089
:1014D400FB900395EDF0EEA3F0EFA3F0900398ECEE
:1014E400F0900399EBF090012E75F000122026AFD6
:1014F40082900324E4F090008CE06002D299900082
:101504008DE06003439A028F8222AFF0AE83E582BE
:1015140090035CF0EEA3F0EFA3F09003247401F0C9
:1015240090035CE0FDA3E0FEA3E0FF90035BE0FC1E
:10153400900395EDF0EEA3F0EFA3F0900398ECF098
:10154400900399E4F0900229F5F0122026900324E8
:10155400E4F090008CE06002D29990008DE060038A
:10156400439A0222A2AF9206C2AF900325E0FEA3E3
:10157400E0FFA20692AF8E828F8322900227E0FEC4
:10158400A3E0FF900322E0FCA3E0FDEC2EFEED3F80
:101594008E82F58322A2AF9207C2AF90008EE0FE46
:1015A400A3E0FFA20792AF8E828F8322A2AF92089C
:1015B400C2AF900090E0FEA3E0FFA20892AF8E823B
:1015C4008F8322AFF0AE83E58290035FF0EEA3F049
:1015D400EFA3F090032AE07003F58222A2AF9209F0
:1015E400C2AF90035FE0FDA3E0FEA3E0FF900329F8
:1015F400E08D828E838FF0122ADA90032AE4F0A21F
:071604000992AF758201227B
:102CA400C4AB8E8071584300006400C800FA002C45
:0F2CB400019001F4013F065B4F666D7D077F6F56
:10160B00E582900362F0E0B4010092C322E5829080
:10161B000363F0E0B4010092C422758203020EC88A
:10162B0075820112160B758201121618121625758A
:10163B00820012160B12162575820002161875827F
:10164B000012160B758201121618121625758201DF
:10165B0012160B021625E582900364F07F009003AF
:10166B0064E0FE74805EF582C007C00612160B752F
:10167B008201121618121625758200121618D00642
:10168B00D007EE2E900364F00FBF080040D0758298
:10169B000112160B7582011216181216257582008F
:1016AB00021618E582900365F012162B75827812DC
:1016BB001661758200121661900365E0F5821216B1
:1016CB0061021649E582900367F0E024B0F58212BF
:1016DB0016AE900366E0FF740F5FF582C00712161B
:1016EB00AED007EFC4540FFF4307108F820216AE24
:1016FB00E58290036FF0900370E4F090036FE0FFCE
:10170B00BF0C3490036DE0FE6003BE7F047DFF8051
:10171B002390036EE0FCE070047B018015BC070492
:10172B007C80800CEE30E3047EAA80027E558E0412
:10173B008C038B058D8222BF0C00500F90036DE044
:10174B00FEBE20004005BE60004004758200227D75
:10175B0000EE24E0FEED34FFA2E713CE13CEA2E79A
:10176B0013CE13CE8EF005F07E007D808007C3ED87
:10177B0013FDEE13FED5F0F6EF75F020A424C3FC99
:10178B00742C35F0FF90036EE0FBF97A0029F9EA2F
:10179B0033FAE929F9EA33FAE92CF582EA3FF583C2
:1017AB00E493FCA3E493FFEE5204ED5207EC4F607D
:1017BB0006900370740FF090036FE075F020A42473
:1017CB00C3FC742C35F0FFEB2BFB0BEB2B2CF582B6
:1017DB00E43FF583E493FCA3E493FFEC5206EF5252
:1017EB0005EE4D6008900370E043E0F0F09003705D
:1017FB00E0F5822275820112160B75820112161802
:10180B007EA87F618E048F051EBEFF011FEC4D600D
:10181B00030080F07582AE1216AE7582201216AEE2
:10182B007582021216AE7582C81216AE7582A1129F
:10183B0016AE7582A61216AE7582A81216AE7582FA
:10184B003F1216AE7582D31216AE7582001216AE0B
:10185B007582D51216AE7582801216AE7582D912AC
:10186B0016AE7582F11216AE7582DA1216AE75824D
:10187B00121216AE7582DB1216AE7582401216AEC0
:10188B0075828D1216AE7582141216AE7582AF125A
:10189B0016AE90036974FFF090036CE4F075820050
:1018AB000218AEE582900371F0E0900368F022908D
:1018BB000368740CF02290036CE07022900369E0D3
:1018CB00FF900368E0FEEFB5060122900369EEF08E
:1018DB0090036BE4F090036AF090036C04F09003B8
:1018EB006BE0700F90036AE0FF900366E4F08F8269
:1018FB001216CF12162B7582781216617582401252
:10190B0016617F00900369E0FE90036BE0FD04F02D
:10191B0090036AE0FC90036DEDF090036EECF08E9B
:10192B0082C0071216FB121661D0070FBF100040C2
:10193B00D312164990036BE0FFBF801690036BE444
:10194B00F090036AE02401F0E0FFBF080590036C00
:03195B00E4F02293
:102CC3001008381C6C36C66303C001809999818152
:102CD30001802184C183018003C00660FC3F0000A2
:102CE3001008381C6C36C66303C00180A5A59999EA
:102CF300018081814182218483C10660FC3F000001
:102D03001008381C6C36C66303C00180B99DA5A5A5
:102D1300018081814182418283C10660FC3F0000C2
:102D23001008381C6C36C66303C00180A5A59999A9
:102D3300018049922189499203C00660FC3F00004B
:102D43001008381C6C36C66303C001800180F99FEC
:102D530001808181C183018003C00660FC3F0000C4
:102D63001008381C6C36C66303C0018099998181B1
:102D7300218441828181218403C00660FC3F40029B
:102D83001008381C6C36C66303C0018189998181A0
:102D9300018041822184018003C40666FC3F180C34
:102DA3008001C003E007B00D801980318061FFFF0F
:102DB300FFFF806180318019B00DE007C0038001FF
:102DC3008001C003E007B00D800180018001FFFF97
:102DD300FFFF86618C319819B00DE007C0038001B5
:102DE300800180038007FF0FFF1FFF3FFF7FFFFF6F
:102DF300FFFFFF7FFF3FFF1FFF0F8007800380015F
:102E03008001C001E001F0FFF8FFFCFFFEFFFFFFC0
:102E1300FFFFFEFFFCFFF8FFF0FFE001C0018001B0
:102E2300018003C006600C301818300C6006C00324
:102E3300C0036006300C18180C30066003C0018014
:10195E00AF82AE83ADF0FC900376EFF0EEA3F0ED28
:10196E00A3F0ECA3F0900372E0FCA3E0FDA3E0FE75
:10197E00A3E0FF900376E0F8A3E0F9A3E0FAA3E07A
:10198E00FBE8C39CE99DEA9EEB9F33B3920AE433D6
:10199E00F58222AFF0AE83E582900380F0EEA3F0E5
:1019AE00EFA3F0900383E4F090037BE0703D90038F
:1019BE0080E0FDA3E0FEA3E0FF74032DFDE43EFEF8
:1019CE0090037CE0F9A3E0FAA3E0FBA3E0FC8D8298
:1019DE008E838FF0E9122ADAA3EA122ADAA3EB1227
:1019EE002ADAA3EC122ADA75820022900380E0FD37
:1019FE00A3E0FEA3E0FF74012DFAE43EFB8F048A00
:101A0E00828B838CF0122C2CF990037AE0F8B501BE
:101A1E000280388A828B838CF0E8122ADA74032DC6
:101A2E00FDE43EFE90037CE0F9A3E0FAA3E0FBA305
:101A3E00E0FC8D828E838FF0E9122ADAA3EA122A55
:101A4E00DAA3EB122ADAA3EC122ADA900380E0FD75
:101A5E00A3E0FEA3E0FF74012DFAE43EFB8F048A9F
:101A6E00828B838CF0122C2CFC8D018E028F0389BD
:101A7E00828A838BF0122C2CF8ECB50003021B73B8
:101A8E00C001C002C00390037CE0F523A3E0F5245F
:101A9E00A3E0F525A3E0F52674032DF8E43EFB8FB5
:101AAE000288828B838AF0122C2CF8A3122C2CF92C
:101ABE00A3122C2CFAA3122C2CFB900372741E284A
:101ACE00F0E439A3F0E43AA3F0E43BA3F0852382DB
:101ADE008524838525F0E526C007C006C005C00411
:101AEE00C003C002C00112195EE582D001D002D03F
:101AFE0003D004D005D006D007D003D002D00160A9
:101B0E006489828A838BF0EC122ADA604074072D86
:101B1E00FAE43EFB8F048A828B838CF0E523122A33
:101B2E00DAA3E524122ADAA3E525122ADAA3E5269A
:101B3E00122ADA74022DFAE43EFB8F048A828B831A
:101B4E008CF0E4122ADA90038304F0801874022DCC
:101B5E00FDE43EFE8D828E838FF0122C2C7006904B
:101B6E0003837402F0900380E0FDA3E0FEA3E0FF88
:101B7E008D028E038F048A828B838CF0122C2C7034
:101B8E0003021C2174022DFAE43EFB8F048A828B21
:101B9E00838CF0122C2C707BC002C003C004900307
:101BAE007CE0F8A3E0F9A3E0FBA3E0FC74072DFDB5
:101BBE00E43EFE8D828E838FF0122C2CFDA3122C10
:101BCE002CFEA3122C2CFFA3122C2CFA9003727451
:101BDE00B02DF074043EA3F0E43FA3F0E43AA3F07A
:101BEE00888289838BF0ECC004C003C00212195E98
:101BFE00E582D002D003D004D004D003D00260130B
:101C0E008A828B838CF07401122ADA900383E0436C
:101C1E00E004F0900383E0F58222E582900384F0E5
:101C2E00E024E3B3920BE433F58222AFF0AE83E50A
:101C3E0082900389F0EEA3F0EFA3F0900389E0FD0C
:101C4E00A3E0FEA3E0FF8D028E038F048A828B83B6
:101C5E008CF0122C2C700122C002C003C004900321
:101C6E0085E0F527A3E0F528A3E0F529A3E0F52A02
:101C7E00740D2DFCE43EFA8F038C828A838BF01256
:101C8E002C2CF9A3122C2CFAA3122C2CFBA3122C05
:101C9E002CFC900372746429F0E43AA3F0E43BA3A5
:101CAE00F0E43CA3F08527828528838529F0E52A78
:101CBE00C007C006C005C004C003C00212195EE50D
:101CCE0082D002D003D004D005D006D007D004D0E5
:101CDE0003D00260348A828B838CF0E4122ADA7489
:101CEE000B2DFDE43EFE8D828E838FF0122C2CFB8D
:101CFE00A3122C2CFC0BBB00010C8D828E838FF05B
:101D0E00EB122ADAA3EC022ADA22AFF0AE83E582D6
:101D1E00900391F0EEA3F0EFA3F0900394E4F09013
:101D2E000391E0FDA3E0FEA3E0FF90038DE0F52B11
:101D3E00A3E0F52CA3E0F52DA3E0F52E900385E5A9
:101D4E002BF0E52CA3F0E52DA3F0E52EA3F08D826C
:101D5E008E838FF0121C39900391E0FDA3E0FEA359
:101D6E00E0FF740D2DF8E43EFB8F0488828B838C8C
:101D7E00F0E52B122ADAA3E52C122ADAA3E52D12AE
:101D8E002ADAA3E52E122ADA74072DFAE43EFB8F27
:101D9E00048A828B838CF0122C2CF8A3122C2CF933
:101DAE0008B80001098A828B838CF0E8122ADAA324
:101DBE00E9122ADA8D028E038F0474022DFDE43EA1
:101DCE00FE7900C002C003C004E92DF52BE43EF5F8
:101DDE002C8F2D8902EA042DFAE43EFB8F048A82B1
:101DEE008B838CF0122C2C852B82852C83852DF0E9
:101DFE00122ADA09B90300D004D003D00240C47409
:101E0E00052AFDE43BFE8C0790038CE0F98D828E53
:101E1E00838FF0122ADA8A2F8B308C31852F8285B0
:101E2E0030838531F0122C2CF824FC500302201242
:101E3E00E82828901E4573021E51021E6A021ECB10
:101E4E00021F5AB9A502800302201F852F828530FA
:101E5E00838531F07401122ADA02201FB95A1185D6
:101E6E002F828530838531F07402122ADA02201F08
:101E7E00740B2AF52BE43BF52C8C2D852B82852CAF
:101E8E0083852DF0122C2CFDA3122C2CFF0DBD00E2
:101E9E00010F852B82852C83852DF0ED122ADAA376
:101EAE00EF122ADAB9A504780180027800852F8214
:101EBE008530838531F0E8122ADA02201FB901003D
:101ECE004029E924F3402474012AF8E43BFE8C07F0
:101EDE0088828E838FF0E9122ADA852F82853083ED
:101EEE008531F07403122ADA02201F900391E0F577
:101EFE002BA3E0F52CA3E0F52D740B252BF532E486
:101F0E00352CF533852D348532828533838534F037
:101F1E00122C2CFDA3122C2CFF0DBD00010F8532AF
:101F2E00828533838534F0ED122ADAA3EF122ADA92
:101F3E00AD2BAE2CAF2DB9A5047801800278008DA3
:101F4E00828E838FF0E8122ADA02201F74012AFD96
:101F5E00E43BFE8C078D828E838FF0122C2CFF7447
:101F6E00FF6FFEE9B5065B900394EFF074092AF556
:101F7E0032E43BF5338C348532828533838534F0FD
:101F8E00122C2CFEA3122C2CFD0EBE00010D853240
:101F9E00828533838534F0EE122ADAA3ED122ADA23
:101FAE0074062AF8E43BFD8C0688828D838EF0EF52
:101FBE00122ADA852F828530838531F0E4122ADAEF
:101FCE00804F740B2AFAE43BFB8A828B838CF012CF
:101FDE002C2CFEA3122C2CFF0EBE00010F8A828B1E
:101FEE00838CF0EE122ADAA3EF122ADAB9A5047F57
:101FFE000180027F00852F828530838531F0EF12BC
:10200E002ADA800D852F828530838531F0E4122AFD
:10201E00DA900394E0F58222AFF0AE83E58290036E
:10202E009AF0EEA3F0EFA3F090039AE0F53DA3E053
:10203E00F53EA3E0F53F74A4253DFAE4353EFBAC36
:10204E003F8A828B838CF0122C2CF540045403F8BB
:10205E00900398E0F53C6006E53C24D7504D900384
:10206E009AE0F53DA3E0F53EA3E0F53F74F9253D7A
:10207E00F53DE4353EF53E853D82853E83853FF058
:10208E00122C2CF540A3122C2CF5410540E4B54042
:10209E00020541853D82853E83853FF0E540122A4B
:1020AE00DAA3E541122ADA75820022900399E070D4
:1020BE000302214C74A5253DF9E4353EFEAF3F8960
:1020CE00828E838FF0E540122ADA74D0253DF545D5
:1020DE00E4353EF546853F47900395E0F542A3E093
:1020EE00F543A3E0F5447900C3E9953C502FE9256B
:1020FE0045F548E43546F54985474AE92542FDE46C
:10210E003543FEAF448D828E838FF0122C2C854882
:10211E0082854983854AF0122ADA0980CB90039A88
:10212E00E0FDA3E0FEA3E0FF74F82DFDE43EFE8D7E
:10213E00828E838FF0E53C122ADA7582012274A515
:10214E00253DFDE4353EFEAF3F8D828E838FF0122E
:10215E002C2CFDE8B5053B74F9253DF548E4353EDC
:10216E00F549853F4A854882854983854AF0122C78
:10217E002CF9A3122C2CFF09B900010F854882857A
:10218E004983854AF0E9122ADAA3EF122ADA758218
:10219E000022AD3DAE3EAF3F8A458B468C47900345
:1021AE0095E0F548A3E0F549A3E0F54A7900C3E9C7
:1021BE00953C5047C0008545828546838547F01281
:1021CE002C2C75F028A42DF8E43EFB8F04E928F59D
:1021DE0042E43BF5438C44E92548FAE43549FBAC2F
:1021EE004A8A828B838CF0122C2C85428285438303
:1021FE008544F0122ADA09D00080B390039AE0FDEC
:10220E00A3E0FEA3E0FF74A02DFAE43EFB8F04745E
:10221E00A42DFDE43EFE8D828E838FF0122C2C2A8F
:10222E00FAE43BFB8A828B838CF0E53C122ADA8D32
:10223E00828E838FF0E8122ADA75820122AFF0AE19
:10224E0083E5829003A0F0EEA3F0EFA3F09003A03D
:10225E00E0FDA3E0FEA3E0FF74CE2DFAE43EFB8F7B
:10226E00048A828B838CF0122C2CFA74CF2DF543BA
:10227E00E43EF5448F458543828544838545F012BF
:10228E002C2CF8EAB50002800302245274F82DF8C3
:10229E00E43EFA8F0488828A838CF0122C2CF53C53
:1022AE0070030223528543828544838545F0E53CC5
:1022BE00122ADA8D3D8E3E8F3F85434085444185FF
:1022CE004542753C008540828541838542F0122C43
:1022DE002CF8C3E53C98504E74A6253DF543E435E5
:1022EE003EF544853F45E53C2543F543E43544F54D
:1022FE004474D0253DF546E4353EF547853F48E527
:10230E003C2546F546E43547F547854682854783A5
:10231E008548F0122C2C8543828544838545F01226
:10232E002ADA053C809F74F8253DF546E4353EF5E6
:10233E0047853F488546828547838548F0E4122AC3
:10234E00DA02243674A52DF8E43EFA8F0488828AC8
:10235E00838CF0122C2CF54674A42DFAE43EFB8FE0
:10236E00048A828B838CF0122C2CB5460302243205
:10237E0074A02DF8E43EFA8F04E54628F8E43AFA04
:10238E0088828A838CF0122C2C8543828544838527
:10239E0045F0122ADAAA43AB44AC4579008A828B07
:1023AE00838CF0122C2CF8C3E998505AC002C0034B
:1023BE00C00474A62DF8E43EFB8F04E928F546E42C
:1023CE003BF5478C4874A52DFAE43EFB8F048A82B8
:1023DE008B838CF0122C2C75F028A42DFAE43EFB86
:1023EE008F04E92AFAE43BFB8A828B838CF0122C51
:1023FE002C8546828547838548F0122ADA09D00457
:10240E00D003D002809774A52DFDE43EFE8D828E02
:10241E00838FF0122C2C0454038D828E838FF01236
:10242E002ADA8004758200229003A0E0FDA3E0FE6C
:10243E00A3E0FF74CE2DFDE43EFE8D828E838FF0E1
:10244E00E4122ADA90039DE0F546A3E0F547A3E0F7
:10245E00F5489003A0E0FAA3E0FBA3E0FC74A62AE3
:10246E00F8E43BF98C0774CE2AFAE43BFB8A828BA4
:10247E00838CF0122C2CFE048A828B838CF0122A11
:10248E00DAEE28F8E439F9888289838FF0122C2C41
:10249E008546828547838548F0122ADA75820122A5
:1024AE00E5829003A6F0E0FC7D007E007F009003A5
:1024BE00EDECF0EDA3F0EEA3F0EFA3F0903A98F56B
:1024CE00F0122B1585823585833685F037F53890D9
:1024DE0003A3E0F539A3E0F53AA3E0F53B85398295
:1024EE00853A83853BF0122C2CF8A3122C2CFFE49A
:1024FE00FEFDE82535F8EF3536FFEE3537FEED35C6
:10250E0038FD9003D47488F0E4A3F0A3F0A3F08810
:10251E00828F838EF0EDC007C006C005C000122862
:10252E00A7A982AA83D000D005D006D0078539820C
:10253E00853A83853BF0E9122ADAA3EA122ADA9069
:10254E0003DD7488F0E4A3F0A3F0A3F088828F83F8
:10255E008EF0ED0229E6AF82AE83ADF0FC9003B8AB
:10256E00EFF0EEA3F0EDA3F0ECA3F09003B4E0FCDB
:10257E00A3E0FDA3E0FEA3E0FF9003B8E0F8A3E024
:10258E00F9A3E0FAA3E0FBE8C39CE99DEA9EEB9F6A
:10259E0033B3920CE433F582229003A7E0F5822246
:1025AE009003A7E4F09003A8F09003A9F00213C8DB
:1025BE00AF83E5829003C2F0EFA3F09003C2E0FE7A
:1025CE00A3E0FF8E828F831212D79003A97401F0BD
:1025DE009003BCE0FEA3E0FF9003BEE0FAA3E0FB95
:1025EE00A3E0FCA3E0FD8E008F017E007F00900330
:1025FE00B0E82AF0E93BA3F0EE3CA3F0EF3DA3F0E8
:10260E0022AF82AE83ADF0FC9003C5EFF0EEA3F0E7
:10261E00EDA3F0ECA3F09003C4E0600475820022F9
:10262E001225AE9003A77401F09003AAE4F0A3F074
:10263E009003C5E0FCA3E0FDA3E0FEA3E0FF900342
:10264E00AC74F42CF074013DA3F0E43EA3F0E43F2F
:10265E00A3F09003BC742CF07401A3F09003BEECB5
:10266E00F0EDA3F0EEA3F0EFA3F09004B01225BEB0
:10267E0075820122AF82AE83ADF0FC9003C9EFF0FC
:10268E00EEA3F0EDA3F0ECA3F09003A9E060409070
:10269E0003C9E0FCA3E0FDA3E0FEA3E0FF9003B0BE
:1026AE00E0F8A3E0F9A3E0FAA3E0FB9003B4E8F0AE
:1026BE00E9A3F0EAA3F0EBA3F08C828D838EF0EF0A
:1026CE00122564E58260081213C89003A9E4F09005
:1026DE0003A7E060389003C9E0FCA3E0FDA3E0FE91
:1026EE00A3E0FF9003ACE0F8A3E0F9A3E0FAA3E0C7
:1026FE00FB9003B4E8F0E9A3F0EAA3F0EBA3F08CAF
:10270E00828D838EF0EF122564E582700122900394
:10271E00A8E075F004A42443FE742E35F0FF8E82DB
:10272E008F83A3A3E493FF9003A374AAF07403A36F
:10273E00F0E4A3F08F821224AEAE82AF839003A892
:10274E00E075F004A42443F513742E35F0F51474DB
:10275E00032513FAE43514FB8A828B83E493600419
:10276E007B0080027B0F8B0E9003ACE0F50FA3E095
:10277E00F510A3E0F511A3E0F5128E028F03E4FE2F
:10278E00FFEA250FFAEB3510FBEE3511FEEF351291
:10279E00FFA80E79007C007D009003B0EAC398F08C
:1027AE00EB99A3F0EE9CA3F0EF9DA3F09003ACEA9F
:1027BE00F0EBA3F0EEA3F0EFA3F085138285148364
:1027CE00E493FEA3E493FF8E828F831212D79003BD
:1027DE00A8E0FF75F004A42443F582742E35F0F5BD
:1027EE0083E493FDA3E4934DB40100B3920D9003E3
:1027FE00A9E433F09003A8EF04F0E0FF902F3FE43C
:0C280E0093FEEFB506059003A8E4F0224D
:102E43000B0201004B0201006E0206006E0201013B
:102E5300BA02010010030400000002001003010085
:102E6300A4030100A4030400A40302001704020046
:102E73001704040000000400BA0202004B0202001F
:102E8300BA0202004B02020017040800A403020066
:102E9300A4030200A40302004B020100BA020900CA
:102EA3001003040010030100BA0201011003020021
:102EB300BA0204004B020200D20102006E020200B9
:102EC3004B0202006E02010010030101BA0202006C
:102ED300BA02040000000400BA0202004B0202001E
:102EE300BA0202004B02020017040800A403020006
:102EF300A4030200A40302004B020100100301011A
:102F0300BA02040000000200100301007003010074
:102F1300A4030400A403020010030100BA02020187
:102F2300A4030300000002004B0202000B02030093
:0D2F33004B0203000B020200D20108003F18
:10281A00AF83E5829003CFF0EFA3F09003D1E4F009
:10282A00A3F09003CDE0FEA3E0FF7D109003CFE07C
:10283A00FBA3E0FC9003D3235401F0EB2BFBEC3316
:10284A00FC9003CFEBF0ECA3F09003D1E0FBA3E004
:10285A00FCEB2BFBEC33FC9003D1EBF0ECA3F090F8
:10286A0003D3E060089003D1E043E001F09003D184
:10287A00E0FBA3E0FCC3EB9EEC9F40139003D1EB7B
:10288A00C39EF0EC9FA3F09003CFE043E001F0DD9C
:10289A009B9003CFE0FEA3E08E82F58322AF82AE47
:1028AA0083ADF0FC9003D8EFF0EEA3F0EDA3F0ECCB
:1028BA00A3F09003DCE4F09003D8E0FCA3E0FDA3CE
:1028CA00E0FEA3E0FF7B009003D4E0F53CA3E0F533
:1028DA003DA3E0F53EA3E0F53F2354017074C00325
:1028EA00E53C253CF8E53D33F9E53E33FAE53F336F
:1028FA00FB9003D4E8F0E9A3F0EAA3F0EBA3F0908D
:10290A0003D4E0F53CA3E0F53DA3E0F53EA3E0F5F2
:10291A003FC3EC953CED953DEE953EEF953FD003D8
:10292A005027E53FC313F53FE53E13F53EE53D135A
:10293A00F53DE53C13F53C9003D4F0E53DA3F0E505
:10294A003EA3F0E53FA3F080090B9003DCEBF00215
:10295A0028D19003DCE0FF9003D8E0FBA3E0FCA3BE
:10296A00E0FDA3E0FE9003D4E0F53CA3E0F53DA32F
:10297A00E0F53EA3E0F53FC3EB953CEC953DED95C4
:10298A003EEE953F40179003D8EBC3953CF0EC958B
:10299A003DA3F0ED953EA3F0EE953FA3F09003D44E
:1029AA00E0FBA3E0FCA3E0FDA3E0C313FEED13FDEF
:1029BA00EC13FCEB139003D4F0ECA3F0EDA3F0EED0
:1029CA00A3F08F061FEE708F9003D8E0FCA3E0FD02
:1029DA00A3E0FEA3E08C828D838EF022AF82AE83C9
:1029EA00ADF0FC9003E1EFF0EEA3F0EDA3F0ECA361
:1029FA00F09003E5E4F0A3F0A3F0A3F09003DDE088
:102A0A00FCA3E0FDA3E0FEA3E0FF7B20C00390034C
:102A1A00E1E0F8A3E0F9A3E0FAA3E0FB9003E923DD
:102A2A005401F0E828F8E933F9EA33FAEB33FB907A
:102A3A0003E1E8F0E9A3F0EAA3F0EBA3F09003E5E1
:102A4A00E0F8A3E0F9A3E0FAA3E0FBE828F8E93309
:102A5A00F9EA33FAEB33FB9003E5E8F0E9A3F0EA8D
:102A6A00A3F0EBA3F0D0039003E9E060089003E53C
:102A7A00E043E001F09003E5E0F53CA3E0F53DA377
:102A8A00E0F53EA3E0F53FC3E53C9CE53D9DE53E10
:102A9A009EE53F9F401F9003E5E53CC39CF0E53D62
:102AAA009DA3F0E53E9EA3F0E53F9FA3F09003E1CE
:102ABA00E043E001F01BEB6003022A169003E1E019
:102ACA00FCA3E0FDA3E0FEA3E08C828D838EF022BE
:0600E700E478FFF6D8FDED
:1000C5007900E94400601B7A00902F4078F675A00E
:1000D50003E493F2A308B8000205A0D9F4DAF27597
:0200E500A0FF7A
:10008E00C000A88118C0D0B6001B18B64800401595
:10009E00B66F005010C0E0E65407B406005004E6F8
:0A00AE0054F8F6D0E0D0D0D00032B4
:102ADA0020F71130F6138883A88220F509F6A88317
:102AEA007583002280FEF280F5F022AA83AB828BE6
:102AFA00F09003EBE0A4F8A9F08AF0E0A429F98B9E
:102B0A00F0A3E0A429F58388822222A882A983AAB5
:102B1A00F0FB88F09003EDE0A4FCADF089F0E0A4AE
:102B2A002DFDE435F0FE88F0A3E0A42DFDE5F03E8E
:102B3A00FEE433FF89F0E0A42EFEE5F03FFF88F0C3
:102B4A00A3E0A42EFEE5F03FFF8AF09003EDE0A497
:102B5A002EFEE5F03FFF8BF0E0A42FFF8AF0A3E002
:102B6A00A42FFF89F0A3E0A42FFF88F0A3E0A42FED
:102B7A008EF08D838C8222AF83E5829003F3F0EF8F
:102B8A00A3F09003F5E4F09003F3E0FEA3E0FF7DE9
:102B9A00009003F1E0FBA3E0FC2354017036EB2B19
:102BAA00FBEC33FC9003F1EBF0ECA3F09003F1E0C3
:102BBA00FBA3E0FCC3EE9BEF9C5011ECC313CB13B9
:102BCA00CBFC9003F1EBF0ECA3F080080D9003F539
:102BDA00EDF080BD9003F5E0FF9003F3E0FDA3E084
:102BEA00FE9003F1E0FBA3E0FCC3ED9BEE9C400BDF
:102BFA009003F3EDC39BF0EE9CA3F09003F1E0FD8C
:102C0A00A3E0C313CD13CDFE9003F1EDF0EEA3F0D4
:102C1A008F061FEE70C39003F3E0FEA3E08E82F5E9
:022C2A00832203
:1000ED007800E84400600A790175A000E4F309D8AE
:1000FD00FC78F5E84403600C7904900001E4F0A36A
:04010D00D8FCD9FA47
:0D00B80075814A122C48E582600302008920
:102C2C0020F71430F6148883A88220F507E6A883D1
:102C3C0075830022E280F7E49322E0227582002261
:00000001FF
