:040000000200B83210
:03000B00020126C9
:0100130032BA
:01001B0032B2
:030023000201AE29
:01002B0032A2
:01003300329A
:03003B0002034776
:0300430002026E48
:100048000000E2FBEAF2802C0000E0FBEAF08024EA
:10005800E6B50202EBF62200E2B50202EBF222005C
:10006800E0B50202EBF02230F6E0A88220F5D3EAF0
:10007800C6F582228B822230F6E6A88220F5D98046
:01008800CFA8
:0301110002008960
:0500890012011480FECD
:1001140012054012392A123AEC80FB758CD4758A88
:10012400CD22C0E0C0F0C082C083C007C006C005B5
:10013400C004C0D0E4F5D0F580E50A700CE5096090
:1001440008E50914F50875090053A0F0E50A42A072
:10015400E50875F009A42498FE740035F0FFE50A5B
:100164002EF582E43FF583E0F580E50A04FF8F0A6B
:10017400BF0903750A00900001E0FCA3E0FDA3E0C1
:10018400FEA3E0FF90000174012CF0E43DA3F0E431
:100194003EA3F0E43FA3F0D0D0D004D005D006D0E5
:1001A40007D083D082D0F0D0E032C023C0E0C0F0CA
:1001B400C082C083C007C006C005C004C003C0021B
:1001C400C001C000C0D075D00010980280469002D3
:1001D400B0E599F0900005E004543FFF900006E07C
:1001E400FEEFB5061590000BE0FDA3E0FE90000BBA
:1001F40074012DF0E43EA3F0801A900005E0240F72
:10020400FEE43400FD9002B0E0FC8E828D83F09019
:100214000005EFF010990280329002A1E070269060
:10022400053174B1F07402A3F0E4A3F09000ABF5CF
:10023400F012490AE582600D900009E4F09002B1E1
:10024400E0F59980069000097401F0D0D0D000D078
:1002540001D002D003D004D005D006D007D083D07B
:1002640082D0F0D0E0D02302008EC023C0E0C0F0E2
:10027400C082C083C007C006C005C004C003C0025A
:10028400C001C000C0D075D000E59A30E05C539A3C
:10029400FE9002B2E59BF09002A2E0FEA3E0FF9084
:1002A40002A274012EF0E43FA3F0900007E004548E
:1002B4003FFF900008E0FEEFB5061590000DE0FD4D
:1002C400A3E0FE90000D74012DF0E43EA3F0801A2B
:1002D400900007E0244FFEE43400FD9002B2E0FCFD
:1002E4008E828D83F0900007EFF0E59A30E135536C
:1002F4009AFD9002A1E0702690053174B3F0740267
:10030400A3F0E4A3F09001A6F5F012490AE5826097
:100314000D90000AE4F09002B3E0F59B8006900093
:100324000A7401F0D0D0D000D001D002D003D004A0
:10033400D005D006D007D083D082D0F0D0E0D0232F
:1003440002008EC0E0C0F0C082C083C007C006C0F7
:1003540005C004C003C002C001C0D075D000E5D8F8
:1003640020E10302047D9002B4E5EBF0AFFB7E00D4
:10037400E07D004206ED42079002A8E0FCA3E0FD08
:100384009002B5EEC39CF0EF9DA3F09002A8EEF0AE
:10039400EFA3F053D8FD9002B5E0FEA3E0FFC3EE57
:1003A40094F8EF942A401F74B09E74369F401790BF
:1003B40002AAE4F0A3F0A3F0A3F09002AEF090023E
:1003C400AF04F002047D9002AFE0700302047DC329
:1003D400EE94BCEF9402401174789E74059F40091A
:1003E4009002AEE02401F08056C3EE9440EF9406F0
:1003F400404474C49E74099F403C9002AEE0FF8F59
:10040400F005F07B017C007D007E00800CEB2BFB73
:10041400EC33FCED33FDEE33FED5F0F19002AAE0AF
:100424004BF0A3E04CF0A3E04DF0A3E04EF09002BB
:10043400AEEF04F080099002AFE4F09002AEF090C9
:1004440002AEE0FFBF20329002AAE0FCA3E0FDA3CD
:10045400E0FEA3E0FF8C038D028E01BB5016BAAF01
:100464001374FF69FEEFB5060B9002A6E9F0900243
:10047400A77401F09002AFE4F0E5D830E70353D855
:100484007FD0D0D001D002D003D004D005D006D084
:1004940007D083D082D0F0D0E03253B1BF53B2BF83
:1004A400D2B674CF55A24410F5A275D80075D90000
:1004B40075DB119002A8E4F0A3F09002AAF0A3F077
:1004C400A3F0A3F09002A7F09002AFF09002AEF078
:1004D400F5E9F5F943D8402253BAFE53A23F5391AC
:1004E400FC5392FC439003759850759A5075D6FE50
:1004F40075D7E0438E15900008E4F0900007F09063
:100504000006F0900005F090000A04F0900009F055
:1005140090000DE4F0A3F090000BF0A3F09002A281
:10052400F0A3F0D2AC43AF0122438E805389F01282
:10053400011FC28DD2A943B802D28C22C2AF75A8C2
:100544000075AF0075B800900001E4F0A3F0A3F0CB
:10055400A3F0F5937594FFF580F591F5927590FFEE
:10056400F59575960875A0F0F5B175B21043B00C09
:1005740053B3E743B41853C0E753C9CF53CACF4367
:10058400C830D2B2D2B3D292D2A4D2A5D2A6C29546
:10059400D2CCC296D2C0D2CDC2A37F00EF2490F5B4
:1005A40082E43400F583E4F00FBF080040EE9000CD
:1005B400AAE4F0F50AF509F508FFEF2498F582E4BA
:1005C4003400F583E4F0EF24A1F582E43400F583EC
:1005D400E4F00FBF090040E275BCA090008FE4F086
:1005E400120B131204DC12049E12052DD2AF22A2A8
:1005F400AF9200C2AF900001E0FCA3E0FDA3E0FED7
:10060400A3E0FFA20092AF8C828D838EF0EF22E5EF
:10061400829002B7F0E0FF8F061F9002B7EFF0EE72
:10062400600500000080F09002B7EFF022E58290B0
:1006340002B8F0E053E007F09002B8E0FF8FF00555
:10064400F07401800225E0D5F0FBFE429174FF6E48
:10065400529274A04FF5BC75821412061343BC0861
:100664007E887F13E5BC20E4151EBEFF011FEE4FFC
:1006740070F275BCA090008FE4F07582002253BC28
:10068400EF90008F7401F085BD822290008FE0F519
:100694008222E5829002B9F0905439E493FF9002EB
:1006A400B9E0FEC39F40049000002290543FE493BD
:1006B400C39E40049001F4228E077E00EE905439CC
:1006C40093FDC39F500302077F8E04EC04905439BA
:1006D40093FBC3EF9B500302077F0CC2D575F00256
:1006E400EC30E704B2D5F404A430D50AF42401C5EF
:1006F400F0F43400C5F02440F582745435F0F583E9
:10070400E493FAA3E493FBEE75F002A42440F5828B
:10071400745435F0F583E493F8A3E493F9EAC398A9
:10072400FAEB99FBEC90543993FCEDC39CF50B8DDB
:100734000C750D008F047D00E50CC39CFCE50D9D3C
:10074400FD900587EAF0EBA3F08C828D83C001C095
:1007540000125270AC82AD83900561E50BF0E4A306
:10076400F08C828D83124ED9AC82AD83D000D0013F
:10077400EC28F8ED39F988828983220EBE060050F0
:10078400030206C09000FA22A2B2B39201E433F548
:100794008222A2B3B39202E433F58222E58290026C
:1007A400BAF0E0F5820242E7A292B39203E433F591
:1007B4008222A2A4B39204E433F58222E582900259
:1007C400BBF0E0FFBF3000400FEF24C6400AEF2427
:1007D400D090544E93F582229002BBE0FFBF2D00CF
:1007E40050030208E0EF248650030208E0EF24D30C
:1007F400FF240A83F582EF245183F583E473D8E060
:10080400E0E0E0E0E0E0E0E0E0E0E0E0E0E0E0E0E4
:10081400E0E09CA0A4A8ACB0E0B4E0E0E0B8E0E084
:10082400BCC0E0C4CCC8D0E0E0E0D4E0E0E0E0E06C
:10083400DCE09CA0A4A8ACB0E0B4E0E0E0B8E0E068
:10084400BCC0E0C4CCC8D0E0E0E0D4080808080884
:100854000808080808080808080808080808080814
:100864000808080808080808080808080808080804
:1008740008080808080808080808080808080808F4
:1008840008080808080808080808080808080808E4
:1008940008080808080808087582772275827C22EF
:1008A4007582392275825E2275827922758271225F
:1008B400758276227582382275825C227582732253
:1008C400758250227582782275826D2275823E224D
:1008D40075826E22758240227582082275820022FA
:1008E4007F00EF2490F582E43400F583E4F00FBF39
:1008F400080040EE22E5829002BDF0E0FFBF080050
:100904005021EF2490FFE43400FE9002BCE0F58215
:10091400C007C0061207C0AD82D006D0078F828EF2
:1009240083EDF022E5829002C1F0E0FF9002C0E086
:10093400FE7D00C3ED9E400122EE2F14C39DFCBC3E
:1009440008005046EC2490FCE43400FB9002BEE026
:10095400F9A3E0FA90058D740AF0E4A3F089828A81
:1009640083C007C006C005C004C0031252FCA9829C
:10097400743029F5821207C0AA82D003D004D005AE
:10098400D006D0078C828B83EAF09002BEE0FBA3F2
:10099400E0FC900561740AF0E4A3F08B828C83C0C0
:1009A40007C006C005124ED9AB82AC83D005D00671
:1009B400D0079002BEEBF0ECA3F00D020937E582FC
:1009C4009002C2F0E09000AAF022E50960012274CE
:1009D400016508FF75F009A4FDAEF07C00ED2498D4
:1009E400FAEE3400FBEC2AFAE43BFBEC2490F582AB
:1009F400E43400F583E08A828B83F00CBC08004069
:100A0400DCED2498FDEE3400FE74082DFDE43EFE7A
:100A14009000AAE08D828E83F0EF04F50922AF8363
:100A2400E5829002C3F0EFA3F09002C3E0FEA3E0DE
:100A3400FF9002C3E0F5F0A3E045F07003020B134E
:100A44009002A4E0FCA3E0FDEEB50408EFB50504B4
:100A5400308E01229002C3E0FCA3E0FDE4FEFFEC33
:100A64002CFCED33FDEE33FEEF33FF900579ECF013
:100A7400EDA3F0EEA3F0EFA3F090C00075F0A8E4AE
:100A8400125161AC82AD83AEF0FF9002C5ECF0ED83
:100A9400A3F0EEA3F0EFA3F0C3EC9401ED9400EE09
:100AA4009400EF9400500D9002C57401F0E4A3F09B
:100AB400A3F0A3F09002C5E0FDA3E0FEA3E0FFC312
:100AC40074FF9D74FF9EE49F500D9002C574FFF067
:100AD400A3F0E4A3F0A3F09002C5E0FEA3E0FFC3FB
:100AE400E49EFEE49FFFC28EC2AB538FFD438E4053
:100AF40053890F8F8D8E8BC28F438F02D28E9002BB
:100B0400C3E0FEA3E0FF9002A4EEF0EFA3F022C244
:100B14008EC2AB538FFDC2B49002A4E4F0A3F022C2
:100B2400AFF0AE83E5829002C9F0EEA3F0EFA3F03C
:100B3400900005E0FF900006E0FEEFB50604758224
:100B440000229002C9E0FDA3E0FEA3E0FF900006AE
:100B5400E0240FF582E43400F583E08D828E838FE8
:100B6400F0125255900006E004543FF075820122C1
:100B7400AFF0AE83E5829002CCF0EEA3F0EFA3F0E9
:100B8400900007E0FF900008E0FEEFB506047582D0
:100B940000229002CCE0FDA3E0FEA3E0FF90000859
:100BA400E0244FF582E43400F583E08D828E838F58
:100BB400F0125255900008E004543FF0758201226F
:100BC400AFF0AE83E5829002D0F0EEA3F0EFA3F095
:100BD4009002D0E0FDA3E0FEA3E0FF9002CFE090FE
:100BE40002D3F09002D4E4F08D828E838FF0020B56
:100BF400F5AFF0AE83E5829002D5F0EEA3F0EFA35B
:100C0400F09002A17401F09002D5E0FDA3E0FEA3F0
:100C1400E0FF9002D3E0FC9002D4E0FB900529EDC4
:100C2400F0EEA3F0EFA3F090052CECF090052DEB83
:100C3400F09000AB75F0001246E5AF829002A1E49B
:100C4400F0900009E06002D29990000AE06003434A
:100C54009A028F8222AFF0AE83E5829002D9F0EE41
:100C6400A3F0EFA3F09002A17401F09002D9E0FD8B
:100C7400A3E0FEA3E0FF9002D8E0FC900529EDF08C
:100C8400EEA3F0EFA3F090052CECF090052DE4F02A
:100C94009001A6F5F01246E59002A1E4F090000957
:100CA400E06002D29990000AE06003439A0222A213
:100CB400AF9205C2AF9002A2E0FEA3E0FFA20592AC
:100CC400AF8E828F83229001A4E0FEA3E0FF900206
:100CD4009FE0FCA3E0FDEC2EFEED3F8E82F5832227
:100CE400A2AF9206C2AF90000BE0FEA3E0FFA20603
:100CF40092AF8E828F8322A2AF9207C2AF90000D73
:100D0400E0FEA3E0FFA20792AF8E828F8322AFF0B2
:100D1400AE83E5829002DCF0EEA3F0EFA3F0900244
:100D2400A7E07003F58222A2AF9208C2AF9002DC62
:100D3400E0FDA3E0FEA3E0FF9002A6E08D828E8397
:100D44008FF01252559002A7E4F0A20892AF758278
:020D540001227A
:10543900C4AB8E8071584300006400C800FA002C88
:0F544900019001F4013F065B4F666D7D077F6F99
:100D5600AFF0AE83E582900335F0EEA3F0EFA3F09B
:100D660090033874FFF0A3F0900335E0FDA3E0FE96
:100D7600A3E0FF900334E0FC8C031CEB60618D82E2
:100D86008E838FF0125419FBA3AD82AE8390033588
:100D9600EDF0EEA3F0EFA3F08B027B00900338E0BA
:100DA6006BF0A3E06AF07B08900338E0F9A3E0FA61
:100DB60030E716C004E929F8EA33FC63002163042E
:100DC6001088498C4AD0048008E929F549EA33F5A8
:100DD6004A900338E549F0E54AA3F0DBCB809990C9
:100DE6000335EDF0EEA3F0EFA3F0900338E0FEA399
:100DF600E08E82F5832290032BE4F090032CF09092
:100E0600032FF0900332F0A3F0900330F0A3F0220A
:100E1600AFF0AE83E58290033CF0EEA3F0EFA3F0D3
:100E260090033CE0FDA3E0FEA3E0FF90033AE0FB65
:100E3600A3E0FC8B028D828E838FF0EA1252550D51
:100E4600BD00010E8C038D828E838FF0EB0252550E
:100E5600AFF0AE83E582900341F0EEA3F0EFA3F08E
:100E6600900341E0FDA3E0FEA3E0FF90033FE0FB1B
:100E7600A3E0FC90033AEBF0ECA3F08D828E838F17
:100E8600F0020E16AFF0AE83E582900348F0EEA3B3
:100E9600F0EFA3F0900348E0F549A3E0F54AA3E09C
:100EA600F54B900344E0F9A3E0FAA3E0FBA3E0FCD2
:100EB6008900854982854A83854BF0E8125255742C
:100EC600012549F8E4354AFEAF4B8A0588828E83B0
:100ED6008FF0ED12525574022549FDE4354AFEAFF6
:100EE6004B8B008D828E838FF0E81252557403254A
:100EF60049FDE4354AFEAF4B8C018D828E838FF01F
:100F0600E9025255AFF0AE83E58290034FF0EEA3AF
:100F1600F0EFA3F090034FE0FDA3E0FEA3E0FF9007
:100F2600034BE0F9A3E0FAA3E0FBA3E0FC90034443
:100F3600E9F0EAA3F0EBA3F0ECA3F08D828E838FA9
:100F4600F0020E8AAFF0AE83E582900352F0EEA374
:100F5600F0EFA3F0900352E0FDA3E0FEA3E0FF8DC7
:100F6600828E838FF0125419FC7B000DBD00010E9A
:100F76008D828E838FF0125419FFE44204EF4203F0
:100F86008C828B8322AFF0AE83E582900355F0EE20
:100F9600A3F0EFA3F0900355E0FDA3E0FEA3E0FF6E
:100FA6008D828E838FF0020F4AAFF0AE83E582907A
:100FB6000358F0EEA3F0EFA3F0900358E0FDA3E092
:100FC600FEA3E0FF8D828E838FF0125419F549E45B
:100FD600F54AF54BF54C74012DF8E43EFB8F048879
:100FE600828B838CF0125419F87C007B008B028C68
:100FF600038804E44249EC424AEB424BEA424C7411
:10100600022DF9E43EFB8F0489828B838CF0125407
:1010160019F97C008C0289037900E5494201E54A09
:10102600420474032DFDE43EFE8D828E838FF01202
:101036005419F87D007E008807E44201ED4204EE73
:101046004203EF420289828C838BF0EA22E582908A
:10105600035FF090035EE0FF24DF500475820022F8
:1010660090030374AAF0900304F4F090030574024D
:10107600F090035FE0900306F090032FE02401F068
:10108600E0900307F0900308EFF090035BE0FCA309
:10109600E0FDA3E0FE7B00C3EB9F5033C0078B024D
:1010A60074062AF93395E0FAE92403F50EEA3403C7
:1010B600F50FEB2CF8E43DFA8E0788828A838FF0D1
:1010C600125419850E82850F83F00BD00780C874E1
:1010D600042F900334F090030575F000C007120D3D
:1010E60056AD82AE83D00774062F2403F582E4340E
:1010F60003F5838D04ECF074072F2403F582E434A2
:1011060003F5838E05EDF074082FFF90035FE0FE74
:10111600E4BE310104FE9002D3EFF09002D4EEF06B
:1011260090030375F000020BF5E582900362F0E090
:10113600900363F0900360E0900364F0900361E035
:10114600FF900365F0EF60047F7F80027F7E90034F
:101156005B7463F07403A3F0E4A3F090035E74037E
:10116600F08F820210539002DFE0900368F0900245
:10117600E0E0900369F09002E1E090036AF09002EB
:10118600E2E090036BF09003347404F0900368750A
:10119600F000120D56E5828583F0900366F0E5F0C7
:1011A600A3F07F009002E2E0FEC3EF9E5046EF24DC
:1011B600E3F582E43402F583E0FD7E00900366E009
:1011C6006EF0A3E06DF07E08900366E0FCA3E0FD00
:1011D60030E70EEC2CFAED33FB630221630310803B
:1011E60006EC2CFAED33FB900366EAF0EBA3F0DE97
:1011F600D70F80B0900366E0FEA3E0FF90032DE0DA
:10120600FCA3E0FDEEB50408EFB50504740180010A
:10121600E4F5822290036C75F000120B24E58270CF
:101226000302137390032BE0FF24F7500302136BA2
:10123600EF240A83F582EF240D83F583E473566663
:101246008494A5B6F2233B12121212121212131331
:1012560090036CE0FFBFAABC90032B7401F080B42E
:1012660090036CE0FFBF55047E02800BBFAA047F8B
:101276000180027F008F0690032BEEF0809690038C
:101286006CE09002DFF090032B7403F080869003ED
:101296006CE09002E0F090032B7404F002121A90B6
:1012A600036CE09002E1F090032B7405F002121A31
:1012B60090036CE0FF9002E2F090032CE4F09003C0
:1012C6006CE0FF24DF5014900332E02401F0A3E029
:1012D6003400F090032BE4F002121AEF60047F064C
:1012E60080027F0790032BEFF002121A90032CE086
:1012F600FF04F0EF24E3FFE43402FE90036CE08F7A
:10130600828E83F09002E2E0FF90032CE0C39F50B0
:101316000302121A90032B7407F002121A90036C40
:10132600E0FE7F0090032DEEF0EFA3F090032B7408
:1013360008F002121A90036CE0FF7E0090032DE085
:101346004EF0A3E04FF090032BE4F012116CE5820F
:10135600600475820122900330E02401F0A3E0349A
:1013660000F002121A90032BE4F002121A758200A2
:1013760022900330E0FEA3E08E82F58322900332B2
:10138600E0FEA3E08E82F58322758203020613D265
:10139600A6D2A512138FC2A612138FC2A522C2A669
:1013A600D2A512138FD2A602138FE582900375F091
:1013B6007F00900375E0FE548024FF92A6C007C00C
:1013C6000612138FD2A512138FD006D007C2A5EE30
:1013D6002E900375F00FBF080040D7D2A6D2A512F3
:1013E600138F30A6047F0080027F01C2A58F822260
:1013F600E582900376F0900377E4F0D2A67F009022
:101406000377E025E0F0D2A5C00712138FD007308E
:10141600A608900377E043E001F0C2A5C0071213C7
:101426008FD0070FBF080040D6900376E0B40100C6
:1014360092A6D2A512138FC2A5D2A6900377E0F585
:101446008222E582900379F01213957582A6121313
:10145600B0AF82900379E0F582C0071213B0AE8276
:10146600D007EE5207900378E0F582C0071213B05A
:10147600AE82D007EE5207C0071213A4D0078F82A0
:1014860022E58290037AF01213957582A61213B0A4
:1014960090037AE0F5821213B01213957582A712A3
:1014A60013B07582001213F6AF82C0071213A4D0D0
:1014B600078F8222D2A5D2A6900373E4F09003741C
:1014C600F0758200121487AF82BFE5028004758230
:1014D60000229003787408F0758231121448E58270
:1014E6007003F582229003787408F075822C12142A
:1014F600489003787408F075822D12144890037191
:10150600E4F0A3F090036FF0A3F090036DF0A3F066
:1015160090037304F075820122AF83E58290037B0A
:10152600F0EFA3F090037BE0FEA3E0FF8E048F05AF
:10153600ED30E709C3E49EFCE49FFD80048E048F32
:10154600058C828D8322AFF0AE83E58290037DF019
:10155600EEA3F0EFA3F0900373E0703390037DE009
:10156600FDA3E0FEA3E0FF74082DFAE43EFB8F0422
:101576008A828B838CF0E412525574062DFDE43E6C
:10158600FE8D828E838FF0E4125255A302525512BD
:1015960013957582A61213B07582321213B0121308
:1015A600957582A71213B07F00EF2480FDE4340303
:1015B600FEBF0503D38001C3B39209E433F582C0AD
:1015C60007C006C0051213F6AC82D005D006D007B8
:1015D6008D828E83ECF00FBF060040CD1213A490CF
:1015E600037DE0FDA3E0FEA3E0FF8D158E168F17A9
:1015F600900380E0F510751100900381E0F9780002
:10160600E51042008515828516838517F0E812528B
:1016160055A3E912525574022DF512E43EF5138FC7
:1016260014900382E0F510751100900383E0F978B9
:1016360000E51042008512828513838514F0E812B6
:101646005255A3E912525574042DF8E43EF98F045D
:10165600900384E0F510751100900385E0FA7B0095
:10166600E5104203888289838CF0EB125255A3EA77
:10167600125255900374E0701A74062DFAE43EFB7C
:101686008F048A828B838CF0E4125255A312525532
:1016960002180C74062DFDE43EFE85158285168320
:1016A6008517F0125419FBA3125419FC90036DE030
:1016B600F9A3E0FAEBC399FBEC9AFC8B828C83C00E
:1016C60007C006C00512151FAB82AC83D005D00635
:1016D600D0078D828E838FF0EB125255A3EC1252F7
:1016E600558512828513838514F0125419F512A3B9
:1016F600125419F51390036FE0F515A3E0F516E5FE
:1017060012C39515F8E5139516FA88828A83C007E1
:10171600C006C005C004C00312151FA982AA83D043
:1017260003D004D005D006D007C3EB99EC9A50310C
:10173600E512C39515FBE5139516FC8B828C83C0C9
:1017460007C006C00512151FAB82AC83D005D006B4
:10175600D0078D828E838FF0EB125255A3EC125276
:101766005590037DE0FDA3E0FEA3E0FF74042DFB8E
:10177600E43EFA8F048B828A838CF0125419FBA301
:10178600125419FC900371E0F515A3E0F516EBC3AE
:101796009515F8EC9516FA88828A83C007C006C0AC
:1017A60005C004C00312151F858212858313D0035A
:1017B600D004D005D006D00774062DFDE43EFE8D7C
:1017C600828E838FF0125419F8A3125419FAC3E8C3
:1017D6009512EA9513502FEBC39515FBEC9516FC65
:1017E6008B828C83C007C006C00512151FAB82AC66
:1017F60083D005D006D0078D828E838FF0EB1252F0
:1018060055A3EC12525590037DE0FDA3E0FEA3E044
:10181600FF8D028E038F048A828B838CF0125419FB
:10182600FAA3125419FB90036DEAF0EBA3F07402CD
:101836002DFAE43EFB8F048A828B838CF0125419B6
:10184600FAA3125419FB90036FEAF0EBA3F07404A9
:101856002DFAE43EFB8F048A828B838CF012541996
:10186600FAA3125419FB900371EAF0EBA3F0740883
:101876002DFDE43EFE8D828E838FF074011252554B
:10188600900374F022E582900386F0E024FF92CC68
:10189600D295758202120613C29522E582900387BD
:1018A600F07F00900387E0FE74015EF582C007C0FA
:1018B6000612188BD006D007EEC313900387F00FDD
:1018C600BF080040DE22900388E4F0D2CC7F0030CF
:1018D600CC148FF005F07401800225E0D5F0FBFEF4
:1018E600900388E04EF0D295758202C00712061367
:1018F600C295758202120613D0070FBF080040CFAB
:10190600900388E0F58222E582900389F053919F47
:1019160053929FC296C295D296900389E0F58212A1
:1019260018A11218CCAF82C296D2CC8F8222E58241
:1019360090038AF0E0FFC4540F75F00AA4FE740FFA
:101946005F2EF58222AFF0AE83E582900391F0EE32
:10195600A3F0EFA3F075828112190DAF8275828311
:10196600C00712190DAE82758285C00612190DAD1B
:1019760082D006D0078F0453047FEC24A6400FEED6
:1019860024A6400A8D0453043FEC24DC50047582DF
:10199600002290038EE0FAA3E0FBA3E0FC53077F4E
:1019A6008F82C006C005C004C003C002121934AF3E
:1019B60082D002D003D004D005D0068A828B838CD5
:1019C600F0EF12525590038BE0FBA3E0FCA3E0FF7F
:1019D6008E82C007C005C004C003121934AE82D07F
:1019E60003D004D005D0078B828C838FF0EE125281
:1019F60055900391E0FCA3E0FEA3E0FF53053F8D65
:101A060082C007C006C004121934AD82D004D006C5
:101A1600D0078C828E838FF0ED125255758201228B
:101A2600758204020613D2C0D2CD121A26C2C01283
:101A36001A26C2CD22C2C0D2CD121A26D2C0021A8E
:101A460026E582900394F07F00900394E0FE548094
:101A560024FF92C0D2CDC007C006121A26D006D0E7
:101A660007C2CDEE2E900394F00FBF080040DAD2E5
:101A7600C0D2CD121A2630C0047F0080027F01C278
:101A8600CD8F8222E582900395F0900396E4F0D202
:101A9600C07F00900396E025E0F0D2CDC007121A71
:101AA60026D00730C008900396E043E001F0C2CD8F
:101AB6000FBF080040DD900395E0B4010092C0D24C
:101AC600CD121A26C2CDD2C0900396E0F58222E549
:101AD60082900397F0121A2C7582A0121A47E5829B
:101AE6007007121A3B7582FF22900397E0F5821267
:101AF6001A47121A2C7582A1121A47758200121AF9
:101B06008AAF82C007121A3BD0078F8222E58290E5
:101B16000399F0121A2C7582A0121A47E5827003F7
:101B2600021A3B900399E0F582121A47900398E057
:101B3600F582121A47021A3B9003A8E0700122129E
:101B46001A2C7582A0121A47AF82C007121A3BD010
:101B560007EF702A1205F3AC82AD83AEF0FF900357
:101B6600A9E0F8A3E0F9A3E0FAA3E0FBECC398ED43
:101B760099EE9AEF9B20E7059003A8E4F0229003E4
:101B8600A6E0FF9003A7E02FFEEF249AF582E43447
:101B960003F583E0900398F08E82121B131205F36F
:101BA600AC82AD83AEF0FF9003A974142CF0E43D33
:101BB600A3F0E43EA3F0E43FA3F09003A6E02401E3
:101BC600F0E0FFBF0C059003A8E4F022AFF0AE836F
:101BD600E5829003ADF0EEA3F0EFA3F09003B074AE
:101BE6005AF09003ADE0FDA3E0FEA3E0FF7C009079
:101BF60003B0E023FBEC2DF8E43EF98F02888289DE
:101C0600838AF01254199003B06BF00CBC0A0040A2
:101C1600DE9003B0E0F58222AF83E5829003B1F057
:101C2600EFA3F09003B3E4F09003B4F0A3F09003B5
:101C3600B1E0FEA3E0FF8E828F83E4F09003B1E073
:101C4600FEA3E0FF8E048F057B007A00C004C0056A
:101C5600EA24B6F8E43403F98B05ED75F00CA4FD1F
:101C66008A04EC2DF582C007C006C004C003C0027A
:101C7600C001C000121AD5AD82D000D001D002D06A
:101C860003D004D006D00788828983EDF00ABA0C07
:101C960000D005D00440B59003B6E0FABAC702807A
:101CA60003021DB69003B7E0FABA01028008BA0231
:101CB600028003021DB69003C0E0FA9003B675F0E9
:101CC60000C007C006C005C004C003C002121BD274
:101CD600A982D002D003D004D005D006D007EAB539
:101CE60001028003021DB69003C1E0FA9003C0E032
:101CF600F96301FFEAB501028003021DB6C004C004
:101D0600059003B8E0F97A009003B9E0FDE449F5DF
:101D160018ED4AF519D005D0049003B3E0601F9082
:101D260003B4E0F9A3E0FAE518C399F9E5199AFABC
:101D3600C3E49974808AF063F08095F05072900342
:101D4600B37401F09003B4E518F0E519A3F090031D
:101D5600B7E0FABA012EC006C00774012CF9E43DBB
:101D6600FA9003BDE0F5187519009003BEE0FF7EFA
:101D760000E518420689828A83EEF0EFA3F0D007C9
:101D8600D006802CC004C00574012EF9E43FFA90F9
:101D960003BAE0F5187519009003BBE0FD7C00E579
:101DA60018420489828A83ECF0EDA3F0D005D004B2
:101DB6000BBB08005003021C509003B1E0FEA3E0E9
:101DC600FF8E048F059003B3E08C828D83F074033D
:101DD6002EFEE43FFF9003B4E0FCA3E0FD8E828F6D
:101DE60083ECF0EDA3F022AF83E5829003C2F0EF1F
:101DF600A3F09003C2E0FEA3E0FF74032EFCE43FD1
:101E0600FD8C828D83E0FAA3E0FB0ABA00010B8CFD
:101E1600828D83EAF0EBA3F08E828F837401F08CBF
:101E2600828D83E0FB5303079003C474C7F09003CD
:101E3600C57402F08C828D83E09003C6F08C828D8F
:101E460083E0A3E09003C7F00EBE00010F8E828FE1
:101E560083E09003C8F08E828F83E0A3E09003C9ED
:101E6600F09003CDE4F09003CCF09003CBF0900318
:101E7600CAF09003C4F5F0C003121BD2AF82D003A0
:101E86009003CEEFF06307FF9003CFEFF07F00EFF4
:101E9600249AFDE43403FEEF24C4F582E43403F50A
:101EA60083E08D828E83F00FBF0C0040E29003A684
:101EB600E4F09003A7EB75F00CA4F09003A874016E
:101EC600F01205F3AC82AD83AEF0FF9003A9741453
:101ED6002CF0E43DA3F0E43EA3F0E43FA3F022E5BA
:101EE600829003D0F0E0B4010092C322E582900311
:101EF600D1F0E0B4010092C4227582030206137584
:101F06008201121EE5758201121EF2121EFF7582F3
:101F160000121EE5121EFF758200021EF275820077
:101F2600121EE5758201121EF2121EFF7582011243
:101F36001EE5021EFFE5829003D2F07F009003D2D9
:101F4600E0FE74805EF582C007C006121EE575824B
:101F560001121EF2121EFF758200121EF2D006D06A
:101F660007EE2E9003D2F00FBF080040D075820115
:101F7600121EE5758201121EF2121EFF7582000204
:101F86001EF2E5829003D3F0121F05758278121FA8
:101F96003B758200121F3B9003D3E0F582121F3B74
:101FA600021F23E5829003D5F0E024B0F582121FCC
:101FB600889003D4E0FF740F5FF582C007121F8874
:101FC600D007EFC4540FFF4307108F82021F88E526
:101FD600829003DDF09003DEE4F09003DDE0FFBFC6
:101FE6000C349003DBE0FE6003BE7F047DFF80239C
:101FF6009003DCE0FCE070047B018015BC07047CE8
:1020060080800CEE30E3047EAA80027E558E048C1E
:10201600038B058D8222BF0C00500F9003DBE0FE80
:10202600BE20004005BE60004004758200227D008F
:10203600EE24E0FEED34FFA2E713CE13CEA2E713A3
:10204600CE13CE8EF005F07E007D808007C3ED13A3
:10205600FDEE13FED5F0F6EF75F020A42458FC74BF
:102066005435F0FF9003DCE0FBF97A0029F9EA33F6
:10207600FAE929F9EA33FAE92CF582EA3FF583E42D
:1020860093FCA3E493FFEE5204ED5207EC4F600677
:102096009003DE740FF09003DDE075F020A4245861
:1020A600FC745435F0FFEB2BFB0BEB2B2CF582E489
:1020B6003FF583E493FCA3E493FFEC5206EF52054D
:1020C600EE4D60089003DEE043E0F0F09003DEE0C2
:1020D600F58222758201121EE5758201121EF27EBC
:1020E600A87F618E048F051EBEFF011FEC4D6003A5
:1020F6000080F07582AE121F88758220121F8875C7
:102106008202121F887582C8121F887582A1121F4B
:10211600887582A6121F887582A8121F8875823F4D
:10212600121F887582D3121F88758200121F887548
:1021360082D5121F88758280121F887582D9121F58
:10214600887582F1121F887582DA121F88758212CD
:10215600121F887582DB121F88758240121F8875D0
:10216600828D121F88758214121F887582AF121F06
:10217600889003D774FFF09003DAE4F075820002CA
:102186002188E5829003DFF0E09003D6F0229003E9
:10219600D6740CF0229003DAE070229003D7E0FFA9
:1021A6009003D6E0FEEFB50601229003D7EEF0903D
:1021B60003D9E4F09003D8F09003DA04F09003D941
:1021C600E0700F9003D8E0FF9003D4E4F08F821202
:1021D6001FA9121F05758278121F3B758240121FB8
:1021E6003B7F009003D7E0FE9003D9E0FD04F0901A
:1021F60003D8E0FC9003DBEDF09003DCECF08E827C
:10220600C007121FD5121F3BD0070FBF100040D3C7
:10221600121F239003D9E0FFBF80169003D9E4F084
:102226009003D8E02401F0E0FFBF08059003DAE44C
:02223600F02294
:105458001008381C6C36C66303C001809999818195
:1054680001802184C183018003C00660FC3F0000E5
:105478001008381C6C36C66303C00180A5A599992D
:10548800018081814182218483C10660FC3F000044
:105498001008381C6C36C66303C00180B99DA5A5E9
:1054A800018081814182418283C10660FC3F000006
:1054B8001008381C6C36C66303C00180A5A59999ED
:1054C800018049922189499203C00660FC3F00008F
:1054D8001008381C6C36C66303C001800180F99F30
:1054E80001808181C183018003C00660FC3F000008
:1054F8001008381C6C36C66303C0018099998181F5
:10550800218441828181218403C00660FC3F4002DE
:105518001008381C6C36C66303C0018189998181E3
:10552800018041822184018003C40666FC3F180C77
:105538008001C003E007B00D801980318061FFFF52
:10554800FFFF806180318019B00DE007C003800142
:105558008001C003E007B00D800180018001FFFFDA
:10556800FFFF86618C319819B00DE007C0038001F8
:10557800800180038007FF0FFF1FFF3FFF7FFFFFB2
:10558800FFFFFF7FFF3FFF1FFF0F800780038001A2
:105598008001C001E001F0FFF8FFFCFFFEFFFFFF04
:1055A800FFFFFEFFFCFFF8FFF0FFE001C0018001F4
:1055B800018003C006600C301818300C6006C00368
:1055C800C0036006300C18180C30066003C0018058
:10223800AF82AE83ADF0FC900489EFF0EEA3F0ED31
:10224800A3F0ECA3F0900485E0FCA3E0FDA3E0FE7E
:10225800A3E0FF900489E0F8A3E0F9A3E0FAA3E083
:10226800FBE8C39CE99DEA9EEB9F33B3920AE433F3
:10227800F58222E58290048EF0E0FE7F0090048DC6
:10228800E07D002EFEED3FFF8E048F05C374649C35
:10229800E49D50047D6480028E058D8222E5829043
:1022A8000490F0E0FF90048FE0FEC39F5006EFC358
:1022B8009EFF80027F008F8222AF83E58290049385
:1022C800F0EFA3F0900493E0FEA3E0FF900491E008
:1022D800FCA3E0FDC007C006C005C0041205F3A8B2
:1022E80082A983AAF0FBD004D005D006D0079005B8
:1022F80050ECF0EDA3F0900552E8F0E9A3F0EAA362
:10230800F0EBA3F08E828F83024C7DE582900497D8
:10231800F0E0900498F0900495E0FEA3E0FF9003AD
:102328003FEEF0EFA3F090049975F000120E56906E
:10233800035B7498F07404A3F0E4A3F090035E7454
:1023480003F0758211021053E58290049BF0E0902F
:10235800049CF090035B749CF07404A3F0E4A3F075
:1023680090035E04F07582310210537582021223C5
:10237800509003FAE4F09003FBF022E58290049D6C
:10238800F090049E745AF090049FF4F090049DE03D
:10239800FF9004A0F06307FF9004A1EFF09002D82B
:1023A8007404F090049E75F000020C59E5829004C4
:1023B800ABF09003F3E0700C9003F2E0700690032A
:1023C800FAE06001229003FEE0FEA3E0FF0EBE00EB
:1023D800010F9003FEEEF0EFA3F0EE4F70099003AB
:1023E800FE7401F0E4A3F09003FEE0FEA3E0FF908A
:1023F800033AEEF0EFA3F09004AC75F000120E165D
:102408009004ABE0FF9004AEF09004A2E0FDA3E0DE
:10241800FE90033FEDF0EEA3F09004AF75F000C01E
:1024280007120E569004A4E0FBA3E0FCA3E0FDA372
:10243800E0FE90034BEBF0ECA3F0EDA3F0EEA3F07D
:102448009004B175F000120F0A9004A8E0FDA3E013
:10245800FE90033AEDF0EEA3F09004B575F000128B
:102468000E1690035B74ACF07404A3F0E4A3F09030
:10247800035E740BF0758220121053E582D007704A
:1024880001229003FA7401F09003FEE0FDA3E0FE40
:10249800900400EDF0EEA3F09004AAE09003FBF0A6
:1024A800C0071205F3AB82AC83ADF0FED007BF02C4
:1024B8000A7880793E7A007F0080087840791F7A10
:1024C800007F00900481E82BF0E93CA3F0EA3DA3EB
:1024D800F0EF3EA3F022E5829004B7F09003F3E01A
:1024E800FF9004B7E0FEEFB50601229003F3EEF08B
:1024F8009003FAE4F0EE60027401FF8F8212235019
:102508009004B7E06024124C6D9004917404F07448
:1025180001A3F09008FC1222C19003F1E0FFBF4B29
:102528000050169003F1744BF0229004917464F0FB
:10253800E4A3F09003B60222C122E5829004B8F029
:102548001205F3AC82AD83AEF0FF9004B9E4F090CD
:1025580004B8E0FB9003FDF090045974D02CF0749B
:10256800073DA3F0E43EA3F0E43FA3F0BB02004024
:102578001DEB24F940189003F3E0700C9003F2E08F
:1025880070069003FAE060069004B97401F09004B4
:10259800B8E0FB24F35003022774EB240A83F58286
:1025A800EB241183F583E47374CAD3002D5A87B4DE
:1025B800C3DA1D3B57272525262626262626262725
:1025C8002727124C6D1223730227749004A274F407
:1025D800F07401A3F09004A4E4F0A3F0A3F0A3F036
:1025E8009004A874A0F0E4A3F09004AA7407F0750E
:1025F80082011223B40227749004A2740CF074FEB2
:10260800A3F09004A4E4F0A3F0A3F0A3F09004A82E
:1026180074A0F0E4A3F09004AA7408F07582011283
:1026280023B40227749004A274F4F07401A3F09008
:1026380004A4E4F0A3F0A3F0A3F09004A874A0F01D
:10264800E4A3F09004AA7409F07582031223B4027B
:1026580027749004A2740CF074FEA3F09004A4E410
:10266800F0A3F0A3F0A3F09004A874A0F0E4A3F002
:102678009004AA740AF07582031223B40227749096
:1026880004A2E4F0A3F09004A474A0F0748CA3F066
:10269800E4A3F0A3F09004A874F4F07401A3F090FC
:1026A80004AAF07582021223B40227749003F2740C
:1026B80001F0122373124C6D0227749003F2E4F0B8
:1026C800900491745AF0E4A3F090044C1222C102D1
:1026D80027749003F0E0FB90048D7405F08B82C0A2
:1026E80007C006C005C00412227BAB82D004D00507
:1026F800D006D0079003F0EBF090043F7401F090FF
:10270800045574C42CF074093DA3F0E43EA3F0E42E
:102718003FA3F080579003F3E0900558F08C828D2A
:10272800838EF0EF124CCEE58270419004B97401AB
:10273800F0803990043F7401F090045574C42CF073
:1027480074093DA3F0E43EA3F0E43FA3F0801D909C
:1027580003F4E4F090043FF090045574082CF074EE
:10276800073DA3F0E43EA3F0E43FA3F09004B8E0F3
:10277800FF900495F0E4A3F0758205C007122313B7
:10278800D0079004B9E060177E0074642FFFE43E20
:10279800FE900495EFF0EEA3F07582080223132251
:1027A800120CFBAE82AF83C007C0061205F3AA82E3
:1027B800AB83ACF0FDD006D00790043DE0F8A3E071
:1027C800F9EEB50006EFB50102803090043DEEF059
:1027D800EFA3F090042CE4F0900437E0FEA3E0FFB0
:1027E8000EBE00010F900437EEF0EFA3F09004BA8C
:1027F80075F000120B74E58270F322900519EAF067
:10280800EBA3F0ECA3F0EDA3F090042C75F000C05E
:1028180005C004C003C0021242F8D002D003D0049D
:10282800D0059004BA75F000C005C004C003C0020A
:10283800120B74E582D002D003D004D005604B900F
:1028480004BAE0900520F0900521EAF0EBA3F0EC43
:10285800A3F0EDA3F090042C75F000C005C004C0EF
:1028680003C0021243D7AF82D002D003D004D005F0
:10287800EF60AF8F82C005C004C003C002122542BA
:10288800D002D003D004D005809822E5829004BB02
:10289800F0E09004BCF090033A7478F0E4A3F09070
:1028A80004BDF5F0120E1690033A742CF07401A3CF
:1028B800F09004BF75F000120E1690035B74BCF024
:1028C8007404A3F0E4A3F090035E7405F07582220B
:1028D800021053E5829004C1F0E0FFBF0104758245
:1028E8000722BF020475820822BF030475820922E9
:1028F800BF040475820A2275820022AF82AE83ADBE
:10290800F0FC9004C2EFF0EEA3F0EDA3F0ECA3F01E
:102918009004C2E0FCA3E0FDA3E0FEA3E0FF747C0A
:102928002CFC74013DFDE43EFEE43FFF9004C675B7
:10293800F000C007C006C005C004120D12E582D021
:1029480004D005D006D0077001229004C6E0FB240D
:10295800FB50027B009004C7EBF09004C6E0FBBB81
:1029680005028003EB7020758200C007C006C00511
:10297800C004122893122373D004D005D006D007C0
:102988009004C7E4F080629003F2E0705C9003F377
:10299800E070569003FAE06013C007C006C005C097
:1029A80004122373D004D005D006D0079004C7E0E2
:1029B800FBF582C007C006C005C004C003122893F7
:1029C800D0038B821228DBAB82D004D005D006D08E
:1029D800079003FBEBF090043FEBF0900455ECF00C
:1029E800EDA3F0EEA3F0EFA3F09004C7E09003FC92
:1029F800F09004C6E0FB900440E0FAEBB502030255
:102A08002934900495EBF0E4A3F0758209C007C05F
:102A180006C005C004122313D004D005D006D00781
:102A28009004C6E0900440F00229349002DFE0FFF1
:102A3800BF020280189002E0E0FF9002E1E09003FC
:102A480060F09003617401F08F8202112F9002E010
:102A5800E0FFBF0102801BBF02028016BF21028077
:102A680023BF3103022B04BF7E0122BF7F01220254
:102A78002B669002E1E0900360F0900361E4F08F30
:102A88008202112F9002E2E0FEBE095D9002E3751A
:102A9800F000120F4AAD82AE83900400E0FBA3E081
:102AA800FCEDB5032DEEB504299003FAE4F090038C
:102AB800FBF09002E5E070067DE27E0480047D8AEA
:102AC8007E02900491745AF0E4A3F08D828E8312F2
:102AD80022C19002E0E0FE9002E1E0900360F090F5
:102AE8000361E4F08E8202112F9002E1E09003600E
:102AF800F09003617402F08F8202112F9002E2E0DD
:102B0800FE24FE4046EE60079002E3E0FE80027E6F
:102B180001BE02079003FAE4F08019EEB40100B395
:102B2800920BE433FE9003F3F0EE6008124C6D90C4
:102B380003FAE4F09002E0E0FE9002E1E090036026
:102B4800F0900361E4F08E8202112F9002E1E09090
:102B58000360F09003617402F08F8202112F9002DB
:102B6800E1E0900360F09003617403F08F8202113A
:102B78002F900429E4F0900445F0A3F0A3F0A3F00B
:102B8800900441F0A3F0A3F0A3F09003F2F09003B7
:102B9800F1E0FFBF500050069003F17450F090032D
:102BA800F0E0FF90048F740AF08F821222A5AF82A2
:102BB8009003F0EFF0124C6D9003E0E0900495F074
:102BC800E4A3F07582011223139004917440F07409
:102BD80001A3F09008341222C175828012238390D9
:102BE80004A2740CF074FEA3F09004A4E4F0A3F023
:102BF800A3F0A3F09004A874B4F0E4A3F09004AA9E
:102C08007408F07582010223B4AF82AE83ADF0FC84
:102C18009004C8EFF0EEA3F0EDA3F0ECA3F07582FA
:102C280004120631AF82C00712068FE582D0077002
:102C380001229003E0EFF0BF14005003022CCA9069
:102C48000445E4F0A3F0A3F0A3F0900441E0F5F00C
:102C5800A3E042F0A3E042F0A3E045F0701C90042A
:102C6800C8E0FCA3E0FDA3E0FEA3E0FF900441EC74
:102C7800F0EDA3F0EEA3F0EFA3F0900429E07001CB
:102C8800229004C8E0FCA3E0FDA3E0FEA3E0FF90CF
:102C98000441E0F8A3E0F9A3E0FAA3E0FB9004857F
:102CA80074C828F0E439A3F0E43AA3F0E43BA3F0B5
:102CB8008C828D838EF0EF122238E5827001220219
:102CC8002B799003E0E024F05003022D5B9004413F
:102CD800E4F0A3F0A3F0A3F0900445E0F5F0A3E03E
:102CE80042F0A3E042F0A3E045F0701C9004C8E075
:102CF800FCA3E0FDA3E0FEA3E0FF900445ECF0EDAB
:102D0800A3F0EEA3F0EFA3F0900429E0705A90042A
:102D1800C8E0FCA3E0FDA3E0FEA3E0FF900445E0CB
:102D2800F8A3E0F9A3E0FAA3E0FB90048574D028A7
:102D3800F0740739A3F0E43AA3F0E43BA3F08C82E3
:102D48008D838EF0EF122238E582601C900429747E
:102D580001F022900445E4F0A3F0A3F0A3F090045E
:102D680041F0A3F0A3F0A3F022AF82AE83ADF0FC54
:102D78009004CCEFF0EEA3F0EDA3F0ECA3F0758295
:102D880007120631AF82C00712068FAE82C0061244
:102D9800078CAD829004CCE0F9A3E0FAA3E0FBA392
:102DA800E0FC90050EEDF090050F7401F090051011
:102DB800E9F0EAA3F0EBA3F0ECA3F090040775F0B8
:102DC80000C004C003C002C001124060AD82D0013F
:102DD800D002D003D004C005C004C003C002C001A3
:102DE800120796E582D001D002D003D00490050ED8
:102DF800F090050F7401F0900510E9F0EAA3F0EBEC
:102E0800A3F0ECA3F090041275F000C004C003C056
:102E180002C001124060A882D001D002D003D004C1
:102E2800D005D006D0078F82C006C005C004C003F5
:102E3800C002C001C0001207A0E582D000D001D0B6
:102E480002D003D004D005D00690050EF090050FEF
:102E5800EEF0900510E9F0EAA3F0EBA3F0ECA3F094
:102E680090041D75F000C005C000124060AF82D00C
:102E780000D005C007C005C0001207ACAE82D00064
:102E8800D005D007ED30E1269003F4E00454039018
:102E980003F4F09004957401F0E4A3F0758206C081
:102EA80007C006C000122313D000D006D007E830B0
:102EB800E25DC007C006124C66E582D006D0076006
:102EC8000DC007C006124C6DD006D00780289004AC
:102ED800CCE0FAA3E0FBA3E0FCA3E0FD9003F3E061
:102EE800900558F08A828B838CF0EDC007C00612DB
:102EF8004CCED006D0079004957414F0E4A3F07576
:102F08008206C007C006122313D006D007803CE80B
:102F180030E1389003F2E0B40100920CE433FD9004
:102F280003F2F0ED600EC007C006122373124C6D59
:102F3800D006D0079004957402F0E4A3F0758206D9
:102F4800C007C006122313D006D007EF30E02B903D
:102F580003F3E0900428F09003F3E0701D758201FC
:102F6800C007C0061224DE9004957403F0E4A3F0B1
:102F7800758206122313D006D007EF30E22490049E
:102F880028E0601E758200C0061224DE900428E442
:102F9800F0900495741EF0E4A3F0758206122313D2
:102FA800D0069003EFEEF0EE607890042AE070729D
:102FB800900403E0FDA3E0FF0DBD00010F900403A2
:102FC800EDF0EFA3F09003F0E0FF90048D7423F090
:102FD8008F82C00612227BAF829003F0EFF090033D
:102FE800F1E0FF90048F7414F08F821222A5AF8253
:102FF8009003F1EFF0900403E0FDA3E0FF90049547
:10300800EDF0EFA3F075820312231390049174641A
:10301800F0E4A3F090047E1222C1900402121DED88
:10302800D00690042AEEF022AF82AE83ADF0FC9079
:1030380004D0EFF0EEA3F0EDA3F0ECA3F09003E5DD
:1030480075F00012154C1207B6E582701A9003ED60
:10305800E060109003EBE0FEA3E0FFC3745A9EE427
:103068009F4004C20D8002D20DA20DE433FF9003ED
:10307800EEF0EF7001229004D0E0FCA3E0FDA3E0A5
:10308800FEA3E0FF900451E0F8A3E0F9A3E0FAA35F
:10309800E0FB90048574D028F0740739A3F0E43A73
:1030A800A3F0E43BA3F08C828D838EF0EFC007C0C1
:1030B80006C005C004122238E582D004D005D00627
:1030C800D007603A900451ECF0EDA3F0EEA3F0EFD6
:1030D800A3F09003F1E0FFBF4B0050069003F1749A
:1030E8004BF09003EBE0FEA3E0FF900495EEF0EFC9
:1030F800A3F07582021223137582010224DE22AF27
:1031080082AE83ADF0FC9004D4EFF0EEA3F0EDA313
:10311800F0ECA3F0758203120631AF82C0071206E5
:103128008FE582D0077001228F82120696AE82AF99
:10313800839003E1EEF0EFA3F09003E3E0FCA3E05B
:10314800FD74142CFCE43DFDC3EE9CEF64808DF00F
:1031580063F08095F05003023297900449E0F5F04F
:10316800A3E042F0A3E042F0A3E045F0701C900415
:10317800D4E0FCA3E0FDA3E0FEA3E0FF900449EC4B
:10318800F0EDA3F0EEA3F0EFA3F09004D4E0FCA3DD
:10319800E0FDA3E0FEA3E0FF900449E0F8A3E0F916
:1031A800A3E0FAA3E0FB90048574D028F0740739F3
:1031B800A3F0E43AA3F0E43BA3F08C828D838EF075
:1031C800EFC007C006C005C004122238E582D0044B
:1031D800D005D006D00770012290044DE0F8A3E096
:1031E800F9A3E0FAA3E0FB900485741028F0742793
:1031F80039A3F0E43AA3F0E43BA3F08C828D838EEC
:10320800F0EFC007C006C005C004122238E582D01E
:1032180004D005D006D00770012290044DECF0EDE3
:10322800A3F0EEA3F0EFA3F09003F0E0FB90048F7F
:10323800740AF08B82C007C006C005C0041222A51C
:10324800AB829003F0EBF09003E1E0FAA3E0FB908F
:103258000495EAF0EBA3F07582041223139004910D
:103268007450F0E4A3F09006D61222C1D004D00521
:10327800D006D00790043F7405F090045574B82C1C
:10328800F0740B3DA3F0E43EA3F0E43FA3F02290DA
:103298000449E4F0A3F0A3F0A3F022AF83E5829001
:1032A80004D8F0EFA3F09004D8E0FCA3E0FDE033ED
:1032B80095E0FEFF900589ECF0EDA3F0EEA3F0EFAA
:1032C800A3F09003E8E4F5F0125290AC82AD83AE1F
:1032D800F0FF900571E4F004A3F0E4A3F0A3F08CF0
:1032E800828D838EF0EF1250A5AC82AD83AEF0FFD5
:1032F8009004DAECF0EDA3F0EEA3F0EFA3F0C374C2
:10330800FF9C747F9DE49E74808FF063F08095F03D
:10331800500F9004DA74FFF0747FA3F0E4A3F0A3D5
:10332800F09004DAE0A3E0FDA3E0FEA3E0FFC3ED24
:103338009480EE94FFEF6480947F500F9004DAE459
:10334800F07480A3F074FFA3F0A3F09004DAE0FE19
:10335800A3E08E82F58322AF82AE83ADF0FC9004A9
:10336800DEEFF0EEA3F0EDA3F0ECA3F09004F6E4AA
:10337800F09003F2E060069004F67401F09003F315
:10338800E060089004F6E043E002F09003F5E060A6
:103398000712068FE58270089004F6E043E010F00B
:1033A8009003FCE060089004F6E043E020F090040D
:1033B800DEE0FCA3E0FDA3E0FEA3E0FF900344EC05
:1033C800F0EDA3F0EEA3F0EFA3F09004E275F000A7
:1033D800120E8A9003E0E09004E6F09003E1E0FE2C
:1033E800A3E0FF90033FEEF0EFA3F09004E775F041
:1033F80000120E569003E5E0FEA3E0FF8E828F8355
:103408001232A3E5828583F090033FF0E5F0A3F044
:103418009004E975F000120E569003E7E0FEA3E071
:10342800FF8E828F831232A3E5828583F090033F5B
:10343800F0E5F0A3F09004EB75F000120E5690033F
:10344800E9E0FEA3E0FF8E828F831232A3E5828536
:1034580083F090033FF0E5F0A3F09004ED75F000E1
:10346800120E569003EEE09004EFF09003EFE09018
:1034780004F0F09003F0E09004F1F09003F1E09094
:1034880004F2F09004F6E09004F3F0900403E0FEF8
:10349800A3E0FF90033AEEF0EFA3F09004F475F088
:1034A80000120E1690035B74E2F07404A3F0E4A318
:1034B800F090035E7414F0758210021053AF82AE60
:1034C80083ADF0FC9004F7EFF0EEA3F0EDA3F0EC81
:1034D800A3F09003F3E0600475820B22124C66E5BA
:1034E80082600475820622900455E0FCA3E0FDA3E7
:1034F800E0FEA3E0FF900455E0F5F0A3E042F0A35E
:10350800E042F0A3E045F060319004F7E0F8A3E072
:10351800F9A3E0FAA3E0FB900485ECF0EDA3F0EE4C
:10352800A3F0EFA3F0888289838AF0EB122238E5B2
:1035380082700790043FE0F582229003F2E0600475
:10354800758204229003EEE06004758203229003E2
:10355800FAE060079003FBE0F582229003F1E0FFB8
:10356800BF37004004758202229003F0E024B9506E
:10357800047582012275820022AF82AE83ADF0FC11
:103588009004FBEFF0EEA3F0EDA3F0ECA3F09004B1
:10359800FBE0FCA3E0FDA3E0FEA3E0FF8C828D83AB
:1035A8008EF0C007C006C005C0041234C5AB82C087
:1035B800031208E4D003D004D005D006D007900346
:1035C800F3E060439002BC7453F0758200C00312AC
:1035D80008F9D0039002BC7454F0758201C003123C
:1035E80008F9D0039002BC744FF0758202C0031230
:1035F80008F9D0039002BC7450F0758203C003121E
:1036080008F9D00302386E900459E0F51AA3E0F5E2
:103618001BA3E0F51CA3E0F51D900459E0F5F0A309
:10362800E042F0A3E042F0A3E045F0605290048548
:10363800E51AF0E51BA3F0E51CA3F0E51DA3F08C4B
:10364800828D838EF0EFC003122238E582D003709A
:103658002E9002BC7455F0758200C0031208F9D090
:10366800039003FDE09002BEF0E4A3F09002C07462
:1036780003F0758201C003120928D00302386E9046
:1036880003F4E0FF70599002BC744CF0758200C0DE
:10369800031208F9D0039003E0E09002BEF0E4A31F
:1036A800F09002C07403F0758201C003120928D09B
:1036B800039002BC7446F0758204C0031208F9D066
:1036C800039003F1E09002BEF0E4A3F09002C0740E
:1036D80003F0758205C003120928D00302386EBFB3
:1036E8000102800302376E9002BC7443F0758200B9
:1036F800C0031208F9D0039003E1E0FDA3E0FE3017
:10370800E7067A007C008018900592740AF0E4A31A
:10371800F08D828E83C0031253A7AA82AC83D00394
:103728009002BEEAF0ECA3F09002C07403F0758238
:1037380001C003120928D0039002BC7448F07582B6
:1037480004C0031208F9D0039003F0E09002BEF021
:10375800E4A3F09002C07403F0758205C003120957
:1037680028D00302386EBF02759003F6E0605190CE
:1037780003F7E09002BEF0E4A3F09002C07402F0F8
:10378800758200C003120928D0039003F8E0900264
:10379800BEF0E4A3F09002C07402F0758202C00388
:1037A800120928D0039003F9E09002BEF0E4A3F0D8
:1037B8009002C07402F0758204C003120928D00375
:1037C8009003F2E060047F5380027F419002BCEFD7
:1037D800F0758207C0031208F9D00302386E900210
:1037E800BC7445F0758200C0031208F9121377AE55
:1037F80082AF8390058D74E8F07403A3F08E828FF6
:10380800831252FCAE82AF83D0039002BEEEF0EF7B
:10381800A3F09002C07403F0758201C00312092856
:10382800D0039002BC7455F0758204C0031208F9E5
:10383800120CE4AE82AF8390058D74E8F07403A394
:10384800F08E828F831252FCAE82AF83D003900237
:10385800BEEEF0EFA3F09002C07403F0758205C0CD
:1038680003120928D0039003F3E0601C9004FBE0E6
:10387800A3E0FDA3E0A3E0ED30E0047FFF80027F3A
:10388800009004FFEFF0803E9003F1E0FFBF3700A7
:10389800401C9004FBE0A3E0FDA3E0A3E0ED30E0D2
:1038A800047FAA80027F559004FFEFF080189003F0
:1038B800F0E0FFBF4B0040089004FF747EF08006E4
:1038C8009004FF7418F09004FFE0F582C003120919
:1038D800C21209CED00390042BE0FFEBB5070122FA
:1038E8008B82C003122188D00390042BEBF0229026
:1038F80003F1E0FF90048F7403F08F821222A5AFCA
:10390800829003F1EFF09003F0E0FF24CD5007EF31
:10391800149003F0F022BF320050060F9003F0EF2E
:10392800F022900500747FF0900501E4F01205F391
:10393800120DFC900402121C1E900402E0701190FB
:103948000402E4F0900405F0A3F0900403F0A3F05F
:10395800758204120631AF829003E0EFF07582039E
:10396800120631120696AE82AF839003E1EEF0EFB5
:10397800A3F09003E3EEF0EFA3F09003F07432F0BD
:103988009003F1E4F09003FEF0A3F09003FCF090B4
:1039980003FAF09003F4F09003F3F09003F2F012BE
:1039A80014BAAF829003F5EFF09003EDE4F09003C2
:1039B800F6F090041EF090041DF0900413F09004AB
:1039C80012F0900408F0900407F090042904F01213
:1039D80007ACE58290042AF090042B74FFF0900461
:1039E80059E4F0A3F0A3F0A3F0900455F0A3F0A3DA
:1039F800F0A3F0124C6D90044074FFF0900451E471
:103A0800F0A3F0A3F0A3F090044DF0A3F0A3F0A36B
:103A1800F0900449F0A3F0A3F0A3F0900445F0A3BC
:103A2800F0A3F0A3F0900441F0A3F0A3F0A3F012E8
:103A380020D9900491742CF07401A3F09004B01272
:103A480022C190035B7400F07405A3F0E4A3F09026
:103A5800035E7402F07582011210531205F3AC82F2
:103A6800AD83AEF0FF90046DECF0EDA3F0EEA3F0A3
:103A7800EFA3F0900465ECF0EDA3F0EEA3F0EFA354
:103A8800F0900461ECF0EDA3F0EEA3F0EFA3F0905A
:103A9800045DECF0EDA3F0EEA3F0EFA3F090047D4D
:103AA800ECF0EDA3F0EEA3F0EFA3F0900479ECF0C6
:103AB800EDA3F0EEA3F0EFA3F0900475ECF0EDA306
:103AC800F0EEA3F0EFA3F0900471ECF0EDA3F0EEAC
:103AD800A3F0EFA3F0900469ECF0EDA3F0EEA3F0EF
:103AE800EFA3F0221205F3AC82AD83AEF0FF900491
:103AF80061E0F8A3E0F9A3E0FAA3E0FB900485E80D
:103B0800F0E9A3F0EAA3F0EBA3F08C828D838EF0AA
:103B1800EFC007C006C005C004122238E582D004F1
:103B2800D005D006D007602D900461740A2CF0E40B
:103B38003DA3F0E43EA3F0E43FA3F08C828D838E96
:103B4800F0EFC007C006C005C004122D71D004D024
:103B580005D006D007C007C006C005C00412121A57
:103B6800E582D004D005D006D0076013C007C00690
:103B7800C005C004122A33D004D005D006D007C02F
:103B880007C006C005C0041227A8D004D005D00677
:103B9800D0078C828D838EF0EFC007C006C005C0A9
:103BA80004122903D004D005D006D0078C828D8357
:103BB8008EF0EFC007C006C005C004124D41D00406
:103BC800D005D006D00790045DE0F8A3E0F9A3E0A3
:103BD800FAA3E0FB900485E8F0E9A3F0EAA3F0EB90
:103BE800A3F08C828D838EF0EFC007C006C005C09D
:103BF80004122238E582D004D005D006D007602D03
:103C080090045D74322CF0E43DA3F0E43EA3F0E4AC
:103C18003FA3F08C828D838EF0EFC007C006C005ED
:103C2800C004122C11D004D005D006D0079004652A
:103C3800E0F8A3E0F9A3E0FAA3E0FB900485E8F03C
:103C4800E9A3F0EAA3F0EBA3F08C828D838EF0EF6A
:103C5800C007C006C005C004122238E582D004D0CF
:103C680005D006D007602D90046574282CF0E43D3B
:103C7800A3F0E43EA3F0E43FA3F08C828D838EF0A2
:103C8800EFC007C006C005C004123030D004D0050C
:103C9800D006D007900469E0F8A3E0F9A3E0FAA3FE
:103CA800E0FB900485E8F0E9A3F0EAA3F0EBA3F0C9
:103CB8008C828D838EF0EFC007C006C005C0041249
:103CC8002238E582D004D005D006D007602E9004B3
:103CD8006974F42CF074013DA3F0E43EA3F0E43FD2
:103CE800A3F08C828D838EF0EFC007C006C005C09C
:103CF80004123107D004D005D006D007900479E02B
:103D0800F8A3E0F9A3E0FAA3E0FB900485E8F0E962
:103D1800A3F0EAA3F0EBA3F08C828D838EF0EFC0C2
:103D280007C006C005C004122238E582D004D005B9
:103D3800D006D007604D90047974E82CF074033DE8
:103D4800A3F0E43EA3F0E43FA3F090038B74F8F0F3
:103D58007403A3F0E4A3F090038E74F9F07403A342
:103D6800F0E4A3F09003F7F5F0C007C006C005C063
:103D78000412194BAB82D004D005D006D0079003AB
:103D8800F6EBF090047DE0F8A3E0F9A3E0FAA3E0F5
:103D9800FB900485E8F0E9A3F0EAA3F0EBA3F08C2C
:103DA800828D838EF0EFC007C006C005C0041222C2
:103DB80038E582D004D005D006D007602790047D6E
:103DC80074E82CF074033DA3F0E43EA3F0E43FA3B1
:103DD800F0C007C006C005C0041238F7D004D005EB
:103DE800D006D00790046DE0F8A3E0F9A3E0FAA3A9
:103DF800E0FB900485E8F0E9A3F0EAA3F0EBA3F078
:103E08008C828D838EF0EFC007C006C005C00412F7
:103E18002238E582D004D005D006D007602D900462
:103E28006D74642CF0E43DA3F0E43EA3F0E43FA3FA
:103E3800F08C828D838EF0EFC007C006C005C004E9
:103E4800123581D004D005D006D007900471E0F86F
:103E5800A3E0F9A3E0FAA3E0FB900485E8F0E9A366
:103E6800F0EAA3F0EBA3F08C828D838EF0EFC0070D
:103E7800C006C005C004122238E582D004D005D09F
:103E880006D007602D90047174C82CF0E43DA3F0AF
:103E9800E43EA3F0E43FA3F08C828D838EF0EFC064
:103EA80007C006C005C00412335FD004D005D00691
:103EB800D007900475E0F8A3E0F9A3E0FAA3E0FBCB
:103EC800900485E8F0E9A3F0EAA3F0EBA3F08C8274
:103ED8008D838EF0EFC007C006C005C004122238DB
:103EE800E582D004D005D006D007605490047574DC
:103EF800F42CF074013DA3F0E43EA3F0E43FA3F0FA
:103F0800900344ECF0EDA3F0EEA3F0EFA3F09005DE
:103F18000275F000C007C006C005C004120E8A90E2
:103F2800035B7402F07405A3F0E4A3F090035E74DD
:103F380004F0758202121053D004D005D006D007C1
:103F4800C007C006C005C00412219B121B3ED00446
:103F5800D005D006D0079003FAE0605E900481E0B7
:103F6800F8A3E0F9A3E0FAA3E0FB900485E8F0E900
:103F7800A3F0EAA3F0EBA3F08C828D838EF0EFC060
:103F880007C006C005C004122238E582D004D00557
:103F9800D006D00760249003FAE4F09004957414D6
:103FA800F0E4A3F0758208C007C006C005C004127B
:103FB8002313D004D005D006D007900455E0F8A309
:103FC800E0F9A3E0FAA3E0FB900455E0F5F0A3E0E4
:103FD80042F0A3E042F0A3E045F06038900485E8A1
:103FE800F0E9A3F0EAA3F0EBA3F08C828D838EF0C6
:103FF800EF122238E582601C900455E4F0A3F0A388
:10400800F0A3F09003FCE0600B9003FCE4F07582F1
:104018000002289322AF82AE83ADF0FC90050AEF30
:10402800F0EEA3F0EDA3F0ECA3F0900506E0FCA3FE
:10403800E0FDA3E0FEA3E0FF90050AE0F8A3E0F9A5
:10404800A3E0FAA3E0FBE8C39CE99DEA9EEB9F335B
:10405800B3920EE433F58222AFF0AE83E582900589
:1040680014F0EEA3F0EFA3F0900517E4F090050F1D
:10407800E0703D900514E0FDA3E0FEA3E0FF7403AB
:104088002DFDE43EFE900510E0F9A3E0FAA3E0FB65
:10409800A3E0FC8D828E838FF0E9125255A3EA12B9
:1040A8005255A3EB125255A3EC12525575820022B9
:1040B800900514E0FDA3E0FEA3E0FF74012DFAE4EF
:1040C8003EFB8F048A828B838CF0125419F9900579
:1040D8000EE0F8B5010280388A828B838CF0E812F2
:1040E800525574032DFDE43EFE900510E0F9A3E05F
:1040F800FAA3E0FBA3E0FC8D828E838FF0E91252D5
:1041080055A3EA125255A3EB125255A3EC1252557D
:10411800900514E0FDA3E0FEA3E0FF74012DFAE48E
:104128003EFB8F048A828B838CF0125419FC8D011C
:104138008E028F0389828A838BF0125419F8ECB5AA
:104148000003024232C001C002C003900510E0F52E
:1041580024A3E0F525A3E0F526A3E0F52774032DB5
:10416800F8E43EFB8F0288828B838AF0125419F898
:10417800A3125419F9A3125419FAA3125419FB9053
:104188000506741E28F0E439A3F0E43AA3F0E43BF2
:10419800A3F08524828525838526F0E527C007C0FE
:1041A80006C005C004C003C002C00112401DE5825C
:1041B800D001D002D003D004D005D006D007D00358
:1041C800D002D001606489828A838BF0EC12525548
:1041D800604074072DFAE43EFB8F048A828B838C3F
:1041E800F0E524125255A3E525125255A3E52612EF
:1041F8005255A3E52712525574022DFAE43EFB8F5F
:10420800048A828B838CF0E412525590051704F0CF
:10421800801874022DFDE43EFE8D828E838FF0128D
:10422800541970069005177402F0900514E0FDA368
:10423800E0FEA3E0FF8D028E038F048A828B838CBD
:10424800F012541970030242E074022DFAE43EFBA6
:104258008F048A828B838CF0125419707BC002C041
:1042680003C004900510E0F8A3E0F9A3E0FBA3E085
:10427800FC74072DFDE43EFE8D828E838FF0125470
:1042880019FDA3125419FEA3125419FFA3125419AD
:10429800FA90050674B02DF074043EA3F0E43FA331
:1042A800F0E43AA3F0888289838BF0ECC004C00361
:1042B800C00212401DE582D002D003D004D004D041
:1042C80003D00260138A828B838CF07401125255DA
:1042D800900517E043E004F0900517E0F58222E529
:1042E80082900518F0E024E3B3920FE433F58222BC
:1042F800AFF0AE83E58290051DF0EEA3F0EFA3F0DA
:1043080090051DE0FDA3E0FEA3E0FF8D028E038F64
:10431800048A828B838CF0125419700122C002C067
:1043280003C004900519E0F528A3E0F529A3E0F5FA
:104338002AA3E0F52B740D2DFCE43EFA8F038C8242
:104348008A838BF0125419F9A3125419FAA3125440
:1043580019FBA3125419FC900506746429F0E43A79
:10436800A3F0E43BA3F0E43CA3F0852882852983ED
:10437800852AF0E52BC007C006C005C004C003C0ED
:104388000212401DE582D002D003D004D005D00629
:10439800D007D004D003D00260348A828B838CF09B
:1043A800E4125255740B2DFDE43EFE8D828E838FF0
:1043B800F0125419FBA3125419FC0BBB00010C8D0D
:1043C800828E838FF0EB125255A3EC02525522AF26
:1043D800F0AE83E582900525F0EEA3F0EFA3F09010
:1043E8000528E4F0900525E0FDA3E0FEA3E0FF909A
:1043F8000521E0F52CA3E0F52DA3E0F52EA3E0F5CB
:104408002F900519E52CF0E52DA3F0E52EA3F0E596
:104418002FA3F08D828E838FF01242F8900525E04D
:10442800FDA3E0FEA3E0FF740D2DF8E43EFB8F042E
:1044380088828B838CF0E52C125255A3E52D1252FD
:1044480055A3E52E125255A3E52F12525574072D88
:10445800FAE43EFB8F048A828B838CF0125419F89D
:10446800A3125419F908B80001098A828B838CF0C9
:10447800E8125255A3E91252558D028E038F047427
:10448800022DFDE43EFE7900C002C003C004E92D00
:10449800F52CE43EF52D8F2E8902EA042DFAE43E30
:1044A800FB8F048A828B838CF0125419852C8285A9
:1044B8002D83852EF012525509B90300D004D0037C
:1044C800D00240C474052AFDE43BFE8C0790052009
:1044D800E0F98D828E838FF01252558A308B318CA1
:1044E800328530828531838532F0125419F824FCE4
:1044F80050030246D1E8282890450473024510026B
:10450800452902458A024619B9A50280030246DEFA
:104518008530828531838532F07401125255024606
:10452800DEB95A118530828531838532F0740212E2
:1045380052550246DE740B2AF52CE43BF52D8C2EE1
:10454800852C82852D83852EF0125419FDA31254D3
:1045580019FF0DBD00010F852C82852D83852EF056
:10456800ED125255A3EF125255B9A50478018002F5
:1045780078008530828531838532F0E81252550201
:1045880046DEB901004029E924F3402474012AF8E1
:10459800E43BFE8C0788828E838FF0E912525585A2
:1045A80030828531838532F074031252550246DE1B
:1045B800900525E0F52CA3E0F52DA3E0F52E740B6E
:1045C800252CF533E4352DF534852E358533828554
:1045D80034838535F0125419FDA3125419FF0DBD0B
:1045E80000010F8533828534838535F0ED125255ED
:1045F800A3EF125255AD2CAE2DAF2EB9A5047801FC
:10460800800278008D828E838FF0E8125255024620
:10461800DE74012AFDE43BFE8C078D828E838FF0C9
:10462800125419FF74FF6FFEE9B5065B900528EF79
:10463800F074092AF533E43BF5348C3585338285EB
:1046480034838535F0125419FEA3125419FD0EBE99
:1046580000010D8533828534838535F0EE1252557D
:10466800A3ED12525574062AF8E43BFD8C068882A5
:104678008D838EF0EF1252558530828531838532D5
:10468800F0E4125255804F740B2AFAE43BFB8A82FD
:104698008B838CF0125419FEA3125419FF0EBE001E
:1046A800010F8A828B838CF0EE125255A3EF1252BF
:1046B80055B9A5047F0180027F008530828531834A
:1046C8008532F0EF125255800D8530828531838511
:1046D80032F0E4125255900528E0F58222AFF0AE90
:1046E80083E58290052EF0EEA3F0EFA3F090052E5F
:1046F800E0F54AA3E0F54BA3E0F54C74A4254AFA8B
:10470800E4354BFBAC4C8A828B838CF0125419F540
:104718004D045403F890052CE0F5496006E549245A
:10472800D7504D90052EE0F54AA3E0F54BA3E0F5F0
:104738004C74F9254AF54AE4354BF54B854A828590
:104748004B83854CF0125419F54DA3125419F54EAC
:10475800054DE4B54D02054E854A82854B83854C4F
:10476800F0E54D125255A3E54E12525575820022BE
:1047780090052DE0700302480B74A5254AF9E4352D
:104788004BFEAF4C89828E838FF0E54D12525574E3
:10479800D0254AF552E4354BF553854C54900529FC
:1047A800E0F54FA3E0F550A3E0F5517900C3E99592
:1047B80049502FE92552F555E43553F55685545798
:1047C800E9254FFDE43550FEAF518D828E838FF081
:1047D8001254198555828556838557F0125255090A
:1047E80080CB90052EE0FDA3E0FEA3E0FF74F82D3A
:1047F800FDE43EFE8D828E838FF0E5491252557599
:1048080082012274A5254AFDE4354BFEAF4C8D820A
:104818008E838FF0125419FDE8B5053B74F9254ACB
:10482800F555E4354BF556854C57855582855683A5
:104838008557F0125419F9A3125419FF09B9000148
:104848000F8555828556838557F0E9125255A3EF97
:1048580012525575820022AD4AAE4BAF4C8A528B2C
:10486800538C54900529E0F555A3E0F556A3E0F5DF
:10487800577900C3E995495047C00085528285534E
:10488800838554F012541975F028A42DF8E43EFBE2
:104898008F04E928F54FE43BF5508C51E92555FA8A
:1048A800E43556FBAC578A828B838CF012541985F9
:1048B8004F828550838551F012525509D00080B33C
:1048C80090052EE0FDA3E0FEA3E0FF74A02DFAE41E
:1048D8003EFB8F0474A42DFDE43EFE8D828E838FF3
:1048E800F01254192AFAE43BFB8A828B838CF0E598
:1048F800491252558D828E838FF0E8125255758277
:104908000122AFF0AE83E582900534F0EEA3F0EF1C
:10491800A3F0900534E0FDA3E0FEA3E0FF74CE2DE4
:10492800FAE43EFB8F048A828B838CF0125419FAC6
:1049380074CF2DF550E43EF5518F52855082855144
:10494800838552F0125419F8EAB500028003024B2D
:104958001174F82DF8E43EFA8F0488828A838CF06B
:10496800125419F5497003024A1185508285518302
:104978008552F0E5491252558D4A8E4B8F4C855021
:104988004D85514E85524F754900854D82854E8320
:10499800854FF0125419F8C3E54998504E74A6256E
:1049A8004AF550E4354BF551854C52E5492550F50B
:1049B80050E43551F55174D0254AF553E4354BF59B
:1049C80054854C55E5492553F553E43554F554853C
:1049D80053828554838555F0125419855082855128
:1049E800838552F01252550549809F74F8254AF57F
:1049F80053E4354BF554854C55855382855483854E
:104A080055F0E4125255024AF574A52DF8E43EFA21
:104A18008F0488828A838CF0125419F55374A42D5C
:104A2800FAE43EFB8F048A828B838CF0125419B50A
:104A38005303024AF174A02DF8E43EFA8F04E553BB
:104A480028F8E43AFA88828A838CF012541985503F
:104A5800828551838552F0125255AA50AB51AC52FF
:104A680079008A828B838CF0125419F8C3E9985024
:104A78005AC002C003C00474A62DF8E43EFB8F049C
:104A8800E928F553E43BF5548C5574A52DFAE43E1A
:104A9800FB8F048A828B838CF012541975F028A43A
:104AA8002DFAE43EFB8F04E92AFAE43BFB8A828B69
:104AB800838CF01254198553828554838555F012DE
:104AC800525509D004D003D002809774A52DFDE477
:104AD8003EFE8D828E838FF01254190454038D820A
:104AE8008E838FF01252558004758200229005340F
:104AF800E0FDA3E0FEA3E0FF74CE2DFDE43EFE8DB5
:104B0800828E838FF0E4125255900531E0F553A35D
:104B1800E0F554A3E0F555900534E0FAA3E0FBA3D3
:104B2800E0FC74A62AF8E43BF98C0774CE2AFAE470
:104B38003BFB8A828B838CF0125419FE048A828B89
:104B4800838CF0125255EE28F8E439F9888289836B
:104B58008FF01254198553828554838555F012526B
:104B68005575820122E58290053AF0E0FC7D007ED1
:104B7800007F00900589ECF0EDA3F0EEA3F0EFA321
:104B8800F0903A98F5F012529085823685833785F1
:104B9800F038F539900537E0F53AA3E0F53BA3E0A6
:104BA800F53C853A82853B83853CF0125419F8A37D
:104BB800125419FFE4FEFDE82536F8EF3537FFEE0D
:104BC8003538FEED3539FD9005687488F0E4A3F0BA
:104BD800A3F0A3F088828F838EF0EDC007C006C0D3
:104BE80005C000124F66A982AA83D000D005D0065E
:104BF800D007853A82853B83853CF0E9125255A35C
:104C0800EA1252559005797488F0E4A3F0A3F0A352
:104C1800F088828F838EF0ED025161AF82AE83AD52
:104C2800F0FC90054CEFF0EEA3F0EDA3F0ECA3F050
:104C3800900548E0FCA3E0FDA3E0FEA3E0FF90059B
:104C48004CE0F8A3E0F9A3E0FAA3E0FBE8C39CE991
:104C58009DEA9EEB9F33B39210E433F582229005D0
:104C68003BE0F5822290053BE4F090053CF090058E
:104C78003DF0020B13AF83E582900556F0EFA3F0E9
:104C8800900556E0FEA3E0FF8E828F83120A2290E1
:104C9800053D7401F0900550E0FEA3E0FF90055239
:104CA800E0FAA3E0FBA3E0FCA3E0FD8E008F017E09
:104CB800007F00900544E82AF0E93BA3F0EE3CA30E
:104CC800F0EF3DA3F022AF82AE83ADF0FC90055922
:104CD800EFF0EEA3F0EDA3F0ECA3F0900558E06040
:104CE8000475820022124C6D90053B7401F090050A
:104CF8003EE4F0A3F0900559E0FCA3E0FDA3E0FE3C
:104D0800A3E0FF90054074F42CF074013DA3F0E497
:104D18003EA3F0E43FA3F0900550742CF07401A377
:104D2800F0900552ECF0EDA3F0EEA3F0EFA3F090B5
:104D380004B0124C7D75820122AF82AE83ADF0FCC7
:104D480090055DEFF0EEA3F0EDA3F0ECA3F0900575
:104D58003DE0604090055DE0FCA3E0FDA3E0FEA31C
:104D6800E0FF900544E0F8A3E0F9A3E0FAA3E0FB34
:104D7800900548E8F0E9A3F0EAA3F0EBA3F08C82F1
:104D88008D838EF0EF124C23E5826008120B13908E
:104D9800053DE4F090053BE0603890055DE0FCA33C
:104DA800E0FDA3E0FEA3E0FF900540E0F8A3E0F9F2
:104DB800A3E0FAA3E0FB900548E8F0E9A3F0EAA332
:104DC800F0EBA3F08C828D838EF0EF124C23E582FA
:104DD80070012290053CE075F004A424D8FE7455B7
:104DE80035F0FF8E828F83A3A3E493FF9005377479
:104DF8003EF07405A3F0E4A3F08F82124B6DAE82EF
:104E0800AF8390053CE075F004A424D8F5427455AE
:104E180035F0F54374032542FAE43543FB8A828B67
:104E280083E49360047B0080027B0F8B3D900540F8
:104E3800E0F53EA3E0F53FA3E0F540A3E0F5418EA1
:104E4800028F03E4FEFFEA253EFAEB353FFBEE3521
:104E580040FEEF3541FFA83D79007C007D009005BC
:104E680044EAC398F0EB99A3F0EE9CA3F0EF9DA35E
:104E7800F0900540EAF0EBA3F0EEA3F0EFA3F08585
:104E88004282854383E493FEA3E493FF8E828F835B
:104E9800120A2290053CE0FF75F004A424D8F5829C
:104EA800745535F0F583E493FDA3E4934DB4010004
:104EB800B3921190053DE433F090053CEF04F0E027
:104EC800FF9056D4E493FEEFB5060590053CE4F058
:014ED80022B7
:1055D8000B0201004B0201006E0206006E0201017F
:1055E800BA020100100304000000020010030100C9
:1055F800A4030100A4030400A4030200170402008A
:105608001704040000000400BA0202004B02020062
:10561800BA0202004B02020017040800A4030200A9
:10562800A4030200A40302004B020100BA0209000D
:105638001003040010030100BA0201011003020064
:10564800BA0204004B020200D20102006E020200FC
:105658004B0202006E02010010030101BA020200AF
:10566800BA02040000000400BA0202004B02020061
:10567800BA0202004B02020017040800A403020049
:10568800A4030200A40302004B020100100301015D
:10569800BA020400000002001003010070030100B8
:1056A800A4030400A403020010030100BA020201CB
:1056B800A4030300000002004B0202000B020300D7
:0D56C8004B0203000B020200D20108003F5C
:104ED900AF83E582900563F0EFA3F0900565E4F0F8
:104EE900A3F0900561E0FEA3E0FF7D10900563E06B
:104EF900FBA3E0FC900567235401F0EB2BFBEC339B
:104F0900FC900563EBF0ECA3F0900565E0FBA3E0F2
:104F1900FCEB2BFBEC33FC900565EBF0ECA3F0907C
:104F29000567E06008900565E043E001F0900565DC
:104F3900E0FBA3E0FCC3EB9EEC9F4013900565EBFF
:104F4900C39EF0EC9FA3F0900563E043E001F0DD20
:104F59009B900563E0FEA3E08E82F58322AF82AECB
:104F690083ADF0FC90056CEFF0EEA3F0EDA3F0EC4F
:104F7900A3F0900570E4F090056CE0FCA3E0FDA3BC
:104F8900E0FEA3E0FF7B00900568E0F549A3E0F5AA
:104F99004AA3E0F54BA3E0F54C2354017074C00318
:104FA900E5492549F8E54A33F9E54B33FAE54C3348
:104FB900FB900568E8F0E9A3F0EAA3F0EBA3F09011
:104FC9000568E0F549A3E0F54AA3E0F54BA3E0F550
:104FD9004CC3EC9549ED954AEE954BEF954CD003B2
:104FE9005027E54CC313F54CE54B13F54BE54A1334
:104FF900F54AE54913F549900568F0E54AA3F0E556
:105009004BA3F0E54CA3F080090B900570EBF0027F
:105019004F90900570E0FF90056CE0FBA3E0FCA3C6
:10502900E0FDA3E0FE900568E0F549A3E0F54AA399
:10503900E0F54BA3E0F54CC3EB9549EC954AED95AA
:105049004BEE954C401790056CEBC39549F0EC95E8
:105059004AA3F0ED954BA3F0EE954CA3F0900568AB
:10506900E0FBA3E0FCA3E0FDA3E0C313FEED13FD09
:10507900EC13FCEB13900568F0ECA3F0EDA3F0EE54
:10508900A3F08F061FEE708F90056CE0FCA3E0FD86
:10509900A3E0FEA3E08C828D838EF022AF82AE83E3
:1050A900ADF0FC900575EFF0EEA3F0EDA3F0ECA3E5
:1050B900F0900575E0FCA3E0FDA3E0FEA3E0FF305E
:1050C900E70FC3E49CF8E49DF9E49EFAE49FFB80B2
:1050D900088C008D018E028F03900571E0FCA3E01E
:1050E900FDA3E0FEA3E0FF33E433F5446013C3E41A
:1050F9009CF545E49DF546E49EF547E49FF5488017
:10510900088C458D468E478F48900579E545F0E531
:1051190046A3F0E547A3F0E548A3F0888289838A8E
:10512900F0EB125161AC82AD83AEF0FF900575E0F2
:10513900A3E0A3E0A3E033E43365446013C3E49C34
:10514900F8E49DF9E49EFAE49F888289838AF02233
:105159008C828D838EF0EF22AF82AE83ADF0FC900E
:10516900057DEFF0EEA3F0EDA3F0ECA3F09005813F
:10517900E4F0A3F0A3F0A3F0900579E0FCA3E0FD2F
:10518900A3E0FEA3E0FF7B20C00390057DE0F8A328
:10519900E0F9A3E0FAA3E0FB900585235401F0E8C8
:1051A90028F8E933F9EA33FAEB33FB90057DE8F0A7
:1051B900E9A3F0EAA3F0EBA3F0900581E0F8A3E0FE
:1051C900F9A3E0FAA3E0FBE828F8E933F9EA33FAAE
:1051D900EB33FB900581E8F0E9A3F0EAA3F0EBA338
:1051E900F0D003900585E06008900581E043E00177
:1051F900F0900581E0F549A3E0F54AA3E0F54BA35A
:10520900E0F54CC3E5499CE54A9DE54B9EE54C9F7D
:10521900401F900581E549C39CF0E54A9DA3F0E54F
:105229004B9EA3F0E54C9FA3F090057DE043E00180
:10523900F01BEB600302519190057DE0FCA3E0FDBA
:0C524900A3E0FEA3E08C828D838EF02297
:0600E700E478FFF6D8FDED
:1000C5007900E94400601B7A009056D5789675A0B2
:1000D50005E493F2A308B8000205A0D9F4DAF27595
:0200E500A0FF7A
:10008E00C000A88118C0D0B6001B18B64800401595
:10009E00B66F005010C0E0E65407B406005004E6F8
:0A00AE0054F8F6D0E0D0D0D00032B4
:1052550020F71130F6138883A88220F509F6A88374
:105265007583002280FEF280F5F022AA83AB828B43
:10527500F0900587E0A4F8A9F08AF0E0A429F98B5D
:10528500F0A3E0A429F58388822222A882A983AA13
:10529500F0FB88F0900589E0A4FCADF089F0E0A46E
:1052A5002DFDE435F0FE88F0A3E0A42DFDE5F03EEC
:1052B500FEE433FF89F0E0A42EFEE5F03FFF88F021
:1052C500A3E0A42EFEE5F03FFF8AF0900589E0A457
:1052D5002EFEE5F03FFF8BF0E0A42FFF8AF0A3E060
:1052E500A42FFF89F0A3E0A42FFF88F0A3E0A42F4B
:1052F5008EF08D838C8222AF83E58290058FF0EF4F
:10530500A3F0900591E4F090058FE0FEA3E0FF7D0A
:105315000090058DE0FBA3E0FC2354017036EB2BD8
:10532500FBEC33FC90058DEBF0ECA3F090058DE0E4
:10533500FBA3E0FCC3EE9BEF9C5011ECC313CB1316
:10534500CBFC90058DEBF0ECA3F080080D9005915A
:10535500EDF080BD900591E0FF90058FE0FDA3E0A5
:10536500FE90058DE0FBA3E0FCC3ED9BEE9C400B9E
:1053750090058FEDC39BF0EE9CA3F090058DE0FDAD
:10538500A3E0C313CD13CDFE90058DEDF0EEA3F094
:105395008F061FEE70C390058FE0FEA3E08E82F5A9
:1053A5008322AF83E582900594F0EFA3F0900594F6
:1053B500E0FEA3E0FF30E709C3E49EFCE49FFD8027
:1053C500048E048F05900592E0FEA3E0FF33E433DD
:1053D500FB6009C3E49EF9E49FFA80048E018F0205
:1053E500900561E9F0EAA3F08C828D83C003124E2B
:1053F500D9AE82AF83D003900594E0A3E033E433C4
:105405006B600CC3E49EFCE49FFD8C828D83228E31
:04541500828F8322DD
:1000ED007800E84400600A790175A000E4F309D8AE
:1000FD00FC7895E84405600C7906900001E4F0A3C6
:04010D00D8FCD9FA47
:0D00B800758157125435E5826003020089FE
:1054190020F71430F6148883A88220F507E6A883BC
:1054290075830022E280F7E49322E022758200224C
:00000001FF
