:040000000200B83210
:03000B00020126C9
:0100130032BA
:01001B0032B2
:030023000201AE29
:01002B0032A2
:01003300329A
:03003B0002034776
:0300430002026E48
:100048000000E2FBEAF2802C0000E0FBEAF08024EA
:10005800E6B50202EBF62200E2B50202EBF222005C
:10006800E0B50202EBF02230F6E0A88220F5D3EAF0
:10007800C6F582228B822230F6E6A88220F5D98046
:01008800CFA8
:0301110002008960
:0500890012011480FECD
:10011400120540123962123B2480FB758CD4758A17
:10012400CD22C0E0C0F0C082C083C007C006C005B5
:10013400C004C0D0E4F5D0F580E50A700CE5096090
:1001440008E50914F50875090053A0F0E50A42A072
:10015400E50875F009A42498FE740035F0FFE50A5B
:100164002EF582E43FF583E0F580E50A04FF8F0A6B
:10017400BF0903750A00900001E0FCA3E0FDA3E0C1
:10018400FEA3E0FF90000174012CF0E43DA3F0E431
:100194003EA3F0E43FA3F0D0D0D004D005D006D0E5
:1001A40007D083D082D0F0D0E032C023C0E0C0F0CA
:1001B400C082C083C007C006C005C004C003C0021B
:1001C400C001C000C0D075D00010980280469002D3
:1001D400B0E599F0900005E004543FFF900006E07C
:1001E400FEEFB5061590000BE0FDA3E0FE90000BBA
:1001F40074012DF0E43EA3F0801A900005E0240F72
:10020400FEE43400FD9002B0E0FC8E828D83F09019
:100214000005EFF010990280329002A1E070269060
:10022400053774B1F07402A3F0E4A3F09000ABF5C9
:10023400F0124942E582600D900009E4F09002B1A9
:10024400E0F59980069000097401F0D0D0D000D078
:1002540001D002D003D004D005D006D007D083D07B
:1002640082D0F0D0E0D02302008EC023C0E0C0F0E2
:10027400C082C083C007C006C005C004C003C0025A
:10028400C001C000C0D075D000E59A30E05C539A3C
:10029400FE9002B2E59BF09002A2E0FEA3E0FF9084
:1002A40002A274012EF0E43FA3F0900007E004548E
:1002B4003FFF900008E0FEEFB5061590000DE0FD4D
:1002C400A3E0FE90000D74012DF0E43EA3F0801A2B
:1002D400900007E0244FFEE43400FD9002B2E0FCFD
:1002E4008E828D83F0900007EFF0E59A30E135536C
:1002F4009AFD9002A1E0702690053774B3F0740261
:10030400A3F0E4A3F09001A6F5F0124942E582605F
:100314000D90000AE4F09002B3E0F59B8006900093
:100324000A7401F0D0D0D000D001D002D003D004A0
:10033400D005D006D007D083D082D0F0D0E0D0232F
:1003440002008EC0E0C0F0C082C083C007C006C0F7
:1003540005C004C003C002C001C0D075D000E5D8F8
:1003640020E10302047D9002B4E5EBF0AFFB7E00D4
:10037400E07D004206ED42079002A8E0FCA3E0FD08
:100384009002B5EEC39CF0EF9DA3F09002A8EEF0AE
:10039400EFA3F053D8FD9002B5E0FEA3E0FFC3EE57
:1003A40094F8EF942A401F74B09E74369F401790BF
:1003B40002AAE4F0A3F0A3F0A3F09002AEF090023E
:1003C400AF04F002047D9002AFE0700302047DC329
:1003D400EE94BCEF9402401174789E74059F40091A
:1003E4009002AEE02401F08056C3EE9440EF9406F0
:1003F400404474C49E74099F403C9002AEE0FF8F59
:10040400F005F07B017C007D007E00800CEB2BFB73
:10041400EC33FCED33FDEE33FED5F0F19002AAE0AF
:100424004BF0A3E04CF0A3E04DF0A3E04EF09002BB
:10043400AEEF04F080099002AFE4F09002AEF090C9
:1004440002AEE0FFBF20329002AAE0FCA3E0FDA3CD
:10045400E0FEA3E0FF8C038D028E01BB5016BAAF01
:100464001374FF69FEEFB5060B9002A6E9F0900243
:10047400A77401F09002AFE4F0E5D830E70353D855
:100484007FD0D0D001D002D003D004D005D006D084
:1004940007D083D082D0F0D0E03253B1BF53B2BF83
:1004A400D2B674CF55A24410F5A275D80075D90000
:1004B40075DB119002A8E4F0A3F09002AAF0A3F077
:1004C400A3F0A3F09002A7F09002AFF09002AEF078
:1004D400F5E9F5F943D8402253BAFE53A23F5391AC
:1004E400FC5392FC439003759850759A5075D6FE50
:1004F40075D7E0438E15900008E4F0900007F09063
:100504000006F0900005F090000A04F0900009F055
:1005140090000DE4F0A3F090000BF0A3F09002A281
:10052400F0A3F0D2AC43AF0122438E805389F01282
:10053400011FC28DD2A943B802D28C22C2AF75A8C2
:100544000075AF0075B800900001E4F0A3F0A3F0CB
:10055400A3F0F5937594FFF580F591F5927590FFEE
:10056400F59575960875A0F0F5B175B21043B00C09
:1005740053B3E743B41853C0E753C9CF53CACF4367
:10058400C830D2B2D2B3D292D2A4D2A5D2A6C29546
:10059400D2CCC296D2C0D2CDC2A37F00EF2490F5B4
:1005A40082E43400F583E4F00FBF080040EE9000CD
:1005B400AAE4F0F50AF509F508FFEF2498F582E4BA
:1005C4003400F583E4F0EF24A1F582E43400F583EC
:1005D400E4F00FBF090040E275BCA090008FE4F086
:1005E400120B131204DC12049E12052DD2AF22A2A8
:1005F400AF9200C2AF900001E0FCA3E0FDA3E0FED7
:10060400A3E0FFA20092AF8C828D838EF0EF22E5EF
:10061400829002B7F0E0FF8F061F9002B7EFF0EE72
:10062400600500000080F09002B7EFF022E58290B0
:1006340002B8F0E053E007F09002B8E0FF8FF00555
:10064400F07401800225E0D5F0FBFE429174FF6E48
:10065400529274A04FF5BC75821412061343BC0861
:100664007E887F13E5BC20E4151EBEFF011FEE4FFC
:1006740070F275BCA090008FE4F07582002253BC28
:10068400EF90008F7401F085BD822290008FE0F519
:100694008222E5829002B9F0905471E493FF9002B3
:1006A400B9E0FEC39F400490000022905477E49385
:1006B400C39E40049001F4228E077E00EE90547194
:1006C40093FDC39F500302077F8E04EC0490547182
:1006D40093FBC3EF9B500302077F0CC2D575F00256
:1006E400EC30E704B2D5F404A430D50AF42401C5EF
:1006F400F0F43400C5F02478F582745435F0F583B1
:10070400E493FAA3E493FBEE75F002A42478F58253
:10071400745435F0F583E493F8A3E493F9EAC398A9
:10072400FAEB99FBEC90547193FCEDC39CF50B8DA3
:100734000C750D008F047D00E50CC39CFCE50D9D3C
:10074400FD90058DEAF0EBA3F08C828D83C001C08F
:10075400001252A8AC82AD83900567E50BF0E4A3C8
:10076400F08C828D83124F11AC82AD83D000D00106
:10077400EC28F8ED39F988828983220EBE060050F0
:10078400030206C09000FA22A2B2B39201E433F548
:100794008222A2B3B39202E433F58222E58290026C
:1007A400BAF0E0F58202431FA292B39203E433F558
:1007B4008222A2A4B39204E433F58222E582900259
:1007C400BBF0E0FFBF3000400FEF24C6400AEF2427
:1007D400D090548693F582229002BBE0FFBF2D0097
:1007E40050030208E0EF248650030208E0EF24D30C
:1007F400FF240A83F582EF245183F583E473D8E060
:10080400E0E0E0E0E0E0E0E0E0E0E0E0E0E0E0E0E4
:10081400E0E09CA0A4A8ACB0E0B4E0E0E0B8E0E084
:10082400BCC0E0C4CCC8D0E0E0E0D4E0E0E0E0E06C
:10083400DCE09CA0A4A8ACB0E0B4E0E0E0B8E0E068
:10084400BCC0E0C4CCC8D0E0E0E0D4080808080884
:100854000808080808080808080808080808080814
:100864000808080808080808080808080808080804
:1008740008080808080808080808080808080808F4
:1008840008080808080808080808080808080808E4
:1008940008080808080808087582772275827C22EF
:1008A4007582392275825E2275827922758271225F
:1008B400758276227582382275825C227582732253
:1008C400758250227582782275826D2275823E224D
:1008D40075826E22758240227582082275820022FA
:1008E4007F00EF2490F582E43400F583E4F00FBF39
:1008F400080040EE22E5829002BDF0E0FFBF080050
:100904005021EF2490FFE43400FE9002BCE0F58215
:10091400C007C0061207C0AD82D006D0078F828EF2
:1009240083EDF022E5829002C1F0E0FF9002C0E086
:10093400FE7D00C3ED9E400122EE2F14C39DFCBC3E
:1009440008005046EC2490FCE43400FB9002BEE026
:10095400F9A3E0FA900593740AF0E4A3F089828A7B
:1009640083C007C006C005C004C003125334A98263
:10097400743029F5821207C0AA82D003D004D005AE
:10098400D006D0078C828B83EAF09002BEE0FBA3F2
:10099400E0FC900567740AF0E4A3F08B828C83C0BA
:1009A40007C006C005124F11AB82AC83D005D00638
:1009B400D0079002BEEBF0ECA3F00D020937E582FC
:1009C4009002C2F0E09000AAF022E50960012274CE
:1009D400016508FF75F009A4FDAEF07C00ED2498D4
:1009E400FAEE3400FBEC2AFAE43BFBEC2490F582AB
:1009F400E43400F583E08A828B83F00CBC08004069
:100A0400DCED2498FDEE3400FE74082DFDE43EFE7A
:100A14009000AAE08D828E83F0EF04F50922AF8363
:100A2400E5829002C3F0EFA3F09002C3E0FEA3E0DE
:100A3400FF9002C3E0F5F0A3E045F07003020B134E
:100A44009002A4E0FCA3E0FDEEB50408EFB50504B4
:100A5400308E01229002C3E0FCA3E0FDE4FEFFEC33
:100A64002CFCED33FDEE33FEEF33FF90057FECF00D
:100A7400EDA3F0EEA3F0EFA3F090C00075F0A8E4AE
:100A8400125199AC82AD83AEF0FF9002C5ECF0ED4B
:100A9400A3F0EEA3F0EFA3F0C3EC9401ED9400EE09
:100AA4009400EF9400500D9002C57401F0E4A3F09B
:100AB400A3F0A3F09002C5E0FDA3E0FEA3E0FFC312
:100AC40074FF9D74FF9EE49F500D9002C574FFF067
:100AD400A3F0E4A3F0A3F09002C5E0FEA3E0FFC3FB
:100AE400E49EFEE49FFFC28EC2AB538FFD438E4053
:100AF40053890F8F8D8E8BC28F438F02D28E9002BB
:100B0400C3E0FEA3E0FF9002A4EEF0EFA3F022C244
:100B14008EC2AB538FFDC2B49002A4E4F0A3F022C2
:100B2400AFF0AE83E5829002C9F0EEA3F0EFA3F03C
:100B3400900005E0FF900006E0FEEFB50604758224
:100B440000229002C9E0FDA3E0FEA3E0FF900006AE
:100B5400E0240FF582E43400F583E08D828E838FE8
:100B6400F012528D900006E004543FF07582012289
:100B7400AFF0AE83E5829002CCF0EEA3F0EFA3F0E9
:100B8400900007E0FF900008E0FEEFB506047582D0
:100B940000229002CCE0FDA3E0FEA3E0FF90000859
:100BA400E0244FF582E43400F583E08D828E838F58
:100BB400F012528D900008E004543FF07582012237
:100BC400AFF0AE83E5829002D0F0EEA3F0EFA3F095
:100BD4009002D0E0FDA3E0FEA3E0FF9002CFE090FE
:100BE40002D3F09002D4E4F08D828E838FF0020B56
:100BF400F5AFF0AE83E5829002D5F0EEA3F0EFA35B
:100C0400F09002A17401F09002D5E0FDA3E0FEA3F0
:100C1400E0FF9002D3E0FC9002D4E0FB90052FEDBE
:100C2400F0EEA3F0EFA3F0900532ECF0900533EB77
:100C3400F09000AB75F00012471DAF829002A1E462
:100C4400F0900009E06002D29990000AE06003434A
:100C54009A028F8222AFF0AE83E5829002D9F0EE41
:100C6400A3F0EFA3F09002A17401F09002D9E0FD8B
:100C7400A3E0FEA3E0FF9002D8E0FC90052FEDF086
:100C8400EEA3F0EFA3F0900532ECF0900533E4F01E
:100C94009001A6F5F012471D9002A1E4F09000091E
:100CA400E06002D29990000AE06003439A0222A213
:100CB400AF9205C2AF9002A2E0FEA3E0FFA20592AC
:100CC400AF8E828F83229001A4E0FEA3E0FF900206
:100CD4009FE0FCA3E0FDEC2EFEED3F8E82F5832227
:100CE400A2AF9206C2AF90000BE0FEA3E0FFA20603
:100CF40092AF8E828F8322A2AF9207C2AF90000D73
:100D0400E0FEA3E0FFA20792AF8E828F8322AFF0B2
:100D1400AE83E5829002DCF0EEA3F0EFA3F0900244
:100D2400A7E07003F58222A2AF9208C2AF9002DC62
:100D3400E0FDA3E0FEA3E0FF9002A6E08D828E8397
:100D44008FF012528D9002A7E4F0A20892AF758240
:020D540001227A
:10547100C4AB8E8071584300006400C800FA002C50
:0F548100019001F4013F065B4F666D7D077F6F61
:100D5600AFF0AE83E582900335F0EEA3F0EFA3F09B
:100D660090033874FFF0A3F0900335E0FDA3E0FE96
:100D7600A3E0FF900334E0FC8C031CEB60618D82E2
:100D86008E838FF0125451FBA3AD82AE8390033550
:100D9600EDF0EEA3F0EFA3F08B027B00900338E0BA
:100DA6006BF0A3E06AF07B08900338E0F9A3E0FA61
:100DB60030E716C004E929F8EA33FC63002163042E
:100DC6001088498C4AD0048008E929F549EA33F5A8
:100DD6004A900338E549F0E54AA3F0DBCB809990C9
:100DE6000335EDF0EEA3F0EFA3F0900338E0FEA399
:100DF600E08E82F5832290032BE4F090032CF09092
:100E0600032FF0900332F0A3F0900330F0A3F0220A
:100E1600AFF0AE83E58290033CF0EEA3F0EFA3F0D3
:100E260090033CE0FDA3E0FEA3E0FF90033AE0FB65
:100E3600A3E0FC8B028D828E838FF0EA12528D0D19
:100E4600BD00010E8C038D828E838FF0EB02528DD6
:100E5600AFF0AE83E582900341F0EEA3F0EFA3F08E
:100E6600900341E0FDA3E0FEA3E0FF90033FE0FB1B
:100E7600A3E0FC90033AEBF0ECA3F08D828E838F17
:100E8600F0020E16AFF0AE83E582900348F0EEA3B3
:100E9600F0EFA3F0900348E0F549A3E0F54AA3E09C
:100EA600F54B900344E0F9A3E0FAA3E0FBA3E0FCD2
:100EB6008900854982854A83854BF0E812528D74F4
:100EC600012549F8E4354AFEAF4B8A0588828E83B0
:100ED6008FF0ED12528D74022549FDE4354AFEAFBE
:100EE6004B8B008D828E838FF0E812528D74032512
:100EF60049FDE4354AFEAF4B8C018D828E838FF01F
:100F0600E902528DAFF0AE83E58290034FF0EEA377
:100F1600F0EFA3F090034FE0FDA3E0FEA3E0FF9007
:100F2600034BE0F9A3E0FAA3E0FBA3E0FC90034443
:100F3600E9F0EAA3F0EBA3F0ECA3F08D828E838FA9
:100F4600F0020E8AAFF0AE83E582900352F0EEA374
:100F5600F0EFA3F0900352E0FDA3E0FEA3E0FF8DC7
:100F6600828E838FF0125451FC7B000DBD00010E62
:100F76008D828E838FF0125451FFE44204EF4203B8
:100F86008C828B8322AFF0AE83E582900355F0EE20
:100F9600A3F0EFA3F0900355E0FDA3E0FEA3E0FF6E
:100FA6008D828E838FF0020F4AAFF0AE83E582907A
:100FB6000358F0EEA3F0EFA3F0900358E0FDA3E092
:100FC600FEA3E0FF8D828E838FF0125451F549E423
:100FD600F54AF54BF54C74012DF8E43EFB8F048879
:100FE600828B838CF0125451F87C007B008B028C30
:100FF600038804E44249EC424AEB424BEA424C7411
:10100600022DF9E43EFB8F0489828B838CF0125407
:1010160051F97C008C0289037900E5494201E54AD1
:10102600420474032DFDE43EFE8D828E838FF01202
:101036005451F87D007E008807E44201ED4204EE3B
:101046004203EF420289828C838BF0EA22E582908A
:10105600035FF090035EE0FF24DF500475820022F8
:1010660090030374AAF0900304F4F090030574024D
:10107600F090035FE0900306F090032FE02401F068
:10108600E0900307F0900308EFF090035BE0FCA309
:10109600E0FDA3E0FE7B00C3EB9F5033C0078B024D
:1010A60074062AF93395E0FAE92403F50EEA3403C7
:1010B600F50FEB2CF8E43DFA8E0788828A838FF0D1
:1010C600125451850E82850F83F00BD00780C874A9
:1010D600042F900334F090030575F000C007120D3D
:1010E60056AD82AE83D00774062F2403F582E4340E
:1010F60003F5838D04ECF074072F2403F582E434A2
:1011060003F5838E05EDF074082FFF90035FE0FE74
:10111600E4BE310104FE9002D3EFF09002D4EEF06B
:1011260090030375F000020BF5E582900362F0E090
:10113600900363F0900360E0900364F0900361E035
:10114600FF900365F0EF60047F7F80027F7E90034F
:101156005B7463F07403A3F0E4A3F090035E74037E
:10116600F08F820210539002DFE0900368F0900245
:10117600E0E0900369F09002E1E090036AF09002EB
:10118600E2E090036BF09003347404F0900368750A
:10119600F000120D56E5828583F0900366F0E5F0C7
:1011A600A3F07F009002E2E0FEC3EF9E5046EF24DC
:1011B600E3F582E43402F583E0FD7E00900366E009
:1011C6006EF0A3E06DF07E08900366E0FCA3E0FD00
:1011D60030E70EEC2CFAED33FB630221630310803B
:1011E60006EC2CFAED33FB900366EAF0EBA3F0DE97
:1011F600D70F80B0900366E0FEA3E0FF90032DE0DA
:10120600FCA3E0FDEEB50408EFB50504740180010A
:10121600E4F5822290036C75F000120B24E58270CF
:101226000302137390032BE0FF24F7500302136BA2
:10123600EF240A83F582EF240D83F583E473566663
:101246008494A5B6F2233B12121212121212131331
:1012560090036CE0FFBFAABC90032B7401F080B42E
:1012660090036CE0FFBF55047E02800BBFAA047F8B
:101276000180027F008F0690032BEEF0809690038C
:101286006CE09002DFF090032B7403F080869003ED
:101296006CE09002E0F090032B7404F002121A90B6
:1012A600036CE09002E1F090032B7405F002121A31
:1012B60090036CE0FF9002E2F090032CE4F09003C0
:1012C6006CE0FF24DF5014900332E02401F0A3E029
:1012D6003400F090032BE4F002121AEF60047F064C
:1012E60080027F0790032BEFF002121A90032CE086
:1012F600FF04F0EF24E3FFE43402FE90036CE08F7A
:10130600828E83F09002E2E0FF90032CE0C39F50B0
:101316000302121A90032B7407F002121A90036C40
:10132600E0FE7F0090032DEEF0EFA3F090032B7408
:1013360008F002121A90036CE0FF7E0090032DE085
:101346004EF0A3E04FF090032BE4F012116CE5820F
:10135600600475820122900330E02401F0A3E0349A
:1013660000F002121A90032BE4F002121A758200A2
:1013760022900330E0FEA3E08E82F58322900332B2
:10138600E0FEA3E08E82F58322758203020613D265
:10139600A6D2A512138FC2A612138FC2A522C2A669
:1013A600D2A512138FD2A602138FE582900375F091
:1013B6007F00900375E0FE548024FF92A6C007C00C
:1013C6000612138FD2A512138FD006D007C2A5EE30
:1013D6002E900375F00FBF080040D7D2A6D2A512F3
:1013E600138F30A6047F0080027F01C2A58F822260
:1013F600E582900376F0900377E4F0D2A67F009022
:101406000377E025E0F0D2A5C00712138FD007308E
:10141600A608900377E043E001F0C2A5C0071213C7
:101426008FD0070FBF080040D6900376E0B40100C6
:1014360092A6D2A512138FC2A5D2A6900377E0F585
:101446008222E582900379F01213957582A6121313
:10145600B0AF82900379E0F582C0071213B0AE8276
:10146600D007EE5207900378E0F582C0071213B05A
:10147600AE82D007EE5207C0071213A4D0078F82A0
:1014860022E58290037AF01213957582A61213B0A4
:1014960090037AE0F5821213B01213957582A712A3
:1014A60013B07582001213F6AF82C0071213A4D0D0
:1014B600078F8222D2A5D2A6900373E4F09003741C
:1014C600F0758200121487AF82BFE5028004758230
:1014D60000229003787408F0758231121448E58270
:1014E6007003F582229003787408F075822C12142A
:1014F600489003787408F075822D12144890037191
:10150600E4F0A3F090036FF0A3F090036DF0A3F066
:1015160090037304F075820122AF83E58290037B0A
:10152600F0EFA3F090037BE0FEA3E0FF8E048F05AF
:10153600ED30E709C3E49EFCE49FFD80048E048F32
:10154600058C828D8322AFF0AE83E58290037DF019
:10155600EEA3F0EFA3F0900373E0703390037DE009
:10156600FDA3E0FEA3E0FF74082DFAE43EFB8F0422
:101576008A828B838CF0E412528D74062DFDE43E34
:10158600FE8D828E838FF0E412528DA302528D124D
:1015960013957582A61213B07582321213B0121308
:1015A600957582A71213B07F00EF2480FDE4340303
:1015B600FEBF0503D38001C3B39209E433F582C0AD
:1015C60007C006C0051213F6AC82D005D006D007B8
:1015D6008D828E83ECF00FBF060040CD1213A490CF
:1015E600037DE0FDA3E0FEA3E0FF8D158E168F17A9
:1015F600900380E0F510751100900381E0F9780002
:10160600E51042008515828516838517F0E812528B
:101616008DA3E912528D74022DF512E43EF5138F57
:1016260014900382E0F510751100900383E0F978B9
:1016360000E51042008512828513838514F0E812B6
:10164600528DA3E912528D74042DF8E43EF98F04ED
:10165600900384E0F510751100900385E0FA7B0095
:10166600E5104203888289838CF0EB12528DA3EA3F
:1016760012528D900374E0701A74062DFAE43EFB44
:101686008F048A828B838CF0E412528DA312528DC2
:1016960002180C74062DFDE43EFE85158285168320
:1016A6008517F0125451FBA3125451FC90036DE0C0
:1016B600F9A3E0FAEBC399FBEC9AFC8B828C83C00E
:1016C60007C006C00512151FAB82AC83D005D00635
:1016D600D0078D828E838FF0EB12528DA3EC1252BF
:1016E6008D8512828513838514F0125451F512A349
:1016F600125451F51390036FE0F515A3E0F516E5C6
:1017060012C39515F8E5139516FA88828A83C007E1
:10171600C006C005C004C00312151FA982AA83D043
:1017260003D004D005D006D007C3EB99EC9A50310C
:10173600E512C39515FBE5139516FC8B828C83C0C9
:1017460007C006C00512151FAB82AC83D005D006B4
:10175600D0078D828E838FF0EB12528DA3EC12523E
:101766008D90037DE0FDA3E0FEA3E0FF74042DFB56
:10177600E43EFA8F048B828A838CF0125451FBA3C9
:10178600125451FC900371E0F515A3E0F516EBC376
:101796009515F8EC9516FA88828A83C007C006C0AC
:1017A60005C004C00312151F858212858313D0035A
:1017B600D004D005D006D00774062DFDE43EFE8D7C
:1017C600828E838FF0125451F8A3125451FAC3E853
:1017D6009512EA9513502FEBC39515FBEC9516FC65
:1017E6008B828C83C007C006C00512151FAB82AC66
:1017F60083D005D006D0078D828E838FF0EB1252F0
:101806008DA3EC12528D90037DE0FDA3E0FEA3E0D4
:10181600FF8D028E038F048A828B838CF0125451C3
:10182600FAA3125451FB90036DEAF0EBA3F0740295
:101836002DFAE43EFB8F048A828B838CF01254517E
:10184600FAA3125451FB90036FEAF0EBA3F0740471
:101856002DFAE43EFB8F048A828B838CF01254515E
:10186600FAA3125451FB900371EAF0EBA3F074084B
:101876002DFDE43EFE8D828E838FF0740112528D13
:10188600900374F022E582900386F0E024FF92CC68
:10189600D295758202120613C29522E582900387BD
:1018A600F07F00900387E0FE74015EF582C007C0FA
:1018B6000612188BD006D007EEC313900387F00FDD
:1018C600BF080040DE22900388E4F0D2CC7F0030CF
:1018D600CC148FF005F07401800225E0D5F0FBFEF4
:1018E600900388E04EF0D295758202C00712061367
:1018F600C295758202120613D0070FBF080040CFAB
:10190600900388E0F58222E582900389F053919F47
:1019160053929FC296C295D296900389E0F58212A1
:1019260018A11218CCAF82C296D2CC8F8222E58241
:1019360090038AF0E0FFC4540F75F00AA4FE740FFA
:101946005F2EF58222AFF0AE83E582900391F0EE32
:10195600A3F0EFA3F075828112190DAF8275828311
:10196600C00712190DAE82758285C00612190DAD1B
:1019760082D006D0078F0453047FEC24A6400FEED6
:1019860024A6400A8D0453043FEC24DC50047582DF
:10199600002290038EE0FAA3E0FBA3E0FC53077F4E
:1019A6008F82C006C005C004C003C002121934AF3E
:1019B60082D002D003D004D005D0068A828B838CD5
:1019C600F0EF12528D90038BE0FBA3E0FCA3E0FF47
:1019D6008E82C007C005C004C003121934AE82D07F
:1019E60003D004D005D0078B828C838FF0EE125281
:1019F6008D900391E0FCA3E0FEA3E0FF53053F8D2D
:101A060082C007C006C004121934AD82D004D006C5
:101A1600D0078C828E838FF0ED12528D7582012253
:101A2600758204020613D2C0D2CD121A26C2C01283
:101A36001A26C2CD22C2C0D2CD121A26D2C0021A8E
:101A460026E582900394F07F00900394E0FE548094
:101A560024FF92C0D2CDC007C006121A26D006D0E7
:101A660007C2CDEE2E900394F00FBF080040DAD2E5
:101A7600C0D2CD121A2630C0047F0080027F01C278
:101A8600CD8F8222E582900395F0900396E4F0D202
:101A9600C07F00900396E025E0F0D2CDC007121A71
:101AA60026D00730C008900396E043E001F0C2CD8F
:101AB6000FBF080040DD900395E0B4010092C0D24C
:101AC600CD121A26C2CDD2C0900396E0F58222E549
:101AD60082900397F0121A2C7582A0121A47E5829B
:101AE6007007121A3B7582FF22900397E0F5821267
:101AF6001A47121A2C7582A1121A47758200121AF9
:101B06008AAF82C007121A3BD0078F8222E58290E5
:101B16000399F0121A2C7582A0121A47E5827003F7
:101B2600021A3B900399E0F582121A47900398E057
:101B3600F582121A47021A3B9003A8E0700122129E
:101B46001A2C7582A0121A47AF82C007121A3BD010
:101B560007EF702A1205F3AC82AD83AEF0FF900357
:101B6600A9E0F8A3E0F9A3E0FAA3E0FBECC398ED43
:101B760099EE9AEF9B20E7059003A8E4F0229003E4
:101B8600A6E0FF9003A7E02FFEEF249AF582E43447
:101B960003F583E0900398F08E82121B131205F36F
:101BA600AC82AD83AEF0FF9003A974142CF0E43D33
:101BB600A3F0E43EA3F0E43FA3F09003A6E02401E3
:101BC600F0E0FFBF0C059003A8E4F022AFF0AE836F
:101BD600E5829003ADF0EEA3F0EFA3F09003B074AE
:101BE6005AF09003ADE0FDA3E0FEA3E0FF7C009079
:101BF60003B0E023FBEC2DF8E43EF98F02888289DE
:101C0600838AF01254519003B06BF00CBC0A00406A
:101C1600DE9003B0E0F58222AF83E5829003B1F057
:101C2600EFA3F09003B3E4F09003B4F0A3F09003B5
:101C3600B1E0FEA3E0FF8E828F83E4F09003B1E073
:101C4600FEA3E0FF8E048F057B007A00C004C0056A
:101C5600EA24B6F8E43403F98B05ED75F00CA4FD1F
:101C66008A04EC2DF582C007C006C004C003C0027A
:101C7600C001C000121AD5AD82D000D001D002D06A
:101C860003D004D006D00788828983EDF00ABA0C07
:101C960000D005D00440B59003B6E0FABAC702807A
:101CA60003021DB69003B7E0FABA01028008BA0231
:101CB600028003021DB69003C0E0FA9003B675F0E9
:101CC60000C007C006C005C004C003C002121BD274
:101CD600A982D002D003D004D005D006D007EAB539
:101CE60001028003021DB69003C1E0FA9003C0E032
:101CF600F96301FFEAB501028003021DB6C004C004
:101D0600059003B8E0F97A009003B9E0FDE449F5DF
:101D160018ED4AF519D005D0049003B3E0601F9082
:101D260003B4E0F9A3E0FAE518C399F9E5199AFABC
:101D3600C3E49974808AF063F08095F05072900342
:101D4600B37401F09003B4E518F0E519A3F090031D
:101D5600B7E0FABA012EC006C00774012CF9E43DBB
:101D6600FA9003BDE0F5187519009003BEE0FF7EFA
:101D760000E518420689828A83EEF0EFA3F0D007C9
:101D8600D006802CC004C00574012EF9E43FFA90F9
:101D960003BAE0F5187519009003BBE0FD7C00E579
:101DA60018420489828A83ECF0EDA3F0D005D004B2
:101DB6000BBB08005003021C509003B1E0FEA3E0E9
:101DC600FF8E048F059003B3E08C828D83F074033D
:101DD6002EFEE43FFF9003B4E0FCA3E0FD8E828F6D
:101DE60083ECF0EDA3F022AF83E5829003C2F0EF1F
:101DF600A3F09003C2E0FEA3E0FF74032EFCE43FD1
:101E0600FD8C828D83E0FAA3E0FB0ABA00010B8CFD
:101E1600828D83EAF0EBA3F08E828F837401F08CBF
:101E2600828D83E0FB5303079003C474C7F09003CD
:101E3600C57402F08C828D83E09003C6F08C828D8F
:101E460083E0A3E09003C7F00EBE00010F8E828FE1
:101E560083E09003C8F08E828F83E0A3E09003C9ED
:101E6600F09003CDE4F09003CCF09003CBF0900318
:101E7600CAF09003C4F5F0C003121BD2AF82D003A0
:101E86009003CEEFF06307FF9003CFEFF07F00EFF4
:101E9600249AFDE43403FEEF24C4F582E43403F50A
:101EA60083E08D828E83F00FBF0C0040E29003A684
:101EB600E4F09003A7EB75F00CA4F09003A874016E
:101EC600F01205F3AC82AD83AEF0FF9003A9741453
:101ED6002CF0E43DA3F0E43EA3F0E43FA3F022E5BA
:101EE600829003D0F0E0B4010092C322E582900311
:101EF600D1F0E0B4010092C4227582050206137582
:101F06008200121EF2121EFF758201121EE5121EBB
:101F1600FF758201121EF2121EFF758200121EE567
:101F2600121EFF758200121EF2021EFF758200123B
:101F36001EF2121EFF758200121EE5121EFF75822A
:101F460001121EF2121EFF758201121EE5021EFF0D
:101F5600E5829003D2F07F009003D2E0FE74805EAB
:101F6600F582C007C006121EE5121EFF7582011219
:101F76001EF2121EFF758200121EF2121EFFD006FE
:101F8600D007EE2E9003D2F00FBF080040CA75822C
:101F960001121EE5121EFF758201121EF2121EFFAD
:101FA600758200121EF2021EFFE5829003D3F01224
:101FB6001F05758278121F56758200121F569003F0
:101FC600D3E0F582121F56021F32E5829003D5F048
:101FD600E024B0F582121FAF9003D4E0FF740F5FC8
:101FE600F582C007121FAFD007EFC4540FFF430797
:101FF600108F82021FAFE5829003E3F09003E4E4C2
:10200600F09003E3E0FFBF0C349003E1E0FE6003D1
:10201600BE7F047DFF80239003E2E0FCE070047B3A
:10202600018015BC07047C80800CEE30E3047EAA98
:1020360080027E558E048C038B058D8222BF0C0098
:10204600500F9003E1E0FEBE20004005BE60004058
:1020560004758200227D00EE24E0FEED34FFA2E747
:1020660013CE13CEA2E713CE13CE8EF005F07E006C
:102076007D808007C3ED13FDEE13FED5F0F6EF75F8
:10208600F020A42490FC745435F0FF9003E2E0FBAA
:10209600F97A0029F9EA33FAE929F9EA33FAE92C57
:1020A600F582EA3FF583E493FCA3E493FFEE520442
:1020B600ED5207EC4F60069003E4740FF09003E3D3
:1020C600E075F020A42490FC745435F0FFEB2BFB54
:1020D6000BEB2B2CF582E43FF583E493FCA3E4930E
:1020E600FFEC5206EF5205EE4D60089003E4E04324
:1020F600E0F0F09003E4E0F58222758201121EE51D
:10210600758201121EF21205F3AC82AD83AEF0FFAA
:102116009003DD74C82CF0E43DA3F0E43EA3F0E4A4
:102126003FA3F09003DBE4F09003DCF09003D714B8
:10213600F09003DAE4F0758200022142E582900312
:10214600E5F0E09003D6F0229003D6740CF02290CE
:1021560003DCE070721205F3AC82AD83AEF0FF9043
:1021660003DDE0F8A3E0F9A3E0FAA3E0FBECC398F3
:10217600ED99EE9AEF9B30E701229003DBE07027A2
:10218600758201121EE57F00758200C007121EF2DD
:10219600121EFF758201121EF2121EFFD0070FBF1C
:1021A600090040E4121F329003DBE0FF04F0EF90D9
:1021B600561093F582121FAF9003DBE0FFBF18069F
:1021C6009003DC7401F0229003DAE070229003D7CA
:1021D600E0FF9003D6E0FEEFB50601229003D7EEAE
:1021E600F09003D9E4F09003D8F09003DA04F0906D
:1021F60003D9E0700F9003D8E0FF9003D4E4F08F8A
:1022060082121FD0121F05758278121F56758240E2
:10221600121F567F009003D7E0FE9003D9E0FD041D
:10222600F09003D8E0FC9003E1EDF09003E2ECF0CF
:102236008E82C007121FFC121F56D0070FBF100058
:1022460040D3121F329003D9E0FFBF801C9003D900
:10225600E4F09003D8E02401F0E0FFBF080B900300
:0A226600DAE4F07582AF021FAF2228
:105490001008381C6C36C66303C00180999981815D
:1054A00001802184C183018003C00660FC3F0000AD
:1054B0001008381C6C36C66303C00180A5A59999F5
:1054C000018081814182218483C10660FC3F00000C
:1054D0001008381C6C36C66303C00180B99DA5A5B1
:1054E000018081814182418283C10660FC3F0000CE
:1054F0001008381C6C36C66303C00180A5A59999B5
:10550000018049922189499203C00660FC3F000056
:105510001008381C6C36C66303C001800180F99FF7
:1055200001808181C183018003C00660FC3F0000CF
:105530001008381C6C36C66303C0018099998181BC
:10554000218441828181218403C00660FC3F4002A6
:105550001008381C6C36C66303C0018189998181AB
:10556000018041822184018003C40666FC3F180C3F
:105570008001C003E007B00D801980318061FFFF1A
:10558000FFFF806180318019B00DE007C00380010A
:105590008001C003E007B00D800180018001FFFFA2
:1055A000FFFF86618C319819B00DE007C0038001C0
:1055B000800180038007FF0FFF1FFF3FFF7FFFFF7A
:1055C000FFFFFF7FFF3FFF1FFF0F8007800380016A
:1055D0008001C001E001F0FFF8FFFCFFFEFFFFFFCC
:1055E000FFFFFEFFFCFFF8FFF0FFE001C0018001BC
:1055F000018003C006600C301818300C6006C00330
:10560000C0036006300C18180C30066003C001801F
:10561000AED580A83FD300408D142002A1C8DA1275
:08562000817FD9F1DB40A4A653
:10227000AF82AE83ADF0FC90048FEFF0EEA3F0EDF3
:10228000A3F0ECA3F090048BE0FCA3E0FDA3E0FE40
:10229000A3E0FF90048FE0F8A3E0F9A3E0FAA3E045
:1022A000FBE8C39CE99DEA9EEB9F33B3920AE433BB
:1022B000F58222E582900494F0E0FE7F0090049382
:1022C000E07D002EFEED3FFF8E048F05C374649CFD
:1022D000E49D50047D6480028E058D8222E582900B
:1022E0000496F0E0FF900495E0FEC39F5006EFC314
:1022F0009EFF80027F008F8222AF83E58290049947
:10230000F0EFA3F0900499E0FEA3E0FF900497E0C3
:10231000FCA3E0FDC007C006C005C0041205F3A879
:1023200082A983AAF0FBD004D005D006D00790057F
:1023300056ECF0EDA3F0900558E8F0E9A3F0EAA31D
:10234000F0EBA3F08E828F83024CB5E58290049D62
:10235000F0E090049EF090049BE0FEA3E0FF900369
:102360003FEEF0EFA3F090049F75F000120E569030
:10237000035B749EF07404A3F0E4A3F090035E7416
:1023800003F0758211021053E5829004A1F0E090F1
:1023900004A2F090035B74A2F07404A3F0E4A3F031
:1023A00090035E04F075823102105375820212238D
:1023B00088900400E4F0900401F022E5829004A3E8
:1023C000F09004A4745AF09004A5F4F09004A3E0F3
:1023D000FF9004A6F06307FF9004A7EFF09002D8E7
:1023E0007404F09004A475F000020C59E582900486
:1023F000B1F09003F9E0700C9003F8E070069004DF
:1024000000E0600122900404E0FEA3E0FF0EBE00A5
:10241000010F900404EEF0EFA3F0EE4F700990046A
:10242000047401F0E4A3F0900404E0FEA3E0FF9044
:10243000033AEEF0EFA3F09004B275F000120E161E
:102440009004B1E0FF9004B4F09004A8E0FDA3E094
:10245000FE90033FEDF0EEA3F09004B575F000C0E0
:1024600007120E569004AAE0FBA3E0FCA3E0FDA334
:10247000E0FE90034BEBF0ECA3F0EDA3F0EEA3F045
:102480009004B775F000120F0A9004AEE0FDA3E0CF
:10249000FE90033AEDF0EEA3F09004BB75F000124D
:1024A0000E1690035B74B2F07404A3F0E4A3F090F2
:1024B000035E740BF0758220121053E582D0077012
:1024C00001229004007401F0900404E0FDA3E0FEFA
:1024D000900406EDF0EEA3F09004B0E0900401F05B
:1024E000C0071205F3AB82AC83ADF0FED007BF028C
:1024F0000A7880793E7A007F0080087840791F7AD8
:10250000007F00900487E82BF0E93CA3F0EA3DA3AC
:10251000F0EF3EA3F022E5829004BDF09003F9E0D5
:10252000FF9004BDE0FEEFB50601229003F9EEF046
:10253000900400E4F0EE60027401FF8F82122388A1
:102540009004BDE06024124CA59004977404F074CC
:1025500001A3F09008FC1222F99003F7E0FFBF4BB3
:102560000050169003F7744BF0229004977464F0B7
:10257000E4A3F09003B60222F922E5829004BEF0B3
:102580001205F3AC82AD83AEF0FF9004BFE4F0908F
:1025900004BEE0FB900403F090045F74D02CF07450
:1025A000073DA3F0E43EA3F0E43FA3F0BB020040EC
:1025B0001DEB24F940189003F9E0700C9003F8E04B
:1025C0007006900400E060069004BF7401F090046F
:1025D000BEE0FB24F350030227ACEB240A83F58210
:1025E000EB241183F583E473AC020B386592BFECE6
:1025F000FB1255738F2726262626262626262727D2
:102600002727124CA51223AB0227AC9004A874F420
:10261000F07401A3F09004AAE4F0A3F0A3F0A3F0F7
:102620009004AE74A0F0E4A3F09004B07407F075C9
:1026300082011223EC0227AC9004A8740CF074FE03
:10264000A3F09004AAE4F0A3F0A3F0A3F09004AEEA
:1026500074A0F0E4A3F09004B07408F07582011245
:1026600023EC0227AC9004A874F4F07401A3F0905A
:1026700004AAE4F0A3F0A3F0A3F09004AE74A0F0D9
:10268000E4A3F09004B07409F07582031223EC0205
:1026900027AC9004A8740CF074FEA3F09004AAE494
:1026A000F0A3F0A3F0A3F09004AE74A0F0E4A3F0C4
:1026B0009004B0740AF07582031223EC0227AC90E8
:1026C00004A8E4F0A3F09004AA74A0F0748CA3F022
:1026D000E4A3F0A3F09004AE74F4F07401A3F090BE
:1026E00004B0F07582021223EC0227AC9003F87458
:1026F00001F01223AB124CA50227AC9003F8E4F0D2
:10270000900497745AF0E4A3F090044C1222F9025A
:1027100027AC9003F6E0FB9004937405F08B82C025
:1027200007C006C005C0041222B3AB82D004D00596
:10273000D006D0079003F6EBF09004457401F090BA
:10274000045B74C42CF074093DA3F0E43EA3F0E4F0
:102750003FA3F080579003F9E090055EF08C828DE6
:10276000838EF0EF124D06E58270419004BF740134
:10277000F080399004457401F090045B74C42CF02F
:1027800074093DA3F0E43EA3F0E43FA3F0801D9064
:1027900003FAE4F0900445F090045B74082CF074A4
:1027A000073DA3F0E43EA3F0E43FA3F09004BEE0B5
:1027B000FF90049BF0E4A3F0758205C00712234B41
:1027C000D0079004BFE060177E0074642FFFE43EE2
:1027D000FE90049BEFF0EEA3F075820802234B22DB
:1027E000120CFBAE82AF83C007C0061205F3AA82AB
:1027F000AB83ACF0FDD006D007900443E0F8A3E033
:10280000F9EEB50006EFB501028030900443EEF01A
:10281000EFA3F0900432E4F090043DE0FEA3E0FF6B
:102820000EBE00010F90043DEEF0EFA3F09004C047
:1028300075F000120B74E58270F32290051FEAF028
:10284000EBA3F0ECA3F0EDA3F090043275F000C020
:1028500005C004C003C002124330D002D003D0042C
:10286000D0059004C075F000C005C004C003C002CC
:10287000120B74E582D002D003D004D005604B90D7
:1028800004C0E0900526F0900527EAF0EBA3F0ECF9
:10289000A3F0EDA3F090043275F000C005C004C0B1
:1028A00003C00212440FAF82D002D003D004D0057F
:1028B000EF60AF8F82C005C004C003C00212257A4A
:1028C000D002D003D004D005809822E5829004C1C4
:1028D000F0E09004C2F090033A7478F0E4A3F09032
:1028E00004C3F5F0120E1690033A742CF07401A391
:1028F000F09004C575F000120E1690035B74C2F0E0
:102900007404A3F0E4A3F090035E7405F0758222D2
:10291000021053E5829004C7F0E0FFBF0104758206
:102920000722BF020475820822BF030475820922B0
:10293000BF040475820A2275820022AF82AE83AD85
:10294000F0FC9004C8EFF0EEA3F0EDA3F0ECA3F0E0
:102950009004C8E0FCA3E0FDA3E0FEA3E0FF747CCC
:102960002CFC74013DFDE43EFEE43FFF9004CC7579
:10297000F000C007C006C005C004120D12E582D0E9
:1029800004D005D006D0077001229004CCE0FB24CF
:10299000FB50027B009004CDEBF09004CCE0FBBB3D
:1029A00005028003EB7020758200C007C006C005D9
:1029B000C0041228CB1223ABD004D005D006D00718
:1029C0009004CDE4F080629003F8E0705C9003F92D
:1029D000E07056900400E06013C007C006C005C058
:1029E000041223ABD004D005D006D0079004CDE06C
:1029F000FBF582C007C006C005C004C0031228CB87
:102A0000D0038B82122913AB82D004D005D006D01C
:102A100007900401EBF0900445EBF090045BECF0C0
:102A2000EDA3F0EEA3F0EFA3F09004CDE09004024C
:102A3000F09004CCE0FB900446E0FAEBB502030210
:102A4000296C90049BEBF0E4A3F0758209C007C0E9
:102A500006C005C00412234BD004D005D006D00711
:102A60009004CCE0900446F002296C9002DFE0FF75
:102A7000BF020280189002E0E0FF9002E1E09003C4
:102A800060F09003617401F08F8202112F9002E0D8
:102A9000E0FFBF0102801BBF02028016BF2102803F
:102AA00023BF3103022B3CBF7E0122BF7F012202E4
:102AB0002B9E9002E1E0900360F0900361E4F08FC0
:102AC0008202112F9002E2E0FEBE095D9002E375E2
:102AD000F000120F4AAD82AE83900406E0FBA3E043
:102AE000FCEDB5032DEEB50429900400E4F090044C
:102AF00001F09002E5E070067DE27E0480047D8AAC
:102B00007E02900497745AF0E4A3F08D828E8312B3
:102B100022F99002E0E0FE9002E1E0900360F09084
:102B20000361E4F08E8202112F9002E1E0900360D5
:102B3000F09003617402F08F8202112F9002E2E0A4
:102B4000FE24FE4046EE60079002E3E0FE80027E37
:102B500001BE0207900400E4F08019EEB40100B356
:102B6000920BE433FE9003F9F0EE6008124CA5904E
:102B70000400E4F09002E0E0FE9002E1E0900360E7
:102B8000F0900361E4F08E8202112F9002E1E09058
:102B90000360F09003617402F08F8202112F9002A3
:102BA000E1E0900360F09003617403F08F82021102
:102BB0002F90042FE4F090044BF0A3F0A3F0A3F0C7
:102BC000900447F0A3F0A3F0A3F09003F8F0900373
:102BD000F7E0FFBF500050069003F77450F09003E9
:102BE000F6E0FF900495740AF08F821222DDAF8226
:102BF0009003F6EFF0124CA59003E6E090049BF0F2
:102C0000E4A3F075820112234B9004977440F07492
:102C100001A3F09008341222F97582801223BB9030
:102C200004A8740CF074FEA3F09004AAE4F0A3F0DE
:102C3000A3F0A3F09004AE74B4F0E4A3F09004B059
:102C40007408F07582010223ECAF82AE83ADF0FC14
:102C50009004CEEFF0EEA3F0EDA3F0ECA3F07582BC
:102C600004120631AF82C00712068FE582D00770CA
:102C700001229003E6EFF0BF14005003022D0290F2
:102C8000044BE4F0A3F0A3F0A3F0900447E0F5F0C8
:102C9000A3E042F0A3E042F0A3E045F0701C9004F2
:102CA000CEE0FCA3E0FDA3E0FEA3E0FF900447EC30
:102CB000F0EDA3F0EEA3F0EFA3F090042FE070018D
:102CC000229004CEE0FCA3E0FDA3E0FEA3E0FF9091
:102CD0000447E0F8A3E0F9A3E0FAA3E0FB90048B3B
:102CE00074C828F0E439A3F0E43AA3F0E43BA3F07D
:102CF0008C828D838EF0EF122270E58270012202A9
:102D00002BB19003E6E024F05003022D939004478A
:102D1000E4F0A3F0A3F0A3F090044BE0F5F0A3E0FF
:102D200042F0A3E042F0A3E045F0701C9004CEE036
:102D3000FCA3E0FDA3E0FEA3E0FF90044BECF0ED6C
:102D4000A3F0EEA3F0EFA3F090042FE0705A9004EC
:102D5000CEE0FCA3E0FDA3E0FEA3E0FF90044BE087
:102D6000F8A3E0F9A3E0FAA3E0FB90048B74D02869
:102D7000F0740739A3F0E43AA3F0E43BA3F08C82AB
:102D80008D838EF0EF122270E582601C90042F7408
:102D900001F02290044BE4F0A3F0A3F0A3F0900420
:102DA00047F0A3F0A3F0A3F022AF82AE83ADF0FC16
:102DB0009004D2EFF0EEA3F0EDA3F0ECA3F0758257
:102DC00007120631AF82C00712068FAE82C006120C
:102DD000078CAD829004D2E0F9A3E0FAA3E0FBA354
:102DE000E0FC900514EDF09005157401F0900516C7
:102DF000E9F0EAA3F0EBA3F0ECA3F090040D75F07A
:102E000000C004C003C002C001124098AD82D001CE
:102E1000D002D003D004C005C004C003C002C0016A
:102E2000120796E582D001D002D003D00490051499
:102E3000F09005157401F0900516E9F0EAA3F0EBA7
:102E4000A3F0ECA3F090041875F000C004C003C018
:102E500002C001124098A882D001D002D003D00451
:102E6000D005D006D0078F82C006C005C004C003BD
:102E7000C002C001C0001207A0E582D000D001D07E
:102E800002D003D004D005D006900514F0900515AB
:102E9000EEF0900516E9F0EAA3F0EBA3F0ECA3F056
:102EA00090042375F000C005C000124098AF82D096
:102EB00000D005C007C005C0001207ACAE82D0002C
:102EC000D005D007ED30E1269003FAE004540390DA
:102ED00003FAF090049B7401F0E4A3F0758206C03D
:102EE00007C006C00012234BD000D006D007E83040
:102EF000E25DC007C006124C9EE582D006D0076096
:102F00000DC007C006124CA5D006D007802890043B
:102F1000D2E0FAA3E0FBA3E0FCA3E0FD9003F9E01C
:102F200090055EF08A828B838CF0EDC007C006129C
:102F30004D06D006D00790049B7414F0E4A3F075FE
:102F40008206C007C00612234BD006D007803CE89B
:102F500030E1389003F8E0B40100920CE433FD90C6
:102F600003F8F0ED600EC007C0061223AB124CA5AB
:102F7000D006D00790049B7402F0E4A3F07582069B
:102F8000C007C00612234BD006D007EF30E02B90CD
:102F900003F9E090042EF09003F9E0701D758201B2
:102FA000C007C00612251690049B7403F0E4A3F03A
:102FB00075820612234BD006D007EF30E22490042E
:102FC0002EE0601E758200C00612251690042EE4C5
:102FD000F090049B741EF0E4A3F075820612234B5C
:102FE000D0069003F5EEF0EE6078900430E0707259
:102FF000900409E0FDA3E0FF0DBD00010F9004095E
:10300000EDF0EFA3F09003F6E0FF9004937423F04B
:103010008F82C0061222B3AF829003F6EFF09003C6
:10302000F7E0FF9004957414F08F821222DDAF82D6
:103030009003F7EFF0900409E0FDA3E0FF90049BFC
:10304000EDF0EFA3F075820312234B9004977464A4
:10305000F0E4A3F090047E1222F9900408121DED12
:10306000D006900430EEF022AF82AE83ADF0FC903B
:1030700004D6EFF0EEA3F0EDA3F0ECA3F09003EB99
:1030800075F00012154C1207B6E582701A9003F322
:10309000E060109003F1E0FEA3E0FFC3745A9EE4E9
:1030A0009F4004C20D8002D20DA20DE433FF9003B5
:1030B000F4F0EF7001229004D6E0FCA3E0FDA3E061
:1030C000FEA3E0FF900457E0F8A3E0F9A3E0FAA321
:1030D000E0FB90048B74D028F0740739A3F0E43A35
:1030E000A3F0E43BA3F08C828D838EF0EFC007C089
:1030F00006C005C004122270E582D004D005D006B7
:10310000D007603A900457ECF0EDA3F0EEA3F0EF97
:10311000A3F09003F7E0FFBF4B0050069003F77455
:103120004BF09003F1E0FEA3E0FF90049BEEF0EF84
:10313000A3F075820212234B75820102251622AF7D
:1031400082AE83ADF0FC9004DAEFF0EEA3F0EDA3D5
:10315000F0ECA3F0758203120631AF82C0071206AD
:103160008FE582D0077001228F82120696AE82AF61
:10317000839003E7EEF0EFA3F09003E9E0FCA3E017
:10318000FD74142CFCE43DFDC3EE9CEF64808DF0D7
:1031900063F08095F050030232CF90044FE0F5F0D9
:1031A000A3E042F0A3E042F0A3E045F0701C9004DD
:1031B000DAE0FCA3E0FDA3E0FEA3E0FF90044FEC07
:1031C000F0EDA3F0EEA3F0EFA3F09004DAE0FCA39F
:1031D000E0FDA3E0FEA3E0FF90044FE0F8A3E0F9D8
:1031E000A3E0FAA3E0FB90048B74D028F0740739B5
:1031F000A3F0E43AA3F0E43BA3F08C828D838EF03D
:10320000EFC007C006C005C004122270E582D004DA
:10321000D005D006D007700122900453E0F8A3E057
:10322000F9A3E0FAA3E0FB90048B741028F0742754
:1032300039A3F0E43AA3F0E43BA3F08C828D838EB3
:10324000F0EFC007C006C005C004122270E582D0AE
:1032500004D005D006D007700122900453ECF0EDA5
:10326000A3F0EEA3F0EFA3F09003F6E0FB9004953B
:10327000740AF08B82C007C006C005C0041222DDAC
:10328000AB829003F6EBF09003E7E0FAA3E0FB904B
:10329000049BEAF0EBA3F075820412234B90049791
:1032A0007450F0E4A3F09006D61222F9D004D005B1
:1032B000D006D0079004457405F090045B74B82CD8
:1032C000F0740B3DA3F0E43EA3F0E43FA3F02290A2
:1032D000044FE4F0A3F0A3F0A3F022AF83E58290C3
:1032E00004DEF0EFA3F09004DEE0FCA3E0FDE033A9
:1032F00095E0FEFF90058FECF0EDA3F0EEA3F0EF6C
:10330000A3F09003E8E4F5F01252C8AC82AD83AEAE
:10331000F0FF900577E4F004A3F0E4A3F0A3F08CB1
:10332000828D838EF0EF1250DDAC82AD83AEF0FF64
:103330009004E0ECF0EDA3F0EEA3F0EFA3F0C37483
:10334000FF9C747F9DE49E74808FF063F08095F005
:10335000500F9004E074FFF0747FA3F0E4A3F0A397
:10336000F09004E0E0A3E0FDA3E0FEA3E0FFC3EDE6
:103370009480EE94FFEF6480947F500F9004E0E41B
:10338000F07480A3F074FFA3F0A3F09004E0E0FEDB
:10339000A3E08E82F58322AF82AE83ADF0FC900471
:1033A000E4EFF0EEA3F0EDA3F0ECA3F09004FCE466
:1033B000F09003F8E060069004FC7401F09003F9CB
:1033C000E060089004FCE043E002F09003FBE06062
:1033D0000712068FE58270089004FCE043E010F0CD
:1033E000900402E060089004FCE043E020F09004C8
:1033F000E4E0FCA3E0FDA3E0FEA3E0FF900344ECC7
:10340000F0EDA3F0EEA3F0EFA3F09004E875F00068
:10341000120E8A9003E6E09004ECF09003E7E0FEE1
:10342000A3E0FF90033FEEF0EFA3F09004ED75F002
:1034300000120E569003EBE0FEA3E0FF8E828F8316
:103440001232DBE5828583F090033FF0E5F0A3F0D4
:103450009004EF75F000120E569003EDE0FEA3E02D
:10346000FF8E828F831232DBE5828583F090033FEB
:10347000F0E5F0A3F09004F175F000120E56900301
:10348000EFE0FEA3E0FF8E828F831232DBE58285C0
:1034900083F090033FF0E5F0A3F09004F375F000A3
:1034A000120E569003F4E09004F5F09003F5E090CE
:1034B00004F6F09003F6E09004F7F09003F7E09044
:1034C00004F8F09004FCE09004F9F0900409E0FEA8
:1034D000A3E0FF90033AEEF0EFA3F09004FA75F04A
:1034E00000120E1690035B74E8F07404A3F0E4A3DA
:1034F000F090035E7414F0758210021053AF82AE28
:1035000083ADF0FC9004FDEFF0EEA3F0EDA3F0EC42
:10351000A3F09003F9E0600475820B22124C9EE543
:103520008260047582062290045BE0FCA3E0FDA3A8
:10353000E0FEA3E0FF90045BE0F5F0A3E042F0A31F
:10354000E042F0A3E045F060319004FDE0F8A3E034
:10355000F9A3E0FAA3E0FB90048BECF0EDA3F0EE0E
:10356000A3F0EFA3F0888289838AF0EB122270E542
:10357000827007900445E0F582229003F8E0600431
:10358000758204229003F4E06004758203229004A3
:1035900000E06007900401E0F582229003F7E0FF6D
:1035A000BF37004004758202229003F6E024B95030
:1035B000047582012275820022AF82AE83ADF0FCD9
:1035C000900501EFF0EEA3F0EDA3F0ECA3F0900571
:1035D00001E0FCA3E0FDA3E0FEA3E0FF8C828D836D
:1035E0008EF0C007C006C005C0041234FDAB82C017
:1035F000031208E4D003D004D005D006D00790030E
:10360000F9E060439002BC7453F0758200C003126D
:1036100008F9D0039002BC7454F0758201C0031203
:1036200008F9D0039002BC744FF0758202C00312F7
:1036300008F9D0039002BC7450F0758203C00312E5
:1036400008F9D0030238A690045FE0F51AA3E0F56C
:103650001BA3E0F51CA3E0F51D90045FE0F5F0A3CB
:10366000E042F0A3E042F0A3E045F0605290048B0A
:10367000E51AF0E51BA3F0E51CA3F0E51DA3F08C13
:10368000828D838EF0EFC003122270E582D003702A
:103690002E9002BC7455F0758200C0031208F9D058
:1036A00003900403E09002BEF0E4A3F09002C07423
:1036B00003F0758201C003120928D0030238A690D6
:1036C00003FAE0FF70599002BC744CF0758200C0A0
:1036D000031208F9D0039003E6E09002BEF0E4A3E1
:1036E000F09002C07403F0758201C003120928D063
:1036F000039002BC7446F0758204C0031208F9D02E
:10370000039003F7E09002BEF0E4A3F09002C074CF
:1037100003F0758205C003120928D0030238A6BF42
:10372000010280030237A69002BC7443F075820048
:10373000C0031208F9D0039003E7E0FDA3E0FE30D8
:10374000E7067A007C008018900598740AF0E4A3DC
:10375000F08D828E83C0031253DFAA82AC83D00324
:103760009002BEEAF0ECA3F09002C07403F0758200
:1037700001C003120928D0039002BC7448F075827E
:1037800004C0031208F9D0039003F6E09002BEF0E3
:10379000E4A3F09002C07403F0758205C00312091F
:1037A00028D0030238A6BF02759003FCE060519058
:1037B00003FDE09002BEF0E4A3F09002C07402F0BA
:1037C000758200C003120928D0039003FEE0900226
:1037D000BEF0E4A3F09002C07402F0758202C00350
:1037E000120928D0039003FFE09002BEF0E4A3F09A
:1037F0009002C07402F0758204C003120928D0033D
:103800009003F8E060047F5380027F419002BCEF98
:10381000F0758207C0031208F9D0030238A690029F
:10382000BC7445F0758200C0031208F9121377AE1C
:1038300082AF8390059374E8F07403A3F08E828FB7
:1038400083125334AE82AF83D0039002BEEEF0EF0A
:10385000A3F09002C07403F0758201C0031209281E
:10386000D0039002BC7455F0758204C0031208F9AD
:10387000120CE4AE82AF8390059374E8F07403A356
:10388000F08E828F83125334AE82AF83D0039002C6
:10389000BEEEF0EFA3F09002C07403F0758205C095
:1038A00003120928D0039003F9E0601C900501E0A1
:1038B000A3E0FDA3E0A3E0ED30E0047FFF80027F02
:1038C00000900505EFF0803E9003F7E0FFBF370062
:1038D000401C900501E0A3E0FDA3E0A3E0ED30E093
:1038E000047FAA80027F55900505EFF080189003B1
:1038F000F6E0FFBF4B004008900505747EF080069F
:103900009005057418F0900505E0F582C0031209D2
:10391000C21209CED003900431E0FFEBB5070122BB
:103920008B82C003122142D003900431EBF022902D
:1039300003F7E0FF9004957403F08F821222DDAF4D
:10394000829003F7EFF09003F6E0FF24CD5007EFED
:10395000149003F6F022BF320050060F9003F6EFEA
:10396000F022900506747FF0900507E4F01205F34D
:10397000120DFC900408121C1E900408E0701190B7
:103980000408E4F090040BF0A3F0900409F0A3F015
:10399000758204120631AF829003E6EFF075820360
:1039A000120631120696AE82AF839003E7EEF0EF77
:1039B000A3F09003E9EEF0EFA3F09003F67432F079
:1039C0009003F7E4F0900404F0A3F0900402F09068
:1039D0000400F09003FAF09003F9F09003F8F0126D
:1039E00014BAAF829003FBEFF09003F3E4F090037E
:1039F000FCF0900424F0900423F0900419F090045B
:103A000018F090040EF090040DF090042F04F012C2
:103A100007ACE582900430F090043174FFF090041C
:103A20005FE4F0A3F0A3F0A3F090045BF0A3F0A395
:103A3000F0A3F0124CA590044674FFF0900457E4F4
:103A4000F0A3F0A3F0A3F0900453F0A3F0A3F0A32D
:103A5000F090044FF0A3F0A3F0A3F090044BF0A378
:103A6000F0A3F0A3F0900447F0A3F0A3F0A3F012AA
:103A70002100900497742CF07401A3F09004B0120C
:103A800022F990035B7406F07405A3F0E4A3F090B0
:103A9000035E7402F07582011210531205F3AC82BA
:103AA000AD83AEF0FF900473ECF0EDA3F0EEA3F065
:103AB000EFA3F090046BECF0EDA3F0EEA3F0EFA316
:103AC000F0900467ECF0EDA3F0EEA3F0EFA3F0901C
:103AD0000463ECF0EDA3F0EEA3F0EFA3F090048309
:103AE000ECF0EDA3F0EEA3F0EFA3F090047FECF088
:103AF000EDA3F0EEA3F0EFA3F090047BECF0EDA3C8
:103B0000F0EEA3F0EFA3F0900477ECF0EDA3F0EE6D
:103B1000A3F0EFA3F090046FECF0EDA3F0EEA3F0B0
:103B2000EFA3F0221205F3AC82AD83AEF0FF900458
:103B300067E0F8A3E0F9A3E0FAA3E0FB90048BE8C8
:103B4000F0E9A3F0EAA3F0EBA3F08C828D838EF072
:103B5000EFC007C006C005C004122270E582D00481
:103B6000D005D006D007602D900467740A2CF0E4CD
:103B70003DA3F0E43EA3F0E43FA3F08C828D838E5E
:103B8000F0EFC007C006C005C004122DA9D004D0B4
:103B900005D006D007C007C006C005C00412121A1F
:103BA000E582D004D005D006D0076013C007C00658
:103BB000C005C004122A6BD004D005D006D007C0BF
:103BC00007C006C005C0041227E0D004D005D00607
:103BD000D0078C828D838EF0EFC007C006C005C071
:103BE0000412293BD004D005D006D0078C828D83E7
:103BF0008EF0EFC007C006C005C004124D79D00496
:103C0000D005D006D007900463E0F8A3E0F9A3E064
:103C1000FAA3E0FB90048BE8F0E9A3F0EAA3F0EB51
:103C2000A3F08C828D838EF0EFC007C006C005C064
:103C300004122270E582D004D005D006D007602D92
:103C400090046374322CF0E43DA3F0E43EA3F0E46E
:103C50003FA3F08C828D838EF0EFC007C006C005B5
:103C6000C004122C49D004D005D006D00790046BB4
:103C7000E0F8A3E0F9A3E0FAA3E0FB90048BE8F0FE
:103C8000E9A3F0EAA3F0EBA3F08C828D838EF0EF32
:103C9000C007C006C005C004122270E582D004D05F
:103CA00005D006D007602D90046B74282CF0E43DFD
:103CB000A3F0E43EA3F0E43FA3F08C828D838EF06A
:103CC000EFC007C006C005C004123068D004D0059C
:103CD000D006D00790046FE0F8A3E0F9A3E0FAA3C0
:103CE000E0FB90048BE8F0E9A3F0EAA3F0EBA3F08B
:103CF0008C828D838EF0EFC007C006C005C0041211
:103D00002270E582D004D005D006D007602E900442
:103D10006F74F42CF074013DA3F0E43EA3F0E43F93
:103D2000A3F08C828D838EF0EFC007C006C005C063
:103D30000412313FD004D005D006D00790047FE0B4
:103D4000F8A3E0F9A3E0FAA3E0FB90048BE8F0E924
:103D5000A3F0EAA3F0EBA3F08C828D838EF0EFC08A
:103D600007C006C005C004122270E582D004D00549
:103D7000D006D007604D90047F74E82CF074033DAA
:103D8000A3F0E43EA3F0E43FA3F090038B74FEF0B5
:103D90007403A3F0E4A3F090038E74FFF07403A304
:103DA000F0E4A3F09003FDF5F0C007C006C005C025
:103DB0000412194BAB82D004D005D006D007900373
:103DC000FCEBF0900483E0F8A3E0F9A3E0FAA3E0B1
:103DD000FB90048BE8F0E9A3F0EAA3F0EBA3F08CEE
:103DE000828D838EF0EFC007C006C005C00412228A
:103DF00070E582D004D005D006D0076027900483F8
:103E000074E82CF074033DA3F0E43EA3F0E43FA378
:103E1000F0C007C006C005C00412392FD004D00579
:103E2000D006D007900473E0F8A3E0F9A3E0FAA36A
:103E3000E0FB90048BE8F0E9A3F0EAA3F0EBA3F039
:103E40008C828D838EF0EFC007C006C005C00412BF
:103E50002270E582D004D005D006D007602D9004F2
:103E60007374642CF0E43DA3F0E43EA3F0E43FA3BC
:103E7000F08C828D838EF0EFC007C006C005C004B1
:103E80001235B9D004D005D006D007900477E0F8F9
:103E9000A3E0F9A3E0FAA3E0FB90048BE8F0E9A328
:103EA000F0EAA3F0EBA3F08C828D838EF0EFC007D5
:103EB000C006C005C004122270E582D004D005D02F
:103EC00006D007602D90047774C82CF0E43DA3F071
:103ED000E43EA3F0E43FA3F08C828D838EF0EFC02C
:103EE00007C006C005C004123397D004D005D00621
:103EF000D00790047BE0F8A3E0F9A3E0FAA3E0FB8D
:103F000090048BE8F0E9A3F0EAA3F0EBA3F08C8235
:103F10008D838EF0EFC007C006C005C0041222706A
:103F2000E582D004D005D006D007605490047B749D
:103F3000F42CF074013DA3F0E43EA3F0E43FA3F0C1
:103F4000900344ECF0EDA3F0EEA3F0EFA3F09005A6
:103F50000875F000C007C006C005C004120E8A90A4
:103F6000035B7408F07405A3F0E4A3F090035E749F
:103F700004F0758202121053D004D005D006D00789
:103F8000C007C006C005C004122155121B3ED00454
:103F9000D005D006D007900400E0605E900487E072
:103FA000F8A3E0F9A3E0FAA3E0FB90048BE8F0E9C2
:103FB000A3F0EAA3F0EBA3F08C828D838EF0EFC028
:103FC00007C006C005C004122270E582D004D005E7
:103FD000D006D0076024900400E4F090049B741491
:103FE000F0E4A3F0758208C007C006C005C0041243
:103FF000234BD004D005D006D00790045BE0F8A393
:10400000E0F9A3E0FAA3E0FB90045BE0F5F0A3E0A5
:1040100042F0A3E042F0A3E045F0603890048BE862
:10402000F0E9A3F0EAA3F0EBA3F08C828D838EF08D
:10403000EF122270E582601C90045BE4F0A3F0A311
:10404000F0A3F0900402E0600B900402E4F07582AB
:10405000000228CB22AF82AE83ADF0FC900510EFBA
:10406000F0EEA3F0EDA3F0ECA3F090050CE0FCA3C0
:10407000E0FDA3E0FEA3E0FF900510E0F8A3E0F967
:10408000A3E0FAA3E0FBE8C39CE99DEA9EEB9F3323
:10409000B3920EE433F58222AFF0AE83E582900551
:1040A0001AF0EEA3F0EFA3F090051DE4F0900515D3
:1040B000E0703D90051AE0FDA3E0FEA3E0FF74036D
:1040C0002DFDE43EFE900516E0F9A3E0FAA3E0FB27
:1040D000A3E0FC8D828E838FF0E912528DA3EA1249
:1040E000528DA3EB12528DA3EC12528D75820022D9
:1040F00090051AE0FDA3E0FEA3E0FF74012DFAE4B1
:104100003EFB8F048A828B838CF0125451F9900508
:1041100014E0F8B5010280388A828B838CF0E812B3
:10412000528D74032DFDE43EFE900516E0F9A3E0E8
:10413000FAA3E0FBA3E0FC8D828E838FF0E912529C
:104140008DA3EA12528DA3EB12528DA3EC12528D65
:1041500090051AE0FDA3E0FEA3E0FF74012DFAE450
:104160003EFB8F048A828B838CF0125451FC8D01AC
:104170008E028F0389828A838BF0125451F8ECB53A
:10418000000302426AC001C002C003900516E0F5B8
:1041900024A3E0F525A3E0F526A3E0F52774032D7D
:1041A000F8E43EFB8F0288828B838AF0125451F828
:1041B000A3125451F9A3125451FAA3125451FB9073
:1041C000050C741E28F0E439A3F0E43AA3F0E43BB4
:1041D000A3F08524828525838526F0E527C007C0C6
:1041E00006C005C004C003C002C001124055E582EC
:1041F000D001D002D003D004D005D006D007D00320
:10420000D002D001606489828A838BF0EC12528DD7
:10421000604074072DFAE43EFB8F048A828B838C06
:10422000F0E52412528DA3E52512528DA3E5261246
:10423000528DA3E52712528D74022DFAE43EFB8FB6
:10424000048A828B838CF0E412528D90051D04F059
:10425000801874022DFDE43EFE8D828E838FF01255
:104260005451700690051D7402F090051AE0FDA3EC
:10427000E0FEA3E0FF8D028E038F048A828B838C85
:10428000F0125451700302431874022DFAE43EFBFD
:104290008F048A828B838CF0125451707BC002C0D1
:1042A00003C004900516E0F8A3E0F9A3E0FBA3E047
:1042B000FC74072DFDE43EFE8D828E838FF0125438
:1042C00051FDA3125451FEA3125451FFA312545195
:1042D000FA90050C74B02DF074043EA3F0E43FA3F3
:1042E000F0E43AA3F0888289838BF0ECC004C00329
:1042F000C002124055E582D002D003D004D004D0D1
:1043000003D00260138A828B838CF0740112528D69
:1043100090051DE043E004F090051DE0F58222E5E4
:104320008290051EF0E024E3B3920FE433F582227D
:10433000AFF0AE83E582900523F0EEA3F0EFA3F09B
:10434000900523E0FDA3E0FEA3E0FF8D028E038F26
:10435000048A828B838CF0125451700122C002C0F7
:1043600003C00490051FE0F528A3E0F529A3E0F5BC
:104370002AA3E0F52B740D2DFCE43EFA8F038C820A
:104380008A838BF0125451F9A3125451FAA3125498
:1043900051FBA3125451FC90050C746429F0E43ACB
:1043A000A3F0E43BA3F0E43CA3F0852882852983B5
:1043B000852AF0E52BC007C006C005C004C003C0B5
:1043C00002124055E582D002D003D004D005D006B9
:1043D000D007D004D003D00260348A828B838CF063
:1043E000E412528D740B2DFDE43EFE8D828E838F80
:1043F000F0125451FBA3125451FC0BBB00010C8D65
:10440000828E838FF0EB12528DA3EC02528D22AF7D
:10441000F0AE83E58290052BF0EEA3F0EFA3F090D1
:10442000052EE4F090052BE0FDA3E0FEA3E0FF9055
:104430000527E0F52CA3E0F52DA3E0F52EA3E0F58C
:104440002F90051FE52CF0E52DA3F0E52EA3F0E558
:104450002FA3F08D828E838FF012433090052BE0D6
:10446000FDA3E0FEA3E0FF740D2DF8E43EFB8F04F6
:1044700088828B838CF0E52C12528DA3E52D12528D
:104480008DA3E52E12528DA3E52F12528D74072DA8
:10449000FAE43EFB8F048A828B838CF0125451F82D
:1044A000A3125451F908B80001098A828B838CF059
:1044B000E812528DA3E912528D8D028E038F04747F
:1044C000022DFDE43EFE7900C002C003C004E92DC8
:1044D000F52CE43EF52D8F2E8902EA042DFAE43EF8
:1044E000FB8F048A828B838CF0125451852C828539
:1044F0002D83852EF012528D09B90300D004D0030C
:10450000D00240C474052AFDE43BFE8C07900526CA
:10451000E0F98D828E838FF012528D8A308B318C30
:10452000328530828531838532F0125451F824FC73
:104530005003024709E8282890453C730245480289
:1045400045610245C2024651B9A5028003024716E1
:104550008530828531838532F0740112528D024795
:1045600016B95A118530828531838532F074021272
:10457000528D024716740B2AF52CE43BF52D8C2E38
:10458000852C82852D83852EF0125451FDA3125463
:1045900051FF0DBD00010F852C82852D83852EF0E6
:1045A000ED12528DA3EF12528DB9A504780180024D
:1045B00078008530828531838532F0E812528D0291
:1045C0004716B901004029E924F3402474012AF870
:1045D000E43BFE8C0788828E838FF0E912528D8532
:1045E00030828531838532F0740312528D02471672
:1045F00090052BE0F52CA3E0F52DA3E0F52E740B30
:10460000252CF533E4352DF534852E35853382851B
:1046100034838535F0125451FDA3125451FF0DBD62
:1046200000010F8533828534838535F0ED12528D7C
:10463000A3EF12528DAD2CAE2DAF2EB9A50478018B
:10464000800278008D828E838FF0E812528D0247AF
:104650001674012AFDE43BFE8C078D828E838FF059
:10466000125451FF74FF6FFEE9B5065B90052EEF03
:10467000F074092AF533E43BF5348C3585338285B3
:1046800034838535F0125451FEA3125451FD0EBEF1
:1046900000010D8533828534838535F0EE12528D0D
:1046A000A3ED12528D74062AF8E43BFD8C06888235
:1046B0008D838EF0EF12528D853082853183853265
:1046C000F0E412528D804F740B2AFAE43BFB8A828D
:1046D0008B838CF0125451FEA3125451FF0EBE0076
:1046E000010F8A828B838CF0EE12528DA3EF12524F
:1046F0008DB9A5047F0180027F00853082853183DA
:104700008532F0EF12528D800D85308285318385A0
:1047100032F0E412528D90052EE0F58222AFF0AE19
:1047200083E582900534F0EEA3F0EFA3F09005341A
:10473000E0F54AA3E0F54BA3E0F54C74A4254AFA52
:10474000E4354BFBAC4C8A828B838CF0125451F5D0
:104750004D045403F8900532E0F5496006E549241C
:10476000D7504D900534E0F54AA3E0F54BA3E0F5B2
:104770004C74F9254AF54AE4354BF54B854A828558
:104780004B83854CF0125451F54DA3125451F54E04
:10479000054DE4B54D02054E854A82854B83854C17
:1047A000F0E54D12528DA3E54E12528D7582002216
:1047B000900533E0700302484374A5254AF9E435B7
:1047C0004BFEAF4C89828E838FF0E54D12528D7473
:1047D000D0254AF552E4354BF553854C5490052FBE
:1047E000E0F54FA3E0F550A3E0F5517900C3E9955A
:1047F00049502FE92552F555E43553F55685545760
:10480000E9254FFDE43550FEAF518D828E838FF048
:104810001254518555828556838557F012528D0961
:1048200080CB900534E0FDA3E0FEA3E0FF74F82DFB
:10483000FDE43EFE8D828E838FF0E54912528D7528
:1048400082012274A5254AFDE4354BFEAF4C8D82D2
:104850008E838FF0125451FDE8B5053B74F9254A5B
:10486000F555E4354BF556854C578555828556836D
:104870008557F0125451F9A3125451FF09B90001A0
:104880000F8555828556838557F0E912528DA3EF27
:1048900012528D75820022AD4AAE4BAF4C8A528BBC
:1048A000538C5490052FE0F555A3E0F556A3E0F5A1
:1048B000577900C3E995495047C000855282855316
:1048C000838554F012545175F028A42DF8E43EFB72
:1048D0008F04E928F54FE43BF5508C51E92555FA52
:1048E000E43556FBAC578A828B838CF01254518589
:1048F0004F828550838551F012528D09D00080B3CC
:10490000900534E0FDA3E0FEA3E0FF74A02DFAE4DF
:104910003EFB8F0474A42DFDE43EFE8D828E838FBA
:10492000F01254512AFAE43BFB8A828B838CF0E527
:104930004912528D8D828E838FF0E812528D7582CE
:104940000122AFF0AE83E58290053AF0EEA3F0EFDE
:10495000A3F090053AE0FDA3E0FEA3E0FF74CE2DA6
:10496000FAE43EFB8F048A828B838CF0125451FA56
:1049700074CF2DF550E43EF5518F5285508285510C
:10498000838552F0125451F8EAB500028003024BBD
:104990004974F82DF8E43EFA8F0488828A838CF0FB
:1049A000125451F5497003024A498550828551835A
:1049B0008552F0E54912528D8D4A8E4B8F4C8550B1
:1049C0004D85514E85524F754900854D82854E83E8
:1049D000854FF0125451F8C3E54998504E74A625FE
:1049E0004AF550E4354BF551854C52E5492550F5D3
:1049F00050E43551F55174D0254AF553E4354BF563
:104A000054854C55E5492553F553E43554F5548503
:104A100053828554838555F01254518550828551B7
:104A2000838552F012528D0549809F74F8254AF50E
:104A300053E4354BF554854C558553828554838515
:104A400055F0E412528D024B2D74A52DF8E43EFA78
:104A50008F0488828A838CF0125451F55374A42DEC
:104A6000FAE43EFB8F048A828B838CF0125451B59A
:104A70005303024B2974A02DF8E43EFA8F04E5534A
:104A800028F8E43AFA88828A838CF01254518550CF
:104A9000828551838552F012528DAA50AB51AC528F
:104AA00079008A828B838CF0125451F8C3E99850B4
:104AB0005AC002C003C00474A62DF8E43EFB8F0464
:104AC000E928F553E43BF5548C5574A52DFAE43EE2
:104AD000FB8F048A828B838CF012545175F028A4CA
:104AE0002DFAE43EFB8F04E92AFAE43BFB8A828B31
:104AF000838CF01254518553828554838555F0126E
:104B0000528D09D004D003D002809774A52DFDE406
:104B10003EFE8D828E838FF01254510454038D8299
:104B20008E838FF012528D80047582002290053A98
:104B3000E0FDA3E0FEA3E0FF74CE2DFDE43EFE8D7C
:104B4000828E838FF0E412528D900537E0F553A3E7
:104B5000E0F554A3E0F55590053AE0FAA3E0FBA395
:104B6000E0FC74A62AF8E43BF98C0774CE2AFAE438
:104B70003BFB8A828B838CF0125451FE048A828B19
:104B8000838CF012528DEE28F8E439F988828983FB
:104B90008FF01254518553828554838555F01252FB
:104BA0008D75820122E582900540F0E0FC7D007E5B
:104BB000007F0090058FECF0EDA3F0EEA3F0EFA3E3
:104BC000F0903A98F5F01252C88582368583378581
:104BD000F038F53990053DE0F53AA3E0F53BA3E068
:104BE000F53C853A82853B83853CF0125451F8A30D
:104BF000125451FFE4FEFDE82536F8EF3537FFEE9D
:104C00003538FEED3539FD90056E7488F0E4A3F07B
:104C1000A3F0A3F088828F838EF0EDC007C006C09A
:104C200005C000124F9EA982AA83D000D005D006ED
:104C3000D007853A82853B83853CF0E912528DA3EB
:104C4000EA12528D90057F7488F0E4A3F0A3F0A3DC
:104C5000F088828F838EF0ED025199AF82AE83ADE2
:104C6000F0FC900552EFF0EEA3F0EDA3F0ECA3F012
:104C700090054EE0FCA3E0FDA3E0FEA3E0FF90055D
:104C800052E0F8A3E0F9A3E0FAA3E0FBE8C39CE953
:104C90009DEA9EEB9F33B39210E433F58222900598
:104CA00041E0F58222900541E4F0900542F0900544
:104CB00043F0020B13AF83E58290055CF0EFA3F0A5
:104CC00090055CE0FEA3E0FF8E828F83120A2290A3
:104CD00005437401F0900556E0FEA3E0FF900558EF
:104CE000E0FAA3E0FBA3E0FCA3E0FD8E008F017ED1
:104CF000007F0090054AE82AF0E93BA3F0EE3CA3D0
:104D0000F0EF3DA3F022AF82AE83ADF0FC90055FE3
:104D1000EFF0EEA3F0EDA3F0ECA3F090055EE06001
:104D20000475820022124CA59005417401F0900593
:104D300044E4F0A3F090055FE0FCA3E0FDA3E0FEF7
:104D4000A3E0FF90054674F42CF074013DA3F0E459
:104D50003EA3F0E43FA3F0900556742CF07401A339
:104D6000F0900558ECF0EDA3F0EEA3F0EFA3F09077
:104D700004B0124CB575820122AF82AE83ADF0FC57
:104D8000900563EFF0EEA3F0EDA3F0ECA3F0900537
:104D900043E06040900563E0FCA3E0FDA3E0FEA3D8
:104DA000E0FF90054AE0F8A3E0F9A3E0FAA3E0FBF6
:104DB00090054EE8F0E9A3F0EAA3F0EBA3F08C82B3
:104DC0008D838EF0EF124C5BE5826008120B13901E
:104DD0000543E4F0900541E06038900563E0FCA3F2
:104DE000E0FDA3E0FEA3E0FF900546E0F8A3E0F9B4
:104DF000A3E0FAA3E0FB90054EE8F0E9A3F0EAA3F4
:104E0000F0EBA3F08C828D838EF0EF124C5BE58289
:104E1000700122900542E075F004A42428FE745627
:104E200035F0FF8E828F83A3A3E493FF90053D743A
:104E300044F07405A3F0E4A3F08F82124BA5AE8278
:104E4000AF83900542E075F004A42428F54274561F
:104E500035F0F54374032542FAE43543FB8A828B2F
:104E600083E49360047B0080027B0F8B3D900546BA
:104E7000E0F53EA3E0F53FA3E0F540A3E0F5418E69
:104E8000028F03E4FEFFEA253EFAEB353FFBEE35E9
:104E900040FEEF3541FFA83D79007C007D00900584
:104EA0004AEAC398F0EB99A3F0EE9CA3F0EF9DA320
:104EB000F0900546EAF0EBA3F0EEA3F0EFA3F08547
:104EC0004282854383E493FEA3E493FF8E828F8323
:104ED000120A22900542E0FF75F004A42428F5820E
:104EE000745635F0F583E493FDA3E4934DB40100CB
:104EF000B39211900543E433F0900542EF04F0E0E3
:104F0000FF905724E493FEEFB50605900542E4F0C8
:014F1000227E
:105628000B0201004B0201006E0206006E0201012E
:10563800BA02010010030400000002001003010078
:10564800A4030100A4030400A40302001704020039
:105658001704040000000400BA0202004B02020012
:10566800BA0202004B02020017040800A403020059
:10567800A4030200A40302004B020100BA020900BD
:105688001003040010030100BA0201011003020014
:10569800BA0204004B020200D20102006E020200AC
:1056A8004B0202006E02010010030101BA0202005F
:1056B800BA02040000000400BA0202004B02020011
:1056C800BA0202004B02020017040800A4030200F9
:1056D800A4030200A40302004B020100100301010D
:1056E800BA02040000000200100301007003010068
:1056F800A4030400A403020010030100BA0202017B
:10570800A4030300000002004B0202000B02030086
:0D5718004B0203000B020200D20108003F0B
:104F1100AF83E582900569F0EFA3F090056BE4F0B3
:104F2100A3F0900567E0FEA3E0FF7D10900569E026
:104F3100FBA3E0FC90056D235401F0EB2BFBEC335C
:104F4100FC900569EBF0ECA3F090056BE0FBA3E0AE
:104F5100FCEB2BFBEC33FC90056BEBF0ECA3F0903E
:104F6100056DE0600890056BE043E001F090056B92
:104F7100E0FBA3E0FCC3EB9EEC9F401390056BEBC1
:104F8100C39EF0EC9FA3F0900569E043E001F0DDE2
:104F91009B900569E0FEA3E08E82F58322AF82AE8D
:104FA10083ADF0FC900572EFF0EEA3F0EDA3F0EC11
:104FB100A3F0900576E4F0900572E0FCA3E0FDA378
:104FC100E0FEA3E0FF7B0090056EE0F549A3E0F56C
:104FD1004AA3E0F54BA3E0F54C2354017074C003E0
:104FE100E5492549F8E54A33F9E54B33FAE54C3310
:104FF100FB90056EE8F0E9A3F0EAA3F0EBA3F090D3
:10500100056EE0F549A3E0F54AA3E0F54BA3E0F511
:105011004CC3EC9549ED954AEE954BEF954CD00379
:105021005027E54CC313F54CE54B13F54BE54A13FB
:10503100F54AE54913F54990056EF0E54AA3F0E517
:105041004BA3F0E54CA3F080090B900576EBF00241
:105051004FC8900576E0FF900572E0FBA3E0FCA34A
:10506100E0FDA3E0FE90056EE0F549A3E0F54AA35B
:10507100E0F54BA3E0F54CC3EB9549EC954AED9572
:105081004BEE954C4017900572EBC39549F0EC95AA
:105091004AA3F0ED954BA3F0EE954CA3F090056E6D
:1050A100E0FBA3E0FCA3E0FDA3E0C313FEED13FDD1
:1050B100EC13FCEB1390056EF0ECA3F0EDA3F0EE16
:1050C100A3F08F061FEE708F900572E0FCA3E0FD48
:1050D100A3E0FEA3E08C828D838EF022AF82AE83AB
:1050E100ADF0FC90057BEFF0EEA3F0EDA3F0ECA3A7
:1050F100F090057BE0FCA3E0FDA3E0FEA3E0FF3020
:10510100E70FC3E49CF8E49DF9E49EFAE49FFB8079
:10511100088C008D018E028F03900577E0FCA3E0DF
:10512100FDA3E0FEA3E0FF33E433F5446013C3E4E1
:105131009CF545E49DF546E49EF547E49FF54880DE
:10514100088C458D468E478F4890057FE545F0E5F3
:1051510046A3F0E547A3F0E548A3F0888289838A56
:10516100F0EB125199AC82AD83AEF0FF90057BE07C
:10517100A3E0A3E0A3E033E43365446013C3E49CFC
:10518100F8E49DF9E49EFAE49F888289838AF022FB
:105191008C828D838EF0EF22AF82AE83ADF0FC90D6
:1051A1000583EFF0EEA3F0EDA3F0ECA3F0900587FB
:1051B100E4F0A3F0A3F0A3F090057FE0FCA3E0FDF1
:1051C100A3E0FEA3E0FF7B20C003900583E0F8A3EA
:1051D100E0F9A3E0FAA3E0FB90058B235401F0E88A
:1051E10028F8E933F9EA33FAEB33FB900583E8F069
:1051F100E9A3F0EAA3F0EBA3F0900587E0F8A3E0C0
:10520100F9A3E0FAA3E0FBE828F8E933F9EA33FA75
:10521100EB33FB900587E8F0E9A3F0EAA3F0EBA3F9
:10522100F0D00390058BE06008900587E043E00132
:10523100F0900587E0F549A3E0F54AA3E0F54BA31B
:10524100E0F54CC3E5499CE54A9DE54B9EE54C9F45
:10525100401F900587E549C39CF0E54A9DA3F0E511
:105261004B9EA3F0E54C9FA3F0900583E043E00142
:10527100F01BEB60030251C9900583E0FCA3E0FD44
:0C528100A3E0FEA3E08C828D838EF0225F
:0600E700E478FFF6D8FDED
:1000C5007900E94400601B7A00905725789C75A05B
:1000D50005E493F2A308B8000205A0D9F4DAF27595
:0200E500A0FF7A
:10008E00C000A88118C0D0B6001B18B64800401595
:10009E00B66F005010C0E0E65407B406005004E6F8
:0A00AE0054F8F6D0E0D0D0D00032B4
:10528D0020F71130F6138883A88220F509F6A8833C
:10529D007583002280FEF280F5F022AA83AB828B0B
:1052AD00F090058DE0A4F8A9F08AF0E0A429F98B1F
:1052BD00F0A3E0A429F58388822222A882A983AADB
:1052CD00F0FB88F090058FE0A4FCADF089F0E0A430
:1052DD002DFDE435F0FE88F0A3E0A42DFDE5F03EB4
:1052ED00FEE433FF89F0E0A42EFEE5F03FFF88F0E9
:1052FD00A3E0A42EFEE5F03FFF8AF090058FE0A419
:10530D002EFEE5F03FFF8BF0E0A42FFF8AF0A3E027
:10531D00A42FFF89F0A3E0A42FFF88F0A3E0A42F12
:10532D008EF08D838C8222AF83E582900595F0EF10
:10533D00A3F0900597E4F0900595E0FEA3E0FF7DC6
:10534D0000900593E0FBA3E0FC2354017036EB2B9A
:10535D00FBEC33FC900593EBF0ECA3F0900593E0A0
:10536D00FBA3E0FCC3EE9BEF9C5011ECC313CB13DE
:10537D00CBFC900593EBF0ECA3F080080D90059716
:10538D00EDF080BD900597E0FF900595E0FDA3E061
:10539D00FE900593E0FBA3E0FCC3ED9BEE9C400B60
:1053AD00900595EDC39BF0EE9CA3F0900593E0FD69
:1053BD00A3E0C313CD13CDFE900593EDF0EEA3F056
:1053CD008F061FEE70C3900595E0FEA3E08E82F56B
:1053DD008322AF83E58290059AF0EFA3F090059AB2
:1053ED00E0FEA3E0FF30E709C3E49EFCE49FFD80EF
:1053FD00048E048F05900598E0FEA3E0FF33E4339F
:10540D00FB6009C3E49EF9E49FFA80048E018F02CC
:10541D00900567E9F0EAA3F08C828D83C003124FEB
:10542D0011AE82AF83D00390059AE0A3E033E4334D
:10543D006B600CC3E49EFCE49FFD8C828D83228EF9
:04544D00828F8322A5
:1000ED007800E84400600A790175A000E4F309D8AE
:1000FD00FC789BE84405600C7906900001E4F0A3C0
:04010D00D8FCD9FA47
:0D00B80075815712546DE5826003020089C6
:1054510020F71430F6148883A88220F507E6A88384
:1054610075830022E280F7E49322E0227582002214
:00000001FF
