:040000000200563272
:03000B000200B937
:100010000000E2FBEAF2802C0000E0FBEAF0802422
:10002000E6B50202EBF62200E2B50202EBF2220094
:10003000E0B50202EBF02230F6E0A88220F5D3EA28
:10004000C6F582228B822230F6E6A88220F5D9807E
:01005000CFE0
:0300AF00020051FB
:0500510012054080FED5
:1000B200758CD4758ACD22C020C0E0C0F0C082C049
:1000C20083C007C006C005C004C003C002C001C08F
:1000D20000C0D075D0001200B2900001E0FCA3E095
:1000E200FDA3E0FEA3E0FF90000174012CF0E43DCB
:1000F200A3F0E43EA3F0E43FA3F0D0D0D000D001BF
:10010200D002D003D004D005D006D007D083D0824D
:10011200D0F0D0E0D02032E582900010F0E0FFBFB6
:100122003000400FEF24C6400AEF24D09008C3935A
:10013200F58222900010E0FFBF2D030201C7BF41EC
:10014200028046BF44028045BF45028044BF46024A
:100152008043BF47028042BF49028041BF4C0280B8
:1001620040BF4E02803FBF4F028056BF50028039CF
:10017200BF52028038BF53028037BF54028036BF5D
:1001820055028035BF574280347582772275825E70
:1001920022758279227582712275826F227582069A
:1001A200227582382275825422758273227582509A
:1001B2002275826D227582782275823E2275822A8C
:1001C2002275825C227582402275820022AFF0AED7
:1001D20083E582900011F0EEA3F0EFA3F0900011FE
:1001E200E0FDA3E0FEA3E0FF7C00EC2405F508E4BB
:1001F2003400F509EC2DF8E43EF98F0388828983F7
:100202008BF01208A3FB60198B82C007C006C005E1
:10021200C004120119AB82D004D005D006D00780E9
:10022200027B00850882850983EBF00CBC08004044
:10023200B92275800090000EE0FFBF071075A0F88C
:1002420090000FE0F58090000EE4F0802590000D04
:10025200E0FE74F04EF5A0EE2405F582E43400F5DC
:1002620083E0F5800E90000D74075EF090000EEFB3
:1002720004F07E2C7F018E048F051EBEFF011FEC51
:100282004D60030080F02243918053927F75BCA79A
:1002920043BC087E887F13E5BC20E4091EBEFF0133
:1002A2001FEE4F70F2EE4F70047582FF2253BCEFC7
:1002B20085BD8222E582900014F0E0FF24E3400431
:1002C20075820522EF24B3400475820422EF248B49
:1002D200400475820222EF2463400475820522EFF6
:1002E2002443400475820322EF241B4004758201DB
:1002F2002275820022AF83E582900015F0EFA3F011
:10030200900015E0FEA3E0FF4E7001228E048F05DF
:10031200C374A09C740F9D50067CA07D0F80048E38
:10032200048F0590003BECF0EDA3F0E4A3F0A3F002
:1003320090C00075F0A8C005C004120837AA82ABAD
:1003420083AEF0FF90002E7440F07442A3F0740F5D
:10035200A3F0E4A3F08A828B838EF0EF120743AA04
:1003620082AB83D004D005C3E49AFAE49BFBC28E2D
:100372008B8D8A8BC28FD28E308FFDC28EC28F90B0
:100382000015E0FEA3E0FF900015EEC39CF0EF9D88
:10039200A3F0020302AF83E582900017F0EFA3F00F
:1003A200900017E0FEA3E0FF740C2EFEE43FFF90E6
:1003B20000277419F0E4A3F08E828F831206B6AE82
:1003C20082AF838E048F051EBEFF011FEC4D601AA3
:1003D200D2B790000CC007C0061202F7C2B7900055
:1003E2000D1202F7D006D00780D922E582900019BB
:1003F200F07F00900232C007120397D007C2B79075
:100402000019E030E0067D977E0680047D327E0290
:100412008D828E83C0071202F7D007900019E0C3C5
:1004220013F00FBF080040CB22E58290001AF09033
:100432002328120397C2B79011941202F7758250C3
:100442001203ED7582AF1203ED90001AE0FFF58200
:10045200C0071203EDD0076307FF8F821203ED90EE
:100462000232120397C2B722E58290001BF0E0FF2E
:1004720024FA4062EF2F90047C73805A8008801621
:100482008024803280409008CD75F0801201CF9098
:10049200000F7418F0229008D675F0801201CF90E8
:1004A200000F7481F0229008DF75F0801201CF9066
:1004B200000F740FF0229008E875F0801201CF90BF
:1004C200000F74F0F0229008F175F0801201CF90C5
:1004D200000F74FFF0229008FA75F0801201CF909D
:1004E200000FE4F022C2AF7593007594FF7580008F
:1004F20075950075960875A0F053B17F43B280C21E
:10050200B77F00EF2405F582E43400F583E4F00FB1
:10051200BF080040EE90000FE4F090000EF0900053
:100522000DF075BCA0438EC0E5897589111200B229
:10053200C28DD2A9D28CD2AF75820002046A900019
:100542001CE4F090001DF090001EF090001FF0A33C
:10055200F0A3F0A3F0900023F0A3F0A3F0A3F01215
:1005620004E7900001E0FCA3E0FDA3E0FEA3E0FFAE
:10057200C007C006C005C004120234D004D005D0A2
:1005820006D00790001FE0F8A3E0F9A3E0FAA3E089
:10059200FBECC398ED99EE9AEF9B30E7030206530A
:1005A200C007C006C005C0041202891202B6AB829F
:1005B200D004D005D006D00790001F740A2CF0E4B6
:1005C2003DA3F0E43EA3F0E43FA3F090001CE0FF63
:1005D200EBB50702800D90001CEBF090001E740139
:1005E200F0801090001EE0FFBF0300500690001E36
:1005F200EF04F090001EE0FFBF0300405490001D86
:10060200E0FF90001CE0FEEFB50602804490001D62
:10061200EEF08E82C00612046AD006EE700DF582EC
:1006220012042B75820012042B80268E8212042B58
:10063200900001E0FCA3E0FDA3E0FEA3E0FF900038
:100642002374642CF0E43DA3F0E43EA3F0E43FA362
:10065200F090001DE0FFE07003020564C007900007
:1006620023E0FBA3E0FCA3E0FDA3E0FE900001E099
:10067200F8A3E0F9A3E0FAA3E0FFE8C39BE99CEA50
:100682009DEF9ED00730E7030205648F8212042B90
:10069200900001E0FCA3E0FDA3E0FEA3E0FF9000D8
:1006A2002374642CF0E43DA3F0E43EA3F0E43FA302
:0406B200F0020564E9
:1008C3003F065B4F666D7D077F6F555020202020CC
:1008D300202000444F574E20202020004C454654F2
:1008E3002020202000524947485420202000535400
:1008F3004F5020202020002D2D2D2D2020202000A2
:1006B600AF83E582900029F0EFA3F090002BE4F0E1
:1006C600A3F0900027E0FEA3E0FF7D10900029E054
:1006D600FBA3E0FC90002D235401F0EB2BFBEC3345
:1006E600FC900029EBF0ECA3F090002BE0FBA3E0DC
:1006F600FCEB2BFBEC33FC90002BEBF0ECA3F09027
:10070600002DE0600890002BE043E001F090002B04
:10071600E0FBA3E0FCC3EB9EEC9F401390002BEBA9
:10072600C39EF0EC9FA3F0900029E043E001F0DDCA
:100736009B900029E0FEA3E08E82F58322AF82AE75
:1007460083ADF0FC900032EFF0EEA3F0EDA3F0ECF9
:10075600A3F0900036E4F0A3F0A3F0A3F090002EEF
:10076600E0FCA3E0FDA3E0FEA3E0FF7B20C0039036
:100776000032E0F8A3E0F9A3E0FAA3E0FB90003A28
:10078600235401F0E828F8E933F9EA33FAEB33FBAE
:10079600900032E8F0E9A3F0EAA3F0EBA3F09000B2
:1007A60036E0F8A3E0F9A3E0FAA3E0FBE828F8E9CD
:1007B60033F9EA33FAEB33FB900036E8F0E9A3F0BD
:1007C600EAA3F0EBA3F0D00390003AE060089000B3
:1007D60036E043E001F0900036E0F50AA3E0F50BC1
:1007E600A3E0F50CA3E0F50DC3E50A9CE50B9DE53A
:1007F6000C9EE50D9F401F900036E50AC39CF0E570
:100806000B9DA3F0E50C9EA3F0E50D9FA3F09000D1
:1008160032E043E001F01BEB600302077390003205
:10082600E0FCA3E0FDA3E0FEA3E08C828D838EF0C6
:01083600229F
:06008500E478FFF6D8FD4F
:100063007900E94400601B7A00900903783F75A08A
:1000730000E493F2A308B8000205A0D9F4DAF275FC
:02008300A0FFDC
:10083700A882A983AAF0FB88F090003BE0A4FCAD56
:10084700F089F0E0A42DFDE435F0FE88F0A3E0A4E4
:100857002DFDE5F03EFEE433FF89F0E0A42EFEE532
:10086700F03FFF88F0A3E0A42EFEE5F03FFF8AF0FB
:1008770090003BE0A42EFEE5F03FFF8BF0E0A42FB5
:10088700FF8AF0A3E0A42FFF89F0A3E0A42FFF883D
:0C089700F0A3E0A42F8EF08D838C822251
:10008B007800E84400600A790175A000E4F309D810
:10009B00FC783EE84400600C7901900001E4F0A389
:0400AB00D8FCD9FAAA
:0D0056007581201208BFE582600302005191
:1008A30020F71430F6148883A88220F507E6A8837E
:1008B30075830022E280F7E49322E022758200220E
:00000001FF
