:040000000200563272
:03000B000200E20E
:100010000000E2FBEAF2802C0000E0FBEAF0802422
:10002000E6B50202EBF62200E2B50202EBF2220094
:10003000E0B50202EBF02230F6E0A88220F5D3EA28
:10004000C6F582228B822230F6E6A88220F5D9807E
:01005000CFE0
:0300AF00020051FB
:0500510012037680FEA1
:1000B200A2AF9200C2AF900021E508F0E509A3F0DB
:1000C200E50AA3F0E50BA3F0A20092AF900021E0B5
:1000D200FCA3E0FDA3E0FEA3E08C828D838EF022E0
:1000E200C0E0C0F0C082C083C007C006C005C00423
:1000F200C0D0E4F5D0F580E50E700CE50D6008E5A2
:100102000D14F50C750D0053A0F0E50E42A0E50CA0
:1001120075F009A42401FE740035F0FFE50E2EF5FA
:1001220082E43FF583E0F580E50E04FF8F0EBF0900
:1001320003750E00AC08AD09AE0AAF0B74012CF5C5
:1001420008E43DF509E43EF50AE43FF50BD0D0D0D2
:1001520004D005D006D007D083D082D0F0D0E032D0
:1001620090001FE4F075BCA7000043BC087E887FA6
:1001720013E5BC20E4091EBEFF011FEE4F70F2EE34
:100182004F70047582FF2253BCEF90001F7401F080
:1001920085BD8222E582900025F090002674A5F0AC
:1001A200900027F4F09000287402F0900025E0906F
:1001B2000029F0900020E0FF04F090002AEFF09078
:1001C200002BE4F09000427405F090002675F000D8
:1001D200120836AF8290002BEFF07F00C299EF2415
:1001E20026F582E43400F583E0F5993099FD0FBFDE
:1001F200060040E822E58290002CF0E50D60012225
:100202007401650CFF75F009A4FDAEF07C00ED24CD
:1002120001FAEE3400FBEC2AF582E43BF583E4F0CC
:100222000CBC090040E8ED2401F582EE3400F583B0
:100232007439F0ED2401FBEE3400FC0BBB00010C21
:10024200900014E09008D0938B828C83F0ED24010F
:10025200FBEE3400FC74042BFBE43CFC90001FE03A
:1002620060047A7780027A798B828C83EAF090003C
:100272001FE0700690002C7401F0ED2401FBEE34B7
:1002820000FC74052BFBE43CFC90002CE0FA75F0BA
:1002920064849008D0938B828C83F0ED2401FBEE72
:1002A2003400FC74062BFBE43CFC8A0175F00AE97D
:1002B2008475F00A84E5F09008D0938B828C83F0E9
:1002C200ED2401FBEE3400FC74072BFBE43CFC75CF
:1002D200F00AEA84E5F09008D0938B828C83F0EDEB
:1002E2002401FDEE3400FE74082DFDE43EFE900074
:1002F20014E09008DA938D828E83F0EF04F50D22DC
:10030200C2AF75A80075AF0075B8007593007594FB
:10031200FF75800075950075960875A0F043918071
:1003220053927F43908053B1FC53B2FC43B00353CA
:10033200A23F75985075D6FE75D7E0438E955389C6
:10034200F0758CD4758ACD7F00EF2401FDE4340072
:10035200FEEF240AF582E43400F583E4F08D828E08
:1003620083F00FBF090040E175BCA0C28DD2A9D2B3
:100372008CD2AF2290002D740AF0E4A3F0A3F0A374
:10038200F01203021200B2AC82AD83AEF0FF900015
:100392002DE0F8A3E0F9A3E0FAA3E0FBECC398EDAB
:1003A20099EE9AEF9B20E76790002D740A2CF0E4F7
:1003B2003DA3F0E43EA3F0E43FA3F0C007C006C0B3
:1003C20005C004120162AB82D004D005D006D0076A
:1003D20090001FE0FA900032EBF0900033EAF090C8
:1003E2000034ECF0EDA3F0EEA3F0EFA3F0900013D5
:1003F20075F000C007C006C005C004C0031204792E
:10040200D0038B821201F7D004D005D006D007901A
:10041200003BECF0EDA3F0EEA3F0EFA3F09000139D
:1004220075F00012071CAF82BFFF030203868F82A2
:0604320012019602038690
:1008D0003F065B4F666D7D077F6F0018810FF0FF4D
:10043800E582900031F0E0FF24E340047582052254
:10044800EF24B3400475820422EF248B40047582A4
:100458000222EF2463400475820522EF24434004FE
:1004680075820322EF241B400475820122758200E5
:1004780022AFF0AE83E582900038F0EEA3F0EFA350
:10048800F0900032E0F582120438AF82900033E039
:10049800600302058B900038E0FCA3E0FDA3E0FEBA
:1004A80074022CF9E43DFA8E0389828A838BF01258
:1004B80008B070100CBC00010D8C828D838EF01278
:1004C80008B0604D900038E0FCA3E0FDA3E0FE74A6
:1004D800032CF9E43DFA8E0389828A838BF0740237
:1004E80012089574082CFCE43DFD900034E0F8A354
:1004F800E0F9A3E0FAA3E0FB8C828D838EF0E8128A
:100508000895A3E9120895A3EA120895A3EB120827
:1005180095900038E0FCA3E0FDA3E0FE74022CF9FE
:10052800E43DFA8E0389828A838BF0E412089504ED
:100538002CF50FE43DF5108E118C008D028E03888A
:10054800828A838BF0E4120895850F828510838553
:1005580011F012089574042CFCE43DFD900034E081
:10056800F8A3E0F9A3E0FAA3E0FB8C828D838EF078
:10057800E8120895A3E9120895A3EA120895A3EBD7
:10058800020895900038E0FCA3E0FDA3E0FE7402A9
:100598002CF9E43DFA8E0389828A838BF01208B025
:1005A800704989828A838BF074011208958C018DB9
:1005B800028E0389828A838BF0EF12089574042CCB
:1005C800FCE43DFD900034E0F8A3E0F9A3E0FAA3D1
:1005D800E0FB8C828D838EF0E8120895A3E912085F
:1005E80095A3EA120895A3EB120895900038E0FC51
:1005F800A3E0FDA3E0FE8C018D028E0389828A832D
:100608008BF01208B0F8EFB50002803889828A832F
:100618008BF0EF12089574042CFCE43DFD90003437
:10062800E0F8A3E0F9A3E0FAA3E0FB8C828D838EC7
:10063800F0E8120895A3E9120895A3EA120895A311
:10064800EB120895900038E0FCA3E0FDA3E0FE74EF
:10065800012CF9E43DFA8E0389828A838BF0120813
:10066800B0F8EFB5000122C001C002C00374042C29
:10067800F8E43DFB8E0288828B838AF01208B0F87A
:10068800A31208B0F9A31208B0FAA31208B0FB909D
:100698000034E0F512A3E0F513A3E0F514A3E0F5A8
:1006A80015E512C398F8E51399F9E5149AFAE515D2
:1006B8009BFBC3E8941EE99400EA9400EB648094E1
:1006C80080D003D002D001404A89828A838BF0EF20
:1006D80012089574082CF9E43DFA8E0389828A83FE
:1006E8008BF0E512120895A3E513120895A3E514FB
:1006F800120895A3E51512089574032CFCE43DFD3A
:10070800EF70047F0280027F008C828D838EF0EF71
:1007180002089522AFF0AE83E58290003FF0EEA389
:10072800F0EFA3F090003FE0FDA3E0FEA3E0FF742C
:10073800082DF516E43EF5178F1885168285178360
:100748008518F01208B0F8A31208B0F9A31208B07F
:10075800FBA31208B0FC90003BE0F519A3E0F51AE2
:10076800A3E0F51BA3E0F51CE519C398E51A99E584
:100778001B9BE51C9C30E7047582FF2274032DFA4D
:10078800E43EFB8F048A828B838CF01208B0F960F8
:100798003C198A828B838CF0E9120895741E2519FE
:1007A800FAE4351AFBE4351BF9E4351CFC8516829E
:1007B8008517838518F0EA120895A3EB120895A30C
:1007C800E9120895A3EC1208957582002274022D8F
:1007D800FAE43EFB8F048A828B838CF01208B060A7
:1007E800490DBD00010E8D828E838FF01208B06016
:1007F8003974642519FAE4351AFBE4351BF9E43534
:100808001CFC8516828517838518F0EA120895A3C3
:10081800EB120895A3E9120895A3EC1208958D82AE
:100828008E838FF01208B0F582227582FF22AFF016
:10083800AE83E582900043F0EEA3F0EFA3F09000C2
:1008480046E4F0900043E0FDA3E0FEA3E0FF900043
:1008580042E0FC8C031CEB60228D828E838FF012A9
:1008680008B0FBA3AD82AE83900043EDF0EEA3F099
:10087800EFA3F0900046E06BF080D8900043EDF0D5
:0D088800EEA3F0EFA3F0900046E0F5822211
:06008500E478FFF6D8FD4F
:100063007900E94400601B7A009008E0784875A0A5
:1000730000E493F2A308B8000205A0D9F4DAF275FC
:02008300A0FFDC
:1008950020F71130F6138883A88220F509F6A8837E
:0B08A5007583002280FEF280F5F02237
:10008B007800E84400600A790175A000E4F309D810
:10009B00FC7847E84400600C7901900001E4F0A380
:0400AB00D8FCD9FAAA
:0D0056007581201208CCE582600302005184
:1008B00020F71430F6148883A88220F507E6A88371
:1008C00075830022E280F7E49322E0227582002201
:00000001FF
