:040000000200563272
:03000B000200E20E
:100010000000E2FBEAF2802C0000E0FBEAF0802422
:10002000E6B50202EBF62200E2B50202EBF2220094
:10003000E0B50202EBF02230F6E0A88220F5D3EA28
:10004000C6F582228B822230F6E6A88220F5D9807E
:01005000CFE0
:0300AF00020051FB
:050051001203B680FE61
:1000B200A2AF9200C2AF900021E508F0E509A3F0DB
:1000C200E50AA3F0E50BA3F0A20092AF900021E0B5
:1000D200FCA3E0FDA3E0FEA3E08C828D838EF022E0
:1000E200C0E0C0F0C082C083C007C006C005C00423
:1000F200C0D0E4F5D0F580E50E700CE50D6008E5A2
:100102000D14F50C750D0053A0F0E50E42A0E50CA0
:1001120075F009A42401FE740035F0FFE50E2EF5FA
:1001220082E43FF583E0F580E50E04FF8F0EBF0900
:1001320003750E00AC08AD09AE0AAF0B74012CF5C5
:1001420008E43DF509E43EF50AE43FF50BD0D0D0D2
:1001520004D005D006D007D083D082D0F0D0E032D0
:1001620090001FE4F075BCA71200B2AC82AD83AE62
:10017200F0FFC007C006C005C0041200B2A882A9E1
:1001820083AAF0FBD004D005D006D007E8C39CF8C0
:10019200E99DF9EA9EFAEB9FFBC3E89401E994001A
:1001A200EA9400EB6480948040C843BC087E887F58
:1001B20013E5BC20E4091EBEFF011FEE4F70F2EEF4
:1001C2004F70047582FF2253BCEF90001F7401F040
:1001D20085BD8222E582900025F090002674A5F06C
:1001E200900027F4F09000287402F0900025E0902F
:1001F2000029F0900020E0FF04F090002AEFF09038
:10020200002BE4F09000427405F090002675F00097
:10021200120876AF8290002BEFF07F00C299EF2494
:1002220026F582E43400F583E0F5993099FD0FBF9D
:10023200060040E822E58290002CF0E50D600122E4
:100242007401650CFF75F009A4FDAEF07C00ED248D
:1002520001FAEE3400FBEC2AF582E43BF583E4F08C
:100262000CBC090040E8ED2401F582EE3400F58370
:100272007439F0ED2401FBEE3400FC0BBB00010CE1
:10028200900014E0900910938B828C83F0ED24018E
:10029200FBEE3400FC74042BFBE43CFC90001FE0FA
:1002A20060047A7780027A798B828C83EAF09000FC
:1002B2001FE0700690002C7401F0ED2401FBEE3477
:1002C20000FC74052BFBE43CFC90002CE0FA75F07A
:1002D2006484900910938B828C83F0ED2401FBEEF1
:1002E2003400FC74062BFBE43CFC8A0175F00AE93D
:1002F2008475F00A84E5F0900910938B828C83F068
:10030200ED2401FBEE3400FC74072BFBE43CFC758E
:10031200F00AEA84E5F0900910938B828C83F0ED69
:100322002401FDEE3400FE74082DFDE43EFE900033
:1003320014E090091A938D828E83F0EF04F50D225A
:10034200C2AF75A80075AF0075B8007593007594BB
:10035200FF75800075950075960875A0F043918031
:1003620053927F43908053B1FC53B2FC43B003538A
:10037200A23F75985075D6FE75D7E0438E95538986
:10038200F0758CD4758ACD7F00EF2401FDE4340032
:10039200FEEF240AF582E43400F583E4F08D828EC8
:1003A20083F00FBF090040E175BCA0C28DD2A9D273
:1003B2008CD2AF2290002D740AF0E4A3F0A3F0A334
:1003C200F01203421200B2AC82AD83AEF0FF900095
:1003D2002DE0F8A3E0F9A3E0FAA3E0FBECC398ED6B
:1003E20099EE9AEF9B20E76790002D740A2CF0E4B7
:1003F2003DA3F0E43EA3F0E43FA3F0C007C006C073
:1004020005C004120162AB82D004D005D006D00729
:1004120090001FE0FA900032EBF0900033EAF09087
:100422000034ECF0EDA3F0EEA3F0EFA3F090001394
:1004320075F000C007C006C005C004C0031204B9AD
:10044200D0038B82120237D004D005D006D0079099
:10045200003BECF0EDA3F0EEA3F0EFA3F09000135D
:1004620075F00012075CAF82BFFF030203C68F82E2
:060472001201D60203C6D0
:100910003F065B4F666D7D077F6F0018810FF0FF0C
:10047800E582900031F0E0FF24EC4004758205220B
:10048800EF24C6400475820422EF24A1400475823B
:100498000222EF247C400475820522EF2458400490
:1004A80075820322EF24234004758201227582009D
:1004B80022AFF0AE83E582900038F0EEA3F0EFA310
:1004C800F0900032E0F582120478AF82900033E0B9
:1004D80060030205CB900038E0FCA3E0FDA3E0FE3A
:1004E80074022CF9E43DFA8E0389828A838BF01218
:1004F80008F070100CBC00010D8C828D838EF012F8
:1005080008F0604D900038E0FCA3E0FDA3E0FE7425
:10051800032CF9E43DFA8E0389828A838BF07402F6
:100528001208D574082CFCE43DFD900034E0F8A3D3
:10053800E0F9A3E0FAA3E0FB8C828D838EF0E81249
:1005480008D5A3E91208D5A3EA1208D5A3EB120827
:10055800D5900038E0FCA3E0FDA3E0FE74022CF97E
:10056800E43DFA8E0389828A838BF0E41208D5046D
:100578002CF50FE43DF5108E118C008D028E03884A
:10058800828A838BF0E41208D5850F8285108385D3
:1005980011F01208D574042CFCE43DFD900034E001
:1005A800F8A3E0F9A3E0FAA3E0FB8C828D838EF038
:1005B800E81208D5A3E91208D5A3EA1208D5A3EBD7
:1005C8000208D5900038E0FCA3E0FDA3E0FE740229
:1005D8002CF9E43DFA8E0389828A838BF01208F0A5
:1005E800704989828A838BF074011208D58C018D39
:1005F800028E0389828A838BF0EF1208D574042C4B
:10060800FCE43DFD900034E0F8A3E0F9A3E0FAA390
:10061800E0FB8C828D838EF0E81208D5A3E91208DE
:10062800D5A3EA1208D5A3EB1208D5900038E0FC50
:10063800A3E0FDA3E0FE8C018D028E0389828A83EC
:100648008BF01208F0F8EFB50002803889828A83AF
:100658008BF0EF1208D574042CFCE43DFD900034B7
:10066800E0F8A3E0F9A3E0FAA3E0FB8C828D838E87
:10067800F0E81208D5A3E91208D5A3EA1208D5A311
:10068800EB1208D5900038E0FCA3E0FDA3E0FE746F
:10069800012CF9E43DFA8E0389828A838BF01208D3
:1006A800F0F8EFB5000122C001C002C00374042CA9
:1006B800F8E43DFB8E0288828B838AF01208F0F8FA
:1006C800A31208F0F9A31208F0FAA31208F0FB909D
:1006D8000034E0F512A3E0F513A3E0F514A3E0F568
:1006E80015E512C398F8E51399F9E5149AFAE51592
:1006F8009BFBC3E8941EE99400EA9400EB648094A1
:1007080080D003D002D001404A89828A838BF0EFDF
:100718001208D574082CF9E43DFA8E0389828A837D
:100728008BF0E5121208D5A3E5131208D5A3E5143A
:100738001208D5A3E5151208D574032CFCE43DFD79
:10074800EF70047F0280027F008C828D838EF0EF31
:100758000208D522AFF0AE83E58290003FF0EEA309
:10076800F0EFA3F090003FE0FDA3E0FEA3E0FF74EC
:10077800082DF516E43EF5178F1885168285178320
:100788008518F01208F0F8A31208F0F9A31208F07F
:10079800FBA31208F0FC90003BE0F519A3E0F51A62
:1007A800A3E0F51BA3E0F51CE519C398E51A99E544
:1007B8001B9BE51C9C30E7047582FF2274032DFA0D
:1007C800E43EFB8F048A828B838CF01208F0F96078
:1007D8003C198A828B838CF0E91208D5741E25197E
:1007E800FAE4351AFBE4351BF9E4351CFC8516825E
:1007F8008517838518F0EA1208D5A3EB1208D5A34C
:10080800E91208D5A3EC1208D57582002274022DCE
:10081800FAE43EFB8F048A828B838CF01208F06026
:10082800490DBD00010E8D828E838FF01208F06095
:100838003974642519FAE4351AFBE4351BF9E435F3
:100848001CFC8516828517838518F0EA1208D5A343
:10085800EB1208D5A3E91208D5A3EC1208D58D82AE
:100868008E838FF01208F0F582227582FF22AFF096
:10087800AE83E582900043F0EEA3F0EFA3F0900082
:1008880046E4F0900043E0FDA3E0FEA3E0FF900003
:1008980042E0FC8C031CEB60228D828E838FF01269
:1008A80008F0FBA3AD82AE83900043EDF0EEA3F019
:1008B800EFA3F0900046E06BF080D8900043EDF095
:0D08C800EEA3F0EFA3F0900046E0F58222D1
:06008500E478FFF6D8FD4F
:100063007900E94400601B7A00900920784875A064
:1000730000E493F2A308B8000205A0D9F4DAF275FC
:02008300A0FFDC
:1008D50020F71130F6138883A88220F509F6A8833E
:0B08E5007583002280FEF280F5F022F7
:10008B007800E84400600A790175A000E4F309D810
:10009B00FC7847E84400600C7901900001E4F0A380
:0400AB00D8FCD9FAAA
:0D00560075812012090CE582600302005143
:1008F00020F71430F6148883A88220F507E6A88331
:1009000075830022E280F7E49322E02275820022C0
:00000001FF
