:10219B0000A8C0003F065B4F666D7D077F6F000890
:1021AB0040014148BF86DBCFE6EDFD87FFEF763878
:1021BB0001060126014A015D018801B801EE020BFF
:0721CB0000001201010126D2
:06108400041A5AA5807F4A
:101DE9008B5C8A5D895E8D5F74FFF560F561AF5F1D
:101DF900155FEF603E785CE475F0011203D21201C1
:101E09003CFEEE6260E4FCECC3940850E1E560300E
:101E1900E711E56125E0FFE560336410FEEF642119
:101E2900FF8009E56125E0FFE56033FE8E608F6183
:081E39000C80D4AE60AF612201
:0B270700ED120182900001EC02019431
:101F3E008F5A8E598D588C57EF120182AF5AAE5967
:101F4E00AD58AC577808120377900001EF12019448
:101F5E00AF5AAE59AD58AC577810120377900002B5
:101F6E00EF120194AF5AAE59AD58AC577818120310
:081F7E0077900003EF020194CB
:1019CE008F578B588A59895AE55BD394204003026E
:1019DE001A6C122728EF6003021A6C90006E74AA1C
:1019EE00F0A37455F0A37402F0A3E557F09000999C
:1019FE00E0FF04F0900072EFF0A3E55BF0E4FFEF80
:101A0E00C3955B501EAB58AA59A95A8F8275830095
:101A1E00120155FE74742FF582E43400F583EEF056
:101A2E000F80DC7B017A007970E55B2404FD121DCA
:101A3E00E97474255BF582E43400F583EFF0AF06AC
:101A4E007475255BF582E43400F583EFF07B017A43
:0F1A5E0000796EE55B2408FDE433FC1223F622C9
:07250700E0FEA3E0FDAC06BD
:10250E008F487B007A0079491227077A0019755B8C
:06251E00037F110219CE3B
:10229A00900099E0F54F8F507B007A007951AF4C4E
:1022AA00AE4BAD4AAC49121F3E7A007955AD4EACE1
:1022BA004D1227077A00794F755B087F200219CEE5
:1025FD00E4F52C9000D8F090009FF0FB7A00792C38
:08260D00755B017F310219CE5B
:101573008F2AEFFD7C007F0512250EE52A1203E278
:1015830015AB0115AD0215BC0315D20415E60515FF
:10159300FC06161307161C0816220916320A163DF6
:1015A3000B16510C00001656806CE4754CF4754B09
:1015B30001F54AF549F54D800F754C0C754BFE75D9
:1015C3004AFF7549FF754D00754EB47F01803EE4B7
:1015D300754CF4754B01F54AF549F54D754EB47FDD
:1015E30003802A754C0C754BFE754AFF7549FF75D0
:1015F3004D00754EB47F038014754C40754B7E755A
:101603004A05754900754D01754EF47F0202229A11
:101613009000D07401F00225FDE49000D0F02290F8
:1016230000CAE0FFC3945050047F50801B8019E42C
:1016330090009FF09000D804F0229000CAE0FFC30E
:10164300944650047F4680009000CAEFF022E49055
:0416530000D7F022AA
:102327009000D3E0FF9000D1E0B4A51EA3E0B45A1B
:1023370019EFC394014013EFD3940C500DEFF4FE43
:0B2347009000D4E0B5060312157322CD
:10165700900096E0FF900098E0FE7011EF64AA609A
:1016670003021721E0FD04F074A02D8011EEB401F0
:1016770019BF5514900098E0FE04F074A02EF5826F
:10168700E43400F583EFF022802C900098E0FE040C
:10169700F074A02EF582E43400F583EFF090009803
:1016A700E0FDB4061E9000A2E0B4020A9000A5E097
:1016B700FED394204006E4900098F022EE24089090
:1016C70000CBF09000CBE0FF6050EDC39F404BE0B4
:1016D700FD249FF582E43400F583E0FE749E2DF52A
:1016E70082E43400F583E0FDEEF52AEDF52B7B016E
:1016F7007A0079A29000CBE0C39404FD121DE9EFB4
:10170700B52B0EEEB52A0A9000A3E0B431031225DB
:0B171700FDE4900098F09000CBF02261
:1021D200E4FF1220DEBF01139000D7E02401FFE4E8
:1021E20033FE7C007D031201C8EDF07F011220DE78
:1021F200BF01119000D0E070047F0180027F009047
:0522020000D0EFF02206
:0C26EF00E4FF121FCDBF01031225FD22E5
:101D8300120003EF6401705DC390009EE094FF9026
:101D9300009DE094FF5007E475F00112021D9000CE
:101DA300CAE0D394505006E02414F080069000CA91
:101DB3007464F090009CE0FFD394144006EF24EC8D
:101DC300FF80027F0090009CEFF0A3A3E0FDE4FFFF
:101DD30012000E90009DE0FD7F0112000E90009D09
:061DE3007F031225072218
:1024E800122660BF011890009CE0C3944B500374FF
:0F24F8004BF01225FD7D017C007F0212250E2284
:10119F009000D7E070659000C8E0F548A3E0F549EE
:1011AF00D3E54994E7E5489403400675480375492C
:1011BF00E7AE48AF497C007D641201C8AB07AE486B
:1011CF00AF497C007D0A1201C87C007D0A1201C85C
:1011DF008D54AE48AF497C007D0A1201C88D5575FC
:1011EF00560A90009CE0FF75F00A84F557EF75F0F2
:1011FF000A8485F0587D0A7F1B806F9000D7E064CA
:10120F0001702D9000CAE0FF75F06484FBEF75F05C
:10121F000A8475F00A8485F054E075F00A8485F02D
:10122F005575560A75570A75580A7D0A7F1A803AFE
:10123F00122765784A7C007D007E007F0712011619
:10124F00E54CC4540FFFE54C540FFDE54BC4540F50
:10125F00F554E54B540FF55575560CE54AC4540F2C
:10126F00F557E54A540FF5587B0C1224A89000CA85
:10127F00E0C3945040067E007FFF801190009CE0F9
:10128F00C3944B7E0040047F8180027F1802277237
:10209D009000D8E0603A1226FBEF703490009FE07C
:1020AD00C39408400AE49000D8F090009FF022906D
:1020BD00009FE0FF04F0EF25E024BBF582E434211E
:1020CD00F583E493FE740193FF7D167C00121C943E
:0120DD0022E0
:100A8200122757783E7C007D007E007F0A120116F5
:100A92009000C8E544F0A3E545F0C39414E54494FE
:100AA200004068900097E0606290009BE004F09440
:100AB20002405DE4900097F090009BF0A3E0FF9469
:100AC2005050067E507F50800090009CEFF012271D
:100AD2001DEF700BFB7A00791A7D04FC1222CA7D8D
:100AE200147C007FB07E04121C949000C87F011217
:100AF2002507754C0C754BFE754AFF7549FF754D00
:100B020000754EB47F0112229A8005E490009BF09A
:100B1200900097E07022D39000C9E0940F9000C833
:100B2200E09400501390009AE004F0C39414400D36
:100B32009000977401F08000E490009AF012209DDA
:100B420012119FE47BF47A01F9F89000CC12039E13
:100B52001202D4AC00AD01AE02AF03E4FBFAF9F825
:100B6200C3120366707A122728EF7074FB7A007939
:100B72002A9000CC12039E121F3E9000C8A3E0F5FB
:100B82002E7A00792FAD43AC421227077A007931D1
:100B9200E4FDFC1227077A0079331227077A0079DD
:100BA20035122707E4F537F5389000CAE0F5399099
:100BB200009CE0F53A9000D0E060047F0180027F63
:100BC200008F3B7B007A00793C90009DE0FCA3E023
:100BD200FD1227077A00792A755B147F101219CE4D
:010BE20022F0
:1025B2009000CC12039EEF2401FFE43EFEE43DFDB9
:0925C200E43CFC9000CC0203BAD9
:100D130078237C007D007BFF7A2179CB7E007F07DF
:100D23001201169000CA7432F09000977401F0908B
:100D330000D574A5F0A3745AF01225977D07E4FF3C
:100D430012273CE4FF1227721225417F98122207D3
:100D530012248812266F12252412255E782A7C001D
:100D63007D007B007A0079237E007F071201161233
:100D7300129F7F0112257BEF7F00FEC007C006E4B0
:100D830012257BEFFDD0E0FFD0E04D90009DCFF02A
:100D9300A3EFF07F807E257D007C00121D0C752F54
:100DA30000753000753100E4F532F5337B017A00CC
:100DB30079967D01FC122269E4F52E7F807E25FD64
:100DC300FC121722752F017530007531D57532006D
:100DD3007533027B017A0079D17D047C00122238BD
:100DE3007BFF7A2579B2E4FF121C177BFF7A0A791D
:100DF300827F02121C177BFF7A2179D27F04121C97
:100E0300177BFF7A2679EF7F07121C177BFF7A1D6A
:100E130079837F05121C177BFF7A2479E87F0612FA
:100E23001C177BFF7A1679577F09121C177BFF7AF1
:080E33002379277F0A021C1736
:0B271200120D1312277812215D80FBCE
:092733008B88898C88898F8889C4
:10108A005200E58686008686008686008686008669
:09109A0086008686004100DA0997
:03002B0002276C3D
:06276C0053BCEFD20F3256
:0208D60015719A
:1008D800200F03020A7FC20F9000D9E0B40900403C
:1008E80003020A619008F3F828287302093A0209FA
:1008F8000E02092002094C02090E020920020963AE
:1009080002090E020920AFBDEFFEADBE7C00E42D4A
:10091800FFEC3E9000DB803CAFBDEFFEADBE7C003F
:10092800E42DFFEC3E9000DDF0A3EFF0751E010210
:100938000A67AFBDEFFEADBE7C00E42DFFEC3E9034
:1009480000DF8010AFBDEFFEADBE7C00E42DFFECF4
:100958003E9000E1F0A3EFF0020A67AFBDEFFEADF5
:10096800BE7C00E42DFFEC3E9000E3F0A3EFF09096
:1009780000E3E0FEA3E07807CEC313CE13D8F9A8AE
:1009880071F6C394065013A871E675F003A424E524
:10099800F582E43400F583E014F09000DAE014F016
:1009A8006003020A677409F0A871E4F6A871E6FF0B
:1009B800C394064003020A67EF75F003A424E5F523
:1009C80082E43400F583E0C39480502AE6FF75F092
:1009D80003A424E6F582E43400F583E0D394804050
:1009E80040EF75F003A424E7F582E43400F583743E
:1009F80001F0F51F802BA871E6FF75F003A424E62B
:100A0800F582E43400F583E0C394805014EF75F068
:100A180003A424E7F582E43400F5837402F0751F1B
:100A280001A871E6FF75F003A424E5F582E434001B
:100A3800F583E0FEEF75F003A424E6F582E43400C4
:100A4800F583EEF0E675F003A424E5F582E43400BE
:100A5800F5837486F0060209B49000D974FFF0900B
:100A680000D9E0D39407400374FFF09000D9E00464
:070A7800F090273393F5BC59
:030A7F00057122DC
:02269C001571B6
:09269E00A871A61FE4F51FE6FF78
:0326A70005712298
:0226AA001571A8
:0926AC00A871A61EE4F51EE6FF6C
:0326B5000571228A
:102207008F9D75BC88439720D2AD90004574FFF031
:10221700A37408F0A374D6F0A374FFF0A37426F098
:10222700A3749CF0A374FFF0A37426F0A374AAF020
:012237002284
:072757007B017A0079DB220F
:101FCD00C3EF64809480403BD3EF6480948550339D
:101FDD00EFFD3395E0FC9000E775F003ED1203C6BD
:101FED00EC75F003A42583F583E0FE9000E775F012
:101FFD0003ED1203C6EC75F003A42583F583E4F01D
:05200D00AF06227F0375
:0120120022AB
:0423A6001571157127
:1023AA00122745A871A60608A607A871E6FE08E640
:0F23BA00FF4E600BEF24FFFFEE34FFFE12274EA5
:0523C900057105712201
:1024880053B1EF43B21012003EE4F5D975DA49D2E0
:10249800DE90003F74FFF0A37423F0A374A6F0222B
:081C94008E488F498C4A8D4BEC
:101C9C00122745EF4E7066AF4BAE4A12274EC3E586
:101CAC0049940AE5489400404BE47B18FAF9F89003
:101CBC00219B1203AA1202D4C006C007AE48AF493A
:101CCC00AB07AA06E4F9F8D007D0061202D4AB078A
:101CDC00AA06AFF9EFFEADE97C00E42DFFEC3ECF98
:101CEC002BCF3AAD07FCAF03AE0212263FD2D8433E
:0F1CFC00DA01800612003E53DAFE7F02227F03D8
:011D0B0022B5
:0C26FB00122745EF4E7002FF227F0122E3
:10148A00E4F58090013CE0FFB40800505F90149EA0
:10149A00F82828730214B60214BC0214C20214C833
:1014AA000214CE0214D80214E20214ECC2A3C2A29D
:1014BA008016C2A3C2A2801AC2A3C2A2801EC2A35D
:1014CA00C2A28022C2A3D2A2C2A1C2A08020C2A369
:1014DA00D2A2C2A1D2A08016C2A3D2A2D2A1C2A075
:1014EA00800CC2A3D2A2D2A1D2A08002D2A3C3EFFF
:1014FA0064809488502990013CE0FF3395E0FE74A3
:10150A00332FF58274013EF583E0FF3395E0FE74D4
:10151A009F2FF58274213EF583E493F580801E9017
:10152A00013CE0FFB408133395E0FE74332FF582D3
:10153A0074013EF583E0F5808003E4F58090013282
:10154A00E0FF90013CE004FEF0D3EF6480F8EE6423
:10155A0080984014E0D36480948850047408F02280
:09156A00900131E090013CF022F7
:10259700E4F5937594FF5395F043960F90002A74D2
:0B25A700FFF0A37414F0A3748AF0226C
:09273C00900131EFF0A3EDF02251
:1024A800900133EFF0A3EDF0A3EBF0A3E554F0A314
:1024B800E555F0A3E556F0A3E557F0A3E558F0225B
:0627720090013BEFF02294
:1010A300016E00410153004101500541015183414B
:0310B30001528364
:10201300209206900151E014F0900150E014F0700A
:10202300347405F0A3E0FFC39480500EA3E09480C2
:102033004018A37401F0F56E8010900152E0C39430
:10204300805007A37402F0756E01900152EFF09077
:0520530001517483F04F
:012058002265
:0226B80015719A
:0926BA00A871A66EE4F56EE6FFBE
:0326C3000571227C
:1025240090003674FFF0A37426F0A374B8F0900002
:0D2534003374FFF0A37420F0A37413F022A1
:07000300900153E0FFE4F05F
:01000A0022D3
:1010B600016F0049013E9494009494009494004179
:0310C600013D1ECB
:020F6100157108
:100F630020B20690013EE014F020B306900141E068
:100F730014F0209706900144E014F090013DE01432
:100F8300F06003021081741EF0A871E4F6A871E604
:100F9300FFC3648094834003021081EF3395E0FE26
:100FA30090013E75F003EF1203C6EE75F003A4251E
:100FB30083F583E0C39480503990013F75F003EFCC
:100FC3001203C6EE75F003A42583F583E0D3948062
:100FD300405AE6FF3395E0FE90014075F003EF12AF
:100FE30003C6EE75F003A42583F5837401F0F56F52
:100FF300803AA871E6FF3395E0FE90013F75F00358
:10100300EF1203C6EE75F003A42583F583E0C394C2
:1010130080501990014075F003EF1203C6EE75F08E
:1010230003A42583F5837402F0756F01A871E6FFAD
:10103300FD3395E0FC90013E75F003ED1203C6EC21
:1010430075F003A42583F583E0FE90013F75F0035B
:10105300ED1203C6EC75F003A42583F583EEF0EFE0
:101063003395E0FE90013E75F003EF1203C6EE7573
:0E107300F003A42583F5837494F006020F9019
:03108100057122D4
:0226C60015718C
:0926C800A871A66FE4F56FE6FFAE
:0326D1000571226E
:1025410090003074FFF0A37426F0A374C6F09000DD
:0D2551002D74FFF0A3740FF0A37461F0224D
:1020DE00EF600764016003BF0233EFFD3395E0FC50
:1020EE0090014075F003ED1203C6EC75F003A425C4
:1020FE0083F583E0FE90014075F003ED1203C6EC0C
:0F210E0075F003A42583F583E4F0AF06227F0369
:01211D00229F
:1010C9004100000A4100290A41006D0A040E00008E
:1010D90000000114004600670000FFFF8FFFC10DEB
:1010E900C105C108C101C10E60240005FF0029FF27
:1010F9000029FF0029FF0029FF0029FF0029FF001F
:1011090029FF0029FF0029FF0029FF0029FF0029E5
:101119006036002AFF0029FF0029FF0026FF002969
:10112900FF0026FF0029FF0026FF0029FF0029FFF5
:101139000029FF0026FF0026FF0026FF0026FF00EA
:0A11490029FF0029FF0029FF0029FB
:0100290022B4
:030026007F002236
:101F8600438E805389F07BE07A287901780090218E
:101F96009B1203AA122059EFF404F58A7BE07A28F3
:101FA6007901780090219B1203AA122059C3E49F5D
:101FB600FFE49EFE74019DFDE49CFC780812038AF2
:071FC6008F8CD28CD2A922FE
:03000B00021EECE6
:041EEC00C0E0C0D0C2
:101EF000D5080A75084C300D020514D20DA20372E4
:101F0000045036150AE50A7030850C0AD207300AEB
:101F100017E50D6007150D438F01801D538FFEC21D
:101F2000B5D51615C20A8011050BE50BD3940640F2
:091F300008C203E5136002D206A9
:051F3900D0D0D0E03221
:101E9900300E47C20E90219B1203AA781012038AB2
:101EA9008E6A8F6B900003E0FEA3E0FFE4FCFD7BEC
:101EB90019FAF9F8120249C006C007AE6AAF6BAB4E
:101EC90007AA06E4F9F8D007D006122059780312B8
:101ED900038A900065EEF0A3EFF0900065E0FEA3A1
:021EE900E0FF18
:011EEB0022D4
:09274500900067E0FEA3E0FF2212
:09274E00900067EEF0A3EFF02209
:10263F0090006BEEF0A3EFF0900069ECF0A3EDF0DB
:01264F002268
:03003E00C2B42227
:03003B0002188127
:10188100C0E0C083C082C0D075D000C004C005C014
:0318910006C00787
:1018940030DF04C2DF807D30DA04C2DA807630D9EA
:1018A4003DC2D9AFFBEFFEADEB7C00E42DFFEC3E77
:1018B40020000E900001F0A3EFF075DB11D2008040
:1018C40053FE900001E0FCA3E0FDC3EF9DFFEE9CFE
:1018D400A3F0A3EFF075DB00C200D20E803630D83F
:1018E40033C2D8900067E07002A3E06022B2B490E3
:1018F4000069E0FEA3E0F5EAEEF5FAA3E0FEA3E05A
:10190400FF90006AE02FF0900069E03EF08005C28D
:04191400B453DAFEF0
:10191800D007D006D005D004D0D0D082D083D0E074
:01192800328C
:06277800121F86D2AF2201
:101B8C003004047F0180027F00200A047E01800261
:101B9C007E00EE5F6074E515C3950950683002361F
:101BAC00750D01E515131313541FAB17AA18A919BA
:101BBC00F582758300120155FFE515540704FEEFFD
:101BCC00A806088002C333D8FC30D70575160380ED
:101BDC002F751601802AAB17AA18A91975F002E502
:101BEC0015A4F58285F083120155F50DE51575F0F8
:101BFC0002A429F9EA35F0FA900001120155F51604
:0A1C0C000515D20A22C204438F100E
:011C160022AB
:10139D00900000E014F0701F740AF0D2059000293F
:1013AD00E014F07012740AF0D20890006DE014F0A1
:1013BD007005740AF0D20190002AA3E0FAA3E0F9B7
:1013CD0012040890002DA3E0FAA3E0F9120408908E
:1013DD000039A3E0FAA3E0F9120408900045A3E058
:1013ED00FAA3E0F9120408900054A3E0FAA3E0F97F
:1013FD0012040890005DA3E0FAA3E0F9120408902E
:10140D00004BA3E0FAA3E0F9120408EF600C900082
:10141D001DA3E0FAA3E0F912040890004EA3E0FA30
:10142D00A3E0F9120408EF600E900020A3E0FAA3E8
:10143D00E0F9120408D20BE512D394004016D51230
:10144D003030090C900023A3E0FAA3E0F912040850
:10145D00D20C801D900051A3E0FAA3E0F91204080C
:10146D00EF600E900023A3E0FAA3E0F9120408D276
:0D147D000C900005A3E0FAA3E0F9020408BA
:101A6D0090003FA3E0FAA3E0F9120408900042A30E
:101A7D00E0FAA3E0F9120408900033A3E0FAA3E022
:101A8D00F9120408900008A3E0FAA3E0F912040883
:101A9D00900030A3E0FAA3E0F9120408EF600C9077
:101AAD000011A3E0FAA3E0F9120408900036A3E0B8
:101ABD00FAA3E0F9120408EF600C900017A3E0FA06
:101ACD00A3E0F9120408900048A3E0FAA3E0F9128C
:101ADD000408EF600C90001AA3E0FAA3E0F91204D9
:101AED000830060EC206900026A3E0FAA3E0F91214
:031AFD00040822B8
:10211E0090000BA3E0FAA3E0F912040890003CA390
:10212E00E0FAA3E0F9120408EF600C900014A3E0AB
:10213E00FAA3E0F9120408900057A3E0FAA3E0F91D
:0F214E0012040890005AA3E0FAA3E0F902040873
:10235200AF11AE10AD0FAC0E9000601203BA900038
:1023620064E514F0E4F511F510F50FF50EF514908F
:0B237200000EA3E0FAA3E0F90204084B
:10215D00300705C207121B8C300D05C20D12139DE1
:10216D00300505C205121A6D300805C20812211E70
:10217D00300105C201122352E5112401F511E43598
:0E218D0010F510E4350FF50FE4350EF50E22B7
:101C17008B2A8A2B892CEFB40C005070901C2AF861
:101C2700282873021C4E021C53021C58021C5D021A
:101C37001C62021C67021C6C021C71021C76021CCF
:101C47007B021C80021C859000058035900008806F
:101C57003090000B802B90000E8026900011802181
:101C6700900017801C900014801790001A80129023
:101C7700001D800D900020800890002380039000B5
:0D1C870026E52AF0A3E52BF0A3E52CF022C2
:07275E007B017A0079602283
:07115300017000410154008E
:0D002E0020A4097570019001547401F022A6
:0226D40015717E
:0926D600A871A670E4F570E6FF9E
:0326DF0005712260
:10255E0090003C74FFF0A37426F0A374D4F09000A6
:0D256E003974FFF0A37400F0A3742EF02266
:022660001571F2
:0A266200900154E0A871F6FFE4F0C7
:03266C00057122D3
:100E3B0000C400DC00F701060126014A017201889B
:100E4B0001B801EE020B024B029302E40310037094
:100E5B0003DC04160497052605C800DC00F7011512
:100E6B000126014A0172019F01B801EE022A024BD1
:100E7B00029302E4033F037003DC04550497052639
:100E8B0005C8067D00F701150137014A0172019F64
:100E9B0001D201EE022A026E029302E4033F03A485
:100EAB0003DC045504DD057505C8067D07490106FD
:100EBB000126014A015D018801B801EE020B024BCC
:100ECB00029302BA0310037003DC04160497052681
:100EDB000575062006E007B80126014A0172018854
:100EEB0001B801EE022A024B029302E403100370D5
:100EFB0003DC04550497052605C8062006E007B851
:100F0B0008AA014A0172019F01B801EE022A026E82
:100F1B00029302E4033F037003DC045504DD052652
:100F2B0005C8067D06E007B808AA09B9015D018866
:100F3B0001B801D2020B024B029302BA03100370E9
:100F4B0003A40416049705260575062006E0074939
:060F5B00082D092D0A4DCE
:10115A004D01240300000000000000000000000010
:0617D7008F2A8D2B8B2CE4
:1017DD001226FBEF60037F0122E52CD39400400617
:1017ED00E52C94114028E52CD394174006E52C9454
:1017FD0021401BE52CD394274006E52C9431400E57
:10180D00E52CD394375007E52AC394F950037F0391
:10181D0022E52C603DC4540F75F007A4FDACF0E536
:10182D002A75F015A42DFFE5F03CFEE52C54077C40
:10183D00002FFFEC3EFEEF25E0FFEE33FE74512F3F
:10184D00F58274E53EF583E493F52E740193F52F3F
:10185D008005E4F52EF52FAF2D7E007C017D7712EE
:10186D0001B6AD2B1C1201C8AD07AC06AF2FAE2EC5
:03187D00121C94A6
:011880002245
:04040E0015711571DE
:100412001226FBEF70047F0180027F00900124E02E
:10042200FEB402047D0180027D00ED5F60030206DE
:10043200FFEEB4030AE4900122F0A3F00206FF905B
:100442000125E0FFB4F3047E0180027E00EFB4F1E7
:10045200047F0180027F00EF4E603E900127E0FEA4
:1004620075F06484FFEE75F00A8475F00A84ADF0CD
:10047200E075F00A84ABF075540A900126E0240777
:10048200F555900121E0FEC4540F240AF556755724
:100492000AEE5407F5581224A8900125E0FFB4F3A0
:1004A200047E0180027E00EFB4F2047F0180027FAD
:1004B20000EF4E7003020558900127E0FD7C007E9C
:1004C200177F701201C8A871A607E6F975F002A499
:1004D200FFC3900130E09F90012FE095F05070E053
:1004E200FEA3E0FF7C007D0B1201B6E9FBFD1201C9
:1004F200C8A87108A60790012FE475F00112023313
:10050200FED3E5F09BEE94004018A87108E624F9AA
:10051200FFE47EF0A807088005CEC313CE13D8F9F6
:10052200801FA87108E6FF740F7E00A807088005E7
:10053200C333CE33CED8F97804CEA2E713CE13D884
:10054200F8A87108F6A87108E6FF1227728007E47E
:1005520090012FF0A3F090012BE0FEA3E0FFC390E7
:10056200012EE09F90012DE09E40030206F9122623
:10057200FBEF60030206FF900128E0FBA3E0FAA371
:10058200E0F990012DE0FEA3E0F5828E8312015581
:10059200FFD394375003020694EF241024FC5079C1
:1005A200604524FE700302063F14700302065524C0
:1005B200026003020683900128E0FBA3E0FAA3E0B5
:1005C200F990012DE475F00112021D85F082F58388
:1005D200120155900126F090012EE004F0709890DF
:1005E200012DE004F08090900128E0FBA3E0FAA343
:1005F200E0F990012DE475F00112021D85F082F5FB
:1006020083120155900127F090012EE004F0706EE4
:1006120090012DE004F0020579900128E0FBA3E0AF
:10062200FAA3E0F990012DE475F00112023385F08E
:1006320082F583120155900125F002057990012D72
:10064200E475F00112021DAFF0900122F0A3EFF069
:10065200020579900122E0FEA3E0FF4E60129001B4
:100662002DEEF0A3EFF0E4900122F0A3F002057961
:1006720090012EE004F0700690012DE004F00205D6
:100682007990012EE004F0700690012DE004F00252
:10069200057990012BE0FEA3E0FFC390012EE09FBD
:1006A20090012DE09E5056900128E0FBA3E0FAA3B2
:1006B200E0F990012DE475F00112023385F082F524
:1006C20083120155900121F0900126E0FFA3E0FD85
:1006D200A3E0FBA3E0FAA3E0F990012DE475F00199
:1006E20012023385F082F583120155F52D90012116
:0D06F200E0FB1217D780069001247403F07E
:0506FF000571057122E8
:0F266F0090004274FFF0A37404F0A3740EF022E5
:101E4100900124E0B4030DE490012DF0A3F0A3F080
:101E5100A3F0C210EF6004900127F0ED600490013F
:101E610026F0E94A60047F0180027F00E56845674A
:101E710060047E0180027E00EE5F6013900128EB1A
:101E8100F0A3EAF0A3E9F0A3E567F0A3E568F0E5C4
:081E9100696004900125F022B4
:1023CE00BF02047E0180027E00BF01047D018002F7
:1023DE007D00ED4EFEBF03047D0180027D00ED4EBB
:0823EE006005900124EFF022CC
:06277E00900124E0FF229F
:04116A0041014F01EF
:1025CB00C295E4FEEF1392CC000000D29500EFC34E
:0825DB0013FFC2950EBE08ECCF
:0125E30022D5
:10261500E4FEEFC313FF30CC03430780D2950000DF
:0726250000C2950EBE08EB98
:01262C00228B
:1022F900F07F8512230CA3EFF07F8712230CA3EF45
:03230900F07F89D9
:10230C00C296000000C295000000D296001225CBA8
:0A231C00122615D295000000C296AB
:012326002294
:0324C800A3E0FD91
:1024CB00C296000000C295000000D296001225CBE8
:0D24DB00AF051225CBD295000000C296225D
:072765007B017A0179482293
:1025E40078487C017D017B007A0079317E007F0789
:0925F400120116E490014FF022DF
:10262D00EFD3941F5009EF25E044C1FF02230C7F27
:02263D00012278
:10237D00AC07AB05ECD3941F501CE4FD7F8E1224EB
:10238D00CBEC25E044C0FFAD031224CB7D807F8EC6
:09239D001224CB7F00227F0122F3
:02192900157136
:10192B0090014FE060447F8112230CA871EFF69079
:10193B000148E06F70030219CBA871E6F07F8312A8
:10194B00230CA871EFF6A3E06F6075A871E6122265
:10195B00F9A3EFF07F8D12230C90014EEFF07F8BEC
:10196B0012230C90014DEFF08056900147E0FF04DD
:10197B00F0EFC3940A4049E4F090014F04F0E4FD0A
:10198B007F8E1224CB900148E0FD7F801224CB7F09
:10199B00821224C87F841224C8A3E0FD7F86122400
:1019AB00CBA3E0FD7F881224CBA3E0FD7F8A12241A
:1019BB00CBA3E0FD7F8C1224CB7D807F8E1224CBBA
:0319CB0005712281
:10129F007F8112230C900148EFF07F8312230CA360
:1012AF00EF1222F9A3EFF07F8B12230CA3EFF07F45
:1012BF008D12230CA3EFF0E4FD7F8E1224CB7F1E43
:1012CF0012262DEF64A560047F0180027F0090013C
:1012DF0048E05480FEA3E0D3945940047D0180027E
:1012EF007D00ED4EFE90014AE0D394A440047D01B1
:1012FF0080027D00ED4EFE90014BE0D3943140040F
:10130F007D0180027D00ED4EFE90014CE0D39412E2
:10131F0040047D0180027D00ED4EFE90014DE0D333
:10132F00940740047D0180027D00ED4EFE90014E3A
:10133F00E0D3949940047D0180027D00ED4E4F6013
:10134F003078317C007D007B007A00792A7E007F27
:10135F00071201161225E47DA57F1E12237D784802
:10136F007C017D017B007A00792A7E007F071201C4
:10137F00167DA97F901224CB7D807F8E1224CB9077
:0E138F00005A74FFF0A37419F0A37429F02221
:10265000D2C0000000D2CD000000C2C000000022A5
:0D26E200C2C0000000D2CD000000D2C02216
:0B241E00122442122429AF05122442B0
:10242900E4FFD2CD30C009EFC394FF50030F80F40D
:08243900000000C2CD0000000C
:012441002278
:10244200E4FEEF25E0FFC2CD00000092C0000000D4
:10245200D2CD0000000EBE08E9C2CD000000D2C0FD
:0324620000000077
:012465002254
:10246600C2CD000000D2C000E4FED2CD0000EF25B0
:10247600E0FDA2C0E4334DFF0000C2CD000EBE0851
:01248600E96C
:012487002232
:10000E00AC071226507FA0122442122429AF0412EC
:05001E00241E0226E291
:02257B00AD07AA
:10257D001226507FA012241E1226507FA112244233
:09258D001224291224661226E230
:012596002222
:10116E005500F70000000000000000000000000025
:08117E00000001000000000068
:03004300020704AD
:10070400C0E0C0F0C083C082C0D075D000C000C0BB
:1007140001C002C003C004C005C006C007E59A308A
:10072400E142539AFD9000FCE0FEA3E0FFC3900079
:10073400FBE09F9000FAE09E501F9000F7E0FBA3BF
:10074400E0FAA3E0F9A3E475F00112023385F08224
:10075400F583120155F59B800B9000FEE4F0E56DE6
:100764006002C2B7E59A20E0030208BB539AFE3048
:100774000C0BC20C900104E4F0A3F0D209E56D6403
:10078400026003020815900102E0FEA3E0FFA3E06B
:10079400FCA3E0FDC39FEC9E50719000FFE0FBA31F
:1007A400E0FAA3E0F98D828C83E59B120194900119
:1007B4000AE0FEA3E0FFC3ED9FEC9E5040900102CF
:1007C400E0FCA3E0FDEF9DEE9C5032900107E0FBBE
:1007D400A3E0FAA3E0F9900104E0FEA3E0FFF582B0
:1007E4008E83120155FD9000FFE0FBA3E0FAA3E025
:1007F400F98F828E831201556D6002C20990010542
:10080400E004F07006900104E004F0856C12020824
:10081400BB900102E0FEA3E0FFA3E0FCA3E0FDC364
:100824009FEC9E50779000FFE0FBA3E0FAA3E0F971
:100834008D828C83E59B12019490010AE0FEA3E073
:10084400FFC3ED9FEC9E5046900102E0FCA3E0FD47
:10085400EF9DEE9C5038900107E0FBA3E0FAA3E083
:10086400F9900104E0FEA3E0FFF5828E83120155A6
:10087400FD9000FFE0FBA3E0FAA3E0F98F828E83F2
:100884001201556D600890010474FFF0A3F090010B
:1008940005E004F07006900104E004F0900102E029
:1008A400FEA3E0FFC3900105E09F900104E09E4099
:1008B400069001067401F0D007D006D005D004D00C
:1008C40003D002D001D000D0D0D082D083D0F0D0D9
:0208D400E03210
:02267E001571D4
:0A268000900106E0A871F6FFE4F0F7
:03268A00057122B5
:01002A0022B3
:101722008F2D8E2C8D2B8C2A852E6DE56D7002806F
:101732000343BA01E56D701790005D74FFF0A37466
:1017420000F0A3742AF0E4F5DBD290D2918020C29B
:10175200B7AB2DAA2CA92BA82AE47F407E9CFDFCC6
:101762001202D48F6CE56C7003756C01856C127576
:101772009A10E47B04FAF9F890219B1203AA120250
:10178200D4AB2DAA2CA92BA82A1202D4EFF404F56B
:10179200D7E47B04FAF9F890219B1203AA1202D42F
:1017A200AB2DAA2CA92BA82A1202D4C3E49FFFE4D2
:1017B2009EFE74019DFDE49CFC78081203778FD68F
:1017C200438E1443AF0190005174FFF0A37426F0CE
:0517D200A3747EF0226B
:102238009000FFEBF0A3EAF0A3E9F0A3ECF0A3ED24
:10224800F090010AE532F0A3E533F0900107E52F9D
:10225800F0A3E530F0A3E531F0D20CE4900106F0EC
:012268002253
:1022CA009000FEE070269000F7EBF0A3EAF0A3E995
:1022DA00F0E4A3F0A3F0A3ECF0A3EDF0A37401F0F3
:0F22EA00E56D6002D2B7439A027F02227F032282
:0B271D009000FEE07002FF227F01220E
:1011860055010C00000000000000000000000000F7
:08119600000001000000000050
:03002300020BE3EA
:100BE300C0E0C0F0C083C082C0D075D000C000C0D8
:100BF30001C002C003C004C005C006C00730993B52
:100C0300C299900111E0FEA3E0FFC3900110E09FA1
:100C130090010FE09E501F90010CE0FBA3E0FAA3AC
:100C2300E0F9A3E475F00112023385F082F5831233
:100C33000155F5998005900113E4F0209803020C07
:100C4300F8C298300B09C20B900119E4F0A3F0909D
:100C53000117E0FEA3E0FFA3E0FCA3E0FDC39FECCC
:100C63009E5077900114E0FBA3E0FAA3E0F98D8294
:100C73008C83E59912019490011FE0FEA3E0FFC36A
:100C8300ED9FEC9E5046900117E0FCA3E0FDEF9D25
:100C9300EE9C503890011CE0FBA3E0FAA3E0F9902E
:100CA3000119E0FEA3E0FFF5828E83120155FD904A
:100CB3000114E0FBA3E0FAA3E0F98F828E83120113
:100CC300556D600890011974FFF0A3F090011AE0CC
:100CD30004F07006900119E004F0900117E0FEA300
:100CE300E0FFC390011AE09F900119E09E40069037
:100CF300011B7401F0D007D006D005D004D003D077
:100D030002D001D000D0D0D082D083D0F0D0E03256
:02268D001571C5
:0A268F0090011BE0A871F6FFE4F0D3
:03269900057122A6
:101D0C008F2D8E2C8D2B8C2A759850438E40538E94
:101D1C00FE53890FE47B04FAF9F890219B1203AA75
:101D2C001202D4AB2DAA2CA92BA82A1202D4EFF4A0
:101D3C0004F58BE47B04FAF9F890219B1203AA12A8
:101D4C0002D4AB2DAA2CA92BA82A1202D4C3E49F2F
:101D5C00FFE49EFE74019DFDE49CFC780812037761
:101D6C008F8DC2ABD28ED2AC90004E74FFF0A374A8
:071D7C0026F0A3748DF02294
:10226900900114EBF0A3EAF0A3E9F0A3ECF0A3EDDD
:10227900F090011FE532F0A3E533F090011CE52F42
:10228900F0A3E530F0A3E531F0D20BE490011BF0A7
:012299002222
:1023F600900113E0701F90010CEBF0A3EAF0A3E943
:10240600F0E4A3F0A3F0A3ECF0A3EDF0A37401F0C5
:08241600D2997F02227F03220C
:0B272800900113E07002FF227F0122ED
:03000000021B00E0
:0C1B0000787FE4F6D8FD758171021B4768
:10004600E709F608DFFA8046E709F208DFFA803E9C
:1000560088828C83E709F0A3DFFA8032E309F60889
:10006600DFFA8078E309F208DFFA807088828C83F1
:10007600E309F0A3DFFA806489828A83E0A3F608A5
:10008600DFFA805889828A83E0A3F208DFFA804C7F
:1000960080D280FA80C680D4806980F28033801056
:1000A60080A680EA809A80A880DA80E280CA8033BF
:1000B60089828A83ECFAE493A3C8C582C8CCC58337
:1000C600CCF0A3C8C582C8CCC583CCDFE9DEE78007
:1000D6000D89828A83E493A3F608DFF9ECFAA9F086
:1000E600EDFB2289828A83ECFAE0A3C8C582C8CCDC
:1000F600C583CCF0A3C8C582C8CCC583CCDFEADEF5
:10010600E880DB89828A83E493A3F208DFF980CC56
:1001160088F0EF60010E4E60C388F0ED2402B4044F
:100126000050B9F582EB2402B4040050AF232345F6
:0601360082239000967385
:10013C00BB010689828A83E0225002E722BBFE02C1
:09014C00E32289828A83E49322F4
:10015500BB010CE58229F582E5833AF583E022505F
:1001650006E92582F8E622BBFE06E92582F8E222A9
:0D017500E58229F582E5833AF583E49322C3
:10018200BB010689828A83F0225002F722BBFE015C
:02019200F32256
:10019400F8BB010DE58229F582E5833AF583E8F0A1
:1001A400225006E92582C8F622BBFE05E92582C84D
:0201B400F22235
:1001B600EF8DF0A4A8F0CF8CF0A428CE8DF0A42E5D
:0201C600FE2217
:1001C800BC000BBE0029EF8DF084FFADF022E4CC1B
:1001D800F875F008EF2FFFEE33FEEC33FCEE9DECE4
:1001E800984005FCEE9DFE0FD5F0E9E4CEFD22ED2A
:1001F800F8F5F0EE8420D21CFEADF075F008EF2F74
:10020800FFED33FD4007985006D5F0F222C398FD64
:050218000FD5F0EA2201
:10021D00C5F0F8A3E028F0C5F0F8E582158270026C
:06022D001583E038F02209
:10023300A3F8E0C5F025F0F0E5821582700215837E
:06024300E0C838F0E822DB
:10024900E88FF0A4CC8BF0A42CFCE98EF0A42CFC54
:100259008AF0EDA42CFCEA8EF0A4CDA8F08BF0A4D2
:100269002DCC3825F0FDE98FF0A42CCD35F0FCEB31
:100279008EF0A4FEA9F0EB8FF0A4CFC5F02ECD39F6
:0F028900FEE43CFCEAA42DCE35F0FDE43CFC2263
:1002980075F008758200EF2FFFEE33FECD33CDCC1D
:1002A80033CCC58233C5829BED9AEC99E5829840A0
:1002B8000CF582EE9BFEED9AFDEC99FC0FD5F0D67D
:1002C800E4CEFBE4CDFAE4CCF9A88222B800C1B9A7
:1002D8000059BA002DEC8BF084CFCECDFCE5F0CBE5
:1002E800F97818EF2FFFEE33FEED33FDEC33FCEB1E
:1002F80033FB10D703994004EB99FB0FD8E5E4F9D9
:10030800FA227818EF2FFFEE33FEED33FDEC33FCC5
:10031800C933C910D7059BE99A4007EC9BFCE99AB9
:10032800F90FD8E0E4C9FAE4CCFB2275F010EF2FFE
:10033800FFEE33FEED33FDCC33CCC833C810D707FE
:100348009BEC9AE899400AED9BFDEC9AFCE899F839
:0E0358000FD5F0DAE4CDFBE4CCFAE4C8F922CC
:10205900C2D5E830E70FB2D5E4C39BFBE49AFAE4B2
:1020690099F9E498F8EC30E717B2D512208F1202EB
:10207900D4E4C39BFBE49AFAE499F9E498F8800361
:102089001202D430D50DE4C39FFFE49EFEE49DFD0A
:04209900E49CFC22A5
:10036600EB9FF5F0EA9E42F0E99D42F0E89C45F0ED
:010376002264
:10037700E8600FECC313FCED13FDEE13FEEF13FF64
:03038700D8F12288
:10038A00E86010ECA2E713FCED13FDEE13FEEF1389
:04039A00FFD8F02276
:0C039E00E0FCA3E0FDA3E0FEA3E0FF22D2
:1003AA00E493FC740193FD740293FE740393FF2299
:0C03BA00ECF0A3EDF0A3EEF0A3EFF022B6
:0C03C600A42582F582E5F03583F5832242
:1003D200FAE6FB0808E6F925F0F618E6CA3AF6222C
:1003E200D083D082F8E4937012740193700DA3A3AA
:1003F20093F8740193F5828883E4737402936860BE
:06040200EFA3A3A380DFBD
:060408008A838982E4737F
:101B0C00022712E493A3F8E493A34003F68001F2B6
:101B1C0008DFF48029E493A3F85407240CC8C333DA
:101B2C00C4540F4420C8834004F456800146F6DFA9
:101B3C00E4800B0102040810204080901084E47EA5
:101B4C00019360BCA3FF543F30E509541FFEE4939E
:101B5C00A360010ECF54C025E060A840B8E493A365
:101B6C00FAE493A3F8E493A3C8C582C8CAC583CA90
:101B7C00F0A3C8C582C8CAC583CADFE9DEE780BE48
:01119E000050
:00000001FF
